{
  "contractName": "BaseDistributor",
  "abi": [
    {
      "inputs": [],
      "name": "INDEX_ID",
      "outputs": [
        {
          "internalType": "uint32",
          "name": "",
          "type": "uint32"
        }
      ],
      "stateMutability": "view",
      "type": "function",
      "constant": true
    },
    {
      "inputs": [
        {
          "internalType": "contract ISuperToken",
          "name": "",
          "type": "address"
        },
        {
          "internalType": "address",
          "name": "",
          "type": "address"
        },
        {
          "internalType": "bytes32",
          "name": "",
          "type": "bytes32"
        },
        {
          "internalType": "bytes",
          "name": "",
          "type": "bytes"
        },
        {
          "internalType": "bytes",
          "name": "",
          "type": "bytes"
        },
        {
          "internalType": "bytes",
          "name": "",
          "type": "bytes"
        }
      ],
      "name": "afterAgreementTerminated",
      "outputs": [
        {
          "internalType": "bytes",
          "name": "",
          "type": "bytes"
        }
      ],
      "stateMutability": "nonpayable",
      "type": "function"
    },
    {
      "inputs": [
        {
          "internalType": "contract ISuperToken",
          "name": "",
          "type": "address"
        },
        {
          "internalType": "address",
          "name": "",
          "type": "address"
        },
        {
          "internalType": "bytes32",
          "name": "",
          "type": "bytes32"
        },
        {
          "internalType": "bytes",
          "name": "",
          "type": "bytes"
        },
        {
          "internalType": "bytes",
          "name": "",
          "type": "bytes"
        }
      ],
      "name": "beforeAgreementTerminated",
      "outputs": [
        {
          "internalType": "bytes",
          "name": "",
          "type": "bytes"
        }
      ],
      "stateMutability": "view",
      "type": "function",
      "constant": true
    },
    {
      "inputs": [
        {
          "internalType": "address",
          "name": "",
          "type": "address"
        }
      ],
      "name": "isSubscribing",
      "outputs": [
        {
          "internalType": "bool",
          "name": "",
          "type": "bool"
        }
      ],
      "stateMutability": "view",
      "type": "function",
      "constant": true
    },
    {
      "inputs": [],
      "name": "owner",
      "outputs": [
        {
          "internalType": "address",
          "name": "",
          "type": "address"
        }
      ],
      "stateMutability": "view",
      "type": "function",
      "constant": true
    },
    {
      "inputs": [],
      "name": "totalDonations",
      "outputs": [
        {
          "internalType": "uint256",
          "name": "",
          "type": "uint256"
        }
      ],
      "stateMutability": "view",
      "type": "function",
      "constant": true
    },
    {
      "inputs": [],
      "name": "totalShareUnits",
      "outputs": [
        {
          "internalType": "uint128",
          "name": "",
          "type": "uint128"
        }
      ],
      "stateMutability": "view",
      "type": "function",
      "constant": true
    },
    {
      "inputs": [
        {
          "internalType": "contract ISuperfluid",
          "name": "host",
          "type": "address"
        },
        {
          "internalType": "contract IInstantDistributionAgreementV1",
          "name": "ida",
          "type": "address"
        },
        {
          "internalType": "address",
          "name": "emitterAdd",
          "type": "address"
        },
        {
          "internalType": "address",
          "name": "_owner",
          "type": "address"
        },
        {
          "internalType": "address",
          "name": "_fDAIx",
          "type": "address"
        },
        {
          "internalType": "address",
          "name": "_fUSDCx",
          "type": "address"
        },
        {
          "internalType": "address",
          "name": "_fTUSDx",
          "type": "address"
        },
        {
          "internalType": "address",
          "name": "_erc1820Add",
          "type": "address"
        }
      ],
      "name": "initialize",
      "outputs": [],
      "stateMutability": "nonpayable",
      "type": "function"
    },
    {
      "inputs": [],
      "name": "initalize2",
      "outputs": [],
      "stateMutability": "nonpayable",
      "type": "function"
    },
    {
      "inputs": [
        {
          "internalType": "address",
          "name": "user",
          "type": "address"
        }
      ],
      "name": "sharesOf",
      "outputs": [
        {
          "internalType": "uint128",
          "name": "",
          "type": "uint128"
        }
      ],
      "stateMutability": "view",
      "type": "function",
      "constant": true
    },
    {
      "inputs": [
        {
          "internalType": "contract ISuperToken",
          "name": "superToken",
          "type": "address"
        },
        {
          "internalType": "address",
          "name": "agreementClass",
          "type": "address"
        },
        {
          "internalType": "bytes32",
          "name": "",
          "type": "bytes32"
        },
        {
          "internalType": "bytes",
          "name": "",
          "type": "bytes"
        },
        {
          "internalType": "bytes",
          "name": "",
          "type": "bytes"
        }
      ],
      "name": "beforeAgreementCreated",
      "outputs": [
        {
          "internalType": "bytes",
          "name": "data",
          "type": "bytes"
        }
      ],
      "stateMutability": "view",
      "type": "function",
      "constant": true
    },
    {
      "inputs": [
        {
          "internalType": "contract ISuperToken",
          "name": "superToken",
          "type": "address"
        },
        {
          "internalType": "address",
          "name": "",
          "type": "address"
        },
        {
          "internalType": "bytes32",
          "name": "agreementId",
          "type": "bytes32"
        },
        {
          "internalType": "bytes",
          "name": "",
          "type": "bytes"
        },
        {
          "internalType": "bytes",
          "name": "",
          "type": "bytes"
        },
        {
          "internalType": "bytes",
          "name": "ctx",
          "type": "bytes"
        }
      ],
      "name": "afterAgreementCreated",
      "outputs": [
        {
          "internalType": "bytes",
          "name": "newCtx",
          "type": "bytes"
        }
      ],
      "stateMutability": "nonpayable",
      "type": "function"
    },
    {
      "inputs": [
        {
          "internalType": "contract ISuperToken",
          "name": "superToken",
          "type": "address"
        },
        {
          "internalType": "address",
          "name": "agreementClass",
          "type": "address"
        },
        {
          "internalType": "bytes32",
          "name": "",
          "type": "bytes32"
        },
        {
          "internalType": "bytes",
          "name": "",
          "type": "bytes"
        },
        {
          "internalType": "bytes",
          "name": "",
          "type": "bytes"
        }
      ],
      "name": "beforeAgreementUpdated",
      "outputs": [
        {
          "internalType": "bytes",
          "name": "data",
          "type": "bytes"
        }
      ],
      "stateMutability": "view",
      "type": "function",
      "constant": true
    },
    {
      "inputs": [
        {
          "internalType": "contract ISuperToken",
          "name": "superToken",
          "type": "address"
        },
        {
          "internalType": "address",
          "name": "",
          "type": "address"
        },
        {
          "internalType": "bytes32",
          "name": "agreementId",
          "type": "bytes32"
        },
        {
          "internalType": "bytes",
          "name": "",
          "type": "bytes"
        },
        {
          "internalType": "bytes",
          "name": "",
          "type": "bytes"
        },
        {
          "internalType": "bytes",
          "name": "ctx",
          "type": "bytes"
        }
      ],
      "name": "afterAgreementUpdated",
      "outputs": [
        {
          "internalType": "bytes",
          "name": "newCtx",
          "type": "bytes"
        }
      ],
      "stateMutability": "nonpayable",
      "type": "function"
    },
    {
      "inputs": [
        {
          "internalType": "address",
          "name": "newUser",
          "type": "address"
        },
        {
          "internalType": "uint128",
          "name": "sharePercentage",
          "type": "uint128"
        }
      ],
      "name": "addUser",
      "outputs": [],
      "stateMutability": "nonpayable",
      "type": "function"
    },
    {
      "inputs": [
        {
          "internalType": "address",
          "name": "existingUser",
          "type": "address"
        },
        {
          "internalType": "uint128",
          "name": "sharePercentage",
          "type": "uint128"
        }
      ],
      "name": "modifyUser",
      "outputs": [],
      "stateMutability": "nonpayable",
      "type": "function"
    },
    {
      "inputs": [
        {
          "internalType": "address",
          "name": "existingUser",
          "type": "address"
        }
      ],
      "name": "removeUser",
      "outputs": [],
      "stateMutability": "nonpayable",
      "type": "function"
    },
    {
      "inputs": [
        {
          "internalType": "address",
          "name": "operator",
          "type": "address"
        },
        {
          "internalType": "address",
          "name": "from",
          "type": "address"
        },
        {
          "internalType": "address",
          "name": "to",
          "type": "address"
        },
        {
          "internalType": "uint256",
          "name": "amount",
          "type": "uint256"
        },
        {
          "internalType": "bytes",
          "name": "userData",
          "type": "bytes"
        },
        {
          "internalType": "bytes",
          "name": "operatorData",
          "type": "bytes"
        }
      ],
      "name": "tokensReceived",
      "outputs": [],
      "stateMutability": "nonpayable",
      "type": "function"
    }
  ],
  "bytecode": "0x608060405260006001556000600260006101000a8154816fffffffffffffffffffffffffffffffff02191690836fffffffffffffffffffffffffffffffff16021790555034801561004f57600080fd5b50614c1c8061005f6000396000f3fe608060405234801561001057600080fd5b50600436106101155760003560e01c8063884d1f40116100a2578063915e336411610071578063915e3364146102de578063985751881461030e578063d86ed3e51461032a578063de2ed8931461035a578063f5eb42dc1461037857610115565b8063884d1f40146102565780638a29e2de146102865780638c7f0959146102a25780638da5cb5b146102c057610115565b806353c11f99116100e957806353c11f99146101b45780635f9e7d77146101e45780637df2077e1461021457806380e85c511461021e5780638378f8c01461023a57610115565b806223de291461011a578063230dbd291461013657806330d9c915146101665780635167f6e714610196575b600080fd5b610134600480360381019061012f919061389a565b6103a8565b005b610150600480360381019061014b9190613b01565b6104ab565b60405161015d91906142a9565b60405180910390f35b610180600480360381019061017b9190613a51565b61050d565b60405161018d91906142a9565b60405180910390f35b61019e610620565b6040516101ab9190614562565b60405180910390f35b6101ce60048036038101906101c99190613b01565b610642565b6040516101db91906142a9565b60405180910390f35b6101fe60048036038101906101f99190613a51565b61067f565b60405161020b91906142a9565b60405180910390f35b61021c6106bc565b005b6102386004803603810190610233919061395d565b610faf565b005b610254600480360381019061024f919061395d565b611418565b005b610270600480360381019061026b9190613a51565b611a11565b60405161027d91906142a9565b60405180910390f35b6102a0600480360381019061029b9190613be0565b611b24565b005b6102aa611ed1565b6040516102b79190614637565b60405180910390f35b6102c8611ed6565b6040516102d591906140ee565b60405180910390f35b6102f860048036038101906102f39190613871565b611efc565b604051610305919061426a565b60405180910390f35b61032860048036038101906103239190613871565b611f1c565b005b610344600480360381019061033f9190613b01565b612308565b60405161035191906142a9565b60405180910390f35b61036261236a565b60405161036f91906145c2565b60405180910390f35b610392600480360381019061038d9190613871565b612370565b60405161039f9190614562565b60405180910390f35b84600160008282546103ba919061473b565b925050819055506103cb85336123d5565b600060029054906101000a900473ffffffffffffffffffffffffffffffffffffffff1673ffffffffffffffffffffffffffffffffffffffff1663aeed6fd288600460003373ffffffffffffffffffffffffffffffffffffffff1673ffffffffffffffffffffffffffffffffffffffff16815260200190815260200160002088600030426040518763ffffffff1660e01b815260040161046f969594939291906141a1565b600060405180830381600087803b15801561048957600080fd5b505af115801561049d573d6000803e3d6000fd5b505050505050505050505050565b60606104b98a84848b61279f565b82828080601f016020809104026020016040519081016040528093929190818152602001838380828437600081840152601f19601f8201169050808301925050505050505090509998505050505050505050565b6060600c60009054906101000a900473ffffffffffffffffffffffffffffffffffffffff1673ffffffffffffffffffffffffffffffffffffffff168773ffffffffffffffffffffffffffffffffffffffff161461059f576040517f08c379a0000000000000000000000000000000000000000000000000000000008152600401610596906144a2565b60405180910390fd5b600067ffffffffffffffff8111156105e0577f4e487b7100000000000000000000000000000000000000000000000000000000600052604160045260246000fd5b6040519080825280601f01601f1916602001820160405280156106125781602001600182028036833780820191505090505b509050979650505050505050565b600260009054906101000a90046fffffffffffffffffffffffffffffffff1681565b60606040517f08c379a000000000000000000000000000000000000000000000000000000000815260040161067690614542565b60405180910390fd5b60606040517f08c379a00000000000000000000000000000000000000000000000000000000081526004016106b390614482565b60405180910390fd5b3373ffffffffffffffffffffffffffffffffffffffff16600560009054906101000a900473ffffffffffffffffffffffffffffffffffffffff1673ffffffffffffffffffffffffffffffffffffffff161461074c576040517f08c379a0000000000000000000000000000000000000000000000000000000008152600401610743906144c2565b60405180910390fd5b600d60009054906101000a900473ffffffffffffffffffffffffffffffffffffffff1673ffffffffffffffffffffffffffffffffffffffff166329965a1d307fb281fc8c12954d22544db45de3159a39272895b169a852b314f9cc762e44c53b306040518463ffffffff1660e01b81526004016107cb93929190614109565b600060405180830381600087803b1580156107e557600080fd5b505af11580156107f9573d6000803e3d6000fd5b505050506000642000000000641000000000600117179050600b60009054906101000a900473ffffffffffffffffffffffffffffffffffffffff1673ffffffffffffffffffffffffffffffffffffffff1663ad3915c8826040518263ffffffff1660e01b815260040161086c91906145c2565b600060405180830381600087803b15801561088657600080fd5b505af115801561089a573d6000803e3d6000fd5b50505050600b60009054906101000a900473ffffffffffffffffffffffffffffffffffffffff1673ffffffffffffffffffffffffffffffffffffffff166339255d5b600c60009054906101000a900473ffffffffffffffffffffffffffffffffffffffff1663d787840a60e01b600760009054906101000a900473ffffffffffffffffffffffffffffffffffffffff1660008067ffffffffffffffff81111561096c577f4e487b7100000000000000000000000000000000000000000000000000000000600052604160045260246000fd5b6040519080825280601f01601f19166020018201604052801561099e5781602001600182028036833780820191505090505b506040516024016109b1939291906143d8565b604051602081830303815290604052907bffffffffffffffffffffffffffffffffffffffffffffffffffffffff19166020820180517bffffffffffffffffffffffffffffffffffffffffffffffffffffffff8381831617835250505050600067ffffffffffffffff811115610a4f577f4e487b7100000000000000000000000000000000000000000000000000000000600052604160045260246000fd5b6040519080825280601f01601f191660200182016040528015610a815781602001600182028036833780820191505090505b506040518463ffffffff1660e01b8152600401610aa0939291906142cb565b600060405180830381600087803b158015610aba57600080fd5b505af1158015610ace573d6000803e3d6000fd5b505050506040513d6000823e3d601f19601f82011682018060405250810190610af79190613a10565b50600b60009054906101000a900473ffffffffffffffffffffffffffffffffffffffff1673ffffffffffffffffffffffffffffffffffffffff166339255d5b600c60009054906101000a900473ffffffffffffffffffffffffffffffffffffffff1663d787840a60e01b600860009054906101000a900473ffffffffffffffffffffffffffffffffffffffff1660008067ffffffffffffffff811115610bc6577f4e487b7100000000000000000000000000000000000000000000000000000000600052604160045260246000fd5b6040519080825280601f01601f191660200182016040528015610bf85781602001600182028036833780820191505090505b50604051602401610c0b939291906143d8565b604051602081830303815290604052907bffffffffffffffffffffffffffffffffffffffffffffffffffffffff19166020820180517bffffffffffffffffffffffffffffffffffffffffffffffffffffffff8381831617835250505050600067ffffffffffffffff811115610ca9577f4e487b7100000000000000000000000000000000000000000000000000000000600052604160045260246000fd5b6040519080825280601f01601f191660200182016040528015610cdb5781602001600182028036833780820191505090505b506040518463ffffffff1660e01b8152600401610cfa939291906142cb565b600060405180830381600087803b158015610d1457600080fd5b505af1158015610d28573d6000803e3d6000fd5b505050506040513d6000823e3d601f19601f82011682018060405250810190610d519190613a10565b50600b60009054906101000a900473ffffffffffffffffffffffffffffffffffffffff1673ffffffffffffffffffffffffffffffffffffffff166339255d5b600c60009054906101000a900473ffffffffffffffffffffffffffffffffffffffff1663d787840a60e01b600960009054906101000a900473ffffffffffffffffffffffffffffffffffffffff1660008067ffffffffffffffff811115610e20577f4e487b7100000000000000000000000000000000000000000000000000000000600052604160045260246000fd5b6040519080825280601f01601f191660200182016040528015610e525781602001600182028036833780820191505090505b50604051602401610e65939291906143d8565b604051602081830303815290604052907bffffffffffffffffffffffffffffffffffffffffffffffffffffffff19166020820180517bffffffffffffffffffffffffffffffffffffffffffffffffffffffff8381831617835250505050600067ffffffffffffffff811115610f03577f4e487b7100000000000000000000000000000000000000000000000000000000600052604160045260246000fd5b6040519080825280601f01601f191660200182016040528015610f355781602001600182028036833780820191505090505b506040518463ffffffff1660e01b8152600401610f54939291906142cb565b600060405180830381600087803b158015610f6e57600080fd5b505af1158015610f82573d6000803e3d6000fd5b505050506040513d6000823e3d601f19601f82011682018060405250810190610fab9190613a10565b5050565b3373ffffffffffffffffffffffffffffffffffffffff16600560009054906101000a900473ffffffffffffffffffffffffffffffffffffffff1673ffffffffffffffffffffffffffffffffffffffff161461103f576040517f08c379a0000000000000000000000000000000000000000000000000000000008152600401611036906144c2565b60405180910390fd5b6000600360008473ffffffffffffffffffffffffffffffffffffffff1673ffffffffffffffffffffffffffffffffffffffff16815260200190815260200160002060009054906101000a90046fffffffffffffffffffffffffffffffff166fffffffffffffffffffffffffffffffff16146110ef576040517f08c379a00000000000000000000000000000000000000000000000000000000081526004016110e6906144e2565b60405180910390fd5b6000816fffffffffffffffffffffffffffffffff1611611144576040517f08c379a000000000000000000000000000000000000000000000000000000000815260040161113b90614462565b60405180910390fd5b600080600260009054906101000a90046fffffffffffffffffffffffffffffffff166fffffffffffffffffffffffffffffffff16146111c35781606461118a919061480c565b600260009054906101000a90046fffffffffffffffffffffffffffffffff16836111b491906147c2565b6111be9190614791565b6111c6565b60645b90506111d28382612a9c565b80600260008282829054906101000a90046fffffffffffffffffffffffffffffffff166111ff91906146f5565b92506101000a8154816fffffffffffffffffffffffffffffffff02191690836fffffffffffffffffffffffffffffffff16021790555080600360008573ffffffffffffffffffffffffffffffffffffffff1673ffffffffffffffffffffffffffffffffffffffff16815260200190815260200160002060006101000a8154816fffffffffffffffffffffffffffffffff02191690836fffffffffffffffffffffffffffffffff160217905550600060029054906101000a900473ffffffffffffffffffffffffffffffffffffffff1673ffffffffffffffffffffffffffffffffffffffff1663e028b05d848360003042600260009054906101000a90046fffffffffffffffffffffffffffffffff166040518763ffffffff1660e01b815260040161132f96959493929190614209565b600060405180830381600087803b15801561134957600080fd5b505af115801561135d573d6000803e3d6000fd5b50505050600060029054906101000a900473ffffffffffffffffffffffffffffffffffffffff1673ffffffffffffffffffffffffffffffffffffffff166326d35089600260009054906101000a90046fffffffffffffffffffffffffffffffff16600030426040518563ffffffff1660e01b81526004016113e1949392919061457d565b600060405180830381600087803b1580156113fb57600080fd5b505af115801561140f573d6000803e3d6000fd5b50505050505050565b3373ffffffffffffffffffffffffffffffffffffffff16600560009054906101000a900473ffffffffffffffffffffffffffffffffffffffff1673ffffffffffffffffffffffffffffffffffffffff16146114a8576040517f08c379a000000000000000000000000000000000000000000000000000000000815260040161149f906144c2565b60405180910390fd5b6000600360008473ffffffffffffffffffffffffffffffffffffffff1673ffffffffffffffffffffffffffffffffffffffff16815260200190815260200160002060009054906101000a90046fffffffffffffffffffffffffffffffff166fffffffffffffffffffffffffffffffff161415611559576040517f08c379a000000000000000000000000000000000000000000000000000000000815260040161155090614522565b60405180910390fd5b6000816fffffffffffffffffffffffffffffffff16116115ae576040517f08c379a00000000000000000000000000000000000000000000000000000000081526004016115a590614462565b60405180910390fd5b6000600360008473ffffffffffffffffffffffffffffffffffffffff1673ffffffffffffffffffffffffffffffffffffffff16815260200190815260200160002060009054906101000a90046fffffffffffffffffffffffffffffffff166fffffffffffffffffffffffffffffffff16600260009054906101000a90046fffffffffffffffffffffffffffffffff166fffffffffffffffffffffffffffffffff16146116fe57816064611661919061480c565b6116e4600260009054906101000a90046fffffffffffffffffffffffffffffffff16600360008773ffffffffffffffffffffffffffffffffffffffff1673ffffffffffffffffffffffffffffffffffffffff16815260200190815260200160002060009054906101000a90046fffffffffffffffffffffffffffffffff1661341c565b836116ef91906147c2565b6116f99190614791565b611701565b60645b905061170d8382612a9c565b600360008473ffffffffffffffffffffffffffffffffffffffff1673ffffffffffffffffffffffffffffffffffffffff16815260200190815260200160002060009054906101000a90046fffffffffffffffffffffffffffffffff16600260008282829054906101000a90046fffffffffffffffffffffffffffffffff16611795919061480c565b92506101000a8154816fffffffffffffffffffffffffffffffff02191690836fffffffffffffffffffffffffffffffff16021790555080600260008282829054906101000a90046fffffffffffffffffffffffffffffffff166117f891906146f5565b92506101000a8154816fffffffffffffffffffffffffffffffff02191690836fffffffffffffffffffffffffffffffff16021790555080600360008573ffffffffffffffffffffffffffffffffffffffff1673ffffffffffffffffffffffffffffffffffffffff16815260200190815260200160002060006101000a8154816fffffffffffffffffffffffffffffffff02191690836fffffffffffffffffffffffffffffffff160217905550600060029054906101000a900473ffffffffffffffffffffffffffffffffffffffff1673ffffffffffffffffffffffffffffffffffffffff1663c207fd9a848360003042600260009054906101000a90046fffffffffffffffffffffffffffffffff166040518763ffffffff1660e01b815260040161192896959493929190614209565b600060405180830381600087803b15801561194257600080fd5b505af1158015611956573d6000803e3d6000fd5b50505050600060029054906101000a900473ffffffffffffffffffffffffffffffffffffffff1673ffffffffffffffffffffffffffffffffffffffff166326d35089600260009054906101000a90046fffffffffffffffffffffffffffffffff16600030426040518563ffffffff1660e01b81526004016119da949392919061457d565b600060405180830381600087803b1580156119f457600080fd5b505af1158015611a08573d6000803e3d6000fd5b50505050505050565b6060600c60009054906101000a900473ffffffffffffffffffffffffffffffffffffffff1673ffffffffffffffffffffffffffffffffffffffff168773ffffffffffffffffffffffffffffffffffffffff1614611aa3576040517f08c379a0000000000000000000000000000000000000000000000000000000008152600401611a9a906144a2565b60405180910390fd5b600067ffffffffffffffff811115611ae4577f4e487b7100000000000000000000000000000000000000000000000000000000600052604160045260246000fd5b6040519080825280601f01601f191660200182016040528015611b165781602001600182028036833780820191505090505b509050979650505050505050565b85600060026101000a81548173ffffffffffffffffffffffffffffffffffffffff021916908373ffffffffffffffffffffffffffffffffffffffff16021790555084600560006101000a81548173ffffffffffffffffffffffffffffffffffffffff021916908373ffffffffffffffffffffffffffffffffffffffff16021790555080600d60006101000a81548173ffffffffffffffffffffffffffffffffffffffff021916908373ffffffffffffffffffffffffffffffffffffffff16021790555083600760006101000a81548173ffffffffffffffffffffffffffffffffffffffff021916908373ffffffffffffffffffffffffffffffffffffffff1602179055506040518060400160405280600581526020017f6644414978000000000000000000000000000000000000000000000000000000815250600460008673ffffffffffffffffffffffffffffffffffffffff1673ffffffffffffffffffffffffffffffffffffffff1681526020019081526020016000209080519060200190611cb09291906134d7565b5082600860006101000a81548173ffffffffffffffffffffffffffffffffffffffff021916908373ffffffffffffffffffffffffffffffffffffffff1602179055506040518060400160405280600681526020017f6655534443780000000000000000000000000000000000000000000000000000815250600460008573ffffffffffffffffffffffffffffffffffffffff1673ffffffffffffffffffffffffffffffffffffffff1681526020019081526020016000209080519060200190611d7a9291906134d7565b5081600960006101000a81548173ffffffffffffffffffffffffffffffffffffffff021916908373ffffffffffffffffffffffffffffffffffffffff1602179055506040518060400160405280600681526020017f6654555344780000000000000000000000000000000000000000000000000000815250600460008473ffffffffffffffffffffffffffffffffffffffff1673ffffffffffffffffffffffffffffffffffffffff1681526020019081526020016000209080519060200190611e449291906134d7565b5087600b60006101000a81548173ffffffffffffffffffffffffffffffffffffffff021916908373ffffffffffffffffffffffffffffffffffffffff16021790555086600c60006101000a81548173ffffffffffffffffffffffffffffffffffffffff021916908373ffffffffffffffffffffffffffffffffffffffff1602179055505050505050505050565b600081565b600560009054906101000a900473ffffffffffffffffffffffffffffffffffffffff1681565b600e6020528060005260406000206000915054906101000a900460ff1681565b3373ffffffffffffffffffffffffffffffffffffffff16600560009054906101000a900473ffffffffffffffffffffffffffffffffffffffff1673ffffffffffffffffffffffffffffffffffffffff1614611fac576040517f08c379a0000000000000000000000000000000000000000000000000000000008152600401611fa3906144c2565b60405180910390fd5b6000600360008373ffffffffffffffffffffffffffffffffffffffff1673ffffffffffffffffffffffffffffffffffffffff16815260200190815260200160002060009054906101000a90046fffffffffffffffffffffffffffffffff166fffffffffffffffffffffffffffffffff16141561205d576040517f08c379a000000000000000000000000000000000000000000000000000000000815260040161205490614522565b60405180910390fd5b600360008273ffffffffffffffffffffffffffffffffffffffff1673ffffffffffffffffffffffffffffffffffffffff16815260200190815260200160002060009054906101000a90046fffffffffffffffffffffffffffffffff16600260008282829054906101000a90046fffffffffffffffffffffffffffffffff166120e5919061480c565b92506101000a8154816fffffffffffffffffffffffffffffffff02191690836fffffffffffffffffffffffffffffffff1602179055506000600360008373ffffffffffffffffffffffffffffffffffffffff1673ffffffffffffffffffffffffffffffffffffffff16815260200190815260200160002060006101000a8154816fffffffffffffffffffffffffffffffff02191690836fffffffffffffffffffffffffffffffff16021790555061219d816000612a9c565b600060029054906101000a900473ffffffffffffffffffffffffffffffffffffffff1673ffffffffffffffffffffffffffffffffffffffff1663b464319c826000803042600260009054906101000a90046fffffffffffffffffffffffffffffffff166040518763ffffffff1660e01b815260040161222196959493929190614140565b600060405180830381600087803b15801561223b57600080fd5b505af115801561224f573d6000803e3d6000fd5b50505050600060029054906101000a900473ffffffffffffffffffffffffffffffffffffffff1673ffffffffffffffffffffffffffffffffffffffff166326d35089600260009054906101000a90046fffffffffffffffffffffffffffffffff16600030426040518563ffffffff1660e01b81526004016122d3949392919061457d565b600060405180830381600087803b1580156122ed57600080fd5b505af1158015612301573d6000803e3d6000fd5b5050505050565b60606123168a84848b61279f565b82828080601f016020809104026020016040519081016040528093929190818152602001838380828437600081840152601f19601f8201169050808301925050505050505090509998505050505050505050565b60015481565b6000600360008373ffffffffffffffffffffffffffffffffffffffff1673ffffffffffffffffffffffffffffffffffffffff16815260200190815260200160002060009054906101000a90046fffffffffffffffffffffffffffffffff169050919050565b6000600c60009054906101000a900473ffffffffffffffffffffffffffffffffffffffff1673ffffffffffffffffffffffffffffffffffffffff1663899baaec83306000876040518563ffffffff1660e01b81526004016124399493929190614310565b604080518083038186803b15801561245057600080fd5b505afa158015612464573d6000803e3d6000fd5b505050506040513d601f19601f820116820180604052508101906124889190613cd3565b509050600b60009054906101000a900473ffffffffffffffffffffffffffffffffffffffff1673ffffffffffffffffffffffffffffffffffffffff166339255d5b600c60009054906101000a900473ffffffffffffffffffffffffffffffffffffffff1663b96731c260e01b85600086600067ffffffffffffffff811115612539577f4e487b7100000000000000000000000000000000000000000000000000000000600052604160045260246000fd5b6040519080825280601f01601f19166020018201604052801561256b5781602001600182028036833780820191505090505b5060405160240161257f9493929190614416565b604051602081830303815290604052907bffffffffffffffffffffffffffffffffffffffffffffffffffffffff19166020820180517bffffffffffffffffffffffffffffffffffffffffffffffffffffffff8381831617835250505050600067ffffffffffffffff81111561261d577f4e487b7100000000000000000000000000000000000000000000000000000000600052604160045260246000fd5b6040519080825280601f01601f19166020018201604052801561264f5781602001600182028036833780820191505090505b506040518463ffffffff1660e01b815260040161266e939291906142cb565b600060405180830381600087803b15801561268857600080fd5b505af115801561269c573d6000803e3d6000fd5b505050506040513d6000823e3d601f19601f820116820180604052508101906126c59190613a10565b50600060029054906101000a900473ffffffffffffffffffffffffffffffffffffffff1673ffffffffffffffffffffffffffffffffffffffff16634652ed8a8260003042600460008973ffffffffffffffffffffffffffffffffffffffff1673ffffffffffffffffffffffffffffffffffffffff1681526020019081526020016000206040518663ffffffff1660e01b81526004016127689594939291906145dd565b600060405180830381600087803b15801561278257600080fd5b505af1158015612796573d6000803e3d6000fd5b50505050505050565b6000600b60009054906101000a900473ffffffffffffffffffffffffffffffffffffffff1673ffffffffffffffffffffffffffffffffffffffff16633f6c923a85856040518363ffffffff1660e01b81526004016127fe929190614285565b60006040518083038186803b15801561281657600080fd5b505afa15801561282a573d6000803e3d6000fd5b505050506040513d6000823e3d601f19601f820116820180604052508101906128539190613c92565b905063acf4a6c260e01b7bffffffffffffffffffffffffffffffffffffffffffffffffffffffff191681608001517bffffffffffffffffffffffffffffffffffffffffffffffffffffffff19161415612a95576000806000806000600c60009054906101000a900473ffffffffffffffffffffffffffffffffffffffff1673ffffffffffffffffffffffffffffffffffffffff1663cd7245c58b896040518363ffffffff1660e01b815260040161290b929190614355565b60a06040518083038186803b15801561292357600080fd5b505afa158015612937573d6000803e3d6000fd5b505050506040513d601f19601f8201168201806040525081019061295b9190613999565b80955081965082975083985084995050505050503073ffffffffffffffffffffffffffffffffffffffff168573ffffffffffffffffffffffffffffffffffffffff16146129dd576040517f08c379a00000000000000000000000000000000000000000000000000000000081526004016129d490614502565b60405180910390fd5b600063ffffffff168463ffffffff1614612a2c576040517f08c379a0000000000000000000000000000000000000000000000000000000008152600401612a2390614502565b60405180910390fd5b8215612a8f576001600e6000886060015173ffffffffffffffffffffffffffffffffffffffff1673ffffffffffffffffffffffffffffffffffffffff16815260200190815260200160002060006101000a81548160ff0219169083151502179055505b50505050505b5050505050565b600b60009054906101000a900473ffffffffffffffffffffffffffffffffffffffff1673ffffffffffffffffffffffffffffffffffffffff166339255d5b600c60009054906101000a900473ffffffffffffffffffffffffffffffffffffffff1663232d2b5860e01b600760009054906101000a900473ffffffffffffffffffffffffffffffffffffffff1660008787600067ffffffffffffffff811115612b6d577f4e487b7100000000000000000000000000000000000000000000000000000000600052604160045260246000fd5b6040519080825280601f01601f191660200182016040528015612b9f5781602001600182028036833780820191505090505b50604051602401612bb495949392919061437e565b604051602081830303815290604052907bffffffffffffffffffffffffffffffffffffffffffffffffffffffff19166020820180517bffffffffffffffffffffffffffffffffffffffffffffffffffffffff8381831617835250505050600067ffffffffffffffff811115612c52577f4e487b7100000000000000000000000000000000000000000000000000000000600052604160045260246000fd5b6040519080825280601f01601f191660200182016040528015612c845781602001600182028036833780820191505090505b506040518463ffffffff1660e01b8152600401612ca3939291906142cb565b600060405180830381600087803b158015612cbd57600080fd5b505af1158015612cd1573d6000803e3d6000fd5b505050506040513d6000823e3d601f19601f82011682018060405250810190612cfa9190613a10565b50600b60009054906101000a900473ffffffffffffffffffffffffffffffffffffffff1673ffffffffffffffffffffffffffffffffffffffff166339255d5b600c60009054906101000a900473ffffffffffffffffffffffffffffffffffffffff1663232d2b5860e01b600860009054906101000a900473ffffffffffffffffffffffffffffffffffffffff1660008787600067ffffffffffffffff811115612dcc577f4e487b7100000000000000000000000000000000000000000000000000000000600052604160045260246000fd5b6040519080825280601f01601f191660200182016040528015612dfe5781602001600182028036833780820191505090505b50604051602401612e1395949392919061437e565b604051602081830303815290604052907bffffffffffffffffffffffffffffffffffffffffffffffffffffffff19166020820180517bffffffffffffffffffffffffffffffffffffffffffffffffffffffff8381831617835250505050600067ffffffffffffffff811115612eb1577f4e487b7100000000000000000000000000000000000000000000000000000000600052604160045260246000fd5b6040519080825280601f01601f191660200182016040528015612ee35781602001600182028036833780820191505090505b506040518463ffffffff1660e01b8152600401612f02939291906142cb565b600060405180830381600087803b158015612f1c57600080fd5b505af1158015612f30573d6000803e3d6000fd5b505050506040513d6000823e3d601f19601f82011682018060405250810190612f599190613a10565b50600b60009054906101000a900473ffffffffffffffffffffffffffffffffffffffff1673ffffffffffffffffffffffffffffffffffffffff166339255d5b600c60009054906101000a900473ffffffffffffffffffffffffffffffffffffffff1663232d2b5860e01b600960009054906101000a900473ffffffffffffffffffffffffffffffffffffffff1660008787600067ffffffffffffffff81111561302b577f4e487b7100000000000000000000000000000000000000000000000000000000600052604160045260246000fd5b6040519080825280601f01601f19166020018201604052801561305d5781602001600182028036833780820191505090505b5060405160240161307295949392919061437e565b604051602081830303815290604052907bffffffffffffffffffffffffffffffffffffffffffffffffffffffff19166020820180517bffffffffffffffffffffffffffffffffffffffffffffffffffffffff8381831617835250505050600067ffffffffffffffff811115613110577f4e487b7100000000000000000000000000000000000000000000000000000000600052604160045260246000fd5b6040519080825280601f01601f1916602001820160405280156131425781602001600182028036833780820191505090505b506040518463ffffffff1660e01b8152600401613161939291906142cb565b600060405180830381600087803b15801561317b57600080fd5b505af115801561318f573d6000803e3d6000fd5b505050506040513d6000823e3d601f19601f820116820180604052508101906131b89190613a10565b50600b60009054906101000a900473ffffffffffffffffffffffffffffffffffffffff1673ffffffffffffffffffffffffffffffffffffffff166339255d5b600c60009054906101000a900473ffffffffffffffffffffffffffffffffffffffff1663232d2b5860e01b600a60009054906101000a900473ffffffffffffffffffffffffffffffffffffffff1660008787600067ffffffffffffffff81111561328a577f4e487b7100000000000000000000000000000000000000000000000000000000600052604160045260246000fd5b6040519080825280601f01601f1916602001820160405280156132bc5781602001600182028036833780820191505090505b506040516024016132d195949392919061437e565b604051602081830303815290604052907bffffffffffffffffffffffffffffffffffffffffffffffffffffffff19166020820180517bffffffffffffffffffffffffffffffffffffffffffffffffffffffff8381831617835250505050600067ffffffffffffffff81111561336f577f4e487b7100000000000000000000000000000000000000000000000000000000600052604160045260246000fd5b6040519080825280601f01601f1916602001820160405280156133a15781602001600182028036833780820191505090505b506040518463ffffffff1660e01b81526004016133c0939291906142cb565b600060405180830381600087803b1580156133da57600080fd5b505af11580156133ee573d6000803e3d6000fd5b505050506040513d6000823e3d601f19601f820116820180604052508101906134179190613a10565b505050565b6000816fffffffffffffffffffffffffffffffff16836fffffffffffffffffffffffffffffffff16111561345d578183613456919061480c565b90506134d1565b816fffffffffffffffffffffffffffffffff16836fffffffffffffffffffffffffffffffff16101561349c578282613495919061480c565b90506134d1565b816fffffffffffffffffffffffffffffffff16836fffffffffffffffffffffffffffffffff1614156134d0578290506134d1565b5b92915050565b8280546134e3906149d3565b90600052602060002090601f016020900481019282613505576000855561354c565b82601f1061351e57805160ff191683800117855561354c565b8280016001018555821561354c579182015b8281111561354b578251825591602001919060010190613530565b5b509050613559919061355d565b5090565b5b8082111561357657600081600090555060010161355e565b5090565b600061358d61358884614683565b614652565b9050828152602081018484840111156135a557600080fd5b6135b08482856149a0565b509392505050565b6000813590506135c781614ad2565b92915050565b6000815190506135dc81614ad2565b92915050565b6000815190506135f181614ae9565b92915050565b60008135905061360681614b00565b92915050565b60008151905061361b81614b17565b92915050565b60008083601f84011261363357600080fd5b8235905067ffffffffffffffff81111561364c57600080fd5b60208301915083600182028301111561366457600080fd5b9250929050565b600082601f83011261367c57600080fd5b815161368c84826020860161357a565b91505092915050565b6000813590506136a481614b2e565b92915050565b6000813590506136b981614b45565b92915050565b6000813590506136ce81614b5c565b92915050565b6000815190506136e381614b73565b92915050565b600061014082840312156136fc57600080fd5b613707610140614652565b905060006137178482850161385c565b600083015250602061372b8482850161385c565b602083015250604061373f84828501613832565b6040830152506060613753848285016135cd565b60608301525060806137678482850161360c565b60808301525060a082015167ffffffffffffffff81111561378757600080fd5b6137938482850161366b565b60a08301525060c06137a784828501613832565b60c08301525060e06137bb84828501613832565b60e0830152506101006137d0848285016136d4565b610100830152506101206137e6848285016135cd565b6101208301525092915050565b60008135905061380281614b8a565b92915050565b60008151905061381781614b8a565b92915050565b60008135905061382c81614ba1565b92915050565b60008151905061384181614ba1565b92915050565b60008151905061385681614bb8565b92915050565b60008151905061386b81614bcf565b92915050565b60006020828403121561388357600080fd5b6000613891848285016135b8565b91505092915050565b60008060008060008060008060c0898b0312156138b657600080fd5b60006138c48b828c016135b8565b98505060206138d58b828c016135b8565b97505060406138e68b828c016135b8565b96505060606138f78b828c0161381d565b955050608089013567ffffffffffffffff81111561391457600080fd5b6139208b828c01613621565b945094505060a089013567ffffffffffffffff81111561393f57600080fd5b61394b8b828c01613621565b92509250509295985092959890939650565b6000806040838503121561397057600080fd5b600061397e858286016135b8565b925050602061398f858286016137f3565b9150509250929050565b600080600080600060a086880312156139b157600080fd5b60006139bf888289016135cd565b95505060206139d088828901613847565b94505060406139e1888289016135e2565b93505060606139f288828901613808565b9250506080613a0388828901613832565b9150509295509295909350565b600060208284031215613a2257600080fd5b600082015167ffffffffffffffff811115613a3c57600080fd5b613a488482850161366b565b91505092915050565b600080600080600080600060a0888a031215613a6c57600080fd5b6000613a7a8a828b016136aa565b9750506020613a8b8a828b016135b8565b9650506040613a9c8a828b016135f7565b955050606088013567ffffffffffffffff811115613ab957600080fd5b613ac58a828b01613621565b9450945050608088013567ffffffffffffffff811115613ae457600080fd5b613af08a828b01613621565b925092505092959891949750929550565b600080600080600080600080600060c08a8c031215613b1f57600080fd5b6000613b2d8c828d016136aa565b9950506020613b3e8c828d016135b8565b9850506040613b4f8c828d016135f7565b97505060608a013567ffffffffffffffff811115613b6c57600080fd5b613b788c828d01613621565b965096505060808a013567ffffffffffffffff811115613b9757600080fd5b613ba38c828d01613621565b945094505060a08a013567ffffffffffffffff811115613bc257600080fd5b613bce8c828d01613621565b92509250509295985092959850929598565b600080600080600080600080610100898b031215613bfd57600080fd5b6000613c0b8b828c016136bf565b9850506020613c1c8b828c01613695565b9750506040613c2d8b828c016135b8565b9650506060613c3e8b828c016135b8565b9550506080613c4f8b828c016135b8565b94505060a0613c608b828c016135b8565b93505060c0613c718b828c016135b8565b92505060e0613c828b828c016135b8565b9150509295985092959890939650565b600060208284031215613ca457600080fd5b600082015167ffffffffffffffff811115613cbe57600080fd5b613cca848285016136e9565b91505092915050565b60008060408385031215613ce657600080fd5b6000613cf485828601613832565b9250506020613d0585828601613808565b9150509250929050565b613d1881614840565b82525050565b613d2781614852565b82525050565b613d368161485e565b82525050565b6000613d4883856146d3565b9350613d55838584614991565b613d5e83614ac1565b840190509392505050565b6000613d74826146c8565b613d7e81856146d3565b9350613d8e8185602086016149a0565b613d9781614ac1565b840191505092915050565b613dab81614937565b82525050565b613dba8161495b565b82525050565b613dc98161497f565b82525050565b60008154613ddc816149d3565b613de681866146e4565b94506001821660008114613e015760018114613e1357613e46565b60ff1983168652602086019350613e46565b613e1c856146b3565b60005b83811015613e3e57815481890152600182019150602081019050613e1f565b808801955050505b50505092915050565b6000613e5c602c836146e4565b91507f53686172652050657263656e746167652073686f756c6420626520677265617460008301527f6572207468616e207a65726f00000000000000000000000000000000000000006020830152604082019050919050565b6000613ec26033836146e4565b91507f556e737570706f727465642063616c6c6261636b202d20204265666f7265204160008301527f677265656d656e74205465726d696e61746564000000000000000000000000006020830152604082019050919050565b6000613f28601a836146e4565b91507f4452543a20556e737570706f727465642061677265656d656e740000000000006000830152602082019050919050565b6000613f68601d836146e4565b91507f4f6e6c7920746865206f776e657220636f756c642075736520746869730000006000830152602082019050919050565b6000613fa86013836146e4565b91507f5573657220616c726561647920657869737473000000000000000000000000006000830152602082019050919050565b6000613fe86017836146e4565b91507f4452543a207075626c6973686572206d69736d617463680000000000000000006000830152602082019050919050565b60006140286012836146e4565b91507f5573657220646f65736e277420657869737400000000000000000000000000006000830152602082019050919050565b60006140686031836146e4565b91507f556e737570706f727465642063616c6c6261636b202d2041667465722041677260008301527f65656d656e74205465726d696e617465640000000000000000000000000000006020830152604082019050919050565b6140ca816148d4565b82525050565b6140d981614910565b82525050565b6140e88161491a565b82525050565b60006020820190506141036000830184613d0f565b92915050565b600060608201905061411e6000830186613d0f565b61412b6020830185613d2d565b6141386040830184613d0f565b949350505050565b600060c0820190506141556000830189613d0f565b6141626020830188613dc0565b61416f60408301876140df565b61417c6060830186613d0f565b61418960808301856140d0565b61419660a08301846140c1565b979650505050505050565b600060c0820190506141b66000830189613d0f565b81810360208301526141c88188613dcf565b90506141d760408301876140d0565b6141e460608301866140df565b6141f16080830185613d0f565b6141fe60a08301846140d0565b979650505050505050565b600060c08201905061421e6000830189613d0f565b61422b60208301886140c1565b61423860408301876140df565b6142456060830186613d0f565b61425260808301856140d0565b61425f60a08301846140c1565b979650505050505050565b600060208201905061427f6000830184613d1e565b92915050565b600060208201905081810360008301526142a0818486613d3c565b90509392505050565b600060208201905081810360008301526142c38184613d69565b905092915050565b60006060820190506142e06000830186613da2565b81810360208301526142f28185613d69565b905081810360408301526143068184613d69565b9050949350505050565b60006080820190506143256000830187613db1565b6143326020830186613d0f565b61433f60408301856140df565b61434c60608301846140d0565b95945050505050565b600060408201905061436a6000830185613db1565b6143776020830184613d2d565b9392505050565b600060a0820190506143936000830188613db1565b6143a060208301876140df565b6143ad6040830186613d0f565b6143ba60608301856140c1565b81810360808301526143cc8184613d69565b90509695505050505050565b60006060820190506143ed6000830186613db1565b6143fa60208301856140df565b818103604083015261440c8184613d69565b9050949350505050565b600060808201905061442b6000830187613db1565b61443860208301866140df565b61444560408301856140d0565b81810360608301526144578184613d69565b905095945050505050565b6000602082019050818103600083015261447b81613e4f565b9050919050565b6000602082019050818103600083015261449b81613eb5565b9050919050565b600060208201905081810360008301526144bb81613f1b565b9050919050565b600060208201905081810360008301526144db81613f5b565b9050919050565b600060208201905081810360008301526144fb81613f9b565b9050919050565b6000602082019050818103600083015261451b81613fdb565b9050919050565b6000602082019050818103600083015261453b8161401b565b9050919050565b6000602082019050818103600083015261455b8161405b565b9050919050565b600060208201905061457760008301846140c1565b92915050565b600060808201905061459260008301876140c1565b61459f60208301866140df565b6145ac6040830185613d0f565b6145b960608301846140d0565b95945050505050565b60006020820190506145d760008301846140d0565b92915050565b600060a0820190506145f260008301886140d0565b6145ff60208301876140df565b61460c6040830186613d0f565b61461960608301856140d0565b818103608083015261462b8184613dcf565b90509695505050505050565b600060208201905061464c60008301846140df565b92915050565b6000604051905081810181811067ffffffffffffffff8211171561467957614678614a92565b5b8060405250919050565b600067ffffffffffffffff82111561469e5761469d614a92565b5b601f19601f8301169050602081019050919050565b60008190508160005260206000209050919050565b600081519050919050565b600082825260208201905092915050565b600082825260208201905092915050565b6000614700826148d4565b915061470b836148d4565b9250826fffffffffffffffffffffffffffffffff038211156147305761472f614a05565b5b828201905092915050565b600061474682614910565b915061475183614910565b9250827fffffffffffffffffffffffffffffffffffffffffffffffffffffffffffffffff0382111561478657614785614a05565b5b828201905092915050565b600061479c826148d4565b91506147a7836148d4565b9250826147b7576147b6614a34565b5b828204905092915050565b60006147cd826148d4565b91506147d8836148d4565b9250816fffffffffffffffffffffffffffffffff048311821515161561480157614800614a05565b5b828202905092915050565b6000614817826148d4565b9150614822836148d4565b92508282101561483557614834614a05565b5b828203905092915050565b600061484b826148f0565b9050919050565b60008115159050919050565b6000819050919050565b60007fffffffff0000000000000000000000000000000000000000000000000000000082169050919050565b600061489f82614840565b9050919050565b60006148b182614840565b9050919050565b60006148c382614840565b9050919050565b6000819050919050565b60006fffffffffffffffffffffffffffffffff82169050919050565b600073ffffffffffffffffffffffffffffffffffffffff82169050919050565b6000819050919050565b600063ffffffff82169050919050565b600060ff82169050919050565b600061494282614949565b9050919050565b6000614954826148f0565b9050919050565b60006149668261496d565b9050919050565b6000614978826148f0565b9050919050565b600061498a826148d4565b9050919050565b82818337600083830152505050565b60005b838110156149be5780820151818401526020810190506149a3565b838111156149cd576000848401525b50505050565b600060028204905060018216806149eb57607f821691505b602082108114156149ff576149fe614a63565b5b50919050565b7f4e487b7100000000000000000000000000000000000000000000000000000000600052601160045260246000fd5b7f4e487b7100000000000000000000000000000000000000000000000000000000600052601260045260246000fd5b7f4e487b7100000000000000000000000000000000000000000000000000000000600052602260045260246000fd5b7f4e487b7100000000000000000000000000000000000000000000000000000000600052604160045260246000fd5b6000601f19601f8301169050919050565b614adb81614840565b8114614ae657600080fd5b50565b614af281614852565b8114614afd57600080fd5b50565b614b098161485e565b8114614b1457600080fd5b50565b614b2081614868565b8114614b2b57600080fd5b50565b614b3781614894565b8114614b4257600080fd5b50565b614b4e816148a6565b8114614b5957600080fd5b50565b614b65816148b8565b8114614b7057600080fd5b50565b614b7c816148ca565b8114614b8757600080fd5b50565b614b93816148d4565b8114614b9e57600080fd5b50565b614baa81614910565b8114614bb557600080fd5b50565b614bc18161491a565b8114614bcc57600080fd5b50565b614bd88161492a565b8114614be357600080fd5b5056fea2646970667358221220dd295291fd1ca6aa55b451ee2d673f4c31098f42bd458ff8c97942ea2ee509c364736f6c63430008000033",
  "immutableReferences": {},
  "source": "pragma solidity ^0.8.0;\npragma experimental ABIEncoderV2;\n\nimport './Emitter.sol';\n\nimport {\n    ISuperfluid,\n    ISuperToken,\n    SuperAppBase,\n    SuperAppDefinitions\n} from \"@superfluid-finance/ethereum-contracts/contracts/apps/SuperAppBase.sol\";\n//from \"https://github.com/superfluid-finance/protocol-monorepo/blob/remix-support/packages/ethereum-contracts/contracts/apps/SuperAppBase.sol\";\nimport {\n    IInstantDistributionAgreementV1\n} from \"@superfluid-finance/ethereum-contracts/contracts/interfaces/agreements/IInstantDistributionAgreementV1.sol\";\n//from \"https://github.com/superfluid-finance/protocol-monorepo/blob/remix-support/packages/ethereum-contracts/contracts/interfaces/agreements/IInstantDistributionAgreementV1.sol\";\n\nimport \"@openzeppelin/contracts/token/ERC777/IERC777.sol\";\nimport \"@openzeppelin/contracts/utils/introspection/IERC1820Registry.sol\";\nimport \"@openzeppelin/contracts/token/ERC777/IERC777Recipient.sol\";\nimport \"@openzeppelin/contracts/proxy/utils/Initializable.sol\";\n\n\n\ncontract BaseDistributor is IERC777Recipient,SuperAppBase,Initializable {\n    Emitter emitter;\n    uint256 public totalDonations=0;\n    uint128 public totalShareUnits=0;\n    mapping (address=>uint128) shareMapping;\n    mapping (address=>string) tokenNameMapping;\n\n    uint32 public constant INDEX_ID = 0;\n\n    address public owner;\n    ISuperToken private _cashToken;\n\n    ISuperToken private fDAIx;\n    ISuperToken private fUSDCx;\n    ISuperToken private fTUSDx;\n    ISuperToken private ETHx;\n\n    ISuperfluid private _host;\n    IInstantDistributionAgreementV1 private _ida;\n\n    IERC1820Registry private _erc1820;// = IERC1820Registry(0x1820a4B7618BdE71Dce8cdc73aAB6C95905faD24);\n    bytes32 constant private TOKENS_RECIPIENT_INTERFACE_HASH = keccak256(\"ERC777TokensRecipient\");\n\n    // use callbacks to track approved subscriptions\n    mapping (address => bool) public isSubscribing;\n\n    //Events\n    // event DonationReceived(address from, string token, uint256 amount,uint32 index,address publisher,uint timeStamp);\n    // event UserAdded(address userAddress,uint128 shares,uint32 index,address publisher,uint timeStamp,uint128 totalShares);\n    // event UserRemoved(address userAddress,uint128 shares,uint32 index,address publisher,uint timeStamp,uint128 totalShares);\n    // event UserModified(address userAddress,uint128 shares,uint32 index,address publisher,uint timeStamp,uint128 totalShares);\n    // event Distribution(uint256 amountDistributed,uint32 index,address publisher,uint timeStamp,string token);\n    // event TotalShares(uint128 totalShares,uint32 index,address publisher,uint timeStamp);\n\n    function initialize (\n        ISuperfluid host,\n        IInstantDistributionAgreementV1 ida,\n        address emitterAdd,\n        address _owner,\n        address _fDAIx,\n        address _fUSDCx,\n        address _fTUSDx,\n        \n        address _erc1820Add\n        ) public {\n\n        emitter = Emitter(emitterAdd);\n        owner = _owner;\n        _erc1820 = IERC1820Registry(_erc1820Add);\n        // transferOwnership(_owner);\n        \n\n         fDAIx = ISuperToken(_fDAIx);\n        tokenNameMapping[_fDAIx] = \"fDAIx\";\n\n         fUSDCx = ISuperToken(_fUSDCx);\n        tokenNameMapping[_fUSDCx] = \"fUSDCx\";\n\n         fTUSDx = ISuperToken(_fTUSDx);\n        tokenNameMapping[_fTUSDx] = \"fTUSDx\";\n\n        //  ETHx = ISuperToken(_ETHx);\n        // tokenNameMapping[_ETHx] = \"ETHx\";\n\n        \n        _host = host;\n        _ida = ida;\n    }\n\n    function initalize2() external onlyOwner{\n        _erc1820.setInterfaceImplementer(address(this), TOKENS_RECIPIENT_INTERFACE_HASH, address(this));\n\n        uint256 configWord =\n            SuperAppDefinitions.APP_LEVEL_FINAL |\n            SuperAppDefinitions.BEFORE_AGREEMENT_TERMINATED_NOOP |\n            SuperAppDefinitions.AFTER_AGREEMENT_TERMINATED_NOOP;\n\n        _host.registerApp(configWord);\n        //How would the below methods change with proxy/cloning? How would initialization of superapp change\n        _host.callAgreement(\n            _ida,\n            abi.encodeWithSelector(\n                _ida.createIndex.selector,\n                fDAIx,\n                INDEX_ID,\n                new bytes(0) // placeholder ctx\n            ),\n            new bytes(0) // user data\n        );\n\n        _host.callAgreement(\n            _ida,\n            abi.encodeWithSelector(\n                _ida.createIndex.selector,\n                fUSDCx,\n                INDEX_ID,\n                new bytes(0) // placeholder ctx\n            ),\n            new bytes(0) // user data\n        );\n\n        _host.callAgreement(\n            _ida,\n            abi.encodeWithSelector(\n                _ida.createIndex.selector,\n                fTUSDx,\n                INDEX_ID,\n                new bytes(0) // placeholder ctx\n            ),\n            new bytes(0) // user data\n        );\n\n        // _host.callAgreement(\n        //     _ida,\n        //     abi.encodeWithSelector(\n        //         _ida.createIndex.selector,\n        //         ETHx,\n        //         INDEX_ID,\n        //         new bytes(0) // placeholder ctx\n        //     ),\n        //     new bytes(0) // user data\n        // );\n    }\n\n    modifier onlyOwner(){\n        require(owner==msg.sender,\"Only the owner could use this\");\n        _;\n    }\n\n    function sharesOf(address user) view external returns(uint128){\n        return shareMapping[user];\n    }\n\n    function beforeAgreementCreated(\n        ISuperToken superToken,\n        address agreementClass,\n        bytes32 /* agreementId */,\n        bytes calldata /*agreementData*/,\n        bytes calldata /*ctx*/\n    )\n        external view override\n        returns (bytes memory data)\n    {\n        // require(superToken == _cashToken, \"DRT: Unsupported cash token\");\n        require(agreementClass == address(_ida), \"DRT: Unsupported agreement\");\n        return new bytes(0);\n    }\n\n    function afterAgreementCreated(\n        ISuperToken superToken,\n        address /* agreementClass */,\n        bytes32 agreementId,\n        bytes calldata /*agreementData*/,\n        bytes calldata /*cbdata*/,\n        bytes calldata ctx\n    )\n        external override\n        returns(bytes memory newCtx)\n    {\n        _checkSubscription(superToken, ctx, agreementId);\n        newCtx = ctx;\n    }\n\n    function beforeAgreementUpdated(\n        ISuperToken superToken,\n        address agreementClass,\n        bytes32 /* agreementId */,\n        bytes calldata /*agreementData*/,\n        bytes calldata /*ctx*/\n    )\n        external view override\n        returns (bytes memory data)\n    {\n        // require(superToken == _cashToken, \"DRT: Unsupported cash token\");\n        require(agreementClass == address(_ida), \"DRT: Unsupported agreement\");\n        return new bytes(0);\n    }\n\n    function afterAgreementUpdated(\n        ISuperToken superToken,\n        address /* agreementClass */,\n        bytes32 agreementId,\n        bytes calldata /*agreementData*/,\n        bytes calldata /*cbdata*/,\n        bytes calldata ctx\n    )\n        external override\n        returns(bytes memory newCtx)\n    {\n        _checkSubscription(superToken, ctx, agreementId);\n        newCtx = ctx;\n    }\n\n    function _checkSubscription(\n        ISuperToken superToken,\n        bytes calldata ctx,\n        bytes32 agreementId\n    )\n        private\n    {\n        ISuperfluid.Context memory context = _host.decodeCtx(ctx);\n        // only interested in the subscription approval callbacks\n        if (context.agreementSelector == IInstantDistributionAgreementV1.approveSubscription.selector) {\n            address publisher;\n            uint32 indexId;\n            bool approved;\n            uint128 units;\n            uint256 pendingDistribution;\n            (publisher, indexId, approved, units, pendingDistribution) =\n                _ida.getSubscriptionByID(superToken, agreementId);\n\n            // sanity checks for testing purpose\n            require(publisher == address(this), \"DRT: publisher mismatch\");\n            require(indexId == INDEX_ID, \"DRT: publisher mismatch\");\n\n            if (approved) {\n                isSubscribing[context.msgSender /* subscriber */] = true;\n            }\n        }\n    }\n\n    function modifySub(address user,uint128 shareUnits) internal{\n        _host.callAgreement(\n            _ida,\n            abi.encodeWithSelector(\n                _ida.updateSubscription.selector,\n                fDAIx,\n                INDEX_ID,\n                user,\n                shareUnits,\n                new bytes(0) // placeholder ctx\n            ),\n            new bytes(0) // user data\n        );\n\n        _host.callAgreement(\n            _ida,\n            abi.encodeWithSelector(\n                _ida.updateSubscription.selector,\n                fUSDCx,\n                INDEX_ID,\n                user,\n                shareUnits,\n                new bytes(0) // placeholder ctx\n            ),\n            new bytes(0) // user data\n        );\n\n        _host.callAgreement(\n            _ida,\n            abi.encodeWithSelector(\n                _ida.updateSubscription.selector,\n                fTUSDx,\n                INDEX_ID,\n                user,\n                shareUnits,\n                new bytes(0) // placeholder ctx\n            ),\n            new bytes(0) // user data\n        );\n\n        _host.callAgreement(\n            _ida,\n            abi.encodeWithSelector(\n                _ida.updateSubscription.selector,\n                ETHx,\n                INDEX_ID,\n                user,\n                shareUnits,\n                new bytes(0) // placeholder ctx\n            ),\n            new bytes(0) // user data\n        );\n        \n    }\n\n    function abs(uint128 x,uint128 y) private pure returns (uint128) {\n        if(x>y)\n         return x-y;\n        if(x<y)\n         return y-x;\n        if(x==y)\n         return x;\n    }\n\n    function addUser(address newUser,uint128 sharePercentage) external onlyOwner{\n        require(shareMapping[newUser]==0,\"User already exists\");\n        require(sharePercentage>0,\"Share Percentage should be greater than zero\");\n\n        uint128 shareUnits = totalShareUnits==0?100: (sharePercentage * totalShareUnits)/(100- sharePercentage);\n        modifySub(newUser, shareUnits);\n        totalShareUnits += shareUnits;\n        shareMapping[newUser] = shareUnits;\n        emitter.UserAdded2(newUser,shareUnits,INDEX_ID,address(this),block.timestamp,totalShareUnits);\n        emitter.TotalShares2(totalShareUnits,INDEX_ID,address(this),block.timestamp);\n    }\n\n    function modifyUser(address existingUser,uint128 sharePercentage) external onlyOwner{\n        require(shareMapping[existingUser]!=0,\"User doesn't exist\");\n        require(sharePercentage>0,\"Share Percentage should be greater than zero\");\n        uint128 shareUnits = totalShareUnits==shareMapping[existingUser]?100:(sharePercentage * abs(totalShareUnits,shareMapping[existingUser]))/(100- sharePercentage);\n        modifySub(existingUser, shareUnits);\n        totalShareUnits -= shareMapping[existingUser];//Need to handle case where shareMapping is larger than total share units\n        totalShareUnits += shareUnits ;\n        shareMapping[existingUser] = shareUnits;\n        emitter.UserModified2(existingUser,shareUnits,INDEX_ID,address(this),block.timestamp,totalShareUnits);\n        emitter.TotalShares2(totalShareUnits,INDEX_ID,address(this),block.timestamp);\n    }\n\n    function removeUser(address existingUser) external onlyOwner{\n        require(shareMapping[existingUser]!=0,\"User doesn't exist\");\n        totalShareUnits -= shareMapping[existingUser];\n        shareMapping[existingUser] = 0;\n        modifySub(existingUser, 0);\n        emitter.UserRemoved2(existingUser,0,INDEX_ID,address(this),block.timestamp,totalShareUnits);//Changed the shareUnits to zero to read in the frontend the exit of the user\n        emitter.TotalShares2(totalShareUnits,INDEX_ID,address(this),block.timestamp);\n    }\n\n    /// @dev Distribute `amount` of cash among all token holders\n    function distribute(uint256 cashAmount,address tokenAddress) internal {\n        (uint256 actualCashAmount,) = _ida.calculateDistribution(\n            ISuperToken(tokenAddress),\n            address(this), INDEX_ID,\n            cashAmount);\n\n        _host.callAgreement(\n            _ida,\n            abi.encodeWithSelector(\n                _ida.distribute.selector,\n                ISuperToken(tokenAddress),\n                INDEX_ID,\n                actualCashAmount,\n                new bytes(0) // placeholder ctx\n            ),\n            new bytes(0) // user data\n        );\n        emitter.Distribution2(actualCashAmount,INDEX_ID,address(this),block.timestamp,tokenNameMapping[tokenAddress]);\n    }\n\n    function tokensReceived(\n        address operator,\n        address from,\n        address to,\n        uint256 amount,\n        bytes calldata userData,\n        bytes calldata operatorData\n    ) external override {\n        //require(msg.sender == address(_token), \"Simple777Recipient: Invalid token\");\n\n        // do stuff\n        totalDonations += amount;\n        distribute(amount,msg.sender);\n        emitter.DonationReceived2( from, tokenNameMapping[msg.sender], amount,INDEX_ID,address(this),block.timestamp);\n    }\n}",
  "sourcePath": "/Users/praffulsahu/Documents/Crypto/erc777distributor/contracts/BaseDistributor.sol",
  "compiler": {
    "name": "solc",
    "version": "0.8.0+commit.c7dfd78e.Emscripten.clang"
  },
  "schemaVersion": "3.3.3",
  "updatedAt": "2021-06-27T08:04:55.302Z",
  "networkType": "ethereum",
  "devdoc": {
    "kind": "dev",
    "methods": {
      "tokensReceived(address,address,address,uint256,bytes,bytes)": {
        "details": "Called by an {IERC777} token contract whenever tokens are being moved or created into a registered account (`to`). The type of operation is conveyed by `from` being the zero address or not. This call occurs _after_ the token contract's state is updated, so {IERC777-balanceOf}, etc., can be used to query the post-operation state. This function may revert to prevent the operation from being executed."
      }
    },
    "version": 1
  },
  "userdoc": {
    "kind": "user",
    "methods": {},
    "version": 1
  }
}