{
  "contractName": "BaseDistributor",
  "abi": [
    {
      "inputs": [],
      "name": "INDEX_ID",
      "outputs": [
        {
          "internalType": "uint32",
          "name": "",
          "type": "uint32"
        }
      ],
      "stateMutability": "view",
      "type": "function",
      "constant": true
    },
    {
      "inputs": [
        {
          "internalType": "address",
          "name": "",
          "type": "address"
        }
      ],
      "name": "isSubscribing",
      "outputs": [
        {
          "internalType": "bool",
          "name": "",
          "type": "bool"
        }
      ],
      "stateMutability": "view",
      "type": "function",
      "constant": true
    },
    {
      "inputs": [],
      "name": "owner",
      "outputs": [
        {
          "internalType": "address",
          "name": "",
          "type": "address"
        }
      ],
      "stateMutability": "view",
      "type": "function",
      "constant": true
    },
    {
      "inputs": [],
      "name": "totalDonations",
      "outputs": [
        {
          "internalType": "uint256",
          "name": "",
          "type": "uint256"
        }
      ],
      "stateMutability": "view",
      "type": "function",
      "constant": true
    },
    {
      "inputs": [],
      "name": "totalShareUnits",
      "outputs": [
        {
          "internalType": "uint128",
          "name": "",
          "type": "uint128"
        }
      ],
      "stateMutability": "view",
      "type": "function",
      "constant": true
    },
    {
      "inputs": [
        {
          "internalType": "address",
          "name": "host",
          "type": "address"
        },
        {
          "internalType": "address",
          "name": "ida",
          "type": "address"
        },
        {
          "internalType": "address",
          "name": "emitterAdd",
          "type": "address"
        },
        {
          "internalType": "address",
          "name": "_owner",
          "type": "address"
        },
        {
          "internalType": "address",
          "name": "_fDAIx",
          "type": "address"
        },
        {
          "internalType": "address",
          "name": "_fUSDCx",
          "type": "address"
        },
        {
          "internalType": "address",
          "name": "_fTUSDx",
          "type": "address"
        },
        {
          "internalType": "address",
          "name": "_ETHx",
          "type": "address"
        },
        {
          "internalType": "address",
          "name": "_erc1820Add",
          "type": "address"
        }
      ],
      "name": "initialize",
      "outputs": [],
      "stateMutability": "nonpayable",
      "type": "function"
    },
    {
      "inputs": [
        {
          "internalType": "address",
          "name": "user",
          "type": "address"
        }
      ],
      "name": "sharesOf",
      "outputs": [
        {
          "internalType": "uint128",
          "name": "",
          "type": "uint128"
        }
      ],
      "stateMutability": "view",
      "type": "function",
      "constant": true
    },
    {
      "inputs": [
        {
          "internalType": "address",
          "name": "newUser",
          "type": "address"
        },
        {
          "internalType": "uint128",
          "name": "sharePercentage",
          "type": "uint128"
        },
        {
          "internalType": "string",
          "name": "_name",
          "type": "string"
        }
      ],
      "name": "addUser",
      "outputs": [],
      "stateMutability": "nonpayable",
      "type": "function"
    },
    {
      "inputs": [
        {
          "internalType": "address",
          "name": "existingUser",
          "type": "address"
        },
        {
          "internalType": "uint128",
          "name": "sharePercentage",
          "type": "uint128"
        }
      ],
      "name": "modifyUser",
      "outputs": [],
      "stateMutability": "nonpayable",
      "type": "function"
    },
    {
      "inputs": [
        {
          "internalType": "address",
          "name": "existingUser",
          "type": "address"
        }
      ],
      "name": "removeUser",
      "outputs": [],
      "stateMutability": "nonpayable",
      "type": "function"
    },
    {
      "inputs": [
        {
          "internalType": "address",
          "name": "operator",
          "type": "address"
        },
        {
          "internalType": "address",
          "name": "from",
          "type": "address"
        },
        {
          "internalType": "address",
          "name": "to",
          "type": "address"
        },
        {
          "internalType": "uint256",
          "name": "amount",
          "type": "uint256"
        },
        {
          "internalType": "bytes",
          "name": "userData",
          "type": "bytes"
        },
        {
          "internalType": "bytes",
          "name": "operatorData",
          "type": "bytes"
        }
      ],
      "name": "tokensReceived",
      "outputs": [],
      "stateMutability": "nonpayable",
      "type": "function"
    }
  ],
  "bytecode": "0x608060405260006001556000600260006101000a8154816fffffffffffffffffffffffffffffffff02191690836fffffffffffffffffffffffffffffffff16021790555034801561004f57600080fd5b506144dc8061005f6000396000f3fe608060405234801561001057600080fd5b50600436106100a85760003560e01c8063915e336411610071578063915e33641461013f578063985751881461016f578063b00b4b661461018b578063de2ed893146101a7578063f5e95acb146101c5578063f5eb42dc146101e1576100a8565b806223de29146100ad5780635167f6e7146100c95780638378f8c0146100e75780638c7f0959146101035780638da5cb5b14610121575b600080fd5b6100c760048036038101906100c29190613577565b610211565b005b6100d16104d0565b6040516100de9190613f13565b60405180910390f35b61010160048036038101906100fc919061363a565b6104f2565b005b61010b610b33565b6040516101189190614004565b60405180910390f35b610129610b38565b6040516101369190613a9f565b60405180910390f35b61015960048036038101906101549190613488565b610b5e565b6040516101669190613cca565b60405180910390f35b61018960048036038101906101849190613488565b610b7e565b005b6101a560048036038101906101a09190613676565b610fb2565b005b6101af611466565b6040516101bc9190613f81565b60405180910390f35b6101df60048036038101906101da91906134b1565b61146c565b005b6101fb60048036038101906101f69190613488565b6123d4565b6040516102089190613f13565b60405180910390f35b600760009054906101000a900473ffffffffffffffffffffffffffffffffffffffff1673ffffffffffffffffffffffffffffffffffffffff163373ffffffffffffffffffffffffffffffffffffffff1614806102ba5750600860009054906101000a900473ffffffffffffffffffffffffffffffffffffffff1673ffffffffffffffffffffffffffffffffffffffff163373ffffffffffffffffffffffffffffffffffffffff16145b806103125750600960009054906101000a900473ffffffffffffffffffffffffffffffffffffffff1673ffffffffffffffffffffffffffffffffffffffff163373ffffffffffffffffffffffffffffffffffffffff16145b8061036a5750600a60009054906101000a900473ffffffffffffffffffffffffffffffffffffffff1673ffffffffffffffffffffffffffffffffffffffff163373ffffffffffffffffffffffffffffffffffffffff16145b6103a9576040517f08c379a00000000000000000000000000000000000000000000000000000000081526004016103a090613e93565b60405180910390fd5b84600160008282546103bb9190614143565b925050819055506103cc8533612439565b600060029054906101000a900473ffffffffffffffffffffffffffffffffffffffff1673ffffffffffffffffffffffffffffffffffffffff1663be84a04188600460003373ffffffffffffffffffffffffffffffffffffffff1673ffffffffffffffffffffffffffffffffffffffff1681526020019081526020016000208860003042600560009054906101000a900473ffffffffffffffffffffffffffffffffffffffff166040518863ffffffff1660e01b81526004016104949796959493929190613b60565b600060405180830381600087803b1580156104ae57600080fd5b505af11580156104c2573d6000803e3d6000fd5b505050505050505050505050565b600260009054906101000a90046fffffffffffffffffffffffffffffffff1681565b3373ffffffffffffffffffffffffffffffffffffffff16600560009054906101000a900473ffffffffffffffffffffffffffffffffffffffff1673ffffffffffffffffffffffffffffffffffffffff1614610582576040517f08c379a000000000000000000000000000000000000000000000000000000000815260040161057990613e73565b60405180910390fd5b6000600360008473ffffffffffffffffffffffffffffffffffffffff1673ffffffffffffffffffffffffffffffffffffffff16815260200190815260200160002060009054906101000a90046fffffffffffffffffffffffffffffffff166fffffffffffffffffffffffffffffffff161415610633576040517f08c379a000000000000000000000000000000000000000000000000000000000815260040161062a90613ef3565b60405180910390fd5b6000816fffffffffffffffffffffffffffffffff1611610688576040517f08c379a000000000000000000000000000000000000000000000000000000000815260040161067f90613e53565b60405180910390fd5b6000600360008473ffffffffffffffffffffffffffffffffffffffff1673ffffffffffffffffffffffffffffffffffffffff16815260200190815260200160002060009054906101000a90046fffffffffffffffffffffffffffffffff166fffffffffffffffffffffffffffffffff16600260009054906101000a90046fffffffffffffffffffffffffffffffff166fffffffffffffffffffffffffffffffff16146107d85781606461073b9190614214565b6107be600260009054906101000a90046fffffffffffffffffffffffffffffffff16600360008773ffffffffffffffffffffffffffffffffffffffff1673ffffffffffffffffffffffffffffffffffffffff16815260200190815260200160002060009054906101000a90046fffffffffffffffffffffffffffffffff16612827565b836107c991906141ca565b6107d39190614199565b6107db565b60645b90506107e783826128e2565b600360008473ffffffffffffffffffffffffffffffffffffffff1673ffffffffffffffffffffffffffffffffffffffff16815260200190815260200160002060009054906101000a90046fffffffffffffffffffffffffffffffff16600260008282829054906101000a90046fffffffffffffffffffffffffffffffff1661086f9190614214565b92506101000a8154816fffffffffffffffffffffffffffffffff02191690836fffffffffffffffffffffffffffffffff16021790555080600260008282829054906101000a90046fffffffffffffffffffffffffffffffff166108d291906140fd565b92506101000a8154816fffffffffffffffffffffffffffffffff02191690836fffffffffffffffffffffffffffffffff16021790555080600360008573ffffffffffffffffffffffffffffffffffffffff1673ffffffffffffffffffffffffffffffffffffffff16815260200190815260200160002060006101000a8154816fffffffffffffffffffffffffffffffff02191690836fffffffffffffffffffffffffffffffff160217905550600060029054906101000a900473ffffffffffffffffffffffffffffffffffffffff1673ffffffffffffffffffffffffffffffffffffffff16638f84993a848360003042600260009054906101000a90046fffffffffffffffffffffffffffffffff16600560009054906101000a900473ffffffffffffffffffffffffffffffffffffffff166040518863ffffffff1660e01b8152600401610a269796959493929190613bd6565b600060405180830381600087803b158015610a4057600080fd5b505af1158015610a54573d6000803e3d6000fd5b50505050600060029054906101000a900473ffffffffffffffffffffffffffffffffffffffff1673ffffffffffffffffffffffffffffffffffffffff1663790b291b600260009054906101000a90046fffffffffffffffffffffffffffffffff1660003042600560009054906101000a900473ffffffffffffffffffffffffffffffffffffffff166040518663ffffffff1660e01b8152600401610afc959493929190613f2e565b600060405180830381600087803b158015610b1657600080fd5b505af1158015610b2a573d6000803e3d6000fd5b50505050505050565b600081565b600560009054906101000a900473ffffffffffffffffffffffffffffffffffffffff1681565b600e6020528060005260406000206000915054906101000a900460ff1681565b3373ffffffffffffffffffffffffffffffffffffffff16600560009054906101000a900473ffffffffffffffffffffffffffffffffffffffff1673ffffffffffffffffffffffffffffffffffffffff1614610c0e576040517f08c379a0000000000000000000000000000000000000000000000000000000008152600401610c0590613e73565b60405180910390fd5b6000600360008373ffffffffffffffffffffffffffffffffffffffff1673ffffffffffffffffffffffffffffffffffffffff16815260200190815260200160002060009054906101000a90046fffffffffffffffffffffffffffffffff166fffffffffffffffffffffffffffffffff161415610cbf576040517f08c379a0000000000000000000000000000000000000000000000000000000008152600401610cb690613ef3565b60405180910390fd5b600360008273ffffffffffffffffffffffffffffffffffffffff1673ffffffffffffffffffffffffffffffffffffffff16815260200190815260200160002060009054906101000a90046fffffffffffffffffffffffffffffffff16600260008282829054906101000a90046fffffffffffffffffffffffffffffffff16610d479190614214565b92506101000a8154816fffffffffffffffffffffffffffffffff02191690836fffffffffffffffffffffffffffffffff1602179055506000600360008373ffffffffffffffffffffffffffffffffffffffff1673ffffffffffffffffffffffffffffffffffffffff16815260200190815260200160002060006101000a8154816fffffffffffffffffffffffffffffffff02191690836fffffffffffffffffffffffffffffffff160217905550610dff8160006128e2565b600060029054906101000a900473ffffffffffffffffffffffffffffffffffffffff1673ffffffffffffffffffffffffffffffffffffffff1663bd9b2136826000803042600260009054906101000a90046fffffffffffffffffffffffffffffffff16600560009054906101000a900473ffffffffffffffffffffffffffffffffffffffff166040518863ffffffff1660e01b8152600401610ea79796959493929190613af1565b600060405180830381600087803b158015610ec157600080fd5b505af1158015610ed5573d6000803e3d6000fd5b50505050600060029054906101000a900473ffffffffffffffffffffffffffffffffffffffff1673ffffffffffffffffffffffffffffffffffffffff1663790b291b600260009054906101000a90046fffffffffffffffffffffffffffffffff1660003042600560009054906101000a900473ffffffffffffffffffffffffffffffffffffffff166040518663ffffffff1660e01b8152600401610f7d959493929190613f2e565b600060405180830381600087803b158015610f9757600080fd5b505af1158015610fab573d6000803e3d6000fd5b5050505050565b3373ffffffffffffffffffffffffffffffffffffffff16600560009054906101000a900473ffffffffffffffffffffffffffffffffffffffff1673ffffffffffffffffffffffffffffffffffffffff1614611042576040517f08c379a000000000000000000000000000000000000000000000000000000000815260040161103990613e73565b60405180910390fd5b6000600360008573ffffffffffffffffffffffffffffffffffffffff1673ffffffffffffffffffffffffffffffffffffffff16815260200190815260200160002060009054906101000a90046fffffffffffffffffffffffffffffffff166fffffffffffffffffffffffffffffffff16146110f2576040517f08c379a00000000000000000000000000000000000000000000000000000000081526004016110e990613eb3565b60405180910390fd5b6000826fffffffffffffffffffffffffffffffff1611611147576040517f08c379a000000000000000000000000000000000000000000000000000000000815260040161113e90613e53565b60405180910390fd5b600080600260009054906101000a90046fffffffffffffffffffffffffffffffff166fffffffffffffffffffffffffffffffff16146111c65782606461118d9190614214565b600260009054906101000a90046fffffffffffffffffffffffffffffffff16846111b791906141ca565b6111c19190614199565b6111c9565b60645b90506111d584826128e2565b80600260008282829054906101000a90046fffffffffffffffffffffffffffffffff1661120291906140fd565b92506101000a8154816fffffffffffffffffffffffffffffffff02191690836fffffffffffffffffffffffffffffffff16021790555080600360008673ffffffffffffffffffffffffffffffffffffffff1673ffffffffffffffffffffffffffffffffffffffff16815260200190815260200160002060006101000a8154816fffffffffffffffffffffffffffffffff02191690836fffffffffffffffffffffffffffffffff160217905550600060029054906101000a900473ffffffffffffffffffffffffffffffffffffffff1673ffffffffffffffffffffffffffffffffffffffff1663b829d0ed858360003042600260009054906101000a90046fffffffffffffffffffffffffffffffff16600560009054906101000a900473ffffffffffffffffffffffffffffffffffffffff168a6040518963ffffffff1660e01b8152600401611358989796959493929190613c45565b600060405180830381600087803b15801561137257600080fd5b505af1158015611386573d6000803e3d6000fd5b50505050600060029054906101000a900473ffffffffffffffffffffffffffffffffffffffff1673ffffffffffffffffffffffffffffffffffffffff1663790b291b600260009054906101000a90046fffffffffffffffffffffffffffffffff1660003042600560009054906101000a900473ffffffffffffffffffffffffffffffffffffffff166040518663ffffffff1660e01b815260040161142e959493929190613f2e565b600060405180830381600087803b15801561144857600080fd5b505af115801561145c573d6000803e3d6000fd5b5050505050505050565b60015481565b600060019054906101000a900460ff1680611492575060008054906101000a900460ff16155b6114d1576040517f08c379a00000000000000000000000000000000000000000000000000000000081526004016114c890613ed3565b60405180910390fd5b60008060019054906101000a900460ff161590508015611521576001600060016101000a81548160ff02191690831515021790555060016000806101000a81548160ff0219169083151502179055505b87600060026101000a81548173ffffffffffffffffffffffffffffffffffffffff021916908373ffffffffffffffffffffffffffffffffffffffff16021790555086600560006101000a81548173ffffffffffffffffffffffffffffffffffffffff021916908373ffffffffffffffffffffffffffffffffffffffff16021790555081600d60006101000a81548173ffffffffffffffffffffffffffffffffffffffff021916908373ffffffffffffffffffffffffffffffffffffffff160217905550600d60009054906101000a900473ffffffffffffffffffffffffffffffffffffffff1673ffffffffffffffffffffffffffffffffffffffff166329965a1d307fb281fc8c12954d22544db45de3159a39272895b169a852b314f9cc762e44c53b306040518463ffffffff1660e01b815260040161166393929190613aba565b600060405180830381600087803b15801561167d57600080fd5b505af1158015611691573d6000803e3d6000fd5b5050505085600760006101000a81548173ffffffffffffffffffffffffffffffffffffffff021916908373ffffffffffffffffffffffffffffffffffffffff1602179055506040518060400160405280600581526020017f6644414978000000000000000000000000000000000000000000000000000000815250600460008873ffffffffffffffffffffffffffffffffffffffff1673ffffffffffffffffffffffffffffffffffffffff168152602001908152602001600020908051906020019061175e929190613262565b5084600860006101000a81548173ffffffffffffffffffffffffffffffffffffffff021916908373ffffffffffffffffffffffffffffffffffffffff1602179055506040518060400160405280600681526020017f6655534443780000000000000000000000000000000000000000000000000000815250600460008773ffffffffffffffffffffffffffffffffffffffff1673ffffffffffffffffffffffffffffffffffffffff1681526020019081526020016000209080519060200190611828929190613262565b5083600960006101000a81548173ffffffffffffffffffffffffffffffffffffffff021916908373ffffffffffffffffffffffffffffffffffffffff1602179055506040518060400160405280600681526020017f6654555344780000000000000000000000000000000000000000000000000000815250600460008673ffffffffffffffffffffffffffffffffffffffff1673ffffffffffffffffffffffffffffffffffffffff16815260200190815260200160002090805190602001906118f2929190613262565b5082600a60006101000a81548173ffffffffffffffffffffffffffffffffffffffff021916908373ffffffffffffffffffffffffffffffffffffffff1602179055506040518060400160405280600481526020017f4554487800000000000000000000000000000000000000000000000000000000815250600460008573ffffffffffffffffffffffffffffffffffffffff1673ffffffffffffffffffffffffffffffffffffffff16815260200190815260200160002090805190602001906119bc929190613262565b5089600b60006101000a81548173ffffffffffffffffffffffffffffffffffffffff021916908373ffffffffffffffffffffffffffffffffffffffff16021790555088600c60006101000a81548173ffffffffffffffffffffffffffffffffffffffff021916908373ffffffffffffffffffffffffffffffffffffffff160217905550600b60009054906101000a900473ffffffffffffffffffffffffffffffffffffffff1673ffffffffffffffffffffffffffffffffffffffff166339255d5b600c60009054906101000a900473ffffffffffffffffffffffffffffffffffffffff1663d787840a60e01b600760009054906101000a900473ffffffffffffffffffffffffffffffffffffffff1660008067ffffffffffffffff811115611b0d577f4e487b7100000000000000000000000000000000000000000000000000000000600052604160045260246000fd5b6040519080825280601f01601f191660200182016040528015611b3f5781602001600182028036833780820191505090505b50604051602401611b5293929190613dc9565b604051602081830303815290604052907bffffffffffffffffffffffffffffffffffffffffffffffffffffffff19166020820180517bffffffffffffffffffffffffffffffffffffffffffffffffffffffff8381831617835250505050600067ffffffffffffffff811115611bf0577f4e487b7100000000000000000000000000000000000000000000000000000000600052604160045260246000fd5b6040519080825280601f01601f191660200182016040528015611c225781602001600182028036833780820191505090505b506040518463ffffffff1660e01b8152600401611c4193929190613ce5565b600060405180830381600087803b158015611c5b57600080fd5b505af1158015611c6f573d6000803e3d6000fd5b505050506040513d6000823e3d601f19601f82011682018060405250810190611c9891906136dd565b50600b60009054906101000a900473ffffffffffffffffffffffffffffffffffffffff1673ffffffffffffffffffffffffffffffffffffffff166339255d5b600c60009054906101000a900473ffffffffffffffffffffffffffffffffffffffff1663d787840a60e01b600860009054906101000a900473ffffffffffffffffffffffffffffffffffffffff1660008067ffffffffffffffff811115611d67577f4e487b7100000000000000000000000000000000000000000000000000000000600052604160045260246000fd5b6040519080825280601f01601f191660200182016040528015611d995781602001600182028036833780820191505090505b50604051602401611dac93929190613dc9565b604051602081830303815290604052907bffffffffffffffffffffffffffffffffffffffffffffffffffffffff19166020820180517bffffffffffffffffffffffffffffffffffffffffffffffffffffffff8381831617835250505050600067ffffffffffffffff811115611e4a577f4e487b7100000000000000000000000000000000000000000000000000000000600052604160045260246000fd5b6040519080825280601f01601f191660200182016040528015611e7c5781602001600182028036833780820191505090505b506040518463ffffffff1660e01b8152600401611e9b93929190613ce5565b600060405180830381600087803b158015611eb557600080fd5b505af1158015611ec9573d6000803e3d6000fd5b505050506040513d6000823e3d601f19601f82011682018060405250810190611ef291906136dd565b50600b60009054906101000a900473ffffffffffffffffffffffffffffffffffffffff1673ffffffffffffffffffffffffffffffffffffffff166339255d5b600c60009054906101000a900473ffffffffffffffffffffffffffffffffffffffff1663d787840a60e01b600960009054906101000a900473ffffffffffffffffffffffffffffffffffffffff1660008067ffffffffffffffff811115611fc1577f4e487b7100000000000000000000000000000000000000000000000000000000600052604160045260246000fd5b6040519080825280601f01601f191660200182016040528015611ff35781602001600182028036833780820191505090505b5060405160240161200693929190613dc9565b604051602081830303815290604052907bffffffffffffffffffffffffffffffffffffffffffffffffffffffff19166020820180517bffffffffffffffffffffffffffffffffffffffffffffffffffffffff8381831617835250505050600067ffffffffffffffff8111156120a4577f4e487b7100000000000000000000000000000000000000000000000000000000600052604160045260246000fd5b6040519080825280601f01601f1916602001820160405280156120d65781602001600182028036833780820191505090505b506040518463ffffffff1660e01b81526004016120f593929190613ce5565b600060405180830381600087803b15801561210f57600080fd5b505af1158015612123573d6000803e3d6000fd5b505050506040513d6000823e3d601f19601f8201168201806040525081019061214c91906136dd565b50600b60009054906101000a900473ffffffffffffffffffffffffffffffffffffffff1673ffffffffffffffffffffffffffffffffffffffff166339255d5b600c60009054906101000a900473ffffffffffffffffffffffffffffffffffffffff1663d787840a60e01b600a60009054906101000a900473ffffffffffffffffffffffffffffffffffffffff1660008067ffffffffffffffff81111561221b577f4e487b7100000000000000000000000000000000000000000000000000000000600052604160045260246000fd5b6040519080825280601f01601f19166020018201604052801561224d5781602001600182028036833780820191505090505b5060405160240161226093929190613dc9565b604051602081830303815290604052907bffffffffffffffffffffffffffffffffffffffffffffffffffffffff19166020820180517bffffffffffffffffffffffffffffffffffffffffffffffffffffffff8381831617835250505050600067ffffffffffffffff8111156122fe577f4e487b7100000000000000000000000000000000000000000000000000000000600052604160045260246000fd5b6040519080825280601f01601f1916602001820160405280156123305781602001600182028036833780820191505090505b506040518463ffffffff1660e01b815260040161234f93929190613ce5565b600060405180830381600087803b15801561236957600080fd5b505af115801561237d573d6000803e3d6000fd5b505050506040513d6000823e3d601f19601f820116820180604052508101906123a691906136dd565b5080156123c85760008060016101000a81548160ff0219169083151502179055505b50505050505050505050565b6000600360008373ffffffffffffffffffffffffffffffffffffffff1673ffffffffffffffffffffffffffffffffffffffff16815260200190815260200160002060009054906101000a90046fffffffffffffffffffffffffffffffff169050919050565b6000600c60009054906101000a900473ffffffffffffffffffffffffffffffffffffffff1673ffffffffffffffffffffffffffffffffffffffff1663899baaec83306000876040518563ffffffff1660e01b815260040161249d9493929190613d2a565b604080518083038186803b1580156124b457600080fd5b505afa1580156124c8573d6000803e3d6000fd5b505050506040513d601f19601f820116820180604052508101906124ec919061371e565b509050600b60009054906101000a900473ffffffffffffffffffffffffffffffffffffffff1673ffffffffffffffffffffffffffffffffffffffff166339255d5b600c60009054906101000a900473ffffffffffffffffffffffffffffffffffffffff1663b96731c260e01b85600086600067ffffffffffffffff81111561259d577f4e487b7100000000000000000000000000000000000000000000000000000000600052604160045260246000fd5b6040519080825280601f01601f1916602001820160405280156125cf5781602001600182028036833780820191505090505b506040516024016125e39493929190613e07565b604051602081830303815290604052907bffffffffffffffffffffffffffffffffffffffffffffffffffffffff19166020820180517bffffffffffffffffffffffffffffffffffffffffffffffffffffffff8381831617835250505050600067ffffffffffffffff811115612681577f4e487b7100000000000000000000000000000000000000000000000000000000600052604160045260246000fd5b6040519080825280601f01601f1916602001820160405280156126b35781602001600182028036833780820191505090505b506040518463ffffffff1660e01b81526004016126d293929190613ce5565b600060405180830381600087803b1580156126ec57600080fd5b505af1158015612700573d6000803e3d6000fd5b505050506040513d6000823e3d601f19601f8201168201806040525081019061272991906136dd565b50600060029054906101000a900473ffffffffffffffffffffffffffffffffffffffff1673ffffffffffffffffffffffffffffffffffffffff16635d001ebb8260003042600460008973ffffffffffffffffffffffffffffffffffffffff1673ffffffffffffffffffffffffffffffffffffffff168152602001908152602001600020600560009054906101000a900473ffffffffffffffffffffffffffffffffffffffff166040518763ffffffff1660e01b81526004016127f096959493929190613f9c565b600060405180830381600087803b15801561280a57600080fd5b505af115801561281e573d6000803e3d6000fd5b50505050505050565b6000816fffffffffffffffffffffffffffffffff16836fffffffffffffffffffffffffffffffff1611156128685781836128619190614214565b90506128dc565b816fffffffffffffffffffffffffffffffff16836fffffffffffffffffffffffffffffffff1610156128a75782826128a09190614214565b90506128dc565b816fffffffffffffffffffffffffffffffff16836fffffffffffffffffffffffffffffffff1614156128db578290506128dc565b5b92915050565b600b60009054906101000a900473ffffffffffffffffffffffffffffffffffffffff1673ffffffffffffffffffffffffffffffffffffffff166339255d5b600c60009054906101000a900473ffffffffffffffffffffffffffffffffffffffff1663232d2b5860e01b600760009054906101000a900473ffffffffffffffffffffffffffffffffffffffff1660008787600067ffffffffffffffff8111156129b3577f4e487b7100000000000000000000000000000000000000000000000000000000600052604160045260246000fd5b6040519080825280601f01601f1916602001820160405280156129e55781602001600182028036833780820191505090505b506040516024016129fa959493929190613d6f565b604051602081830303815290604052907bffffffffffffffffffffffffffffffffffffffffffffffffffffffff19166020820180517bffffffffffffffffffffffffffffffffffffffffffffffffffffffff8381831617835250505050600067ffffffffffffffff811115612a98577f4e487b7100000000000000000000000000000000000000000000000000000000600052604160045260246000fd5b6040519080825280601f01601f191660200182016040528015612aca5781602001600182028036833780820191505090505b506040518463ffffffff1660e01b8152600401612ae993929190613ce5565b600060405180830381600087803b158015612b0357600080fd5b505af1158015612b17573d6000803e3d6000fd5b505050506040513d6000823e3d601f19601f82011682018060405250810190612b4091906136dd565b50600b60009054906101000a900473ffffffffffffffffffffffffffffffffffffffff1673ffffffffffffffffffffffffffffffffffffffff166339255d5b600c60009054906101000a900473ffffffffffffffffffffffffffffffffffffffff1663232d2b5860e01b600860009054906101000a900473ffffffffffffffffffffffffffffffffffffffff1660008787600067ffffffffffffffff811115612c12577f4e487b7100000000000000000000000000000000000000000000000000000000600052604160045260246000fd5b6040519080825280601f01601f191660200182016040528015612c445781602001600182028036833780820191505090505b50604051602401612c59959493929190613d6f565b604051602081830303815290604052907bffffffffffffffffffffffffffffffffffffffffffffffffffffffff19166020820180517bffffffffffffffffffffffffffffffffffffffffffffffffffffffff8381831617835250505050600067ffffffffffffffff811115612cf7577f4e487b7100000000000000000000000000000000000000000000000000000000600052604160045260246000fd5b6040519080825280601f01601f191660200182016040528015612d295781602001600182028036833780820191505090505b506040518463ffffffff1660e01b8152600401612d4893929190613ce5565b600060405180830381600087803b158015612d6257600080fd5b505af1158015612d76573d6000803e3d6000fd5b505050506040513d6000823e3d601f19601f82011682018060405250810190612d9f91906136dd565b50600b60009054906101000a900473ffffffffffffffffffffffffffffffffffffffff1673ffffffffffffffffffffffffffffffffffffffff166339255d5b600c60009054906101000a900473ffffffffffffffffffffffffffffffffffffffff1663232d2b5860e01b600960009054906101000a900473ffffffffffffffffffffffffffffffffffffffff1660008787600067ffffffffffffffff811115612e71577f4e487b7100000000000000000000000000000000000000000000000000000000600052604160045260246000fd5b6040519080825280601f01601f191660200182016040528015612ea35781602001600182028036833780820191505090505b50604051602401612eb8959493929190613d6f565b604051602081830303815290604052907bffffffffffffffffffffffffffffffffffffffffffffffffffffffff19166020820180517bffffffffffffffffffffffffffffffffffffffffffffffffffffffff8381831617835250505050600067ffffffffffffffff811115612f56577f4e487b7100000000000000000000000000000000000000000000000000000000600052604160045260246000fd5b6040519080825280601f01601f191660200182016040528015612f885781602001600182028036833780820191505090505b506040518463ffffffff1660e01b8152600401612fa793929190613ce5565b600060405180830381600087803b158015612fc157600080fd5b505af1158015612fd5573d6000803e3d6000fd5b505050506040513d6000823e3d601f19601f82011682018060405250810190612ffe91906136dd565b50600b60009054906101000a900473ffffffffffffffffffffffffffffffffffffffff1673ffffffffffffffffffffffffffffffffffffffff166339255d5b600c60009054906101000a900473ffffffffffffffffffffffffffffffffffffffff1663232d2b5860e01b600a60009054906101000a900473ffffffffffffffffffffffffffffffffffffffff1660008787600067ffffffffffffffff8111156130d0577f4e487b7100000000000000000000000000000000000000000000000000000000600052604160045260246000fd5b6040519080825280601f01601f1916602001820160405280156131025781602001600182028036833780820191505090505b50604051602401613117959493929190613d6f565b604051602081830303815290604052907bffffffffffffffffffffffffffffffffffffffffffffffffffffffff19166020820180517bffffffffffffffffffffffffffffffffffffffffffffffffffffffff8381831617835250505050600067ffffffffffffffff8111156131b5577f4e487b7100000000000000000000000000000000000000000000000000000000600052604160045260246000fd5b6040519080825280601f01601f1916602001820160405280156131e75781602001600182028036833780820191505090505b506040518463ffffffff1660e01b815260040161320693929190613ce5565b600060405180830381600087803b15801561322057600080fd5b505af1158015613234573d6000803e3d6000fd5b505050506040513d6000823e3d601f19601f8201168201806040525081019061325d91906136dd565b505050565b82805461326e90614362565b90600052602060002090601f01602090048101928261329057600085556132d7565b82601f106132a957805160ff19168380011785556132d7565b828001600101855582156132d7579182015b828111156132d65782518255916020019190600101906132bb565b5b5090506132e491906132e8565b5090565b5b808211156133015760008160009055506001016132e9565b5090565b600061331861331384614050565b61401f565b90508281526020810184848401111561333057600080fd5b61333b84828561432f565b509392505050565b600061335661335184614080565b61401f565b90508281526020810184848401111561336e57600080fd5b613379848285614320565b509392505050565b60008135905061339081614461565b92915050565b60008083601f8401126133a857600080fd5b8235905067ffffffffffffffff8111156133c157600080fd5b6020830191508360018202830111156133d957600080fd5b9250929050565b600082601f8301126133f157600080fd5b8151613401848260208601613305565b91505092915050565b600082601f83011261341b57600080fd5b813561342b848260208601613343565b91505092915050565b60008135905061344381614478565b92915050565b60008151905061345881614478565b92915050565b60008135905061346d8161448f565b92915050565b6000815190506134828161448f565b92915050565b60006020828403121561349a57600080fd5b60006134a884828501613381565b91505092915050565b60008060008060008060008060006101208a8c0312156134d057600080fd5b60006134de8c828d01613381565b99505060206134ef8c828d01613381565b98505060406135008c828d01613381565b97505060606135118c828d01613381565b96505060806135228c828d01613381565b95505060a06135338c828d01613381565b94505060c06135448c828d01613381565b93505060e06135558c828d01613381565b9250506101006135678c828d01613381565b9150509295985092959850929598565b60008060008060008060008060c0898b03121561359357600080fd5b60006135a18b828c01613381565b98505060206135b28b828c01613381565b97505060406135c38b828c01613381565b96505060606135d48b828c0161345e565b955050608089013567ffffffffffffffff8111156135f157600080fd5b6135fd8b828c01613396565b945094505060a089013567ffffffffffffffff81111561361c57600080fd5b6136288b828c01613396565b92509250509295985092959890939650565b6000806040838503121561364d57600080fd5b600061365b85828601613381565b925050602061366c85828601613434565b9150509250929050565b60008060006060848603121561368b57600080fd5b600061369986828701613381565b93505060206136aa86828701613434565b925050604084013567ffffffffffffffff8111156136c757600080fd5b6136d38682870161340a565b9150509250925092565b6000602082840312156136ef57600080fd5b600082015167ffffffffffffffff81111561370957600080fd5b613715848285016133e0565b91505092915050565b6000806040838503121561373157600080fd5b600061373f85828601613473565b925050602061375085828601613449565b9150509250929050565b61376381614248565b82525050565b6137728161425a565b82525050565b61378181614266565b82525050565b6000613792826140c5565b61379c81856140db565b93506137ac81856020860161432f565b6137b581614450565b840191505092915050565b6137c9816142c6565b82525050565b6137d8816142ea565b82525050565b6137e78161430e565b82525050565b60006137f8826140d0565b61380281856140ec565b935061381281856020860161432f565b61381b81614450565b840191505092915050565b6000815461383381614362565b61383d81866140ec565b94506001821660008114613858576001811461386a5761389d565b60ff198316865260208601935061389d565b613873856140b0565b60005b8381101561389557815481890152600182019150602081019050613876565b808801955050505b50505092915050565b60006138b3602c836140ec565b91507f53686172652050657263656e746167652073686f756c6420626520677265617460008301527f6572207468616e207a65726f00000000000000000000000000000000000000006020830152604082019050919050565b6000613919601d836140ec565b91507f4f6e6c7920746865206f776e657220636f756c642075736520746869730000006000830152602082019050919050565b6000613959601d836140ec565b91507f43616e206f6e6c79206163636570742045524337373720746f6b656e730000006000830152602082019050919050565b60006139996013836140ec565b91507f5573657220616c726561647920657869737473000000000000000000000000006000830152602082019050919050565b60006139d9602e836140ec565b91507f496e697469616c697a61626c653a20636f6e747261637420697320616c72656160008301527f647920696e697469616c697a65640000000000000000000000000000000000006020830152604082019050919050565b6000613a3f6012836140ec565b91507f5573657220646f65736e277420657869737400000000000000000000000000006000830152602082019050919050565b613a7b81614270565b82525050565b613a8a816142ac565b82525050565b613a99816142b6565b82525050565b6000602082019050613ab4600083018461375a565b92915050565b6000606082019050613acf600083018661375a565b613adc6020830185613778565b613ae9604083018461375a565b949350505050565b600060e082019050613b06600083018a61375a565b613b1360208301896137de565b613b206040830188613a90565b613b2d606083018761375a565b613b3a6080830186613a81565b613b4760a0830185613a72565b613b5460c083018461375a565b98975050505050505050565b600060e082019050613b75600083018a61375a565b8181036020830152613b878189613826565b9050613b966040830188613a81565b613ba36060830187613a90565b613bb0608083018661375a565b613bbd60a0830185613a81565b613bca60c083018461375a565b98975050505050505050565b600060e082019050613beb600083018a61375a565b613bf86020830189613a72565b613c056040830188613a90565b613c12606083018761375a565b613c1f6080830186613a81565b613c2c60a0830185613a72565b613c3960c083018461375a565b98975050505050505050565b600061010082019050613c5b600083018b61375a565b613c68602083018a613a72565b613c756040830189613a90565b613c82606083018861375a565b613c8f6080830187613a81565b613c9c60a0830186613a72565b613ca960c083018561375a565b81810360e0830152613cbb81846137ed565b90509998505050505050505050565b6000602082019050613cdf6000830184613769565b92915050565b6000606082019050613cfa60008301866137c0565b8181036020830152613d0c8185613787565b90508181036040830152613d208184613787565b9050949350505050565b6000608082019050613d3f60008301876137cf565b613d4c602083018661375a565b613d596040830185613a90565b613d666060830184613a81565b95945050505050565b600060a082019050613d8460008301886137cf565b613d916020830187613a90565b613d9e604083018661375a565b613dab6060830185613a72565b8181036080830152613dbd8184613787565b90509695505050505050565b6000606082019050613dde60008301866137cf565b613deb6020830185613a90565b8181036040830152613dfd8184613787565b9050949350505050565b6000608082019050613e1c60008301876137cf565b613e296020830186613a90565b613e366040830185613a81565b8181036060830152613e488184613787565b905095945050505050565b60006020820190508181036000830152613e6c816138a6565b9050919050565b60006020820190508181036000830152613e8c8161390c565b9050919050565b60006020820190508181036000830152613eac8161394c565b9050919050565b60006020820190508181036000830152613ecc8161398c565b9050919050565b60006020820190508181036000830152613eec816139cc565b9050919050565b60006020820190508181036000830152613f0c81613a32565b9050919050565b6000602082019050613f286000830184613a72565b92915050565b600060a082019050613f436000830188613a72565b613f506020830187613a90565b613f5d604083018661375a565b613f6a6060830185613a81565b613f77608083018461375a565b9695505050505050565b6000602082019050613f966000830184613a81565b92915050565b600060c082019050613fb16000830189613a81565b613fbe6020830188613a90565b613fcb604083018761375a565b613fd86060830186613a81565b8181036080830152613fea8185613826565b9050613ff960a083018461375a565b979650505050505050565b60006020820190506140196000830184613a90565b92915050565b6000604051905081810181811067ffffffffffffffff8211171561404657614045614421565b5b8060405250919050565b600067ffffffffffffffff82111561406b5761406a614421565b5b601f19601f8301169050602081019050919050565b600067ffffffffffffffff82111561409b5761409a614421565b5b601f19601f8301169050602081019050919050565b60008190508160005260206000209050919050565b600081519050919050565b600081519050919050565b600082825260208201905092915050565b600082825260208201905092915050565b600061410882614270565b915061411383614270565b9250826fffffffffffffffffffffffffffffffff0382111561413857614137614394565b5b828201905092915050565b600061414e826142ac565b9150614159836142ac565b9250827fffffffffffffffffffffffffffffffffffffffffffffffffffffffffffffffff0382111561418e5761418d614394565b5b828201905092915050565b60006141a482614270565b91506141af83614270565b9250826141bf576141be6143c3565b5b828204905092915050565b60006141d582614270565b91506141e083614270565b9250816fffffffffffffffffffffffffffffffff048311821515161561420957614208614394565b5b828202905092915050565b600061421f82614270565b915061422a83614270565b92508282101561423d5761423c614394565b5b828203905092915050565b60006142538261428c565b9050919050565b60008115159050919050565b6000819050919050565b60006fffffffffffffffffffffffffffffffff82169050919050565b600073ffffffffffffffffffffffffffffffffffffffff82169050919050565b6000819050919050565b600063ffffffff82169050919050565b60006142d1826142d8565b9050919050565b60006142e38261428c565b9050919050565b60006142f5826142fc565b9050919050565b60006143078261428c565b9050919050565b600061431982614270565b9050919050565b82818337600083830152505050565b60005b8381101561434d578082015181840152602081019050614332565b8381111561435c576000848401525b50505050565b6000600282049050600182168061437a57607f821691505b6020821081141561438e5761438d6143f2565b5b50919050565b7f4e487b7100000000000000000000000000000000000000000000000000000000600052601160045260246000fd5b7f4e487b7100000000000000000000000000000000000000000000000000000000600052601260045260246000fd5b7f4e487b7100000000000000000000000000000000000000000000000000000000600052602260045260246000fd5b7f4e487b7100000000000000000000000000000000000000000000000000000000600052604160045260246000fd5b6000601f19601f8301169050919050565b61446a81614248565b811461447557600080fd5b50565b61448181614270565b811461448c57600080fd5b50565b614498816142ac565b81146144a357600080fd5b5056fea26469706673582212209f27f7869d1a4e7e5d3260edfe88cc21fb6b5cf9b908b4bf59540eb154ef642564736f6c63430008000033",
  "immutableReferences": {},
  "source": "// SPDX-License-Identifier: UNLICENSED\npragma solidity ^0.8.0;\npragma experimental ABIEncoderV2;\n\nimport './Emitter.sol';\n\nimport {\n    ISuperfluid,\n    ISuperToken\n} from \"@superfluid-finance/ethereum-contracts/contracts/apps/SuperAppBase.sol\";\n//from \"https://github.com/superfluid-finance/protocol-monorepo/blob/remix-support/packages/ethereum-contracts/contracts/apps/SuperAppBase.sol\";\nimport {\n    IInstantDistributionAgreementV1\n} from \"@superfluid-finance/ethereum-contracts/contracts/interfaces/agreements/IInstantDistributionAgreementV1.sol\";\n//from \"https://github.com/superfluid-finance/protocol-monorepo/blob/remix-support/packages/ethereum-contracts/contracts/interfaces/agreements/IInstantDistributionAgreementV1.sol\";\n\nimport \"@openzeppelin/contracts/token/ERC777/IERC777.sol\";\nimport \"@openzeppelin/contracts/utils/introspection/IERC1820Registry.sol\";\nimport \"@openzeppelin/contracts/token/ERC777/IERC777Recipient.sol\";\nimport \"@openzeppelin/contracts/proxy/utils/Initializable.sol\";\n\n\n\ncontract BaseDistributor is IERC777Recipient,Initializable {\n    Emitter emitter;\n    uint256 public totalDonations=0;\n    uint128 public totalShareUnits=0;\n    mapping (address=>uint128) shareMapping;\n    mapping (address=>string) tokenNameMapping;\n\n    uint32 public constant INDEX_ID = 0;\n\n    address public owner;\n    ISuperToken private _cashToken;\n\n    ISuperToken private fDAIx;\n    ISuperToken private fUSDCx;\n    ISuperToken private fTUSDx;\n    ISuperToken private ETHx;\n\n    ISuperfluid private _host;\n    IInstantDistributionAgreementV1 private _ida;\n\n    IERC1820Registry private _erc1820;// = IERC1820Registry(0x1820a4B7618BdE71Dce8cdc73aAB6C95905faD24);\n    bytes32 constant private TOKENS_RECIPIENT_INTERFACE_HASH = keccak256(\"ERC777TokensRecipient\");\n\n    // use callbacks to track approved subscriptions\n    mapping (address => bool) public isSubscribing;\n\n    //Events\n    // event DonationReceived(address from, string token, uint256 amount,uint32 index,address publisher,uint timeStamp);\n    // event UserAdded(address userAddress,uint128 shares,uint32 index,address publisher,uint timeStamp,uint128 totalShares);\n    // event UserRemoved(address userAddress,uint128 shares,uint32 index,address publisher,uint timeStamp,uint128 totalShares);\n    // event UserModified(address userAddress,uint128 shares,uint32 index,address publisher,uint timeStamp,uint128 totalShares);\n    // event Distribution(uint256 amountDistributed,uint32 index,address publisher,uint timeStamp,string token);\n    // event TotalShares(uint128 totalShares,uint32 index,address publisher,uint timeStamp);\n\n    function initialize (\n        address host,\n        address ida,\n        address emitterAdd,\n        address _owner,\n        address _fDAIx,\n        address _fUSDCx,\n        address _fTUSDx,\n        address _ETHx,\n        address _erc1820Add\n        ) public initializer{\n        \n        emitter = Emitter(emitterAdd);\n        owner = _owner;\n        _erc1820 = IERC1820Registry(_erc1820Add);\n        _erc1820.setInterfaceImplementer(address(this), TOKENS_RECIPIENT_INTERFACE_HASH, address(this));\n        // transferOwnership(_owner);\n        \n\n         fDAIx = ISuperToken(_fDAIx);\n        tokenNameMapping[_fDAIx] = \"fDAIx\";\n\n         fUSDCx = ISuperToken(_fUSDCx);\n        tokenNameMapping[_fUSDCx] = \"fUSDCx\";\n\n         fTUSDx = ISuperToken(_fTUSDx);\n        tokenNameMapping[_fTUSDx] = \"fTUSDx\";\n\n         ETHx = ISuperToken(_ETHx);\n        tokenNameMapping[_ETHx] = \"ETHx\";\n\n        \n        _host = ISuperfluid(host);\n        _ida = IInstantDistributionAgreementV1(ida);\n    // }\n\n    // function initalize2() external onlyOwner{\n\n        _host.callAgreement(\n            _ida,\n            abi.encodeWithSelector(\n                _ida.createIndex.selector,\n                fDAIx,\n                INDEX_ID,\n                new bytes(0) // placeholder ctx\n            ),\n            new bytes(0) // user data\n        );\n\n        _host.callAgreement(\n            _ida,\n            abi.encodeWithSelector(\n                _ida.createIndex.selector,\n                fUSDCx,\n                INDEX_ID,\n                new bytes(0) // placeholder ctx\n            ),\n            new bytes(0) // user data\n        );\n\n        _host.callAgreement(\n            _ida,\n            abi.encodeWithSelector(\n                _ida.createIndex.selector,\n                fTUSDx,\n                INDEX_ID,\n                new bytes(0) // placeholder ctx\n            ),\n            new bytes(0) // user data\n        );\n\n        _host.callAgreement(\n            _ida,\n            abi.encodeWithSelector(\n                _ida.createIndex.selector,\n                ETHx,\n                INDEX_ID,\n                new bytes(0) // placeholder ctx\n            ),\n            new bytes(0) // user data\n        );\n    }\n\n    modifier onlyOwner(){\n        require(owner==msg.sender,\"Only the owner could use this\");\n        _;\n    }\n\n    function sharesOf(address user) view external returns(uint128){\n        return shareMapping[user];\n    }\n\n    // function beforeAgreementCreated(\n    //     ISuperToken superToken,\n    //     address agreementClass,\n    //     bytes32 /* agreementId */,\n    //     bytes calldata /*agreementData*/,\n    //     bytes calldata /*ctx*/\n    // )\n    //     external view override\n    //     returns (bytes memory data)\n    // {\n    //     // require(superToken == _cashToken, \"DRT: Unsupported cash token\");\n    //     require(agreementClass == address(_ida), \"DRT: Unsupported agreement\");\n    //     return new bytes(0);\n    // }\n\n    // function afterAgreementCreated(\n    //     ISuperToken superToken,\n    //     address /* agreementClass */,\n    //     bytes32 agreementId,\n    //     bytes calldata /*agreementData*/,\n    //     bytes calldata /*cbdata*/,\n    //     bytes calldata ctx\n    // )\n    //     external override\n    //     returns(bytes memory newCtx)\n    // {\n    //     _checkSubscription(superToken, ctx, agreementId);\n    //     newCtx = ctx;\n    // }\n\n    // function beforeAgreementUpdated(\n    //     ISuperToken superToken,\n    //     address agreementClass,\n    //     bytes32 /* agreementId */,\n    //     bytes calldata /*agreementData*/,\n    //     bytes calldata /*ctx*/\n    // )\n    //     external view override\n    //     returns (bytes memory data)\n    // {\n    //     // require(superToken == _cashToken, \"DRT: Unsupported cash token\");\n    //     require(agreementClass == address(_ida), \"DRT: Unsupported agreement\");\n    //     return new bytes(0);\n    // }\n\n    // function afterAgreementUpdated(\n    //     ISuperToken superToken,\n    //     address /* agreementClass */,\n    //     bytes32 agreementId,\n    //     bytes calldata /*agreementData*/,\n    //     bytes calldata /*cbdata*/,\n    //     bytes calldata ctx\n    // )\n    //     external override\n    //     returns(bytes memory newCtx)\n    // {\n    //     _checkSubscription(superToken, ctx, agreementId);\n    //     newCtx = ctx;\n    // }\n\n    function _checkSubscription(\n        ISuperToken superToken,\n        bytes calldata ctx,\n        bytes32 agreementId\n    )\n        private\n    {\n        ISuperfluid.Context memory context = _host.decodeCtx(ctx);\n        // only interested in the subscription approval callbacks\n        if (context.agreementSelector == IInstantDistributionAgreementV1.approveSubscription.selector) {\n            address publisher;\n            uint32 indexId;\n            bool approved;\n            uint128 units;\n            uint256 pendingDistribution;\n            (publisher, indexId, approved, units, pendingDistribution) =\n                _ida.getSubscriptionByID(superToken, agreementId);\n\n            // sanity checks for testing purpose\n            require(publisher == address(this), \"DRT: publisher mismatch\");\n            require(indexId == INDEX_ID, \"DRT: publisher mismatch\");\n\n            if (approved) {\n                isSubscribing[context.msgSender /* subscriber */] = true;\n            }\n        }\n    }\n\n    function modifySub(address user,uint128 shareUnits) internal{\n        _host.callAgreement(\n            _ida,\n            abi.encodeWithSelector(\n                _ida.updateSubscription.selector,\n                fDAIx,\n                INDEX_ID,\n                user,\n                shareUnits,\n                new bytes(0) // placeholder ctx\n            ),\n            new bytes(0) // user data\n        );\n\n        _host.callAgreement(\n            _ida,\n            abi.encodeWithSelector(\n                _ida.updateSubscription.selector,\n                fUSDCx,\n                INDEX_ID,\n                user,\n                shareUnits,\n                new bytes(0) // placeholder ctx\n            ),\n            new bytes(0) // user data\n        );\n\n        _host.callAgreement(\n            _ida,\n            abi.encodeWithSelector(\n                _ida.updateSubscription.selector,\n                fTUSDx,\n                INDEX_ID,\n                user,\n                shareUnits,\n                new bytes(0) // placeholder ctx\n            ),\n            new bytes(0) // user data\n        );\n\n        _host.callAgreement(\n            _ida,\n            abi.encodeWithSelector(\n                _ida.updateSubscription.selector,\n                ETHx,\n                INDEX_ID,\n                user,\n                shareUnits,\n                new bytes(0) // placeholder ctx\n            ),\n            new bytes(0) // user data\n        );\n        \n    }\n\n    function abs(uint128 x,uint128 y) private pure returns (uint128) {\n        if(x>y)\n         return x-y;\n        if(x<y)\n         return y-x;\n        if(x==y)\n         return x;\n    }\n\n    function addUser(address newUser,uint128 sharePercentage,string memory _name) external onlyOwner{\n        require(shareMapping[newUser]==0,\"User already exists\");\n        require(sharePercentage>0,\"Share Percentage should be greater than zero\");\n\n        uint128 shareUnits = totalShareUnits==0?100: (sharePercentage * totalShareUnits)/(100- sharePercentage);\n        modifySub(newUser, shareUnits);\n        totalShareUnits += shareUnits;\n        shareMapping[newUser] = shareUnits;\n        emitter.UserAdded2(newUser,shareUnits,INDEX_ID,address(this),block.timestamp,totalShareUnits,owner,_name);\n        emitter.TotalShares2(totalShareUnits,INDEX_ID,address(this),block.timestamp,owner);\n    }\n\n    function modifyUser(address existingUser,uint128 sharePercentage) external onlyOwner{\n        require(shareMapping[existingUser]!=0,\"User doesn't exist\");\n        require(sharePercentage>0,\"Share Percentage should be greater than zero\");\n        uint128 shareUnits = totalShareUnits==shareMapping[existingUser]?100:(sharePercentage * abs(totalShareUnits,shareMapping[existingUser]))/(100- sharePercentage);\n        modifySub(existingUser, shareUnits);\n        totalShareUnits -= shareMapping[existingUser];//Need to handle case where shareMapping is larger than total share units\n        totalShareUnits += shareUnits ;\n        shareMapping[existingUser] = shareUnits;\n        emitter.UserModified2(existingUser,shareUnits,INDEX_ID,address(this),block.timestamp,totalShareUnits,owner);\n        emitter.TotalShares2(totalShareUnits,INDEX_ID,address(this),block.timestamp,owner);\n    }\n\n    function removeUser(address existingUser) external onlyOwner{\n        require(shareMapping[existingUser]!=0,\"User doesn't exist\");\n        totalShareUnits -= shareMapping[existingUser];\n        shareMapping[existingUser] = 0;\n        modifySub(existingUser, 0);\n        emitter.UserRemoved2(existingUser,0,INDEX_ID,address(this),block.timestamp,totalShareUnits,owner);//Changed the shareUnits to zero to read in the frontend the exit of the user\n        emitter.TotalShares2(totalShareUnits,INDEX_ID,address(this),block.timestamp,owner);\n    }\n\n    /// @dev Distribute `amount` of cash among all token holders\n    function distribute(uint256 cashAmount,address tokenAddress) internal {\n        (uint256 actualCashAmount,) = _ida.calculateDistribution(\n            ISuperToken(tokenAddress),\n            address(this), INDEX_ID,\n            cashAmount);\n\n        _host.callAgreement(\n            _ida,\n            abi.encodeWithSelector(\n                _ida.distribute.selector,\n                ISuperToken(tokenAddress),\n                INDEX_ID,\n                actualCashAmount,\n                new bytes(0) // placeholder ctx\n            ),\n            new bytes(0) // user data\n        );\n        emitter.Distribution2(actualCashAmount,INDEX_ID,address(this),block.timestamp,tokenNameMapping[tokenAddress],owner);\n    }\n\n    function tokensReceived(\n        address operator,\n        address from,\n        address to,\n        uint256 amount,\n        bytes calldata userData,\n        bytes calldata operatorData\n    ) external override {\n        //require(msg.sender == address(_token), \"Simple777Recipient: Invalid token\");\n        require((msg.sender==address(fDAIx))||(msg.sender==address(fUSDCx))||(msg.sender==address(fTUSDx))||(msg.sender==address(ETHx)),\"Can only accept ERC777 tokens\");\n        // do stuff\n        totalDonations += amount;\n        distribute(amount,msg.sender);\n        emitter.DonationReceived2( from, tokenNameMapping[msg.sender], amount,INDEX_ID,address(this),block.timestamp,owner);\n    }\n}",
  "sourcePath": "/Users/praffulsahu/Documents/Crypto/erc777distributor/contracts/BaseDistributor.sol",
  "compiler": {
    "name": "solc",
    "version": "0.8.0+commit.c7dfd78e.Emscripten.clang"
  },
  "schemaVersion": "3.3.3",
  "updatedAt": "2021-06-28T15:21:27.506Z",
  "networkType": "ethereum",
  "devdoc": {
    "kind": "dev",
    "methods": {
      "tokensReceived(address,address,address,uint256,bytes,bytes)": {
        "details": "Called by an {IERC777} token contract whenever tokens are being moved or created into a registered account (`to`). The type of operation is conveyed by `from` being the zero address or not. This call occurs _after_ the token contract's state is updated, so {IERC777-balanceOf}, etc., can be used to query the post-operation state. This function may revert to prevent the operation from being executed."
      }
    },
    "version": 1
  },
  "userdoc": {
    "kind": "user",
    "methods": {},
    "version": 1
  }
}