{
  "contractName": "BaseDistributor",
  "abi": [
    {
      "anonymous": false,
      "inputs": [
        {
          "indexed": true,
          "internalType": "address",
          "name": "previousOwner",
          "type": "address"
        },
        {
          "indexed": true,
          "internalType": "address",
          "name": "newOwner",
          "type": "address"
        }
      ],
      "name": "OwnershipTransferred",
      "type": "event"
    },
    {
      "inputs": [],
      "name": "INDEX_ID",
      "outputs": [
        {
          "internalType": "uint32",
          "name": "",
          "type": "uint32"
        }
      ],
      "stateMutability": "view",
      "type": "function"
    },
    {
      "inputs": [
        {
          "internalType": "contract ISuperToken",
          "name": "",
          "type": "address"
        },
        {
          "internalType": "address",
          "name": "",
          "type": "address"
        },
        {
          "internalType": "bytes32",
          "name": "",
          "type": "bytes32"
        },
        {
          "internalType": "bytes",
          "name": "",
          "type": "bytes"
        },
        {
          "internalType": "bytes",
          "name": "",
          "type": "bytes"
        },
        {
          "internalType": "bytes",
          "name": "",
          "type": "bytes"
        }
      ],
      "name": "afterAgreementTerminated",
      "outputs": [
        {
          "internalType": "bytes",
          "name": "",
          "type": "bytes"
        }
      ],
      "stateMutability": "nonpayable",
      "type": "function"
    },
    {
      "inputs": [
        {
          "internalType": "contract ISuperToken",
          "name": "",
          "type": "address"
        },
        {
          "internalType": "address",
          "name": "",
          "type": "address"
        },
        {
          "internalType": "bytes32",
          "name": "",
          "type": "bytes32"
        },
        {
          "internalType": "bytes",
          "name": "",
          "type": "bytes"
        },
        {
          "internalType": "bytes",
          "name": "",
          "type": "bytes"
        }
      ],
      "name": "beforeAgreementTerminated",
      "outputs": [
        {
          "internalType": "bytes",
          "name": "",
          "type": "bytes"
        }
      ],
      "stateMutability": "view",
      "type": "function"
    },
    {
      "inputs": [
        {
          "internalType": "address",
          "name": "",
          "type": "address"
        }
      ],
      "name": "isSubscribing",
      "outputs": [
        {
          "internalType": "bool",
          "name": "",
          "type": "bool"
        }
      ],
      "stateMutability": "view",
      "type": "function"
    },
    {
      "inputs": [],
      "name": "owner",
      "outputs": [
        {
          "internalType": "address",
          "name": "",
          "type": "address"
        }
      ],
      "stateMutability": "view",
      "type": "function"
    },
    {
      "inputs": [],
      "name": "renounceOwnership",
      "outputs": [],
      "stateMutability": "nonpayable",
      "type": "function"
    },
    {
      "inputs": [],
      "name": "totalDonations",
      "outputs": [
        {
          "internalType": "uint256",
          "name": "",
          "type": "uint256"
        }
      ],
      "stateMutability": "view",
      "type": "function"
    },
    {
      "inputs": [],
      "name": "totalShareUnits",
      "outputs": [
        {
          "internalType": "uint128",
          "name": "",
          "type": "uint128"
        }
      ],
      "stateMutability": "view",
      "type": "function"
    },
    {
      "inputs": [
        {
          "internalType": "address",
          "name": "newOwner",
          "type": "address"
        }
      ],
      "name": "transferOwnership",
      "outputs": [],
      "stateMutability": "nonpayable",
      "type": "function"
    },
    {
      "inputs": [
        {
          "internalType": "contract ISuperfluid",
          "name": "host",
          "type": "address"
        },
        {
          "internalType": "contract IInstantDistributionAgreementV1",
          "name": "ida",
          "type": "address"
        },
        {
          "internalType": "address",
          "name": "emitterAdd",
          "type": "address"
        },
        {
          "internalType": "address",
          "name": "_owner",
          "type": "address"
        }
      ],
      "name": "initialize",
      "outputs": [],
      "stateMutability": "nonpayable",
      "type": "function"
    },
    {
      "inputs": [
        {
          "internalType": "address",
          "name": "user",
          "type": "address"
        }
      ],
      "name": "sharesOf",
      "outputs": [
        {
          "internalType": "uint128",
          "name": "",
          "type": "uint128"
        }
      ],
      "stateMutability": "view",
      "type": "function"
    },
    {
      "inputs": [
        {
          "internalType": "contract ISuperToken",
          "name": "superToken",
          "type": "address"
        },
        {
          "internalType": "address",
          "name": "agreementClass",
          "type": "address"
        },
        {
          "internalType": "bytes32",
          "name": "",
          "type": "bytes32"
        },
        {
          "internalType": "bytes",
          "name": "",
          "type": "bytes"
        },
        {
          "internalType": "bytes",
          "name": "",
          "type": "bytes"
        }
      ],
      "name": "beforeAgreementCreated",
      "outputs": [
        {
          "internalType": "bytes",
          "name": "data",
          "type": "bytes"
        }
      ],
      "stateMutability": "view",
      "type": "function"
    },
    {
      "inputs": [
        {
          "internalType": "contract ISuperToken",
          "name": "superToken",
          "type": "address"
        },
        {
          "internalType": "address",
          "name": "",
          "type": "address"
        },
        {
          "internalType": "bytes32",
          "name": "agreementId",
          "type": "bytes32"
        },
        {
          "internalType": "bytes",
          "name": "",
          "type": "bytes"
        },
        {
          "internalType": "bytes",
          "name": "",
          "type": "bytes"
        },
        {
          "internalType": "bytes",
          "name": "ctx",
          "type": "bytes"
        }
      ],
      "name": "afterAgreementCreated",
      "outputs": [
        {
          "internalType": "bytes",
          "name": "newCtx",
          "type": "bytes"
        }
      ],
      "stateMutability": "nonpayable",
      "type": "function"
    },
    {
      "inputs": [
        {
          "internalType": "contract ISuperToken",
          "name": "superToken",
          "type": "address"
        },
        {
          "internalType": "address",
          "name": "agreementClass",
          "type": "address"
        },
        {
          "internalType": "bytes32",
          "name": "",
          "type": "bytes32"
        },
        {
          "internalType": "bytes",
          "name": "",
          "type": "bytes"
        },
        {
          "internalType": "bytes",
          "name": "",
          "type": "bytes"
        }
      ],
      "name": "beforeAgreementUpdated",
      "outputs": [
        {
          "internalType": "bytes",
          "name": "data",
          "type": "bytes"
        }
      ],
      "stateMutability": "view",
      "type": "function"
    },
    {
      "inputs": [
        {
          "internalType": "contract ISuperToken",
          "name": "superToken",
          "type": "address"
        },
        {
          "internalType": "address",
          "name": "",
          "type": "address"
        },
        {
          "internalType": "bytes32",
          "name": "agreementId",
          "type": "bytes32"
        },
        {
          "internalType": "bytes",
          "name": "",
          "type": "bytes"
        },
        {
          "internalType": "bytes",
          "name": "",
          "type": "bytes"
        },
        {
          "internalType": "bytes",
          "name": "ctx",
          "type": "bytes"
        }
      ],
      "name": "afterAgreementUpdated",
      "outputs": [
        {
          "internalType": "bytes",
          "name": "newCtx",
          "type": "bytes"
        }
      ],
      "stateMutability": "nonpayable",
      "type": "function"
    },
    {
      "inputs": [
        {
          "internalType": "address",
          "name": "newUser",
          "type": "address"
        },
        {
          "internalType": "uint128",
          "name": "sharePercentage",
          "type": "uint128"
        }
      ],
      "name": "addUser",
      "outputs": [],
      "stateMutability": "nonpayable",
      "type": "function"
    },
    {
      "inputs": [
        {
          "internalType": "address",
          "name": "existingUser",
          "type": "address"
        },
        {
          "internalType": "uint128",
          "name": "sharePercentage",
          "type": "uint128"
        }
      ],
      "name": "modifyUser",
      "outputs": [],
      "stateMutability": "nonpayable",
      "type": "function"
    },
    {
      "inputs": [
        {
          "internalType": "address",
          "name": "existingUser",
          "type": "address"
        }
      ],
      "name": "removeUser",
      "outputs": [],
      "stateMutability": "nonpayable",
      "type": "function"
    },
    {
      "inputs": [
        {
          "internalType": "address",
          "name": "operator",
          "type": "address"
        },
        {
          "internalType": "address",
          "name": "from",
          "type": "address"
        },
        {
          "internalType": "address",
          "name": "to",
          "type": "address"
        },
        {
          "internalType": "uint256",
          "name": "amount",
          "type": "uint256"
        },
        {
          "internalType": "bytes",
          "name": "userData",
          "type": "bytes"
        },
        {
          "internalType": "bytes",
          "name": "operatorData",
          "type": "bytes"
        }
      ],
      "name": "tokensReceived",
      "outputs": [],
      "stateMutability": "nonpayable",
      "type": "function"
    }
  ],
  "bytecode": "0x608060405260006002556000600360006101000a8154816fffffffffffffffffffffffffffffffff02191690836fffffffffffffffffffffffffffffffff160217905550731820a4b7618bde71dce8cdc73aab6c95905fad24600d60006101000a81548173ffffffffffffffffffffffffffffffffffffffff021916908373ffffffffffffffffffffffffffffffffffffffff160217905550348015620000a557600080fd5b506000620000b86200015d60201b60201c565b905080600060026101000a81548173ffffffffffffffffffffffffffffffffffffffff021916908373ffffffffffffffffffffffffffffffffffffffff1602179055508073ffffffffffffffffffffffffffffffffffffffff16600073ffffffffffffffffffffffffffffffffffffffff167f8be0079c531659141344cd1fd0a4f28419497f9722a3daafe3b4186f6b6457e060405160405180910390a35062000165565b600033905090565b6151e680620001756000396000f3fe608060405234801561001057600080fd5b50600436106101205760003560e01c8063884d1f40116100ad578063d86ed3e511610071578063d86ed3e514610319578063de2ed89314610349578063f2fde38b14610367578063f5eb42dc14610383578063f8c8765e146103b357610120565b8063884d1f40146102615780638c7f0959146102915780638da5cb5b146102af578063915e3364146102cd57806398575188146102fd57610120565b806353c11f99116100f457806353c11f99146101bf5780635f9e7d77146101ef578063715018a61461021f57806380e85c51146102295780638378f8c01461024557610120565b806223de2914610125578063230dbd291461014157806330d9c915146101715780635167f6e7146101a1575b600080fd5b61013f600480360381019061013a9190613e2d565b6103cf565b005b61015b60048036038101906101569190614094565b6104d2565b6040516101689190614853565b60405180910390f35b61018b60048036038101906101869190613fe4565b610534565b6040516101989190614853565b60405180910390f35b6101a9610647565b6040516101b69190614b2c565b60405180910390f35b6101d960048036038101906101d49190614094565b610669565b6040516101e69190614853565b60405180910390f35b61020960048036038101906102049190613fe4565b6106a6565b6040516102169190614853565b60405180910390f35b6102276106e3565b005b610243600480360381019061023e9190613ef0565b61081f565b005b61025f600480360381019061025a9190613ef0565b610c74565b005b61027b60048036038101906102769190613fe4565b611259565b6040516102889190614853565b60405180910390f35b61029961136c565b6040516102a69190614c01565b60405180910390f35b6102b7611371565b6040516102c49190614698565b60405180910390f35b6102e760048036038101906102e29190613e04565b61139a565b6040516102f49190614814565b60405180910390f35b61031760048036038101906103129190613e04565b6113ba565b005b610333600480360381019061032e9190614094565b611792565b6040516103409190614853565b60405180910390f35b6103516117f4565b60405161035e9190614b8c565b60405180910390f35b610381600480360381019061037c9190613e04565b6117fa565b005b61039d60048036038101906103989190613e04565b6119a6565b6040516103aa9190614b2c565b60405180910390f35b6103cd60048036038101906103c89190614173565b611a0b565b005b84600260008282546103e19190614d05565b925050819055506103f28533612960565b600160009054906101000a900473ffffffffffffffffffffffffffffffffffffffff1673ffffffffffffffffffffffffffffffffffffffff1663aeed6fd288600560003373ffffffffffffffffffffffffffffffffffffffff1673ffffffffffffffffffffffffffffffffffffffff16815260200190815260200160002088600030426040518763ffffffff1660e01b81526004016104969695949392919061474b565b600060405180830381600087803b1580156104b057600080fd5b505af11580156104c4573d6000803e3d6000fd5b505050505050505050505050565b60606104e08a84848b612d2a565b82828080601f016020809104026020016040519081016040528093929190818152602001838380828437600081840152601f19601f8201169050808301925050505050505090509998505050505050505050565b6060600c60009054906101000a900473ffffffffffffffffffffffffffffffffffffffff1673ffffffffffffffffffffffffffffffffffffffff168773ffffffffffffffffffffffffffffffffffffffff16146105c6576040517f08c379a00000000000000000000000000000000000000000000000000000000081526004016105bd90614a6c565b60405180910390fd5b600067ffffffffffffffff811115610607577f4e487b7100000000000000000000000000000000000000000000000000000000600052604160045260246000fd5b6040519080825280601f01601f1916602001820160405280156106395781602001600182028036833780820191505090505b509050979650505050505050565b600360009054906101000a90046fffffffffffffffffffffffffffffffff1681565b60606040517f08c379a000000000000000000000000000000000000000000000000000000000815260040161069d90614b0c565b60405180910390fd5b60606040517f08c379a00000000000000000000000000000000000000000000000000000000081526004016106da90614a4c565b60405180910390fd5b6106eb613027565b73ffffffffffffffffffffffffffffffffffffffff16610709611371565b73ffffffffffffffffffffffffffffffffffffffff161461075f576040517f08c379a000000000000000000000000000000000000000000000000000000000815260040161075690614aac565b60405180910390fd5b600073ffffffffffffffffffffffffffffffffffffffff16600060029054906101000a900473ffffffffffffffffffffffffffffffffffffffff1673ffffffffffffffffffffffffffffffffffffffff167f8be0079c531659141344cd1fd0a4f28419497f9722a3daafe3b4186f6b6457e060405160405180910390a360008060026101000a81548173ffffffffffffffffffffffffffffffffffffffff021916908373ffffffffffffffffffffffffffffffffffffffff160217905550565b610827613027565b73ffffffffffffffffffffffffffffffffffffffff16610845611371565b73ffffffffffffffffffffffffffffffffffffffff161461089b576040517f08c379a000000000000000000000000000000000000000000000000000000000815260040161089290614aac565b60405180910390fd5b6000600460008473ffffffffffffffffffffffffffffffffffffffff1673ffffffffffffffffffffffffffffffffffffffff16815260200190815260200160002060009054906101000a90046fffffffffffffffffffffffffffffffff166fffffffffffffffffffffffffffffffff161461094b576040517f08c379a000000000000000000000000000000000000000000000000000000000815260040161094290614a8c565b60405180910390fd5b6000816fffffffffffffffffffffffffffffffff16116109a0576040517f08c379a000000000000000000000000000000000000000000000000000000000815260040161099790614a0c565b60405180910390fd5b600080600360009054906101000a90046fffffffffffffffffffffffffffffffff166fffffffffffffffffffffffffffffffff1614610a1f578160646109e69190614dd6565b600360009054906101000a90046fffffffffffffffffffffffffffffffff1683610a109190614d8c565b610a1a9190614d5b565b610a22565b60645b9050610a2e838261302f565b80600360008282829054906101000a90046fffffffffffffffffffffffffffffffff16610a5b9190614cbf565b92506101000a8154816fffffffffffffffffffffffffffffffff02191690836fffffffffffffffffffffffffffffffff16021790555080600460008573ffffffffffffffffffffffffffffffffffffffff1673ffffffffffffffffffffffffffffffffffffffff16815260200190815260200160002060006101000a8154816fffffffffffffffffffffffffffffffff02191690836fffffffffffffffffffffffffffffffff160217905550600160009054906101000a900473ffffffffffffffffffffffffffffffffffffffff1673ffffffffffffffffffffffffffffffffffffffff1663e028b05d848360003042600360009054906101000a90046fffffffffffffffffffffffffffffffff166040518763ffffffff1660e01b8152600401610b8b969594939291906147b3565b600060405180830381600087803b158015610ba557600080fd5b505af1158015610bb9573d6000803e3d6000fd5b50505050600160009054906101000a900473ffffffffffffffffffffffffffffffffffffffff1673ffffffffffffffffffffffffffffffffffffffff166326d35089600360009054906101000a90046fffffffffffffffffffffffffffffffff16600030426040518563ffffffff1660e01b8152600401610c3d9493929190614b47565b600060405180830381600087803b158015610c5757600080fd5b505af1158015610c6b573d6000803e3d6000fd5b50505050505050565b610c7c613027565b73ffffffffffffffffffffffffffffffffffffffff16610c9a611371565b73ffffffffffffffffffffffffffffffffffffffff1614610cf0576040517f08c379a0000000000000000000000000000000000000000000000000000000008152600401610ce790614aac565b60405180910390fd5b6000600460008473ffffffffffffffffffffffffffffffffffffffff1673ffffffffffffffffffffffffffffffffffffffff16815260200190815260200160002060009054906101000a90046fffffffffffffffffffffffffffffffff166fffffffffffffffffffffffffffffffff161415610da1576040517f08c379a0000000000000000000000000000000000000000000000000000000008152600401610d9890614aec565b60405180910390fd5b6000816fffffffffffffffffffffffffffffffff1611610df6576040517f08c379a0000000000000000000000000000000000000000000000000000000008152600401610ded90614a0c565b60405180910390fd5b6000600460008473ffffffffffffffffffffffffffffffffffffffff1673ffffffffffffffffffffffffffffffffffffffff16815260200190815260200160002060009054906101000a90046fffffffffffffffffffffffffffffffff166fffffffffffffffffffffffffffffffff16600360009054906101000a90046fffffffffffffffffffffffffffffffff166fffffffffffffffffffffffffffffffff1614610f4657816064610ea99190614dd6565b610f2c600360009054906101000a90046fffffffffffffffffffffffffffffffff16600460008773ffffffffffffffffffffffffffffffffffffffff1673ffffffffffffffffffffffffffffffffffffffff16815260200190815260200160002060009054906101000a90046fffffffffffffffffffffffffffffffff166139af565b83610f379190614d8c565b610f419190614d5b565b610f49565b60645b9050610f55838261302f565b600460008473ffffffffffffffffffffffffffffffffffffffff1673ffffffffffffffffffffffffffffffffffffffff16815260200190815260200160002060009054906101000a90046fffffffffffffffffffffffffffffffff16600360008282829054906101000a90046fffffffffffffffffffffffffffffffff16610fdd9190614dd6565b92506101000a8154816fffffffffffffffffffffffffffffffff02191690836fffffffffffffffffffffffffffffffff16021790555080600360008282829054906101000a90046fffffffffffffffffffffffffffffffff166110409190614cbf565b92506101000a8154816fffffffffffffffffffffffffffffffff02191690836fffffffffffffffffffffffffffffffff16021790555080600460008573ffffffffffffffffffffffffffffffffffffffff1673ffffffffffffffffffffffffffffffffffffffff16815260200190815260200160002060006101000a8154816fffffffffffffffffffffffffffffffff02191690836fffffffffffffffffffffffffffffffff160217905550600160009054906101000a900473ffffffffffffffffffffffffffffffffffffffff1673ffffffffffffffffffffffffffffffffffffffff1663c207fd9a848360003042600360009054906101000a90046fffffffffffffffffffffffffffffffff166040518763ffffffff1660e01b8152600401611170969594939291906147b3565b600060405180830381600087803b15801561118a57600080fd5b505af115801561119e573d6000803e3d6000fd5b50505050600160009054906101000a900473ffffffffffffffffffffffffffffffffffffffff1673ffffffffffffffffffffffffffffffffffffffff166326d35089600360009054906101000a90046fffffffffffffffffffffffffffffffff16600030426040518563ffffffff1660e01b81526004016112229493929190614b47565b600060405180830381600087803b15801561123c57600080fd5b505af1158015611250573d6000803e3d6000fd5b50505050505050565b6060600c60009054906101000a900473ffffffffffffffffffffffffffffffffffffffff1673ffffffffffffffffffffffffffffffffffffffff168773ffffffffffffffffffffffffffffffffffffffff16146112eb576040517f08c379a00000000000000000000000000000000000000000000000000000000081526004016112e290614a6c565b60405180910390fd5b600067ffffffffffffffff81111561132c577f4e487b7100000000000000000000000000000000000000000000000000000000600052604160045260246000fd5b6040519080825280601f01601f19166020018201604052801561135e5781602001600182028036833780820191505090505b509050979650505050505050565b600081565b60008060029054906101000a900473ffffffffffffffffffffffffffffffffffffffff16905090565b600e6020528060005260406000206000915054906101000a900460ff1681565b6113c2613027565b73ffffffffffffffffffffffffffffffffffffffff166113e0611371565b73ffffffffffffffffffffffffffffffffffffffff1614611436576040517f08c379a000000000000000000000000000000000000000000000000000000000815260040161142d90614aac565b60405180910390fd5b6000600460008373ffffffffffffffffffffffffffffffffffffffff1673ffffffffffffffffffffffffffffffffffffffff16815260200190815260200160002060009054906101000a90046fffffffffffffffffffffffffffffffff166fffffffffffffffffffffffffffffffff1614156114e7576040517f08c379a00000000000000000000000000000000000000000000000000000000081526004016114de90614aec565b60405180910390fd5b600460008273ffffffffffffffffffffffffffffffffffffffff1673ffffffffffffffffffffffffffffffffffffffff16815260200190815260200160002060009054906101000a90046fffffffffffffffffffffffffffffffff16600360008282829054906101000a90046fffffffffffffffffffffffffffffffff1661156f9190614dd6565b92506101000a8154816fffffffffffffffffffffffffffffffff02191690836fffffffffffffffffffffffffffffffff1602179055506000600460008373ffffffffffffffffffffffffffffffffffffffff1673ffffffffffffffffffffffffffffffffffffffff16815260200190815260200160002060006101000a8154816fffffffffffffffffffffffffffffffff02191690836fffffffffffffffffffffffffffffffff16021790555061162781600061302f565b600160009054906101000a900473ffffffffffffffffffffffffffffffffffffffff1673ffffffffffffffffffffffffffffffffffffffff1663b464319c826000803042600360009054906101000a90046fffffffffffffffffffffffffffffffff166040518763ffffffff1660e01b81526004016116ab969594939291906146ea565b600060405180830381600087803b1580156116c557600080fd5b505af11580156116d9573d6000803e3d6000fd5b50505050600160009054906101000a900473ffffffffffffffffffffffffffffffffffffffff1673ffffffffffffffffffffffffffffffffffffffff166326d35089600360009054906101000a90046fffffffffffffffffffffffffffffffff16600030426040518563ffffffff1660e01b815260040161175d9493929190614b47565b600060405180830381600087803b15801561177757600080fd5b505af115801561178b573d6000803e3d6000fd5b5050505050565b60606117a08a84848b612d2a565b82828080601f016020809104026020016040519081016040528093929190818152602001838380828437600081840152601f19601f8201169050808301925050505050505090509998505050505050505050565b60025481565b611802613027565b73ffffffffffffffffffffffffffffffffffffffff16611820611371565b73ffffffffffffffffffffffffffffffffffffffff1614611876576040517f08c379a000000000000000000000000000000000000000000000000000000000815260040161186d90614aac565b60405180910390fd5b600073ffffffffffffffffffffffffffffffffffffffff168173ffffffffffffffffffffffffffffffffffffffff1614156118e6576040517f08c379a00000000000000000000000000000000000000000000000000000000081526004016118dd90614a2c565b60405180910390fd5b8073ffffffffffffffffffffffffffffffffffffffff16600060029054906101000a900473ffffffffffffffffffffffffffffffffffffffff1673ffffffffffffffffffffffffffffffffffffffff167f8be0079c531659141344cd1fd0a4f28419497f9722a3daafe3b4186f6b6457e060405160405180910390a380600060026101000a81548173ffffffffffffffffffffffffffffffffffffffff021916908373ffffffffffffffffffffffffffffffffffffffff16021790555050565b6000600460008373ffffffffffffffffffffffffffffffffffffffff1673ffffffffffffffffffffffffffffffffffffffff16815260200190815260200160002060009054906101000a90046fffffffffffffffffffffffffffffffff169050919050565b81600160006101000a81548173ffffffffffffffffffffffffffffffffffffffff021916908373ffffffffffffffffffffffffffffffffffffffff160217905550611a55816117fa565b600d60009054906101000a900473ffffffffffffffffffffffffffffffffffffffff1673ffffffffffffffffffffffffffffffffffffffff166329965a1d307fb281fc8c12954d22544db45de3159a39272895b169a852b314f9cc762e44c53b306040518463ffffffff1660e01b8152600401611ad4939291906146b3565b600060405180830381600087803b158015611aee57600080fd5b505af1158015611b02573d6000803e3d6000fd5b5050505073745861aed1eee363b4aaa5f1994be40b1e05ff90600760006101000a81548173ffffffffffffffffffffffffffffffffffffffff021916908373ffffffffffffffffffffffffffffffffffffffff1602179055506040518060400160405280600581526020017f66444149780000000000000000000000000000000000000000000000000000008152506005600073745861aed1eee363b4aaa5f1994be40b1e05ff9073ffffffffffffffffffffffffffffffffffffffff1673ffffffffffffffffffffffffffffffffffffffff1681526020019081526020016000209080519060200190611bf7929190613a6a565b50730f1d7c55a2b133e000ea10eec03c774e0d6796e8600860006101000a81548173ffffffffffffffffffffffffffffffffffffffff021916908373ffffffffffffffffffffffffffffffffffffffff1602179055506040518060400160405280600681526020017f665553444378000000000000000000000000000000000000000000000000000081525060056000730f1d7c55a2b133e000ea10eec03c774e0d6796e873ffffffffffffffffffffffffffffffffffffffff1673ffffffffffffffffffffffffffffffffffffffff1681526020019081526020016000209080519060200190611ce9929190613a6a565b5073df7b8461a1d9f57f12f88d97fc6131e36d302d81600960006101000a81548173ffffffffffffffffffffffffffffffffffffffff021916908373ffffffffffffffffffffffffffffffffffffffff1602179055506040518060400160405280600681526020017f66545553447800000000000000000000000000000000000000000000000000008152506005600073df7b8461a1d9f57f12f88d97fc6131e36d302d8173ffffffffffffffffffffffffffffffffffffffff1673ffffffffffffffffffffffffffffffffffffffff1681526020019081526020016000209080519060200190611ddb929190613a6a565b5073a623b2dd931c5162b7a0b25852f4024db48bb1a0600a60006101000a81548173ffffffffffffffffffffffffffffffffffffffff021916908373ffffffffffffffffffffffffffffffffffffffff1602179055506040518060400160405280600481526020017f45544878000000000000000000000000000000000000000000000000000000008152506005600073a623b2dd931c5162b7a0b25852f4024db48bb1a073ffffffffffffffffffffffffffffffffffffffff1673ffffffffffffffffffffffffffffffffffffffff1681526020019081526020016000209080519060200190611ecd929190613a6a565b5083600b60006101000a81548173ffffffffffffffffffffffffffffffffffffffff021916908373ffffffffffffffffffffffffffffffffffffffff16021790555082600c60006101000a81548173ffffffffffffffffffffffffffffffffffffffff021916908373ffffffffffffffffffffffffffffffffffffffff1602179055506000642000000000641000000000600117179050600b60009054906101000a900473ffffffffffffffffffffffffffffffffffffffff1673ffffffffffffffffffffffffffffffffffffffff1663ad3915c8826040518263ffffffff1660e01b8152600401611fbf9190614b8c565b600060405180830381600087803b158015611fd957600080fd5b505af1158015611fed573d6000803e3d6000fd5b50505050600b60009054906101000a900473ffffffffffffffffffffffffffffffffffffffff1673ffffffffffffffffffffffffffffffffffffffff166339255d5b600c60009054906101000a900473ffffffffffffffffffffffffffffffffffffffff1663d787840a60e01b600760009054906101000a900473ffffffffffffffffffffffffffffffffffffffff1660008067ffffffffffffffff8111156120bf577f4e487b7100000000000000000000000000000000000000000000000000000000600052604160045260246000fd5b6040519080825280601f01601f1916602001820160405280156120f15781602001600182028036833780820191505090505b5060405160240161210493929190614982565b604051602081830303815290604052907bffffffffffffffffffffffffffffffffffffffffffffffffffffffff19166020820180517bffffffffffffffffffffffffffffffffffffffffffffffffffffffff8381831617835250505050600067ffffffffffffffff8111156121a2577f4e487b7100000000000000000000000000000000000000000000000000000000600052604160045260246000fd5b6040519080825280601f01601f1916602001820160405280156121d45781602001600182028036833780820191505090505b506040518463ffffffff1660e01b81526004016121f393929190614875565b600060405180830381600087803b15801561220d57600080fd5b505af1158015612221573d6000803e3d6000fd5b505050506040513d6000823e3d601f19601f8201168201806040525081019061224a9190613fa3565b50600b60009054906101000a900473ffffffffffffffffffffffffffffffffffffffff1673ffffffffffffffffffffffffffffffffffffffff166339255d5b600c60009054906101000a900473ffffffffffffffffffffffffffffffffffffffff1663d787840a60e01b600860009054906101000a900473ffffffffffffffffffffffffffffffffffffffff1660008067ffffffffffffffff811115612319577f4e487b7100000000000000000000000000000000000000000000000000000000600052604160045260246000fd5b6040519080825280601f01601f19166020018201604052801561234b5781602001600182028036833780820191505090505b5060405160240161235e93929190614982565b604051602081830303815290604052907bffffffffffffffffffffffffffffffffffffffffffffffffffffffff19166020820180517bffffffffffffffffffffffffffffffffffffffffffffffffffffffff8381831617835250505050600067ffffffffffffffff8111156123fc577f4e487b7100000000000000000000000000000000000000000000000000000000600052604160045260246000fd5b6040519080825280601f01601f19166020018201604052801561242e5781602001600182028036833780820191505090505b506040518463ffffffff1660e01b815260040161244d93929190614875565b600060405180830381600087803b15801561246757600080fd5b505af115801561247b573d6000803e3d6000fd5b505050506040513d6000823e3d601f19601f820116820180604052508101906124a49190613fa3565b50600b60009054906101000a900473ffffffffffffffffffffffffffffffffffffffff1673ffffffffffffffffffffffffffffffffffffffff166339255d5b600c60009054906101000a900473ffffffffffffffffffffffffffffffffffffffff1663d787840a60e01b600960009054906101000a900473ffffffffffffffffffffffffffffffffffffffff1660008067ffffffffffffffff811115612573577f4e487b7100000000000000000000000000000000000000000000000000000000600052604160045260246000fd5b6040519080825280601f01601f1916602001820160405280156125a55781602001600182028036833780820191505090505b506040516024016125b893929190614982565b604051602081830303815290604052907bffffffffffffffffffffffffffffffffffffffffffffffffffffffff19166020820180517bffffffffffffffffffffffffffffffffffffffffffffffffffffffff8381831617835250505050600067ffffffffffffffff811115612656577f4e487b7100000000000000000000000000000000000000000000000000000000600052604160045260246000fd5b6040519080825280601f01601f1916602001820160405280156126885781602001600182028036833780820191505090505b506040518463ffffffff1660e01b81526004016126a793929190614875565b600060405180830381600087803b1580156126c157600080fd5b505af11580156126d5573d6000803e3d6000fd5b505050506040513d6000823e3d601f19601f820116820180604052508101906126fe9190613fa3565b50600b60009054906101000a900473ffffffffffffffffffffffffffffffffffffffff1673ffffffffffffffffffffffffffffffffffffffff166339255d5b600c60009054906101000a900473ffffffffffffffffffffffffffffffffffffffff1663d787840a60e01b600a60009054906101000a900473ffffffffffffffffffffffffffffffffffffffff1660008067ffffffffffffffff8111156127cd577f4e487b7100000000000000000000000000000000000000000000000000000000600052604160045260246000fd5b6040519080825280601f01601f1916602001820160405280156127ff5781602001600182028036833780820191505090505b5060405160240161281293929190614982565b604051602081830303815290604052907bffffffffffffffffffffffffffffffffffffffffffffffffffffffff19166020820180517bffffffffffffffffffffffffffffffffffffffffffffffffffffffff8381831617835250505050600067ffffffffffffffff8111156128b0577f4e487b7100000000000000000000000000000000000000000000000000000000600052604160045260246000fd5b6040519080825280601f01601f1916602001820160405280156128e25781602001600182028036833780820191505090505b506040518463ffffffff1660e01b815260040161290193929190614875565b600060405180830381600087803b15801561291b57600080fd5b505af115801561292f573d6000803e3d6000fd5b505050506040513d6000823e3d601f19601f820116820180604052508101906129589190613fa3565b505050505050565b6000600c60009054906101000a900473ffffffffffffffffffffffffffffffffffffffff1673ffffffffffffffffffffffffffffffffffffffff1663899baaec83306000876040518563ffffffff1660e01b81526004016129c494939291906148ba565b604080518083038186803b1580156129db57600080fd5b505afa1580156129ef573d6000803e3d6000fd5b505050506040513d601f19601f82011682018060405250810190612a139190614217565b509050600b60009054906101000a900473ffffffffffffffffffffffffffffffffffffffff1673ffffffffffffffffffffffffffffffffffffffff166339255d5b600c60009054906101000a900473ffffffffffffffffffffffffffffffffffffffff1663b96731c260e01b85600086600067ffffffffffffffff811115612ac4577f4e487b7100000000000000000000000000000000000000000000000000000000600052604160045260246000fd5b6040519080825280601f01601f191660200182016040528015612af65781602001600182028036833780820191505090505b50604051602401612b0a94939291906149c0565b604051602081830303815290604052907bffffffffffffffffffffffffffffffffffffffffffffffffffffffff19166020820180517bffffffffffffffffffffffffffffffffffffffffffffffffffffffff8381831617835250505050600067ffffffffffffffff811115612ba8577f4e487b7100000000000000000000000000000000000000000000000000000000600052604160045260246000fd5b6040519080825280601f01601f191660200182016040528015612bda5781602001600182028036833780820191505090505b506040518463ffffffff1660e01b8152600401612bf993929190614875565b600060405180830381600087803b158015612c1357600080fd5b505af1158015612c27573d6000803e3d6000fd5b505050506040513d6000823e3d601f19601f82011682018060405250810190612c509190613fa3565b50600160009054906101000a900473ffffffffffffffffffffffffffffffffffffffff1673ffffffffffffffffffffffffffffffffffffffff16634652ed8a8260003042600560008973ffffffffffffffffffffffffffffffffffffffff1673ffffffffffffffffffffffffffffffffffffffff1681526020019081526020016000206040518663ffffffff1660e01b8152600401612cf3959493929190614ba7565b600060405180830381600087803b158015612d0d57600080fd5b505af1158015612d21573d6000803e3d6000fd5b50505050505050565b6000600b60009054906101000a900473ffffffffffffffffffffffffffffffffffffffff1673ffffffffffffffffffffffffffffffffffffffff16633f6c923a85856040518363ffffffff1660e01b8152600401612d8992919061482f565b60006040518083038186803b158015612da157600080fd5b505afa158015612db5573d6000803e3d6000fd5b505050506040513d6000823e3d601f19601f82011682018060405250810190612dde91906141d6565b905063acf4a6c260e01b7bffffffffffffffffffffffffffffffffffffffffffffffffffffffff191681608001517bffffffffffffffffffffffffffffffffffffffffffffffffffffffff19161415613020576000806000806000600c60009054906101000a900473ffffffffffffffffffffffffffffffffffffffff1673ffffffffffffffffffffffffffffffffffffffff1663cd7245c58b896040518363ffffffff1660e01b8152600401612e969291906148ff565b60a06040518083038186803b158015612eae57600080fd5b505afa158015612ec2573d6000803e3d6000fd5b505050506040513d601f19601f82011682018060405250810190612ee69190613f2c565b80955081965082975083985084995050505050503073ffffffffffffffffffffffffffffffffffffffff168573ffffffffffffffffffffffffffffffffffffffff1614612f68576040517f08c379a0000000000000000000000000000000000000000000000000000000008152600401612f5f90614acc565b60405180910390fd5b600063ffffffff168463ffffffff1614612fb7576040517f08c379a0000000000000000000000000000000000000000000000000000000008152600401612fae90614acc565b60405180910390fd5b821561301a576001600e6000886060015173ffffffffffffffffffffffffffffffffffffffff1673ffffffffffffffffffffffffffffffffffffffff16815260200190815260200160002060006101000a81548160ff0219169083151502179055505b50505050505b5050505050565b600033905090565b600b60009054906101000a900473ffffffffffffffffffffffffffffffffffffffff1673ffffffffffffffffffffffffffffffffffffffff166339255d5b600c60009054906101000a900473ffffffffffffffffffffffffffffffffffffffff1663232d2b5860e01b600760009054906101000a900473ffffffffffffffffffffffffffffffffffffffff1660008787600067ffffffffffffffff811115613100577f4e487b7100000000000000000000000000000000000000000000000000000000600052604160045260246000fd5b6040519080825280601f01601f1916602001820160405280156131325781602001600182028036833780820191505090505b50604051602401613147959493929190614928565b604051602081830303815290604052907bffffffffffffffffffffffffffffffffffffffffffffffffffffffff19166020820180517bffffffffffffffffffffffffffffffffffffffffffffffffffffffff8381831617835250505050600067ffffffffffffffff8111156131e5577f4e487b7100000000000000000000000000000000000000000000000000000000600052604160045260246000fd5b6040519080825280601f01601f1916602001820160405280156132175781602001600182028036833780820191505090505b506040518463ffffffff1660e01b815260040161323693929190614875565b600060405180830381600087803b15801561325057600080fd5b505af1158015613264573d6000803e3d6000fd5b505050506040513d6000823e3d601f19601f8201168201806040525081019061328d9190613fa3565b50600b60009054906101000a900473ffffffffffffffffffffffffffffffffffffffff1673ffffffffffffffffffffffffffffffffffffffff166339255d5b600c60009054906101000a900473ffffffffffffffffffffffffffffffffffffffff1663232d2b5860e01b600860009054906101000a900473ffffffffffffffffffffffffffffffffffffffff1660008787600067ffffffffffffffff81111561335f577f4e487b7100000000000000000000000000000000000000000000000000000000600052604160045260246000fd5b6040519080825280601f01601f1916602001820160405280156133915781602001600182028036833780820191505090505b506040516024016133a6959493929190614928565b604051602081830303815290604052907bffffffffffffffffffffffffffffffffffffffffffffffffffffffff19166020820180517bffffffffffffffffffffffffffffffffffffffffffffffffffffffff8381831617835250505050600067ffffffffffffffff811115613444577f4e487b7100000000000000000000000000000000000000000000000000000000600052604160045260246000fd5b6040519080825280601f01601f1916602001820160405280156134765781602001600182028036833780820191505090505b506040518463ffffffff1660e01b815260040161349593929190614875565b600060405180830381600087803b1580156134af57600080fd5b505af11580156134c3573d6000803e3d6000fd5b505050506040513d6000823e3d601f19601f820116820180604052508101906134ec9190613fa3565b50600b60009054906101000a900473ffffffffffffffffffffffffffffffffffffffff1673ffffffffffffffffffffffffffffffffffffffff166339255d5b600c60009054906101000a900473ffffffffffffffffffffffffffffffffffffffff1663232d2b5860e01b600960009054906101000a900473ffffffffffffffffffffffffffffffffffffffff1660008787600067ffffffffffffffff8111156135be577f4e487b7100000000000000000000000000000000000000000000000000000000600052604160045260246000fd5b6040519080825280601f01601f1916602001820160405280156135f05781602001600182028036833780820191505090505b50604051602401613605959493929190614928565b604051602081830303815290604052907bffffffffffffffffffffffffffffffffffffffffffffffffffffffff19166020820180517bffffffffffffffffffffffffffffffffffffffffffffffffffffffff8381831617835250505050600067ffffffffffffffff8111156136a3577f4e487b7100000000000000000000000000000000000000000000000000000000600052604160045260246000fd5b6040519080825280601f01601f1916602001820160405280156136d55781602001600182028036833780820191505090505b506040518463ffffffff1660e01b81526004016136f493929190614875565b600060405180830381600087803b15801561370e57600080fd5b505af1158015613722573d6000803e3d6000fd5b505050506040513d6000823e3d601f19601f8201168201806040525081019061374b9190613fa3565b50600b60009054906101000a900473ffffffffffffffffffffffffffffffffffffffff1673ffffffffffffffffffffffffffffffffffffffff166339255d5b600c60009054906101000a900473ffffffffffffffffffffffffffffffffffffffff1663232d2b5860e01b600a60009054906101000a900473ffffffffffffffffffffffffffffffffffffffff1660008787600067ffffffffffffffff81111561381d577f4e487b7100000000000000000000000000000000000000000000000000000000600052604160045260246000fd5b6040519080825280601f01601f19166020018201604052801561384f5781602001600182028036833780820191505090505b50604051602401613864959493929190614928565b604051602081830303815290604052907bffffffffffffffffffffffffffffffffffffffffffffffffffffffff19166020820180517bffffffffffffffffffffffffffffffffffffffffffffffffffffffff8381831617835250505050600067ffffffffffffffff811115613902577f4e487b7100000000000000000000000000000000000000000000000000000000600052604160045260246000fd5b6040519080825280601f01601f1916602001820160405280156139345781602001600182028036833780820191505090505b506040518463ffffffff1660e01b815260040161395393929190614875565b600060405180830381600087803b15801561396d57600080fd5b505af1158015613981573d6000803e3d6000fd5b505050506040513d6000823e3d601f19601f820116820180604052508101906139aa9190613fa3565b505050565b6000816fffffffffffffffffffffffffffffffff16836fffffffffffffffffffffffffffffffff1611156139f05781836139e99190614dd6565b9050613a64565b816fffffffffffffffffffffffffffffffff16836fffffffffffffffffffffffffffffffff161015613a2f578282613a289190614dd6565b9050613a64565b816fffffffffffffffffffffffffffffffff16836fffffffffffffffffffffffffffffffff161415613a6357829050613a64565b5b92915050565b828054613a7690614f9d565b90600052602060002090601f016020900481019282613a985760008555613adf565b82601f10613ab157805160ff1916838001178555613adf565b82800160010185558215613adf579182015b82811115613ade578251825591602001919060010190613ac3565b5b509050613aec9190613af0565b5090565b5b80821115613b09576000816000905550600101613af1565b5090565b6000613b20613b1b84614c4d565b614c1c565b905082815260208101848484011115613b3857600080fd5b613b43848285614f6a565b509392505050565b600081359050613b5a8161509c565b92915050565b600081519050613b6f8161509c565b92915050565b600081519050613b84816150b3565b92915050565b600081359050613b99816150ca565b92915050565b600081519050613bae816150e1565b92915050565b60008083601f840112613bc657600080fd5b8235905067ffffffffffffffff811115613bdf57600080fd5b602083019150836001820283011115613bf757600080fd5b9250929050565b600082601f830112613c0f57600080fd5b8151613c1f848260208601613b0d565b91505092915050565b600081359050613c37816150f8565b92915050565b600081359050613c4c8161510f565b92915050565b600081359050613c6181615126565b92915050565b600081519050613c768161513d565b92915050565b60006101408284031215613c8f57600080fd5b613c9a610140614c1c565b90506000613caa84828501613def565b6000830152506020613cbe84828501613def565b6020830152506040613cd284828501613dc5565b6040830152506060613ce684828501613b60565b6060830152506080613cfa84828501613b9f565b60808301525060a082015167ffffffffffffffff811115613d1a57600080fd5b613d2684828501613bfe565b60a08301525060c0613d3a84828501613dc5565b60c08301525060e0613d4e84828501613dc5565b60e083015250610100613d6384828501613c67565b61010083015250610120613d7984828501613b60565b6101208301525092915050565b600081359050613d9581615154565b92915050565b600081519050613daa81615154565b92915050565b600081359050613dbf8161516b565b92915050565b600081519050613dd48161516b565b92915050565b600081519050613de981615182565b92915050565b600081519050613dfe81615199565b92915050565b600060208284031215613e1657600080fd5b6000613e2484828501613b4b565b91505092915050565b60008060008060008060008060c0898b031215613e4957600080fd5b6000613e578b828c01613b4b565b9850506020613e688b828c01613b4b565b9750506040613e798b828c01613b4b565b9650506060613e8a8b828c01613db0565b955050608089013567ffffffffffffffff811115613ea757600080fd5b613eb38b828c01613bb4565b945094505060a089013567ffffffffffffffff811115613ed257600080fd5b613ede8b828c01613bb4565b92509250509295985092959890939650565b60008060408385031215613f0357600080fd5b6000613f1185828601613b4b565b9250506020613f2285828601613d86565b9150509250929050565b600080600080600060a08688031215613f4457600080fd5b6000613f5288828901613b60565b9550506020613f6388828901613dda565b9450506040613f7488828901613b75565b9350506060613f8588828901613d9b565b9250506080613f9688828901613dc5565b9150509295509295909350565b600060208284031215613fb557600080fd5b600082015167ffffffffffffffff811115613fcf57600080fd5b613fdb84828501613bfe565b91505092915050565b600080600080600080600060a0888a031215613fff57600080fd5b600061400d8a828b01613c3d565b975050602061401e8a828b01613b4b565b965050604061402f8a828b01613b8a565b955050606088013567ffffffffffffffff81111561404c57600080fd5b6140588a828b01613bb4565b9450945050608088013567ffffffffffffffff81111561407757600080fd5b6140838a828b01613bb4565b925092505092959891949750929550565b600080600080600080600080600060c08a8c0312156140b257600080fd5b60006140c08c828d01613c3d565b99505060206140d18c828d01613b4b565b98505060406140e28c828d01613b8a565b97505060608a013567ffffffffffffffff8111156140ff57600080fd5b61410b8c828d01613bb4565b965096505060808a013567ffffffffffffffff81111561412a57600080fd5b6141368c828d01613bb4565b945094505060a08a013567ffffffffffffffff81111561415557600080fd5b6141618c828d01613bb4565b92509250509295985092959850929598565b6000806000806080858703121561418957600080fd5b600061419787828801613c52565b94505060206141a887828801613c28565b93505060406141b987828801613b4b565b92505060606141ca87828801613b4b565b91505092959194509250565b6000602082840312156141e857600080fd5b600082015167ffffffffffffffff81111561420257600080fd5b61420e84828501613c7c565b91505092915050565b6000806040838503121561422a57600080fd5b600061423885828601613dc5565b925050602061424985828601613d9b565b9150509250929050565b61425c81614e0a565b82525050565b61426b81614e1c565b82525050565b61427a81614e28565b82525050565b600061428c8385614c9d565b9350614299838584614f5b565b6142a28361508b565b840190509392505050565b60006142b882614c92565b6142c28185614c9d565b93506142d2818560208601614f6a565b6142db8161508b565b840191505092915050565b6142ef81614f01565b82525050565b6142fe81614f25565b82525050565b61430d81614f49565b82525050565b6000815461432081614f9d565b61432a8186614cae565b9450600182166000811461434557600181146143575761438a565b60ff198316865260208601935061438a565b61436085614c7d565b60005b8381101561438257815481890152600182019150602081019050614363565b808801955050505b50505092915050565b60006143a0602c83614cae565b91507f53686172652050657263656e746167652073686f756c6420626520677265617460008301527f6572207468616e207a65726f00000000000000000000000000000000000000006020830152604082019050919050565b6000614406602683614cae565b91507f4f776e61626c653a206e6577206f776e657220697320746865207a65726f206160008301527f64647265737300000000000000000000000000000000000000000000000000006020830152604082019050919050565b600061446c603383614cae565b91507f556e737570706f727465642063616c6c6261636b202d20204265666f7265204160008301527f677265656d656e74205465726d696e61746564000000000000000000000000006020830152604082019050919050565b60006144d2601a83614cae565b91507f4452543a20556e737570706f727465642061677265656d656e740000000000006000830152602082019050919050565b6000614512601383614cae565b91507f5573657220616c726561647920657869737473000000000000000000000000006000830152602082019050919050565b6000614552602083614cae565b91507f4f776e61626c653a2063616c6c6572206973206e6f7420746865206f776e65726000830152602082019050919050565b6000614592601783614cae565b91507f4452543a207075626c6973686572206d69736d617463680000000000000000006000830152602082019050919050565b60006145d2601283614cae565b91507f5573657220646f65736e277420657869737400000000000000000000000000006000830152602082019050919050565b6000614612603183614cae565b91507f556e737570706f727465642063616c6c6261636b202d2041667465722041677260008301527f65656d656e74205465726d696e617465640000000000000000000000000000006020830152604082019050919050565b61467481614e9e565b82525050565b61468381614eda565b82525050565b61469281614ee4565b82525050565b60006020820190506146ad6000830184614253565b92915050565b60006060820190506146c86000830186614253565b6146d56020830185614271565b6146e26040830184614253565b949350505050565b600060c0820190506146ff6000830189614253565b61470c6020830188614304565b6147196040830187614689565b6147266060830186614253565b614733608083018561467a565b61474060a083018461466b565b979650505050505050565b600060c0820190506147606000830189614253565b81810360208301526147728188614313565b9050614781604083018761467a565b61478e6060830186614689565b61479b6080830185614253565b6147a860a083018461467a565b979650505050505050565b600060c0820190506147c86000830189614253565b6147d5602083018861466b565b6147e26040830187614689565b6147ef6060830186614253565b6147fc608083018561467a565b61480960a083018461466b565b979650505050505050565b60006020820190506148296000830184614262565b92915050565b6000602082019050818103600083015261484a818486614280565b90509392505050565b6000602082019050818103600083015261486d81846142ad565b905092915050565b600060608201905061488a60008301866142e6565b818103602083015261489c81856142ad565b905081810360408301526148b081846142ad565b9050949350505050565b60006080820190506148cf60008301876142f5565b6148dc6020830186614253565b6148e96040830185614689565b6148f6606083018461467a565b95945050505050565b600060408201905061491460008301856142f5565b6149216020830184614271565b9392505050565b600060a08201905061493d60008301886142f5565b61494a6020830187614689565b6149576040830186614253565b614964606083018561466b565b818103608083015261497681846142ad565b90509695505050505050565b600060608201905061499760008301866142f5565b6149a46020830185614689565b81810360408301526149b681846142ad565b9050949350505050565b60006080820190506149d560008301876142f5565b6149e26020830186614689565b6149ef604083018561467a565b8181036060830152614a0181846142ad565b905095945050505050565b60006020820190508181036000830152614a2581614393565b9050919050565b60006020820190508181036000830152614a45816143f9565b9050919050565b60006020820190508181036000830152614a658161445f565b9050919050565b60006020820190508181036000830152614a85816144c5565b9050919050565b60006020820190508181036000830152614aa581614505565b9050919050565b60006020820190508181036000830152614ac581614545565b9050919050565b60006020820190508181036000830152614ae581614585565b9050919050565b60006020820190508181036000830152614b05816145c5565b9050919050565b60006020820190508181036000830152614b2581614605565b9050919050565b6000602082019050614b41600083018461466b565b92915050565b6000608082019050614b5c600083018761466b565b614b696020830186614689565b614b766040830185614253565b614b83606083018461467a565b95945050505050565b6000602082019050614ba1600083018461467a565b92915050565b600060a082019050614bbc600083018861467a565b614bc96020830187614689565b614bd66040830186614253565b614be3606083018561467a565b8181036080830152614bf58184614313565b90509695505050505050565b6000602082019050614c166000830184614689565b92915050565b6000604051905081810181811067ffffffffffffffff82111715614c4357614c4261505c565b5b8060405250919050565b600067ffffffffffffffff821115614c6857614c6761505c565b5b601f19601f8301169050602081019050919050565b60008190508160005260206000209050919050565b600081519050919050565b600082825260208201905092915050565b600082825260208201905092915050565b6000614cca82614e9e565b9150614cd583614e9e565b9250826fffffffffffffffffffffffffffffffff03821115614cfa57614cf9614fcf565b5b828201905092915050565b6000614d1082614eda565b9150614d1b83614eda565b9250827fffffffffffffffffffffffffffffffffffffffffffffffffffffffffffffffff03821115614d5057614d4f614fcf565b5b828201905092915050565b6000614d6682614e9e565b9150614d7183614e9e565b925082614d8157614d80614ffe565b5b828204905092915050565b6000614d9782614e9e565b9150614da283614e9e565b9250816fffffffffffffffffffffffffffffffff0483118215151615614dcb57614dca614fcf565b5b828202905092915050565b6000614de182614e9e565b9150614dec83614e9e565b925082821015614dff57614dfe614fcf565b5b828203905092915050565b6000614e1582614eba565b9050919050565b60008115159050919050565b6000819050919050565b60007fffffffff0000000000000000000000000000000000000000000000000000000082169050919050565b6000614e6982614e0a565b9050919050565b6000614e7b82614e0a565b9050919050565b6000614e8d82614e0a565b9050919050565b6000819050919050565b60006fffffffffffffffffffffffffffffffff82169050919050565b600073ffffffffffffffffffffffffffffffffffffffff82169050919050565b6000819050919050565b600063ffffffff82169050919050565b600060ff82169050919050565b6000614f0c82614f13565b9050919050565b6000614f1e82614eba565b9050919050565b6000614f3082614f37565b9050919050565b6000614f4282614eba565b9050919050565b6000614f5482614e9e565b9050919050565b82818337600083830152505050565b60005b83811015614f88578082015181840152602081019050614f6d565b83811115614f97576000848401525b50505050565b60006002820490506001821680614fb557607f821691505b60208210811415614fc957614fc861502d565b5b50919050565b7f4e487b7100000000000000000000000000000000000000000000000000000000600052601160045260246000fd5b7f4e487b7100000000000000000000000000000000000000000000000000000000600052601260045260246000fd5b7f4e487b7100000000000000000000000000000000000000000000000000000000600052602260045260246000fd5b7f4e487b7100000000000000000000000000000000000000000000000000000000600052604160045260246000fd5b6000601f19601f8301169050919050565b6150a581614e0a565b81146150b057600080fd5b50565b6150bc81614e1c565b81146150c757600080fd5b50565b6150d381614e28565b81146150de57600080fd5b50565b6150ea81614e32565b81146150f557600080fd5b50565b61510181614e5e565b811461510c57600080fd5b50565b61511881614e70565b811461512357600080fd5b50565b61512f81614e82565b811461513a57600080fd5b50565b61514681614e94565b811461515157600080fd5b50565b61515d81614e9e565b811461516857600080fd5b50565b61517481614eda565b811461517f57600080fd5b50565b61518b81614ee4565b811461519657600080fd5b50565b6151a281614ef4565b81146151ad57600080fd5b5056fea2646970667358221220ae1586d8e41d5e25002090a2819d348976d627030ef16130cd5eddf3fd30088964736f6c63430008000033",
  "immutableReferences": {},
  "source": "pragma solidity ^0.8.0;\npragma experimental ABIEncoderV2;\n\nimport './Emitter.sol';\n\nimport {\n    ISuperfluid,\n    ISuperToken,\n    SuperAppBase,\n    SuperAppDefinitions\n} from \"@superfluid-finance/ethereum-contracts/contracts/apps/SuperAppBase.sol\";\n//from \"https://github.com/superfluid-finance/protocol-monorepo/blob/remix-support/packages/ethereum-contracts/contracts/apps/SuperAppBase.sol\";\nimport {\n    IInstantDistributionAgreementV1\n} from \"@superfluid-finance/ethereum-contracts/contracts/interfaces/agreements/IInstantDistributionAgreementV1.sol\";\n//from \"https://github.com/superfluid-finance/protocol-monorepo/blob/remix-support/packages/ethereum-contracts/contracts/interfaces/agreements/IInstantDistributionAgreementV1.sol\";\n\nimport \"@openzeppelin/contracts/token/ERC777/IERC777.sol\";\nimport \"@openzeppelin/contracts/utils/introspection/IERC1820Registry.sol\";\nimport \"@openzeppelin/contracts/token/ERC777/IERC777Recipient.sol\";\nimport \"@openzeppelin/contracts/proxy/utils/Initializable.sol\";\nimport '@openzeppelin/contracts/access/Ownable.sol';\n\n\ncontract BaseDistributor is IERC777Recipient,SuperAppBase,Initializable, Ownable {\n    Emitter emitter;\n    uint256 public totalDonations=0;\n    uint128 public totalShareUnits=0;\n    mapping (address=>uint128) shareMapping;\n    mapping (address=>string) tokenNameMapping;\n\n    uint32 public constant INDEX_ID = 0;\n\n\n    ISuperToken private _cashToken;\n\n    ISuperToken private fDAIx;\n    ISuperToken private fUSDCx;\n    ISuperToken private fTUSDx;\n    ISuperToken private ETHx;\n\n    ISuperfluid private _host;\n    IInstantDistributionAgreementV1 private _ida;\n\n    IERC1820Registry private _erc1820 = IERC1820Registry(0x1820a4B7618BdE71Dce8cdc73aAB6C95905faD24);\n    bytes32 constant private TOKENS_RECIPIENT_INTERFACE_HASH = keccak256(\"ERC777TokensRecipient\");\n\n    // use callbacks to track approved subscriptions\n    mapping (address => bool) public isSubscribing;\n\n    //Events\n    // event DonationReceived(address from, string token, uint256 amount,uint32 index,address publisher,uint timeStamp);\n    // event UserAdded(address userAddress,uint128 shares,uint32 index,address publisher,uint timeStamp,uint128 totalShares);\n    // event UserRemoved(address userAddress,uint128 shares,uint32 index,address publisher,uint timeStamp,uint128 totalShares);\n    // event UserModified(address userAddress,uint128 shares,uint32 index,address publisher,uint timeStamp,uint128 totalShares);\n    // event Distribution(uint256 amountDistributed,uint32 index,address publisher,uint timeStamp,string token);\n    // event TotalShares(uint128 totalShares,uint32 index,address publisher,uint timeStamp);\n\n    function initialize (\n        ISuperfluid host,\n        IInstantDistributionAgreementV1 ida,address emitterAdd,address _owner) public {\n\n        emitter = Emitter(emitterAdd);\n        // owner = _owner;\n        transferOwnership(_owner);\n        _erc1820.setInterfaceImplementer(address(this), TOKENS_RECIPIENT_INTERFACE_HASH, address(this));\n\n         fDAIx = ISuperToken(0x745861AeD1EEe363b4AaA5F1994Be40b1e05Ff90);\n        tokenNameMapping[0x745861AeD1EEe363b4AaA5F1994Be40b1e05Ff90] = \"fDAIx\";\n\n         fUSDCx = ISuperToken(0x0F1D7C55A2B133E000eA10EeC03c774e0d6796e8);\n        tokenNameMapping[0x0F1D7C55A2B133E000eA10EeC03c774e0d6796e8] = \"fUSDCx\";\n\n         fTUSDx = ISuperToken(0xdF7B8461a1d9f57f12F88d97FC6131E36d302d81);\n        tokenNameMapping[0xdF7B8461a1d9f57f12F88d97FC6131E36d302d81] = \"fTUSDx\";\n\n         ETHx = ISuperToken(0xa623b2DD931C5162b7a0B25852f4024Db48bb1A0);\n        tokenNameMapping[0xa623b2DD931C5162b7a0B25852f4024Db48bb1A0] = \"ETHx\";\n\n        \n        _host = host;\n        _ida = ida;\n\n        uint256 configWord =\n            SuperAppDefinitions.APP_LEVEL_FINAL |\n            SuperAppDefinitions.BEFORE_AGREEMENT_TERMINATED_NOOP |\n            SuperAppDefinitions.AFTER_AGREEMENT_TERMINATED_NOOP;\n\n        _host.registerApp(configWord);\n\n        _host.callAgreement(\n            _ida,\n            abi.encodeWithSelector(\n                _ida.createIndex.selector,\n                fDAIx,\n                INDEX_ID,\n                new bytes(0) // placeholder ctx\n            ),\n            new bytes(0) // user data\n        );\n\n        _host.callAgreement(\n            _ida,\n            abi.encodeWithSelector(\n                _ida.createIndex.selector,\n                fUSDCx,\n                INDEX_ID,\n                new bytes(0) // placeholder ctx\n            ),\n            new bytes(0) // user data\n        );\n\n        _host.callAgreement(\n            _ida,\n            abi.encodeWithSelector(\n                _ida.createIndex.selector,\n                fTUSDx,\n                INDEX_ID,\n                new bytes(0) // placeholder ctx\n            ),\n            new bytes(0) // user data\n        );\n\n        _host.callAgreement(\n            _ida,\n            abi.encodeWithSelector(\n                _ida.createIndex.selector,\n                ETHx,\n                INDEX_ID,\n                new bytes(0) // placeholder ctx\n            ),\n            new bytes(0) // user data\n        );\n    }\n\n    // modifier onlyOwner(){\n    //     require(owner==msg.sender);\n    //     _;\n    // }\n\n    function sharesOf(address user) view external returns(uint128){\n        return shareMapping[user];\n    }\n\n    function beforeAgreementCreated(\n        ISuperToken superToken,\n        address agreementClass,\n        bytes32 /* agreementId */,\n        bytes calldata /*agreementData*/,\n        bytes calldata /*ctx*/\n    )\n        external view override\n        returns (bytes memory data)\n    {\n        // require(superToken == _cashToken, \"DRT: Unsupported cash token\");\n        require(agreementClass == address(_ida), \"DRT: Unsupported agreement\");\n        return new bytes(0);\n    }\n\n    function afterAgreementCreated(\n        ISuperToken superToken,\n        address /* agreementClass */,\n        bytes32 agreementId,\n        bytes calldata /*agreementData*/,\n        bytes calldata /*cbdata*/,\n        bytes calldata ctx\n    )\n        external override\n        returns(bytes memory newCtx)\n    {\n        _checkSubscription(superToken, ctx, agreementId);\n        newCtx = ctx;\n    }\n\n    function beforeAgreementUpdated(\n        ISuperToken superToken,\n        address agreementClass,\n        bytes32 /* agreementId */,\n        bytes calldata /*agreementData*/,\n        bytes calldata /*ctx*/\n    )\n        external view override\n        returns (bytes memory data)\n    {\n        // require(superToken == _cashToken, \"DRT: Unsupported cash token\");\n        require(agreementClass == address(_ida), \"DRT: Unsupported agreement\");\n        return new bytes(0);\n    }\n\n    function afterAgreementUpdated(\n        ISuperToken superToken,\n        address /* agreementClass */,\n        bytes32 agreementId,\n        bytes calldata /*agreementData*/,\n        bytes calldata /*cbdata*/,\n        bytes calldata ctx\n    )\n        external override\n        returns(bytes memory newCtx)\n    {\n        _checkSubscription(superToken, ctx, agreementId);\n        newCtx = ctx;\n    }\n\n    function _checkSubscription(\n        ISuperToken superToken,\n        bytes calldata ctx,\n        bytes32 agreementId\n    )\n        private\n    {\n        ISuperfluid.Context memory context = _host.decodeCtx(ctx);\n        // only interested in the subscription approval callbacks\n        if (context.agreementSelector == IInstantDistributionAgreementV1.approveSubscription.selector) {\n            address publisher;\n            uint32 indexId;\n            bool approved;\n            uint128 units;\n            uint256 pendingDistribution;\n            (publisher, indexId, approved, units, pendingDistribution) =\n                _ida.getSubscriptionByID(superToken, agreementId);\n\n            // sanity checks for testing purpose\n            require(publisher == address(this), \"DRT: publisher mismatch\");\n            require(indexId == INDEX_ID, \"DRT: publisher mismatch\");\n\n            if (approved) {\n                isSubscribing[context.msgSender /* subscriber */] = true;\n            }\n        }\n    }\n\n    function modifySub(address user,uint128 shareUnits) internal{\n        _host.callAgreement(\n            _ida,\n            abi.encodeWithSelector(\n                _ida.updateSubscription.selector,\n                fDAIx,\n                INDEX_ID,\n                user,\n                shareUnits,\n                new bytes(0) // placeholder ctx\n            ),\n            new bytes(0) // user data\n        );\n\n        _host.callAgreement(\n            _ida,\n            abi.encodeWithSelector(\n                _ida.updateSubscription.selector,\n                fUSDCx,\n                INDEX_ID,\n                user,\n                shareUnits,\n                new bytes(0) // placeholder ctx\n            ),\n            new bytes(0) // user data\n        );\n\n        _host.callAgreement(\n            _ida,\n            abi.encodeWithSelector(\n                _ida.updateSubscription.selector,\n                fTUSDx,\n                INDEX_ID,\n                user,\n                shareUnits,\n                new bytes(0) // placeholder ctx\n            ),\n            new bytes(0) // user data\n        );\n\n        _host.callAgreement(\n            _ida,\n            abi.encodeWithSelector(\n                _ida.updateSubscription.selector,\n                ETHx,\n                INDEX_ID,\n                user,\n                shareUnits,\n                new bytes(0) // placeholder ctx\n            ),\n            new bytes(0) // user data\n        );\n        \n    }\n\n    function abs(uint128 x,uint128 y) private pure returns (uint128) {\n        if(x>y)\n         return x-y;\n        if(x<y)\n         return y-x;\n        if(x==y)\n         return x;\n    }\n\n    function addUser(address newUser,uint128 sharePercentage) external onlyOwner{\n        require(shareMapping[newUser]==0,\"User already exists\");\n        require(sharePercentage>0,\"Share Percentage should be greater than zero\");\n\n        uint128 shareUnits = totalShareUnits==0?100: (sharePercentage * totalShareUnits)/(100- sharePercentage);\n        modifySub(newUser, shareUnits);\n        totalShareUnits += shareUnits;\n        shareMapping[newUser] = shareUnits;\n        emitter.UserAdded2(newUser,shareUnits,INDEX_ID,address(this),block.timestamp,totalShareUnits);\n        emitter.TotalShares2(totalShareUnits,INDEX_ID,address(this),block.timestamp);\n    }\n\n    function modifyUser(address existingUser,uint128 sharePercentage) external onlyOwner{\n        require(shareMapping[existingUser]!=0,\"User doesn't exist\");\n        require(sharePercentage>0,\"Share Percentage should be greater than zero\");\n        uint128 shareUnits = totalShareUnits==shareMapping[existingUser]?100:(sharePercentage * abs(totalShareUnits,shareMapping[existingUser]))/(100- sharePercentage);\n        modifySub(existingUser, shareUnits);\n        totalShareUnits -= shareMapping[existingUser];//Need to handle case where shareMapping is larger than total share units\n        totalShareUnits += shareUnits ;\n        shareMapping[existingUser] = shareUnits;\n        emitter.UserModified2(existingUser,shareUnits,INDEX_ID,address(this),block.timestamp,totalShareUnits);\n        emitter.TotalShares2(totalShareUnits,INDEX_ID,address(this),block.timestamp);\n    }\n\n    function removeUser(address existingUser) external onlyOwner{\n        require(shareMapping[existingUser]!=0,\"User doesn't exist\");\n        totalShareUnits -= shareMapping[existingUser];\n        shareMapping[existingUser] = 0;\n        modifySub(existingUser, 0);\n        emitter.UserRemoved2(existingUser,0,INDEX_ID,address(this),block.timestamp,totalShareUnits);//Changed the shareUnits to zero to read in the frontend the exit of the user\n        emitter.TotalShares2(totalShareUnits,INDEX_ID,address(this),block.timestamp);\n    }\n\n    /// @dev Distribute `amount` of cash among all token holders\n    function distribute(uint256 cashAmount,address tokenAddress) internal {\n        (uint256 actualCashAmount,) = _ida.calculateDistribution(\n            ISuperToken(tokenAddress),\n            address(this), INDEX_ID,\n            cashAmount);\n\n        _host.callAgreement(\n            _ida,\n            abi.encodeWithSelector(\n                _ida.distribute.selector,\n                ISuperToken(tokenAddress),\n                INDEX_ID,\n                actualCashAmount,\n                new bytes(0) // placeholder ctx\n            ),\n            new bytes(0) // user data\n        );\n        emitter.Distribution2(actualCashAmount,INDEX_ID,address(this),block.timestamp,tokenNameMapping[tokenAddress]);\n    }\n\n    function tokensReceived(\n        address operator,\n        address from,\n        address to,\n        uint256 amount,\n        bytes calldata userData,\n        bytes calldata operatorData\n    ) external override {\n        //require(msg.sender == address(_token), \"Simple777Recipient: Invalid token\");\n\n        // do stuff\n        totalDonations += amount;\n        distribute(amount,msg.sender);\n        emitter.DonationReceived2( from, tokenNameMapping[msg.sender], amount,INDEX_ID,address(this),block.timestamp);\n    }\n}",
  "sourcePath": "/Users/praffulsahu/Documents/Crypto/erc777distributor/contracts/BaseDistributor.sol",
  "compiler": {
    "name": "solc",
    "version": "0.8.0+commit.c7dfd78e.Emscripten.clang"
  },
  "schemaVersion": "3.3.3",
  "updatedAt": "2021-06-25T14:37:46.161Z",
  "devdoc": {
    "kind": "dev",
    "methods": {
      "owner()": {
        "details": "Returns the address of the current owner."
      },
      "renounceOwnership()": {
        "details": "Leaves the contract without owner. It will not be possible to call `onlyOwner` functions anymore. Can only be called by the current owner. NOTE: Renouncing ownership will leave the contract without an owner, thereby removing any functionality that is only available to the owner."
      },
      "tokensReceived(address,address,address,uint256,bytes,bytes)": {
        "details": "Called by an {IERC777} token contract whenever tokens are being moved or created into a registered account (`to`). The type of operation is conveyed by `from` being the zero address or not. This call occurs _after_ the token contract's state is updated, so {IERC777-balanceOf}, etc., can be used to query the post-operation state. This function may revert to prevent the operation from being executed."
      },
      "transferOwnership(address)": {
        "details": "Transfers ownership of the contract to a new account (`newOwner`). Can only be called by the current owner."
      }
    },
    "version": 1
  },
  "userdoc": {
    "kind": "user",
    "methods": {},
    "version": 1
  }
}