{
  "contractName": "BaseDistributor",
  "abi": [
    {
      "inputs": [],
      "name": "INDEX_ID",
      "outputs": [
        {
          "internalType": "uint32",
          "name": "",
          "type": "uint32"
        }
      ],
      "stateMutability": "view",
      "type": "function",
      "constant": true
    },
    {
      "inputs": [
        {
          "internalType": "address",
          "name": "",
          "type": "address"
        }
      ],
      "name": "isSubscribing",
      "outputs": [
        {
          "internalType": "bool",
          "name": "",
          "type": "bool"
        }
      ],
      "stateMutability": "view",
      "type": "function",
      "constant": true
    },
    {
      "inputs": [],
      "name": "owner",
      "outputs": [
        {
          "internalType": "address",
          "name": "",
          "type": "address"
        }
      ],
      "stateMutability": "view",
      "type": "function",
      "constant": true
    },
    {
      "inputs": [],
      "name": "totalDonations",
      "outputs": [
        {
          "internalType": "uint256",
          "name": "",
          "type": "uint256"
        }
      ],
      "stateMutability": "view",
      "type": "function",
      "constant": true
    },
    {
      "inputs": [],
      "name": "totalShareUnits",
      "outputs": [
        {
          "internalType": "uint128",
          "name": "",
          "type": "uint128"
        }
      ],
      "stateMutability": "view",
      "type": "function",
      "constant": true
    },
    {
      "inputs": [
        {
          "internalType": "address",
          "name": "host",
          "type": "address"
        },
        {
          "internalType": "address",
          "name": "ida",
          "type": "address"
        },
        {
          "internalType": "address",
          "name": "emitterAdd",
          "type": "address"
        },
        {
          "internalType": "address",
          "name": "_owner",
          "type": "address"
        },
        {
          "internalType": "address",
          "name": "_fDAIx",
          "type": "address"
        },
        {
          "internalType": "address",
          "name": "_fUSDCx",
          "type": "address"
        },
        {
          "internalType": "address",
          "name": "_fTUSDx",
          "type": "address"
        },
        {
          "internalType": "address",
          "name": "_ETHx",
          "type": "address"
        },
        {
          "internalType": "address",
          "name": "_erc1820Add",
          "type": "address"
        }
      ],
      "name": "initialize",
      "outputs": [],
      "stateMutability": "nonpayable",
      "type": "function"
    },
    {
      "inputs": [
        {
          "internalType": "address",
          "name": "user",
          "type": "address"
        }
      ],
      "name": "sharesOf",
      "outputs": [
        {
          "internalType": "uint128",
          "name": "",
          "type": "uint128"
        }
      ],
      "stateMutability": "view",
      "type": "function",
      "constant": true
    },
    {
      "inputs": [
        {
          "internalType": "address",
          "name": "newUser",
          "type": "address"
        },
        {
          "internalType": "uint128",
          "name": "sharePercentage",
          "type": "uint128"
        }
      ],
      "name": "addUser",
      "outputs": [],
      "stateMutability": "nonpayable",
      "type": "function"
    },
    {
      "inputs": [
        {
          "internalType": "address",
          "name": "existingUser",
          "type": "address"
        },
        {
          "internalType": "uint128",
          "name": "sharePercentage",
          "type": "uint128"
        }
      ],
      "name": "modifyUser",
      "outputs": [],
      "stateMutability": "nonpayable",
      "type": "function"
    },
    {
      "inputs": [
        {
          "internalType": "address",
          "name": "existingUser",
          "type": "address"
        }
      ],
      "name": "removeUser",
      "outputs": [],
      "stateMutability": "nonpayable",
      "type": "function"
    },
    {
      "inputs": [
        {
          "internalType": "address",
          "name": "operator",
          "type": "address"
        },
        {
          "internalType": "address",
          "name": "from",
          "type": "address"
        },
        {
          "internalType": "address",
          "name": "to",
          "type": "address"
        },
        {
          "internalType": "uint256",
          "name": "amount",
          "type": "uint256"
        },
        {
          "internalType": "bytes",
          "name": "userData",
          "type": "bytes"
        },
        {
          "internalType": "bytes",
          "name": "operatorData",
          "type": "bytes"
        }
      ],
      "name": "tokensReceived",
      "outputs": [],
      "stateMutability": "nonpayable",
      "type": "function"
    }
  ],
  "bytecode": "0x608060405260006001556000600260006101000a8154816fffffffffffffffffffffffffffffffff02191690836fffffffffffffffffffffffffffffffff16021790555034801561004f57600080fd5b5061419c8061005f6000396000f3fe608060405234801561001057600080fd5b50600436106100a85760003560e01c80638da5cb5b116100715780638da5cb5b1461013d578063915e33641461015b578063985751881461018b578063de2ed893146101a7578063f5e95acb146101c5578063f5eb42dc146101e1576100a8565b806223de29146100ad5780635167f6e7146100c957806380e85c51146100e75780638378f8c0146101035780638c7f09591461011f575b600080fd5b6100c760048036038101906100c291906133ec565b610211565b005b6100d16104ac565b6040516100de9190613c39565b60405180910390f35b61010160048036038101906100fc91906134af565b6104ce565b005b61011d600480360381019061011891906134af565b610937565b005b610127610f30565b6040516101349190613d0e565b60405180910390f35b610145610f35565b6040516101529190613874565b60405180910390f35b610175600480360381019061017091906132fd565b610f5b565b60405161018291906139f0565b60405180910390f35b6101a560048036038101906101a091906132fd565b610f7b565b005b6101af611367565b6040516101bc9190613c99565b60405180910390f35b6101df60048036038101906101da9190613326565b61136d565b005b6101fb60048036038101906101f691906132fd565b6122d5565b6040516102089190613c39565b60405180910390f35b600760009054906101000a900473ffffffffffffffffffffffffffffffffffffffff1673ffffffffffffffffffffffffffffffffffffffff163373ffffffffffffffffffffffffffffffffffffffff1614806102ba5750600760009054906101000a900473ffffffffffffffffffffffffffffffffffffffff1673ffffffffffffffffffffffffffffffffffffffff163373ffffffffffffffffffffffffffffffffffffffff16145b806103125750600760009054906101000a900473ffffffffffffffffffffffffffffffffffffffff1673ffffffffffffffffffffffffffffffffffffffff163373ffffffffffffffffffffffffffffffffffffffff16145b8061036a5750600760009054906101000a900473ffffffffffffffffffffffffffffffffffffffff1673ffffffffffffffffffffffffffffffffffffffff163373ffffffffffffffffffffffffffffffffffffffff16145b6103a9576040517f08c379a00000000000000000000000000000000000000000000000000000000081526004016103a090613bb9565b60405180910390fd5b84600160008282546103bb9190613e12565b925050819055506103cc853361233a565b600060029054906101000a900473ffffffffffffffffffffffffffffffffffffffff1673ffffffffffffffffffffffffffffffffffffffff1663aeed6fd288600460003373ffffffffffffffffffffffffffffffffffffffff1673ffffffffffffffffffffffffffffffffffffffff16815260200190815260200160002088600030426040518763ffffffff1660e01b815260040161047096959493929190613927565b600060405180830381600087803b15801561048a57600080fd5b505af115801561049e573d6000803e3d6000fd5b505050505050505050505050565b600260009054906101000a90046fffffffffffffffffffffffffffffffff1681565b3373ffffffffffffffffffffffffffffffffffffffff16600560009054906101000a900473ffffffffffffffffffffffffffffffffffffffff1673ffffffffffffffffffffffffffffffffffffffff161461055e576040517f08c379a000000000000000000000000000000000000000000000000000000000815260040161055590613b99565b60405180910390fd5b6000600360008473ffffffffffffffffffffffffffffffffffffffff1673ffffffffffffffffffffffffffffffffffffffff16815260200190815260200160002060009054906101000a90046fffffffffffffffffffffffffffffffff166fffffffffffffffffffffffffffffffff161461060e576040517f08c379a000000000000000000000000000000000000000000000000000000000815260040161060590613bd9565b60405180910390fd5b6000816fffffffffffffffffffffffffffffffff1611610663576040517f08c379a000000000000000000000000000000000000000000000000000000000815260040161065a90613b79565b60405180910390fd5b600080600260009054906101000a90046fffffffffffffffffffffffffffffffff166fffffffffffffffffffffffffffffffff16146106e2578160646106a99190613ee3565b600260009054906101000a90046fffffffffffffffffffffffffffffffff16836106d39190613e99565b6106dd9190613e68565b6106e5565b60645b90506106f18382612704565b80600260008282829054906101000a90046fffffffffffffffffffffffffffffffff1661071e9190613dcc565b92506101000a8154816fffffffffffffffffffffffffffffffff02191690836fffffffffffffffffffffffffffffffff16021790555080600360008573ffffffffffffffffffffffffffffffffffffffff1673ffffffffffffffffffffffffffffffffffffffff16815260200190815260200160002060006101000a8154816fffffffffffffffffffffffffffffffff02191690836fffffffffffffffffffffffffffffffff160217905550600060029054906101000a900473ffffffffffffffffffffffffffffffffffffffff1673ffffffffffffffffffffffffffffffffffffffff1663e028b05d848360003042600260009054906101000a90046fffffffffffffffffffffffffffffffff166040518763ffffffff1660e01b815260040161084e9695949392919061398f565b600060405180830381600087803b15801561086857600080fd5b505af115801561087c573d6000803e3d6000fd5b50505050600060029054906101000a900473ffffffffffffffffffffffffffffffffffffffff1673ffffffffffffffffffffffffffffffffffffffff166326d35089600260009054906101000a90046fffffffffffffffffffffffffffffffff16600030426040518563ffffffff1660e01b81526004016109009493929190613c54565b600060405180830381600087803b15801561091a57600080fd5b505af115801561092e573d6000803e3d6000fd5b50505050505050565b3373ffffffffffffffffffffffffffffffffffffffff16600560009054906101000a900473ffffffffffffffffffffffffffffffffffffffff1673ffffffffffffffffffffffffffffffffffffffff16146109c7576040517f08c379a00000000000000000000000000000000000000000000000000000000081526004016109be90613b99565b60405180910390fd5b6000600360008473ffffffffffffffffffffffffffffffffffffffff1673ffffffffffffffffffffffffffffffffffffffff16815260200190815260200160002060009054906101000a90046fffffffffffffffffffffffffffffffff166fffffffffffffffffffffffffffffffff161415610a78576040517f08c379a0000000000000000000000000000000000000000000000000000000008152600401610a6f90613c19565b60405180910390fd5b6000816fffffffffffffffffffffffffffffffff1611610acd576040517f08c379a0000000000000000000000000000000000000000000000000000000008152600401610ac490613b79565b60405180910390fd5b6000600360008473ffffffffffffffffffffffffffffffffffffffff1673ffffffffffffffffffffffffffffffffffffffff16815260200190815260200160002060009054906101000a90046fffffffffffffffffffffffffffffffff166fffffffffffffffffffffffffffffffff16600260009054906101000a90046fffffffffffffffffffffffffffffffff166fffffffffffffffffffffffffffffffff1614610c1d57816064610b809190613ee3565b610c03600260009054906101000a90046fffffffffffffffffffffffffffffffff16600360008773ffffffffffffffffffffffffffffffffffffffff1673ffffffffffffffffffffffffffffffffffffffff16815260200190815260200160002060009054906101000a90046fffffffffffffffffffffffffffffffff16613084565b83610c0e9190613e99565b610c189190613e68565b610c20565b60645b9050610c2c8382612704565b600360008473ffffffffffffffffffffffffffffffffffffffff1673ffffffffffffffffffffffffffffffffffffffff16815260200190815260200160002060009054906101000a90046fffffffffffffffffffffffffffffffff16600260008282829054906101000a90046fffffffffffffffffffffffffffffffff16610cb49190613ee3565b92506101000a8154816fffffffffffffffffffffffffffffffff02191690836fffffffffffffffffffffffffffffffff16021790555080600260008282829054906101000a90046fffffffffffffffffffffffffffffffff16610d179190613dcc565b92506101000a8154816fffffffffffffffffffffffffffffffff02191690836fffffffffffffffffffffffffffffffff16021790555080600360008573ffffffffffffffffffffffffffffffffffffffff1673ffffffffffffffffffffffffffffffffffffffff16815260200190815260200160002060006101000a8154816fffffffffffffffffffffffffffffffff02191690836fffffffffffffffffffffffffffffffff160217905550600060029054906101000a900473ffffffffffffffffffffffffffffffffffffffff1673ffffffffffffffffffffffffffffffffffffffff1663c207fd9a848360003042600260009054906101000a90046fffffffffffffffffffffffffffffffff166040518763ffffffff1660e01b8152600401610e479695949392919061398f565b600060405180830381600087803b158015610e6157600080fd5b505af1158015610e75573d6000803e3d6000fd5b50505050600060029054906101000a900473ffffffffffffffffffffffffffffffffffffffff1673ffffffffffffffffffffffffffffffffffffffff166326d35089600260009054906101000a90046fffffffffffffffffffffffffffffffff16600030426040518563ffffffff1660e01b8152600401610ef99493929190613c54565b600060405180830381600087803b158015610f1357600080fd5b505af1158015610f27573d6000803e3d6000fd5b50505050505050565b600081565b600560009054906101000a900473ffffffffffffffffffffffffffffffffffffffff1681565b600e6020528060005260406000206000915054906101000a900460ff1681565b3373ffffffffffffffffffffffffffffffffffffffff16600560009054906101000a900473ffffffffffffffffffffffffffffffffffffffff1673ffffffffffffffffffffffffffffffffffffffff161461100b576040517f08c379a000000000000000000000000000000000000000000000000000000000815260040161100290613b99565b60405180910390fd5b6000600360008373ffffffffffffffffffffffffffffffffffffffff1673ffffffffffffffffffffffffffffffffffffffff16815260200190815260200160002060009054906101000a90046fffffffffffffffffffffffffffffffff166fffffffffffffffffffffffffffffffff1614156110bc576040517f08c379a00000000000000000000000000000000000000000000000000000000081526004016110b390613c19565b60405180910390fd5b600360008273ffffffffffffffffffffffffffffffffffffffff1673ffffffffffffffffffffffffffffffffffffffff16815260200190815260200160002060009054906101000a90046fffffffffffffffffffffffffffffffff16600260008282829054906101000a90046fffffffffffffffffffffffffffffffff166111449190613ee3565b92506101000a8154816fffffffffffffffffffffffffffffffff02191690836fffffffffffffffffffffffffffffffff1602179055506000600360008373ffffffffffffffffffffffffffffffffffffffff1673ffffffffffffffffffffffffffffffffffffffff16815260200190815260200160002060006101000a8154816fffffffffffffffffffffffffffffffff02191690836fffffffffffffffffffffffffffffffff1602179055506111fc816000612704565b600060029054906101000a900473ffffffffffffffffffffffffffffffffffffffff1673ffffffffffffffffffffffffffffffffffffffff1663b464319c826000803042600260009054906101000a90046fffffffffffffffffffffffffffffffff166040518763ffffffff1660e01b8152600401611280969594939291906138c6565b600060405180830381600087803b15801561129a57600080fd5b505af11580156112ae573d6000803e3d6000fd5b50505050600060029054906101000a900473ffffffffffffffffffffffffffffffffffffffff1673ffffffffffffffffffffffffffffffffffffffff166326d35089600260009054906101000a90046fffffffffffffffffffffffffffffffff16600030426040518563ffffffff1660e01b81526004016113329493929190613c54565b600060405180830381600087803b15801561134c57600080fd5b505af1158015611360573d6000803e3d6000fd5b5050505050565b60015481565b600060019054906101000a900460ff1680611393575060008054906101000a900460ff16155b6113d2576040517f08c379a00000000000000000000000000000000000000000000000000000000081526004016113c990613bf9565b60405180910390fd5b60008060019054906101000a900460ff161590508015611422576001600060016101000a81548160ff02191690831515021790555060016000806101000a81548160ff0219169083151502179055505b87600060026101000a81548173ffffffffffffffffffffffffffffffffffffffff021916908373ffffffffffffffffffffffffffffffffffffffff16021790555086600560006101000a81548173ffffffffffffffffffffffffffffffffffffffff021916908373ffffffffffffffffffffffffffffffffffffffff16021790555081600d60006101000a81548173ffffffffffffffffffffffffffffffffffffffff021916908373ffffffffffffffffffffffffffffffffffffffff160217905550600d60009054906101000a900473ffffffffffffffffffffffffffffffffffffffff1673ffffffffffffffffffffffffffffffffffffffff166329965a1d307fb281fc8c12954d22544db45de3159a39272895b169a852b314f9cc762e44c53b306040518463ffffffff1660e01b81526004016115649392919061388f565b600060405180830381600087803b15801561157e57600080fd5b505af1158015611592573d6000803e3d6000fd5b5050505085600760006101000a81548173ffffffffffffffffffffffffffffffffffffffff021916908373ffffffffffffffffffffffffffffffffffffffff1602179055506040518060400160405280600581526020017f6644414978000000000000000000000000000000000000000000000000000000815250600460008873ffffffffffffffffffffffffffffffffffffffff1673ffffffffffffffffffffffffffffffffffffffff168152602001908152602001600020908051906020019061165f92919061313f565b5084600860006101000a81548173ffffffffffffffffffffffffffffffffffffffff021916908373ffffffffffffffffffffffffffffffffffffffff1602179055506040518060400160405280600681526020017f6655534443780000000000000000000000000000000000000000000000000000815250600460008773ffffffffffffffffffffffffffffffffffffffff1673ffffffffffffffffffffffffffffffffffffffff168152602001908152602001600020908051906020019061172992919061313f565b5083600960006101000a81548173ffffffffffffffffffffffffffffffffffffffff021916908373ffffffffffffffffffffffffffffffffffffffff1602179055506040518060400160405280600681526020017f6654555344780000000000000000000000000000000000000000000000000000815250600460008673ffffffffffffffffffffffffffffffffffffffff1673ffffffffffffffffffffffffffffffffffffffff16815260200190815260200160002090805190602001906117f392919061313f565b5082600a60006101000a81548173ffffffffffffffffffffffffffffffffffffffff021916908373ffffffffffffffffffffffffffffffffffffffff1602179055506040518060400160405280600481526020017f4554487800000000000000000000000000000000000000000000000000000000815250600460008573ffffffffffffffffffffffffffffffffffffffff1673ffffffffffffffffffffffffffffffffffffffff16815260200190815260200160002090805190602001906118bd92919061313f565b5089600b60006101000a81548173ffffffffffffffffffffffffffffffffffffffff021916908373ffffffffffffffffffffffffffffffffffffffff16021790555088600c60006101000a81548173ffffffffffffffffffffffffffffffffffffffff021916908373ffffffffffffffffffffffffffffffffffffffff160217905550600b60009054906101000a900473ffffffffffffffffffffffffffffffffffffffff1673ffffffffffffffffffffffffffffffffffffffff166339255d5b600c60009054906101000a900473ffffffffffffffffffffffffffffffffffffffff1663d787840a60e01b600760009054906101000a900473ffffffffffffffffffffffffffffffffffffffff1660008067ffffffffffffffff811115611a0e577f4e487b7100000000000000000000000000000000000000000000000000000000600052604160045260246000fd5b6040519080825280601f01601f191660200182016040528015611a405781602001600182028036833780820191505090505b50604051602401611a5393929190613aef565b604051602081830303815290604052907bffffffffffffffffffffffffffffffffffffffffffffffffffffffff19166020820180517bffffffffffffffffffffffffffffffffffffffffffffffffffffffff8381831617835250505050600067ffffffffffffffff811115611af1577f4e487b7100000000000000000000000000000000000000000000000000000000600052604160045260246000fd5b6040519080825280601f01601f191660200182016040528015611b235781602001600182028036833780820191505090505b506040518463ffffffff1660e01b8152600401611b4293929190613a0b565b600060405180830381600087803b158015611b5c57600080fd5b505af1158015611b70573d6000803e3d6000fd5b505050506040513d6000823e3d601f19601f82011682018060405250810190611b9991906134eb565b50600b60009054906101000a900473ffffffffffffffffffffffffffffffffffffffff1673ffffffffffffffffffffffffffffffffffffffff166339255d5b600c60009054906101000a900473ffffffffffffffffffffffffffffffffffffffff1663d787840a60e01b600860009054906101000a900473ffffffffffffffffffffffffffffffffffffffff1660008067ffffffffffffffff811115611c68577f4e487b7100000000000000000000000000000000000000000000000000000000600052604160045260246000fd5b6040519080825280601f01601f191660200182016040528015611c9a5781602001600182028036833780820191505090505b50604051602401611cad93929190613aef565b604051602081830303815290604052907bffffffffffffffffffffffffffffffffffffffffffffffffffffffff19166020820180517bffffffffffffffffffffffffffffffffffffffffffffffffffffffff8381831617835250505050600067ffffffffffffffff811115611d4b577f4e487b7100000000000000000000000000000000000000000000000000000000600052604160045260246000fd5b6040519080825280601f01601f191660200182016040528015611d7d5781602001600182028036833780820191505090505b506040518463ffffffff1660e01b8152600401611d9c93929190613a0b565b600060405180830381600087803b158015611db657600080fd5b505af1158015611dca573d6000803e3d6000fd5b505050506040513d6000823e3d601f19601f82011682018060405250810190611df391906134eb565b50600b60009054906101000a900473ffffffffffffffffffffffffffffffffffffffff1673ffffffffffffffffffffffffffffffffffffffff166339255d5b600c60009054906101000a900473ffffffffffffffffffffffffffffffffffffffff1663d787840a60e01b600960009054906101000a900473ffffffffffffffffffffffffffffffffffffffff1660008067ffffffffffffffff811115611ec2577f4e487b7100000000000000000000000000000000000000000000000000000000600052604160045260246000fd5b6040519080825280601f01601f191660200182016040528015611ef45781602001600182028036833780820191505090505b50604051602401611f0793929190613aef565b604051602081830303815290604052907bffffffffffffffffffffffffffffffffffffffffffffffffffffffff19166020820180517bffffffffffffffffffffffffffffffffffffffffffffffffffffffff8381831617835250505050600067ffffffffffffffff811115611fa5577f4e487b7100000000000000000000000000000000000000000000000000000000600052604160045260246000fd5b6040519080825280601f01601f191660200182016040528015611fd75781602001600182028036833780820191505090505b506040518463ffffffff1660e01b8152600401611ff693929190613a0b565b600060405180830381600087803b15801561201057600080fd5b505af1158015612024573d6000803e3d6000fd5b505050506040513d6000823e3d601f19601f8201168201806040525081019061204d91906134eb565b50600b60009054906101000a900473ffffffffffffffffffffffffffffffffffffffff1673ffffffffffffffffffffffffffffffffffffffff166339255d5b600c60009054906101000a900473ffffffffffffffffffffffffffffffffffffffff1663d787840a60e01b600a60009054906101000a900473ffffffffffffffffffffffffffffffffffffffff1660008067ffffffffffffffff81111561211c577f4e487b7100000000000000000000000000000000000000000000000000000000600052604160045260246000fd5b6040519080825280601f01601f19166020018201604052801561214e5781602001600182028036833780820191505090505b5060405160240161216193929190613aef565b604051602081830303815290604052907bffffffffffffffffffffffffffffffffffffffffffffffffffffffff19166020820180517bffffffffffffffffffffffffffffffffffffffffffffffffffffffff8381831617835250505050600067ffffffffffffffff8111156121ff577f4e487b7100000000000000000000000000000000000000000000000000000000600052604160045260246000fd5b6040519080825280601f01601f1916602001820160405280156122315781602001600182028036833780820191505090505b506040518463ffffffff1660e01b815260040161225093929190613a0b565b600060405180830381600087803b15801561226a57600080fd5b505af115801561227e573d6000803e3d6000fd5b505050506040513d6000823e3d601f19601f820116820180604052508101906122a791906134eb565b5080156122c95760008060016101000a81548160ff0219169083151502179055505b50505050505050505050565b6000600360008373ffffffffffffffffffffffffffffffffffffffff1673ffffffffffffffffffffffffffffffffffffffff16815260200190815260200160002060009054906101000a90046fffffffffffffffffffffffffffffffff169050919050565b6000600c60009054906101000a900473ffffffffffffffffffffffffffffffffffffffff1673ffffffffffffffffffffffffffffffffffffffff1663899baaec83306000876040518563ffffffff1660e01b815260040161239e9493929190613a50565b604080518083038186803b1580156123b557600080fd5b505afa1580156123c9573d6000803e3d6000fd5b505050506040513d601f19601f820116820180604052508101906123ed919061352c565b509050600b60009054906101000a900473ffffffffffffffffffffffffffffffffffffffff1673ffffffffffffffffffffffffffffffffffffffff166339255d5b600c60009054906101000a900473ffffffffffffffffffffffffffffffffffffffff1663b96731c260e01b85600086600067ffffffffffffffff81111561249e577f4e487b7100000000000000000000000000000000000000000000000000000000600052604160045260246000fd5b6040519080825280601f01601f1916602001820160405280156124d05781602001600182028036833780820191505090505b506040516024016124e49493929190613b2d565b604051602081830303815290604052907bffffffffffffffffffffffffffffffffffffffffffffffffffffffff19166020820180517bffffffffffffffffffffffffffffffffffffffffffffffffffffffff8381831617835250505050600067ffffffffffffffff811115612582577f4e487b7100000000000000000000000000000000000000000000000000000000600052604160045260246000fd5b6040519080825280601f01601f1916602001820160405280156125b45781602001600182028036833780820191505090505b506040518463ffffffff1660e01b81526004016125d393929190613a0b565b600060405180830381600087803b1580156125ed57600080fd5b505af1158015612601573d6000803e3d6000fd5b505050506040513d6000823e3d601f19601f8201168201806040525081019061262a91906134eb565b50600060029054906101000a900473ffffffffffffffffffffffffffffffffffffffff1673ffffffffffffffffffffffffffffffffffffffff16634652ed8a8260003042600460008973ffffffffffffffffffffffffffffffffffffffff1673ffffffffffffffffffffffffffffffffffffffff1681526020019081526020016000206040518663ffffffff1660e01b81526004016126cd959493929190613cb4565b600060405180830381600087803b1580156126e757600080fd5b505af11580156126fb573d6000803e3d6000fd5b50505050505050565b600b60009054906101000a900473ffffffffffffffffffffffffffffffffffffffff1673ffffffffffffffffffffffffffffffffffffffff166339255d5b600c60009054906101000a900473ffffffffffffffffffffffffffffffffffffffff1663232d2b5860e01b600760009054906101000a900473ffffffffffffffffffffffffffffffffffffffff1660008787600067ffffffffffffffff8111156127d5577f4e487b7100000000000000000000000000000000000000000000000000000000600052604160045260246000fd5b6040519080825280601f01601f1916602001820160405280156128075781602001600182028036833780820191505090505b5060405160240161281c959493929190613a95565b604051602081830303815290604052907bffffffffffffffffffffffffffffffffffffffffffffffffffffffff19166020820180517bffffffffffffffffffffffffffffffffffffffffffffffffffffffff8381831617835250505050600067ffffffffffffffff8111156128ba577f4e487b7100000000000000000000000000000000000000000000000000000000600052604160045260246000fd5b6040519080825280601f01601f1916602001820160405280156128ec5781602001600182028036833780820191505090505b506040518463ffffffff1660e01b815260040161290b93929190613a0b565b600060405180830381600087803b15801561292557600080fd5b505af1158015612939573d6000803e3d6000fd5b505050506040513d6000823e3d601f19601f8201168201806040525081019061296291906134eb565b50600b60009054906101000a900473ffffffffffffffffffffffffffffffffffffffff1673ffffffffffffffffffffffffffffffffffffffff166339255d5b600c60009054906101000a900473ffffffffffffffffffffffffffffffffffffffff1663232d2b5860e01b600860009054906101000a900473ffffffffffffffffffffffffffffffffffffffff1660008787600067ffffffffffffffff811115612a34577f4e487b7100000000000000000000000000000000000000000000000000000000600052604160045260246000fd5b6040519080825280601f01601f191660200182016040528015612a665781602001600182028036833780820191505090505b50604051602401612a7b959493929190613a95565b604051602081830303815290604052907bffffffffffffffffffffffffffffffffffffffffffffffffffffffff19166020820180517bffffffffffffffffffffffffffffffffffffffffffffffffffffffff8381831617835250505050600067ffffffffffffffff811115612b19577f4e487b7100000000000000000000000000000000000000000000000000000000600052604160045260246000fd5b6040519080825280601f01601f191660200182016040528015612b4b5781602001600182028036833780820191505090505b506040518463ffffffff1660e01b8152600401612b6a93929190613a0b565b600060405180830381600087803b158015612b8457600080fd5b505af1158015612b98573d6000803e3d6000fd5b505050506040513d6000823e3d601f19601f82011682018060405250810190612bc191906134eb565b50600b60009054906101000a900473ffffffffffffffffffffffffffffffffffffffff1673ffffffffffffffffffffffffffffffffffffffff166339255d5b600c60009054906101000a900473ffffffffffffffffffffffffffffffffffffffff1663232d2b5860e01b600960009054906101000a900473ffffffffffffffffffffffffffffffffffffffff1660008787600067ffffffffffffffff811115612c93577f4e487b7100000000000000000000000000000000000000000000000000000000600052604160045260246000fd5b6040519080825280601f01601f191660200182016040528015612cc55781602001600182028036833780820191505090505b50604051602401612cda959493929190613a95565b604051602081830303815290604052907bffffffffffffffffffffffffffffffffffffffffffffffffffffffff19166020820180517bffffffffffffffffffffffffffffffffffffffffffffffffffffffff8381831617835250505050600067ffffffffffffffff811115612d78577f4e487b7100000000000000000000000000000000000000000000000000000000600052604160045260246000fd5b6040519080825280601f01601f191660200182016040528015612daa5781602001600182028036833780820191505090505b506040518463ffffffff1660e01b8152600401612dc993929190613a0b565b600060405180830381600087803b158015612de357600080fd5b505af1158015612df7573d6000803e3d6000fd5b505050506040513d6000823e3d601f19601f82011682018060405250810190612e2091906134eb565b50600b60009054906101000a900473ffffffffffffffffffffffffffffffffffffffff1673ffffffffffffffffffffffffffffffffffffffff166339255d5b600c60009054906101000a900473ffffffffffffffffffffffffffffffffffffffff1663232d2b5860e01b600a60009054906101000a900473ffffffffffffffffffffffffffffffffffffffff1660008787600067ffffffffffffffff811115612ef2577f4e487b7100000000000000000000000000000000000000000000000000000000600052604160045260246000fd5b6040519080825280601f01601f191660200182016040528015612f245781602001600182028036833780820191505090505b50604051602401612f39959493929190613a95565b604051602081830303815290604052907bffffffffffffffffffffffffffffffffffffffffffffffffffffffff19166020820180517bffffffffffffffffffffffffffffffffffffffffffffffffffffffff8381831617835250505050600067ffffffffffffffff811115612fd7577f4e487b7100000000000000000000000000000000000000000000000000000000600052604160045260246000fd5b6040519080825280601f01601f1916602001820160405280156130095781602001600182028036833780820191505090505b506040518463ffffffff1660e01b815260040161302893929190613a0b565b600060405180830381600087803b15801561304257600080fd5b505af1158015613056573d6000803e3d6000fd5b505050506040513d6000823e3d601f19601f8201168201806040525081019061307f91906134eb565b505050565b6000816fffffffffffffffffffffffffffffffff16836fffffffffffffffffffffffffffffffff1611156130c55781836130be9190613ee3565b9050613139565b816fffffffffffffffffffffffffffffffff16836fffffffffffffffffffffffffffffffff1610156131045782826130fd9190613ee3565b9050613139565b816fffffffffffffffffffffffffffffffff16836fffffffffffffffffffffffffffffffff16141561313857829050613139565b5b92915050565b82805461314b90614022565b90600052602060002090601f01602090048101928261316d57600085556131b4565b82601f1061318657805160ff19168380011785556131b4565b828001600101855582156131b4579182015b828111156131b3578251825591602001919060010190613198565b5b5090506131c191906131c5565b5090565b5b808211156131de5760008160009055506001016131c6565b5090565b60006131f56131f084613d5a565b613d29565b90508281526020810184848401111561320d57600080fd5b613218848285613fef565b509392505050565b60008135905061322f81614121565b92915050565b60008083601f84011261324757600080fd5b8235905067ffffffffffffffff81111561326057600080fd5b60208301915083600182028301111561327857600080fd5b9250929050565b600082601f83011261329057600080fd5b81516132a08482602086016131e2565b91505092915050565b6000813590506132b881614138565b92915050565b6000815190506132cd81614138565b92915050565b6000813590506132e28161414f565b92915050565b6000815190506132f78161414f565b92915050565b60006020828403121561330f57600080fd5b600061331d84828501613220565b91505092915050565b60008060008060008060008060006101208a8c03121561334557600080fd5b60006133538c828d01613220565b99505060206133648c828d01613220565b98505060406133758c828d01613220565b97505060606133868c828d01613220565b96505060806133978c828d01613220565b95505060a06133a88c828d01613220565b94505060c06133b98c828d01613220565b93505060e06133ca8c828d01613220565b9250506101006133dc8c828d01613220565b9150509295985092959850929598565b60008060008060008060008060c0898b03121561340857600080fd5b60006134168b828c01613220565b98505060206134278b828c01613220565b97505060406134388b828c01613220565b96505060606134498b828c016132d3565b955050608089013567ffffffffffffffff81111561346657600080fd5b6134728b828c01613235565b945094505060a089013567ffffffffffffffff81111561349157600080fd5b61349d8b828c01613235565b92509250509295985092959890939650565b600080604083850312156134c257600080fd5b60006134d085828601613220565b92505060206134e1858286016132a9565b9150509250929050565b6000602082840312156134fd57600080fd5b600082015167ffffffffffffffff81111561351757600080fd5b6135238482850161327f565b91505092915050565b6000806040838503121561353f57600080fd5b600061354d858286016132e8565b925050602061355e858286016132be565b9150509250929050565b61357181613f17565b82525050565b61358081613f29565b82525050565b61358f81613f35565b82525050565b60006135a082613d9f565b6135aa8185613daa565b93506135ba818560208601613fef565b6135c381614110565b840191505092915050565b6135d781613f95565b82525050565b6135e681613fb9565b82525050565b6135f581613fdd565b82525050565b6000815461360881614022565b6136128186613dbb565b9450600182166000811461362d576001811461363f57613672565b60ff1983168652602086019350613672565b61364885613d8a565b60005b8381101561366a5781548189015260018201915060208101905061364b565b808801955050505b50505092915050565b6000613688602c83613dbb565b91507f53686172652050657263656e746167652073686f756c6420626520677265617460008301527f6572207468616e207a65726f00000000000000000000000000000000000000006020830152604082019050919050565b60006136ee601d83613dbb565b91507f4f6e6c7920746865206f776e657220636f756c642075736520746869730000006000830152602082019050919050565b600061372e601d83613dbb565b91507f43616e206f6e6c79206163636570742045524337373720746f6b656e730000006000830152602082019050919050565b600061376e601383613dbb565b91507f5573657220616c726561647920657869737473000000000000000000000000006000830152602082019050919050565b60006137ae602e83613dbb565b91507f496e697469616c697a61626c653a20636f6e747261637420697320616c72656160008301527f647920696e697469616c697a65640000000000000000000000000000000000006020830152604082019050919050565b6000613814601283613dbb565b91507f5573657220646f65736e277420657869737400000000000000000000000000006000830152602082019050919050565b61385081613f3f565b82525050565b61385f81613f7b565b82525050565b61386e81613f85565b82525050565b60006020820190506138896000830184613568565b92915050565b60006060820190506138a46000830186613568565b6138b16020830185613586565b6138be6040830184613568565b949350505050565b600060c0820190506138db6000830189613568565b6138e860208301886135ec565b6138f56040830187613865565b6139026060830186613568565b61390f6080830185613856565b61391c60a0830184613847565b979650505050505050565b600060c08201905061393c6000830189613568565b818103602083015261394e81886135fb565b905061395d6040830187613856565b61396a6060830186613865565b6139776080830185613568565b61398460a0830184613856565b979650505050505050565b600060c0820190506139a46000830189613568565b6139b16020830188613847565b6139be6040830187613865565b6139cb6060830186613568565b6139d86080830185613856565b6139e560a0830184613847565b979650505050505050565b6000602082019050613a056000830184613577565b92915050565b6000606082019050613a2060008301866135ce565b8181036020830152613a328185613595565b90508181036040830152613a468184613595565b9050949350505050565b6000608082019050613a6560008301876135dd565b613a726020830186613568565b613a7f6040830185613865565b613a8c6060830184613856565b95945050505050565b600060a082019050613aaa60008301886135dd565b613ab76020830187613865565b613ac46040830186613568565b613ad16060830185613847565b8181036080830152613ae38184613595565b90509695505050505050565b6000606082019050613b0460008301866135dd565b613b116020830185613865565b8181036040830152613b238184613595565b9050949350505050565b6000608082019050613b4260008301876135dd565b613b4f6020830186613865565b613b5c6040830185613856565b8181036060830152613b6e8184613595565b905095945050505050565b60006020820190508181036000830152613b928161367b565b9050919050565b60006020820190508181036000830152613bb2816136e1565b9050919050565b60006020820190508181036000830152613bd281613721565b9050919050565b60006020820190508181036000830152613bf281613761565b9050919050565b60006020820190508181036000830152613c12816137a1565b9050919050565b60006020820190508181036000830152613c3281613807565b9050919050565b6000602082019050613c4e6000830184613847565b92915050565b6000608082019050613c696000830187613847565b613c766020830186613865565b613c836040830185613568565b613c906060830184613856565b95945050505050565b6000602082019050613cae6000830184613856565b92915050565b600060a082019050613cc96000830188613856565b613cd66020830187613865565b613ce36040830186613568565b613cf06060830185613856565b8181036080830152613d0281846135fb565b90509695505050505050565b6000602082019050613d236000830184613865565b92915050565b6000604051905081810181811067ffffffffffffffff82111715613d5057613d4f6140e1565b5b8060405250919050565b600067ffffffffffffffff821115613d7557613d746140e1565b5b601f19601f8301169050602081019050919050565b60008190508160005260206000209050919050565b600081519050919050565b600082825260208201905092915050565b600082825260208201905092915050565b6000613dd782613f3f565b9150613de283613f3f565b9250826fffffffffffffffffffffffffffffffff03821115613e0757613e06614054565b5b828201905092915050565b6000613e1d82613f7b565b9150613e2883613f7b565b9250827fffffffffffffffffffffffffffffffffffffffffffffffffffffffffffffffff03821115613e5d57613e5c614054565b5b828201905092915050565b6000613e7382613f3f565b9150613e7e83613f3f565b925082613e8e57613e8d614083565b5b828204905092915050565b6000613ea482613f3f565b9150613eaf83613f3f565b9250816fffffffffffffffffffffffffffffffff0483118215151615613ed857613ed7614054565b5b828202905092915050565b6000613eee82613f3f565b9150613ef983613f3f565b925082821015613f0c57613f0b614054565b5b828203905092915050565b6000613f2282613f5b565b9050919050565b60008115159050919050565b6000819050919050565b60006fffffffffffffffffffffffffffffffff82169050919050565b600073ffffffffffffffffffffffffffffffffffffffff82169050919050565b6000819050919050565b600063ffffffff82169050919050565b6000613fa082613fa7565b9050919050565b6000613fb282613f5b565b9050919050565b6000613fc482613fcb565b9050919050565b6000613fd682613f5b565b9050919050565b6000613fe882613f3f565b9050919050565b60005b8381101561400d578082015181840152602081019050613ff2565b8381111561401c576000848401525b50505050565b6000600282049050600182168061403a57607f821691505b6020821081141561404e5761404d6140b2565b5b50919050565b7f4e487b7100000000000000000000000000000000000000000000000000000000600052601160045260246000fd5b7f4e487b7100000000000000000000000000000000000000000000000000000000600052601260045260246000fd5b7f4e487b7100000000000000000000000000000000000000000000000000000000600052602260045260246000fd5b7f4e487b7100000000000000000000000000000000000000000000000000000000600052604160045260246000fd5b6000601f19601f8301169050919050565b61412a81613f17565b811461413557600080fd5b50565b61414181613f3f565b811461414c57600080fd5b50565b61415881613f7b565b811461416357600080fd5b5056fea2646970667358221220811e48f54a39556a1cd850a15b56ef1f53ed2043086efaa97aba61f1b3b6a23e64736f6c63430008000033",
  "immutableReferences": {},
  "source": "// SPDX-License-Identifier: UNLICENSED\npragma solidity ^0.8.0;\npragma experimental ABIEncoderV2;\n\nimport './Emitter.sol';\n\nimport {\n    ISuperfluid,\n    ISuperToken\n} from \"@superfluid-finance/ethereum-contracts/contracts/apps/SuperAppBase.sol\";\n//from \"https://github.com/superfluid-finance/protocol-monorepo/blob/remix-support/packages/ethereum-contracts/contracts/apps/SuperAppBase.sol\";\nimport {\n    IInstantDistributionAgreementV1\n} from \"@superfluid-finance/ethereum-contracts/contracts/interfaces/agreements/IInstantDistributionAgreementV1.sol\";\n//from \"https://github.com/superfluid-finance/protocol-monorepo/blob/remix-support/packages/ethereum-contracts/contracts/interfaces/agreements/IInstantDistributionAgreementV1.sol\";\n\nimport \"@openzeppelin/contracts/token/ERC777/IERC777.sol\";\nimport \"@openzeppelin/contracts/utils/introspection/IERC1820Registry.sol\";\nimport \"@openzeppelin/contracts/token/ERC777/IERC777Recipient.sol\";\nimport \"@openzeppelin/contracts/proxy/utils/Initializable.sol\";\n\n\n\ncontract BaseDistributor is IERC777Recipient,Initializable {\n    Emitter emitter;\n    uint256 public totalDonations=0;\n    uint128 public totalShareUnits=0;\n    mapping (address=>uint128) shareMapping;\n    mapping (address=>string) tokenNameMapping;\n\n    uint32 public constant INDEX_ID = 0;\n\n    address public owner;\n    ISuperToken private _cashToken;\n\n    ISuperToken private fDAIx;\n    ISuperToken private fUSDCx;\n    ISuperToken private fTUSDx;\n    ISuperToken private ETHx;\n\n    ISuperfluid private _host;\n    IInstantDistributionAgreementV1 private _ida;\n\n    IERC1820Registry private _erc1820;// = IERC1820Registry(0x1820a4B7618BdE71Dce8cdc73aAB6C95905faD24);\n    bytes32 constant private TOKENS_RECIPIENT_INTERFACE_HASH = keccak256(\"ERC777TokensRecipient\");\n\n    // use callbacks to track approved subscriptions\n    mapping (address => bool) public isSubscribing;\n\n    //Events\n    // event DonationReceived(address from, string token, uint256 amount,uint32 index,address publisher,uint timeStamp);\n    // event UserAdded(address userAddress,uint128 shares,uint32 index,address publisher,uint timeStamp,uint128 totalShares);\n    // event UserRemoved(address userAddress,uint128 shares,uint32 index,address publisher,uint timeStamp,uint128 totalShares);\n    // event UserModified(address userAddress,uint128 shares,uint32 index,address publisher,uint timeStamp,uint128 totalShares);\n    // event Distribution(uint256 amountDistributed,uint32 index,address publisher,uint timeStamp,string token);\n    // event TotalShares(uint128 totalShares,uint32 index,address publisher,uint timeStamp);\n\n    function initialize (\n        address host,\n        address ida,\n        address emitterAdd,\n        address _owner,\n        address _fDAIx,\n        address _fUSDCx,\n        address _fTUSDx,\n        address _ETHx,\n        address _erc1820Add\n        ) public initializer{\n        \n        emitter = Emitter(emitterAdd);\n        owner = _owner;\n        _erc1820 = IERC1820Registry(_erc1820Add);\n        _erc1820.setInterfaceImplementer(address(this), TOKENS_RECIPIENT_INTERFACE_HASH, address(this));\n        // transferOwnership(_owner);\n        \n\n         fDAIx = ISuperToken(_fDAIx);\n        tokenNameMapping[_fDAIx] = \"fDAIx\";\n\n         fUSDCx = ISuperToken(_fUSDCx);\n        tokenNameMapping[_fUSDCx] = \"fUSDCx\";\n\n         fTUSDx = ISuperToken(_fTUSDx);\n        tokenNameMapping[_fTUSDx] = \"fTUSDx\";\n\n         ETHx = ISuperToken(_ETHx);\n        tokenNameMapping[_ETHx] = \"ETHx\";\n\n        \n        _host = ISuperfluid(host);\n        _ida = IInstantDistributionAgreementV1(ida);\n    // }\n\n    // function initalize2() external onlyOwner{\n\n        _host.callAgreement(\n            _ida,\n            abi.encodeWithSelector(\n                _ida.createIndex.selector,\n                fDAIx,\n                INDEX_ID,\n                new bytes(0) // placeholder ctx\n            ),\n            new bytes(0) // user data\n        );\n\n        _host.callAgreement(\n            _ida,\n            abi.encodeWithSelector(\n                _ida.createIndex.selector,\n                fUSDCx,\n                INDEX_ID,\n                new bytes(0) // placeholder ctx\n            ),\n            new bytes(0) // user data\n        );\n\n        _host.callAgreement(\n            _ida,\n            abi.encodeWithSelector(\n                _ida.createIndex.selector,\n                fTUSDx,\n                INDEX_ID,\n                new bytes(0) // placeholder ctx\n            ),\n            new bytes(0) // user data\n        );\n\n        _host.callAgreement(\n            _ida,\n            abi.encodeWithSelector(\n                _ida.createIndex.selector,\n                ETHx,\n                INDEX_ID,\n                new bytes(0) // placeholder ctx\n            ),\n            new bytes(0) // user data\n        );\n    }\n\n    modifier onlyOwner(){\n        require(owner==msg.sender,\"Only the owner could use this\");\n        _;\n    }\n\n    function sharesOf(address user) view external returns(uint128){\n        return shareMapping[user];\n    }\n\n    // function beforeAgreementCreated(\n    //     ISuperToken superToken,\n    //     address agreementClass,\n    //     bytes32 /* agreementId */,\n    //     bytes calldata /*agreementData*/,\n    //     bytes calldata /*ctx*/\n    // )\n    //     external view override\n    //     returns (bytes memory data)\n    // {\n    //     // require(superToken == _cashToken, \"DRT: Unsupported cash token\");\n    //     require(agreementClass == address(_ida), \"DRT: Unsupported agreement\");\n    //     return new bytes(0);\n    // }\n\n    // function afterAgreementCreated(\n    //     ISuperToken superToken,\n    //     address /* agreementClass */,\n    //     bytes32 agreementId,\n    //     bytes calldata /*agreementData*/,\n    //     bytes calldata /*cbdata*/,\n    //     bytes calldata ctx\n    // )\n    //     external override\n    //     returns(bytes memory newCtx)\n    // {\n    //     _checkSubscription(superToken, ctx, agreementId);\n    //     newCtx = ctx;\n    // }\n\n    // function beforeAgreementUpdated(\n    //     ISuperToken superToken,\n    //     address agreementClass,\n    //     bytes32 /* agreementId */,\n    //     bytes calldata /*agreementData*/,\n    //     bytes calldata /*ctx*/\n    // )\n    //     external view override\n    //     returns (bytes memory data)\n    // {\n    //     // require(superToken == _cashToken, \"DRT: Unsupported cash token\");\n    //     require(agreementClass == address(_ida), \"DRT: Unsupported agreement\");\n    //     return new bytes(0);\n    // }\n\n    // function afterAgreementUpdated(\n    //     ISuperToken superToken,\n    //     address /* agreementClass */,\n    //     bytes32 agreementId,\n    //     bytes calldata /*agreementData*/,\n    //     bytes calldata /*cbdata*/,\n    //     bytes calldata ctx\n    // )\n    //     external override\n    //     returns(bytes memory newCtx)\n    // {\n    //     _checkSubscription(superToken, ctx, agreementId);\n    //     newCtx = ctx;\n    // }\n\n    function _checkSubscription(\n        ISuperToken superToken,\n        bytes calldata ctx,\n        bytes32 agreementId\n    )\n        private\n    {\n        ISuperfluid.Context memory context = _host.decodeCtx(ctx);\n        // only interested in the subscription approval callbacks\n        if (context.agreementSelector == IInstantDistributionAgreementV1.approveSubscription.selector) {\n            address publisher;\n            uint32 indexId;\n            bool approved;\n            uint128 units;\n            uint256 pendingDistribution;\n            (publisher, indexId, approved, units, pendingDistribution) =\n                _ida.getSubscriptionByID(superToken, agreementId);\n\n            // sanity checks for testing purpose\n            require(publisher == address(this), \"DRT: publisher mismatch\");\n            require(indexId == INDEX_ID, \"DRT: publisher mismatch\");\n\n            if (approved) {\n                isSubscribing[context.msgSender /* subscriber */] = true;\n            }\n        }\n    }\n\n    function modifySub(address user,uint128 shareUnits) internal{\n        _host.callAgreement(\n            _ida,\n            abi.encodeWithSelector(\n                _ida.updateSubscription.selector,\n                fDAIx,\n                INDEX_ID,\n                user,\n                shareUnits,\n                new bytes(0) // placeholder ctx\n            ),\n            new bytes(0) // user data\n        );\n\n        _host.callAgreement(\n            _ida,\n            abi.encodeWithSelector(\n                _ida.updateSubscription.selector,\n                fUSDCx,\n                INDEX_ID,\n                user,\n                shareUnits,\n                new bytes(0) // placeholder ctx\n            ),\n            new bytes(0) // user data\n        );\n\n        _host.callAgreement(\n            _ida,\n            abi.encodeWithSelector(\n                _ida.updateSubscription.selector,\n                fTUSDx,\n                INDEX_ID,\n                user,\n                shareUnits,\n                new bytes(0) // placeholder ctx\n            ),\n            new bytes(0) // user data\n        );\n\n        _host.callAgreement(\n            _ida,\n            abi.encodeWithSelector(\n                _ida.updateSubscription.selector,\n                ETHx,\n                INDEX_ID,\n                user,\n                shareUnits,\n                new bytes(0) // placeholder ctx\n            ),\n            new bytes(0) // user data\n        );\n        \n    }\n\n    function abs(uint128 x,uint128 y) private pure returns (uint128) {\n        if(x>y)\n         return x-y;\n        if(x<y)\n         return y-x;\n        if(x==y)\n         return x;\n    }\n\n    function addUser(address newUser,uint128 sharePercentage) external onlyOwner{\n        require(shareMapping[newUser]==0,\"User already exists\");\n        require(sharePercentage>0,\"Share Percentage should be greater than zero\");\n\n        uint128 shareUnits = totalShareUnits==0?100: (sharePercentage * totalShareUnits)/(100- sharePercentage);\n        modifySub(newUser, shareUnits);\n        totalShareUnits += shareUnits;\n        shareMapping[newUser] = shareUnits;\n        emitter.UserAdded2(newUser,shareUnits,INDEX_ID,address(this),block.timestamp,totalShareUnits);\n        emitter.TotalShares2(totalShareUnits,INDEX_ID,address(this),block.timestamp);\n    }\n\n    function modifyUser(address existingUser,uint128 sharePercentage) external onlyOwner{\n        require(shareMapping[existingUser]!=0,\"User doesn't exist\");\n        require(sharePercentage>0,\"Share Percentage should be greater than zero\");\n        uint128 shareUnits = totalShareUnits==shareMapping[existingUser]?100:(sharePercentage * abs(totalShareUnits,shareMapping[existingUser]))/(100- sharePercentage);\n        modifySub(existingUser, shareUnits);\n        totalShareUnits -= shareMapping[existingUser];//Need to handle case where shareMapping is larger than total share units\n        totalShareUnits += shareUnits ;\n        shareMapping[existingUser] = shareUnits;\n        emitter.UserModified2(existingUser,shareUnits,INDEX_ID,address(this),block.timestamp,totalShareUnits);\n        emitter.TotalShares2(totalShareUnits,INDEX_ID,address(this),block.timestamp);\n    }\n\n    function removeUser(address existingUser) external onlyOwner{\n        require(shareMapping[existingUser]!=0,\"User doesn't exist\");\n        totalShareUnits -= shareMapping[existingUser];\n        shareMapping[existingUser] = 0;\n        modifySub(existingUser, 0);\n        emitter.UserRemoved2(existingUser,0,INDEX_ID,address(this),block.timestamp,totalShareUnits);//Changed the shareUnits to zero to read in the frontend the exit of the user\n        emitter.TotalShares2(totalShareUnits,INDEX_ID,address(this),block.timestamp);\n    }\n\n    /// @dev Distribute `amount` of cash among all token holders\n    function distribute(uint256 cashAmount,address tokenAddress) internal {\n        (uint256 actualCashAmount,) = _ida.calculateDistribution(\n            ISuperToken(tokenAddress),\n            address(this), INDEX_ID,\n            cashAmount);\n\n        _host.callAgreement(\n            _ida,\n            abi.encodeWithSelector(\n                _ida.distribute.selector,\n                ISuperToken(tokenAddress),\n                INDEX_ID,\n                actualCashAmount,\n                new bytes(0) // placeholder ctx\n            ),\n            new bytes(0) // user data\n        );\n        emitter.Distribution2(actualCashAmount,INDEX_ID,address(this),block.timestamp,tokenNameMapping[tokenAddress]);\n    }\n\n    function tokensReceived(\n        address operator,\n        address from,\n        address to,\n        uint256 amount,\n        bytes calldata userData,\n        bytes calldata operatorData\n    ) external override {\n        //require(msg.sender == address(_token), \"Simple777Recipient: Invalid token\");\n        require((msg.sender==address(fDAIx))||(msg.sender==address(fDAIx))||(msg.sender==address(fDAIx))||(msg.sender==address(fDAIx)),\"Can only accept ERC777 tokens\");\n        // do stuff\n        totalDonations += amount;\n        distribute(amount,msg.sender);\n        emitter.DonationReceived2( from, tokenNameMapping[msg.sender], amount,INDEX_ID,address(this),block.timestamp);\n    }\n}",
  "sourcePath": "/Users/praffulsahu/Documents/Crypto/erc777distributor/contracts/BaseDistributor.sol",
  "compiler": {
    "name": "solc",
    "version": "0.8.0+commit.c7dfd78e.Emscripten.clang"
  },
  "schemaVersion": "3.3.3",
  "updatedAt": "2021-06-28T08:21:10.957Z",
  "networkType": "ethereum",
  "devdoc": {
    "kind": "dev",
    "methods": {
      "tokensReceived(address,address,address,uint256,bytes,bytes)": {
        "details": "Called by an {IERC777} token contract whenever tokens are being moved or created into a registered account (`to`). The type of operation is conveyed by `from` being the zero address or not. This call occurs _after_ the token contract's state is updated, so {IERC777-balanceOf}, etc., can be used to query the post-operation state. This function may revert to prevent the operation from being executed."
      }
    },
    "version": 1
  },
  "userdoc": {
    "kind": "user",
    "methods": {},
    "version": 1
  }
}