{
  "contractName": "BaseDistributor",
  "abi": [
    {
      "inputs": [],
      "name": "INDEX_ID",
      "outputs": [
        {
          "internalType": "uint32",
          "name": "",
          "type": "uint32"
        }
      ],
      "stateMutability": "view",
      "type": "function",
      "constant": true
    },
    {
      "inputs": [
        {
          "internalType": "address",
          "name": "",
          "type": "address"
        }
      ],
      "name": "isSubscribing",
      "outputs": [
        {
          "internalType": "bool",
          "name": "",
          "type": "bool"
        }
      ],
      "stateMutability": "view",
      "type": "function",
      "constant": true
    },
    {
      "inputs": [],
      "name": "owner",
      "outputs": [
        {
          "internalType": "address",
          "name": "",
          "type": "address"
        }
      ],
      "stateMutability": "view",
      "type": "function",
      "constant": true
    },
    {
      "inputs": [],
      "name": "totalDonations",
      "outputs": [
        {
          "internalType": "uint256",
          "name": "",
          "type": "uint256"
        }
      ],
      "stateMutability": "view",
      "type": "function",
      "constant": true
    },
    {
      "inputs": [],
      "name": "totalShareUnits",
      "outputs": [
        {
          "internalType": "uint128",
          "name": "",
          "type": "uint128"
        }
      ],
      "stateMutability": "view",
      "type": "function",
      "constant": true
    },
    {
      "inputs": [
        {
          "internalType": "address",
          "name": "host",
          "type": "address"
        },
        {
          "internalType": "address",
          "name": "ida",
          "type": "address"
        },
        {
          "internalType": "address",
          "name": "emitterAdd",
          "type": "address"
        },
        {
          "internalType": "address",
          "name": "_owner",
          "type": "address"
        },
        {
          "internalType": "address",
          "name": "_fDAIx",
          "type": "address"
        },
        {
          "internalType": "address",
          "name": "_fUSDCx",
          "type": "address"
        },
        {
          "internalType": "address",
          "name": "_fTUSDx",
          "type": "address"
        },
        {
          "internalType": "address",
          "name": "_ETHx",
          "type": "address"
        },
        {
          "internalType": "address",
          "name": "_erc1820Add",
          "type": "address"
        }
      ],
      "name": "initialize",
      "outputs": [],
      "stateMutability": "nonpayable",
      "type": "function"
    },
    {
      "inputs": [
        {
          "internalType": "address",
          "name": "user",
          "type": "address"
        }
      ],
      "name": "sharesOf",
      "outputs": [
        {
          "internalType": "uint128",
          "name": "",
          "type": "uint128"
        }
      ],
      "stateMutability": "view",
      "type": "function",
      "constant": true
    },
    {
      "inputs": [
        {
          "internalType": "address",
          "name": "newUser",
          "type": "address"
        },
        {
          "internalType": "uint128",
          "name": "sharePercentage",
          "type": "uint128"
        }
      ],
      "name": "addUser",
      "outputs": [],
      "stateMutability": "nonpayable",
      "type": "function"
    },
    {
      "inputs": [
        {
          "internalType": "address",
          "name": "existingUser",
          "type": "address"
        },
        {
          "internalType": "uint128",
          "name": "sharePercentage",
          "type": "uint128"
        }
      ],
      "name": "modifyUser",
      "outputs": [],
      "stateMutability": "nonpayable",
      "type": "function"
    },
    {
      "inputs": [
        {
          "internalType": "address",
          "name": "existingUser",
          "type": "address"
        }
      ],
      "name": "removeUser",
      "outputs": [],
      "stateMutability": "nonpayable",
      "type": "function"
    },
    {
      "inputs": [
        {
          "internalType": "address",
          "name": "operator",
          "type": "address"
        },
        {
          "internalType": "address",
          "name": "from",
          "type": "address"
        },
        {
          "internalType": "address",
          "name": "to",
          "type": "address"
        },
        {
          "internalType": "uint256",
          "name": "amount",
          "type": "uint256"
        },
        {
          "internalType": "bytes",
          "name": "userData",
          "type": "bytes"
        },
        {
          "internalType": "bytes",
          "name": "operatorData",
          "type": "bytes"
        }
      ],
      "name": "tokensReceived",
      "outputs": [],
      "stateMutability": "nonpayable",
      "type": "function"
    }
  ],
  "bytecode": "0x608060405260006001556000600260006101000a8154816fffffffffffffffffffffffffffffffff02191690836fffffffffffffffffffffffffffffffff16021790555034801561004f57600080fd5b506143028061005f6000396000f3fe608060405234801561001057600080fd5b50600436106100a85760003560e01c80638da5cb5b116100715780638da5cb5b1461013d578063915e33641461015b578063985751881461018b578063de2ed893146101a7578063f5e95acb146101c5578063f5eb42dc146101e1576100a8565b806223de29146100ad5780635167f6e7146100c957806380e85c51146100e75780638378f8c0146101035780638c7f09591461011f575b600080fd5b6100c760048036038101906100c2919061350c565b610211565b005b6100d16104d0565b6040516100de9190613d83565b60405180910390f35b61010160048036038101906100fc91906135cf565b6104f2565b005b61011d600480360381019061011891906135cf565b6109a3565b005b610127610fe4565b6040516101349190613e74565b60405180910390f35b610145610fe9565b6040516101529190613994565b60405180910390f35b6101756004803603810190610170919061341d565b61100f565b6040516101829190613b3a565b60405180910390f35b6101a560048036038101906101a0919061341d565b61102f565b005b6101af611463565b6040516101bc9190613df1565b60405180910390f35b6101df60048036038101906101da9190613446565b611469565b005b6101fb60048036038101906101f6919061341d565b6123d1565b6040516102089190613d83565b60405180910390f35b600760009054906101000a900473ffffffffffffffffffffffffffffffffffffffff1673ffffffffffffffffffffffffffffffffffffffff163373ffffffffffffffffffffffffffffffffffffffff1614806102ba5750600860009054906101000a900473ffffffffffffffffffffffffffffffffffffffff1673ffffffffffffffffffffffffffffffffffffffff163373ffffffffffffffffffffffffffffffffffffffff16145b806103125750600960009054906101000a900473ffffffffffffffffffffffffffffffffffffffff1673ffffffffffffffffffffffffffffffffffffffff163373ffffffffffffffffffffffffffffffffffffffff16145b8061036a5750600a60009054906101000a900473ffffffffffffffffffffffffffffffffffffffff1673ffffffffffffffffffffffffffffffffffffffff163373ffffffffffffffffffffffffffffffffffffffff16145b6103a9576040517f08c379a00000000000000000000000000000000000000000000000000000000081526004016103a090613d03565b60405180910390fd5b84600160008282546103bb9190613f78565b925050819055506103cc8533612436565b600060029054906101000a900473ffffffffffffffffffffffffffffffffffffffff1673ffffffffffffffffffffffffffffffffffffffff1663be84a04188600460003373ffffffffffffffffffffffffffffffffffffffff1673ffffffffffffffffffffffffffffffffffffffff1681526020019081526020016000208860003042600560009054906101000a900473ffffffffffffffffffffffffffffffffffffffff166040518863ffffffff1660e01b81526004016104949796959493929190613a55565b600060405180830381600087803b1580156104ae57600080fd5b505af11580156104c2573d6000803e3d6000fd5b505050505050505050505050565b600260009054906101000a90046fffffffffffffffffffffffffffffffff1681565b3373ffffffffffffffffffffffffffffffffffffffff16600560009054906101000a900473ffffffffffffffffffffffffffffffffffffffff1673ffffffffffffffffffffffffffffffffffffffff1614610582576040517f08c379a000000000000000000000000000000000000000000000000000000000815260040161057990613ce3565b60405180910390fd5b6000600360008473ffffffffffffffffffffffffffffffffffffffff1673ffffffffffffffffffffffffffffffffffffffff16815260200190815260200160002060009054906101000a90046fffffffffffffffffffffffffffffffff166fffffffffffffffffffffffffffffffff1614610632576040517f08c379a000000000000000000000000000000000000000000000000000000000815260040161062990613d23565b60405180910390fd5b6000816fffffffffffffffffffffffffffffffff1611610687576040517f08c379a000000000000000000000000000000000000000000000000000000000815260040161067e90613cc3565b60405180910390fd5b600080600260009054906101000a90046fffffffffffffffffffffffffffffffff166fffffffffffffffffffffffffffffffff1614610706578160646106cd9190614049565b600260009054906101000a90046fffffffffffffffffffffffffffffffff16836106f79190613fff565b6107019190613fce565b610709565b60645b90506107158382612824565b80600260008282829054906101000a90046fffffffffffffffffffffffffffffffff166107429190613f32565b92506101000a8154816fffffffffffffffffffffffffffffffff02191690836fffffffffffffffffffffffffffffffff16021790555080600360008573ffffffffffffffffffffffffffffffffffffffff1673ffffffffffffffffffffffffffffffffffffffff16815260200190815260200160002060006101000a8154816fffffffffffffffffffffffffffffffff02191690836fffffffffffffffffffffffffffffffff160217905550600060029054906101000a900473ffffffffffffffffffffffffffffffffffffffff1673ffffffffffffffffffffffffffffffffffffffff1663496cb3bc848360003042600260009054906101000a90046fffffffffffffffffffffffffffffffff16600560009054906101000a900473ffffffffffffffffffffffffffffffffffffffff166040518863ffffffff1660e01b81526004016108969796959493929190613acb565b600060405180830381600087803b1580156108b057600080fd5b505af11580156108c4573d6000803e3d6000fd5b50505050600060029054906101000a900473ffffffffffffffffffffffffffffffffffffffff1673ffffffffffffffffffffffffffffffffffffffff1663790b291b600260009054906101000a90046fffffffffffffffffffffffffffffffff1660003042600560009054906101000a900473ffffffffffffffffffffffffffffffffffffffff166040518663ffffffff1660e01b815260040161096c959493929190613d9e565b600060405180830381600087803b15801561098657600080fd5b505af115801561099a573d6000803e3d6000fd5b50505050505050565b3373ffffffffffffffffffffffffffffffffffffffff16600560009054906101000a900473ffffffffffffffffffffffffffffffffffffffff1673ffffffffffffffffffffffffffffffffffffffff1614610a33576040517f08c379a0000000000000000000000000000000000000000000000000000000008152600401610a2a90613ce3565b60405180910390fd5b6000600360008473ffffffffffffffffffffffffffffffffffffffff1673ffffffffffffffffffffffffffffffffffffffff16815260200190815260200160002060009054906101000a90046fffffffffffffffffffffffffffffffff166fffffffffffffffffffffffffffffffff161415610ae4576040517f08c379a0000000000000000000000000000000000000000000000000000000008152600401610adb90613d63565b60405180910390fd5b6000816fffffffffffffffffffffffffffffffff1611610b39576040517f08c379a0000000000000000000000000000000000000000000000000000000008152600401610b3090613cc3565b60405180910390fd5b6000600360008473ffffffffffffffffffffffffffffffffffffffff1673ffffffffffffffffffffffffffffffffffffffff16815260200190815260200160002060009054906101000a90046fffffffffffffffffffffffffffffffff166fffffffffffffffffffffffffffffffff16600260009054906101000a90046fffffffffffffffffffffffffffffffff166fffffffffffffffffffffffffffffffff1614610c8957816064610bec9190614049565b610c6f600260009054906101000a90046fffffffffffffffffffffffffffffffff16600360008773ffffffffffffffffffffffffffffffffffffffff1673ffffffffffffffffffffffffffffffffffffffff16815260200190815260200160002060009054906101000a90046fffffffffffffffffffffffffffffffff166131a4565b83610c7a9190613fff565b610c849190613fce565b610c8c565b60645b9050610c988382612824565b600360008473ffffffffffffffffffffffffffffffffffffffff1673ffffffffffffffffffffffffffffffffffffffff16815260200190815260200160002060009054906101000a90046fffffffffffffffffffffffffffffffff16600260008282829054906101000a90046fffffffffffffffffffffffffffffffff16610d209190614049565b92506101000a8154816fffffffffffffffffffffffffffffffff02191690836fffffffffffffffffffffffffffffffff16021790555080600260008282829054906101000a90046fffffffffffffffffffffffffffffffff16610d839190613f32565b92506101000a8154816fffffffffffffffffffffffffffffffff02191690836fffffffffffffffffffffffffffffffff16021790555080600360008573ffffffffffffffffffffffffffffffffffffffff1673ffffffffffffffffffffffffffffffffffffffff16815260200190815260200160002060006101000a8154816fffffffffffffffffffffffffffffffff02191690836fffffffffffffffffffffffffffffffff160217905550600060029054906101000a900473ffffffffffffffffffffffffffffffffffffffff1673ffffffffffffffffffffffffffffffffffffffff16638f84993a848360003042600260009054906101000a90046fffffffffffffffffffffffffffffffff16600560009054906101000a900473ffffffffffffffffffffffffffffffffffffffff166040518863ffffffff1660e01b8152600401610ed79796959493929190613acb565b600060405180830381600087803b158015610ef157600080fd5b505af1158015610f05573d6000803e3d6000fd5b50505050600060029054906101000a900473ffffffffffffffffffffffffffffffffffffffff1673ffffffffffffffffffffffffffffffffffffffff1663790b291b600260009054906101000a90046fffffffffffffffffffffffffffffffff1660003042600560009054906101000a900473ffffffffffffffffffffffffffffffffffffffff166040518663ffffffff1660e01b8152600401610fad959493929190613d9e565b600060405180830381600087803b158015610fc757600080fd5b505af1158015610fdb573d6000803e3d6000fd5b50505050505050565b600081565b600560009054906101000a900473ffffffffffffffffffffffffffffffffffffffff1681565b600e6020528060005260406000206000915054906101000a900460ff1681565b3373ffffffffffffffffffffffffffffffffffffffff16600560009054906101000a900473ffffffffffffffffffffffffffffffffffffffff1673ffffffffffffffffffffffffffffffffffffffff16146110bf576040517f08c379a00000000000000000000000000000000000000000000000000000000081526004016110b690613ce3565b60405180910390fd5b6000600360008373ffffffffffffffffffffffffffffffffffffffff1673ffffffffffffffffffffffffffffffffffffffff16815260200190815260200160002060009054906101000a90046fffffffffffffffffffffffffffffffff166fffffffffffffffffffffffffffffffff161415611170576040517f08c379a000000000000000000000000000000000000000000000000000000000815260040161116790613d63565b60405180910390fd5b600360008273ffffffffffffffffffffffffffffffffffffffff1673ffffffffffffffffffffffffffffffffffffffff16815260200190815260200160002060009054906101000a90046fffffffffffffffffffffffffffffffff16600260008282829054906101000a90046fffffffffffffffffffffffffffffffff166111f89190614049565b92506101000a8154816fffffffffffffffffffffffffffffffff02191690836fffffffffffffffffffffffffffffffff1602179055506000600360008373ffffffffffffffffffffffffffffffffffffffff1673ffffffffffffffffffffffffffffffffffffffff16815260200190815260200160002060006101000a8154816fffffffffffffffffffffffffffffffff02191690836fffffffffffffffffffffffffffffffff1602179055506112b0816000612824565b600060029054906101000a900473ffffffffffffffffffffffffffffffffffffffff1673ffffffffffffffffffffffffffffffffffffffff1663bd9b2136826000803042600260009054906101000a90046fffffffffffffffffffffffffffffffff16600560009054906101000a900473ffffffffffffffffffffffffffffffffffffffff166040518863ffffffff1660e01b815260040161135897969594939291906139e6565b600060405180830381600087803b15801561137257600080fd5b505af1158015611386573d6000803e3d6000fd5b50505050600060029054906101000a900473ffffffffffffffffffffffffffffffffffffffff1673ffffffffffffffffffffffffffffffffffffffff1663790b291b600260009054906101000a90046fffffffffffffffffffffffffffffffff1660003042600560009054906101000a900473ffffffffffffffffffffffffffffffffffffffff166040518663ffffffff1660e01b815260040161142e959493929190613d9e565b600060405180830381600087803b15801561144857600080fd5b505af115801561145c573d6000803e3d6000fd5b5050505050565b60015481565b600060019054906101000a900460ff168061148f575060008054906101000a900460ff16155b6114ce576040517f08c379a00000000000000000000000000000000000000000000000000000000081526004016114c590613d43565b60405180910390fd5b60008060019054906101000a900460ff16159050801561151e576001600060016101000a81548160ff02191690831515021790555060016000806101000a81548160ff0219169083151502179055505b87600060026101000a81548173ffffffffffffffffffffffffffffffffffffffff021916908373ffffffffffffffffffffffffffffffffffffffff16021790555086600560006101000a81548173ffffffffffffffffffffffffffffffffffffffff021916908373ffffffffffffffffffffffffffffffffffffffff16021790555081600d60006101000a81548173ffffffffffffffffffffffffffffffffffffffff021916908373ffffffffffffffffffffffffffffffffffffffff160217905550600d60009054906101000a900473ffffffffffffffffffffffffffffffffffffffff1673ffffffffffffffffffffffffffffffffffffffff166329965a1d307fb281fc8c12954d22544db45de3159a39272895b169a852b314f9cc762e44c53b306040518463ffffffff1660e01b8152600401611660939291906139af565b600060405180830381600087803b15801561167a57600080fd5b505af115801561168e573d6000803e3d6000fd5b5050505085600760006101000a81548173ffffffffffffffffffffffffffffffffffffffff021916908373ffffffffffffffffffffffffffffffffffffffff1602179055506040518060400160405280600581526020017f6644414978000000000000000000000000000000000000000000000000000000815250600460008873ffffffffffffffffffffffffffffffffffffffff1673ffffffffffffffffffffffffffffffffffffffff168152602001908152602001600020908051906020019061175b92919061325f565b5084600860006101000a81548173ffffffffffffffffffffffffffffffffffffffff021916908373ffffffffffffffffffffffffffffffffffffffff1602179055506040518060400160405280600681526020017f6655534443780000000000000000000000000000000000000000000000000000815250600460008773ffffffffffffffffffffffffffffffffffffffff1673ffffffffffffffffffffffffffffffffffffffff168152602001908152602001600020908051906020019061182592919061325f565b5083600960006101000a81548173ffffffffffffffffffffffffffffffffffffffff021916908373ffffffffffffffffffffffffffffffffffffffff1602179055506040518060400160405280600681526020017f6654555344780000000000000000000000000000000000000000000000000000815250600460008673ffffffffffffffffffffffffffffffffffffffff1673ffffffffffffffffffffffffffffffffffffffff16815260200190815260200160002090805190602001906118ef92919061325f565b5082600a60006101000a81548173ffffffffffffffffffffffffffffffffffffffff021916908373ffffffffffffffffffffffffffffffffffffffff1602179055506040518060400160405280600481526020017f4554487800000000000000000000000000000000000000000000000000000000815250600460008573ffffffffffffffffffffffffffffffffffffffff1673ffffffffffffffffffffffffffffffffffffffff16815260200190815260200160002090805190602001906119b992919061325f565b5089600b60006101000a81548173ffffffffffffffffffffffffffffffffffffffff021916908373ffffffffffffffffffffffffffffffffffffffff16021790555088600c60006101000a81548173ffffffffffffffffffffffffffffffffffffffff021916908373ffffffffffffffffffffffffffffffffffffffff160217905550600b60009054906101000a900473ffffffffffffffffffffffffffffffffffffffff1673ffffffffffffffffffffffffffffffffffffffff166339255d5b600c60009054906101000a900473ffffffffffffffffffffffffffffffffffffffff1663d787840a60e01b600760009054906101000a900473ffffffffffffffffffffffffffffffffffffffff1660008067ffffffffffffffff811115611b0a577f4e487b7100000000000000000000000000000000000000000000000000000000600052604160045260246000fd5b6040519080825280601f01601f191660200182016040528015611b3c5781602001600182028036833780820191505090505b50604051602401611b4f93929190613c39565b604051602081830303815290604052907bffffffffffffffffffffffffffffffffffffffffffffffffffffffff19166020820180517bffffffffffffffffffffffffffffffffffffffffffffffffffffffff8381831617835250505050600067ffffffffffffffff811115611bed577f4e487b7100000000000000000000000000000000000000000000000000000000600052604160045260246000fd5b6040519080825280601f01601f191660200182016040528015611c1f5781602001600182028036833780820191505090505b506040518463ffffffff1660e01b8152600401611c3e93929190613b55565b600060405180830381600087803b158015611c5857600080fd5b505af1158015611c6c573d6000803e3d6000fd5b505050506040513d6000823e3d601f19601f82011682018060405250810190611c95919061360b565b50600b60009054906101000a900473ffffffffffffffffffffffffffffffffffffffff1673ffffffffffffffffffffffffffffffffffffffff166339255d5b600c60009054906101000a900473ffffffffffffffffffffffffffffffffffffffff1663d787840a60e01b600860009054906101000a900473ffffffffffffffffffffffffffffffffffffffff1660008067ffffffffffffffff811115611d64577f4e487b7100000000000000000000000000000000000000000000000000000000600052604160045260246000fd5b6040519080825280601f01601f191660200182016040528015611d965781602001600182028036833780820191505090505b50604051602401611da993929190613c39565b604051602081830303815290604052907bffffffffffffffffffffffffffffffffffffffffffffffffffffffff19166020820180517bffffffffffffffffffffffffffffffffffffffffffffffffffffffff8381831617835250505050600067ffffffffffffffff811115611e47577f4e487b7100000000000000000000000000000000000000000000000000000000600052604160045260246000fd5b6040519080825280601f01601f191660200182016040528015611e795781602001600182028036833780820191505090505b506040518463ffffffff1660e01b8152600401611e9893929190613b55565b600060405180830381600087803b158015611eb257600080fd5b505af1158015611ec6573d6000803e3d6000fd5b505050506040513d6000823e3d601f19601f82011682018060405250810190611eef919061360b565b50600b60009054906101000a900473ffffffffffffffffffffffffffffffffffffffff1673ffffffffffffffffffffffffffffffffffffffff166339255d5b600c60009054906101000a900473ffffffffffffffffffffffffffffffffffffffff1663d787840a60e01b600960009054906101000a900473ffffffffffffffffffffffffffffffffffffffff1660008067ffffffffffffffff811115611fbe577f4e487b7100000000000000000000000000000000000000000000000000000000600052604160045260246000fd5b6040519080825280601f01601f191660200182016040528015611ff05781602001600182028036833780820191505090505b5060405160240161200393929190613c39565b604051602081830303815290604052907bffffffffffffffffffffffffffffffffffffffffffffffffffffffff19166020820180517bffffffffffffffffffffffffffffffffffffffffffffffffffffffff8381831617835250505050600067ffffffffffffffff8111156120a1577f4e487b7100000000000000000000000000000000000000000000000000000000600052604160045260246000fd5b6040519080825280601f01601f1916602001820160405280156120d35781602001600182028036833780820191505090505b506040518463ffffffff1660e01b81526004016120f293929190613b55565b600060405180830381600087803b15801561210c57600080fd5b505af1158015612120573d6000803e3d6000fd5b505050506040513d6000823e3d601f19601f82011682018060405250810190612149919061360b565b50600b60009054906101000a900473ffffffffffffffffffffffffffffffffffffffff1673ffffffffffffffffffffffffffffffffffffffff166339255d5b600c60009054906101000a900473ffffffffffffffffffffffffffffffffffffffff1663d787840a60e01b600a60009054906101000a900473ffffffffffffffffffffffffffffffffffffffff1660008067ffffffffffffffff811115612218577f4e487b7100000000000000000000000000000000000000000000000000000000600052604160045260246000fd5b6040519080825280601f01601f19166020018201604052801561224a5781602001600182028036833780820191505090505b5060405160240161225d93929190613c39565b604051602081830303815290604052907bffffffffffffffffffffffffffffffffffffffffffffffffffffffff19166020820180517bffffffffffffffffffffffffffffffffffffffffffffffffffffffff8381831617835250505050600067ffffffffffffffff8111156122fb577f4e487b7100000000000000000000000000000000000000000000000000000000600052604160045260246000fd5b6040519080825280601f01601f19166020018201604052801561232d5781602001600182028036833780820191505090505b506040518463ffffffff1660e01b815260040161234c93929190613b55565b600060405180830381600087803b15801561236657600080fd5b505af115801561237a573d6000803e3d6000fd5b505050506040513d6000823e3d601f19601f820116820180604052508101906123a3919061360b565b5080156123c55760008060016101000a81548160ff0219169083151502179055505b50505050505050505050565b6000600360008373ffffffffffffffffffffffffffffffffffffffff1673ffffffffffffffffffffffffffffffffffffffff16815260200190815260200160002060009054906101000a90046fffffffffffffffffffffffffffffffff169050919050565b6000600c60009054906101000a900473ffffffffffffffffffffffffffffffffffffffff1673ffffffffffffffffffffffffffffffffffffffff1663899baaec83306000876040518563ffffffff1660e01b815260040161249a9493929190613b9a565b604080518083038186803b1580156124b157600080fd5b505afa1580156124c5573d6000803e3d6000fd5b505050506040513d601f19601f820116820180604052508101906124e9919061364c565b509050600b60009054906101000a900473ffffffffffffffffffffffffffffffffffffffff1673ffffffffffffffffffffffffffffffffffffffff166339255d5b600c60009054906101000a900473ffffffffffffffffffffffffffffffffffffffff1663b96731c260e01b85600086600067ffffffffffffffff81111561259a577f4e487b7100000000000000000000000000000000000000000000000000000000600052604160045260246000fd5b6040519080825280601f01601f1916602001820160405280156125cc5781602001600182028036833780820191505090505b506040516024016125e09493929190613c77565b604051602081830303815290604052907bffffffffffffffffffffffffffffffffffffffffffffffffffffffff19166020820180517bffffffffffffffffffffffffffffffffffffffffffffffffffffffff8381831617835250505050600067ffffffffffffffff81111561267e577f4e487b7100000000000000000000000000000000000000000000000000000000600052604160045260246000fd5b6040519080825280601f01601f1916602001820160405280156126b05781602001600182028036833780820191505090505b506040518463ffffffff1660e01b81526004016126cf93929190613b55565b600060405180830381600087803b1580156126e957600080fd5b505af11580156126fd573d6000803e3d6000fd5b505050506040513d6000823e3d601f19601f82011682018060405250810190612726919061360b565b50600060029054906101000a900473ffffffffffffffffffffffffffffffffffffffff1673ffffffffffffffffffffffffffffffffffffffff16635d001ebb8260003042600460008973ffffffffffffffffffffffffffffffffffffffff1673ffffffffffffffffffffffffffffffffffffffff168152602001908152602001600020600560009054906101000a900473ffffffffffffffffffffffffffffffffffffffff166040518763ffffffff1660e01b81526004016127ed96959493929190613e0c565b600060405180830381600087803b15801561280757600080fd5b505af115801561281b573d6000803e3d6000fd5b50505050505050565b600b60009054906101000a900473ffffffffffffffffffffffffffffffffffffffff1673ffffffffffffffffffffffffffffffffffffffff166339255d5b600c60009054906101000a900473ffffffffffffffffffffffffffffffffffffffff1663232d2b5860e01b600760009054906101000a900473ffffffffffffffffffffffffffffffffffffffff1660008787600067ffffffffffffffff8111156128f5577f4e487b7100000000000000000000000000000000000000000000000000000000600052604160045260246000fd5b6040519080825280601f01601f1916602001820160405280156129275781602001600182028036833780820191505090505b5060405160240161293c959493929190613bdf565b604051602081830303815290604052907bffffffffffffffffffffffffffffffffffffffffffffffffffffffff19166020820180517bffffffffffffffffffffffffffffffffffffffffffffffffffffffff8381831617835250505050600067ffffffffffffffff8111156129da577f4e487b7100000000000000000000000000000000000000000000000000000000600052604160045260246000fd5b6040519080825280601f01601f191660200182016040528015612a0c5781602001600182028036833780820191505090505b506040518463ffffffff1660e01b8152600401612a2b93929190613b55565b600060405180830381600087803b158015612a4557600080fd5b505af1158015612a59573d6000803e3d6000fd5b505050506040513d6000823e3d601f19601f82011682018060405250810190612a82919061360b565b50600b60009054906101000a900473ffffffffffffffffffffffffffffffffffffffff1673ffffffffffffffffffffffffffffffffffffffff166339255d5b600c60009054906101000a900473ffffffffffffffffffffffffffffffffffffffff1663232d2b5860e01b600860009054906101000a900473ffffffffffffffffffffffffffffffffffffffff1660008787600067ffffffffffffffff811115612b54577f4e487b7100000000000000000000000000000000000000000000000000000000600052604160045260246000fd5b6040519080825280601f01601f191660200182016040528015612b865781602001600182028036833780820191505090505b50604051602401612b9b959493929190613bdf565b604051602081830303815290604052907bffffffffffffffffffffffffffffffffffffffffffffffffffffffff19166020820180517bffffffffffffffffffffffffffffffffffffffffffffffffffffffff8381831617835250505050600067ffffffffffffffff811115612c39577f4e487b7100000000000000000000000000000000000000000000000000000000600052604160045260246000fd5b6040519080825280601f01601f191660200182016040528015612c6b5781602001600182028036833780820191505090505b506040518463ffffffff1660e01b8152600401612c8a93929190613b55565b600060405180830381600087803b158015612ca457600080fd5b505af1158015612cb8573d6000803e3d6000fd5b505050506040513d6000823e3d601f19601f82011682018060405250810190612ce1919061360b565b50600b60009054906101000a900473ffffffffffffffffffffffffffffffffffffffff1673ffffffffffffffffffffffffffffffffffffffff166339255d5b600c60009054906101000a900473ffffffffffffffffffffffffffffffffffffffff1663232d2b5860e01b600960009054906101000a900473ffffffffffffffffffffffffffffffffffffffff1660008787600067ffffffffffffffff811115612db3577f4e487b7100000000000000000000000000000000000000000000000000000000600052604160045260246000fd5b6040519080825280601f01601f191660200182016040528015612de55781602001600182028036833780820191505090505b50604051602401612dfa959493929190613bdf565b604051602081830303815290604052907bffffffffffffffffffffffffffffffffffffffffffffffffffffffff19166020820180517bffffffffffffffffffffffffffffffffffffffffffffffffffffffff8381831617835250505050600067ffffffffffffffff811115612e98577f4e487b7100000000000000000000000000000000000000000000000000000000600052604160045260246000fd5b6040519080825280601f01601f191660200182016040528015612eca5781602001600182028036833780820191505090505b506040518463ffffffff1660e01b8152600401612ee993929190613b55565b600060405180830381600087803b158015612f0357600080fd5b505af1158015612f17573d6000803e3d6000fd5b505050506040513d6000823e3d601f19601f82011682018060405250810190612f40919061360b565b50600b60009054906101000a900473ffffffffffffffffffffffffffffffffffffffff1673ffffffffffffffffffffffffffffffffffffffff166339255d5b600c60009054906101000a900473ffffffffffffffffffffffffffffffffffffffff1663232d2b5860e01b600a60009054906101000a900473ffffffffffffffffffffffffffffffffffffffff1660008787600067ffffffffffffffff811115613012577f4e487b7100000000000000000000000000000000000000000000000000000000600052604160045260246000fd5b6040519080825280601f01601f1916602001820160405280156130445781602001600182028036833780820191505090505b50604051602401613059959493929190613bdf565b604051602081830303815290604052907bffffffffffffffffffffffffffffffffffffffffffffffffffffffff19166020820180517bffffffffffffffffffffffffffffffffffffffffffffffffffffffff8381831617835250505050600067ffffffffffffffff8111156130f7577f4e487b7100000000000000000000000000000000000000000000000000000000600052604160045260246000fd5b6040519080825280601f01601f1916602001820160405280156131295781602001600182028036833780820191505090505b506040518463ffffffff1660e01b815260040161314893929190613b55565b600060405180830381600087803b15801561316257600080fd5b505af1158015613176573d6000803e3d6000fd5b505050506040513d6000823e3d601f19601f8201168201806040525081019061319f919061360b565b505050565b6000816fffffffffffffffffffffffffffffffff16836fffffffffffffffffffffffffffffffff1611156131e55781836131de9190614049565b9050613259565b816fffffffffffffffffffffffffffffffff16836fffffffffffffffffffffffffffffffff16101561322457828261321d9190614049565b9050613259565b816fffffffffffffffffffffffffffffffff16836fffffffffffffffffffffffffffffffff16141561325857829050613259565b5b92915050565b82805461326b90614188565b90600052602060002090601f01602090048101928261328d57600085556132d4565b82601f106132a657805160ff19168380011785556132d4565b828001600101855582156132d4579182015b828111156132d35782518255916020019190600101906132b8565b5b5090506132e191906132e5565b5090565b5b808211156132fe5760008160009055506001016132e6565b5090565b600061331561331084613ec0565b613e8f565b90508281526020810184848401111561332d57600080fd5b613338848285614155565b509392505050565b60008135905061334f81614287565b92915050565b60008083601f84011261336757600080fd5b8235905067ffffffffffffffff81111561338057600080fd5b60208301915083600182028301111561339857600080fd5b9250929050565b600082601f8301126133b057600080fd5b81516133c0848260208601613302565b91505092915050565b6000813590506133d88161429e565b92915050565b6000815190506133ed8161429e565b92915050565b600081359050613402816142b5565b92915050565b600081519050613417816142b5565b92915050565b60006020828403121561342f57600080fd5b600061343d84828501613340565b91505092915050565b60008060008060008060008060006101208a8c03121561346557600080fd5b60006134738c828d01613340565b99505060206134848c828d01613340565b98505060406134958c828d01613340565b97505060606134a68c828d01613340565b96505060806134b78c828d01613340565b95505060a06134c88c828d01613340565b94505060c06134d98c828d01613340565b93505060e06134ea8c828d01613340565b9250506101006134fc8c828d01613340565b9150509295985092959850929598565b60008060008060008060008060c0898b03121561352857600080fd5b60006135368b828c01613340565b98505060206135478b828c01613340565b97505060406135588b828c01613340565b96505060606135698b828c016133f3565b955050608089013567ffffffffffffffff81111561358657600080fd5b6135928b828c01613355565b945094505060a089013567ffffffffffffffff8111156135b157600080fd5b6135bd8b828c01613355565b92509250509295985092959890939650565b600080604083850312156135e257600080fd5b60006135f085828601613340565b9250506020613601858286016133c9565b9150509250929050565b60006020828403121561361d57600080fd5b600082015167ffffffffffffffff81111561363757600080fd5b6136438482850161339f565b91505092915050565b6000806040838503121561365f57600080fd5b600061366d85828601613408565b925050602061367e858286016133de565b9150509250929050565b6136918161407d565b82525050565b6136a08161408f565b82525050565b6136af8161409b565b82525050565b60006136c082613f05565b6136ca8185613f10565b93506136da818560208601614155565b6136e381614276565b840191505092915050565b6136f7816140fb565b82525050565b6137068161411f565b82525050565b61371581614143565b82525050565b6000815461372881614188565b6137328186613f21565b9450600182166000811461374d576001811461375f57613792565b60ff1983168652602086019350613792565b61376885613ef0565b60005b8381101561378a5781548189015260018201915060208101905061376b565b808801955050505b50505092915050565b60006137a8602c83613f21565b91507f53686172652050657263656e746167652073686f756c6420626520677265617460008301527f6572207468616e207a65726f00000000000000000000000000000000000000006020830152604082019050919050565b600061380e601d83613f21565b91507f4f6e6c7920746865206f776e657220636f756c642075736520746869730000006000830152602082019050919050565b600061384e601d83613f21565b91507f43616e206f6e6c79206163636570742045524337373720746f6b656e730000006000830152602082019050919050565b600061388e601383613f21565b91507f5573657220616c726561647920657869737473000000000000000000000000006000830152602082019050919050565b60006138ce602e83613f21565b91507f496e697469616c697a61626c653a20636f6e747261637420697320616c72656160008301527f647920696e697469616c697a65640000000000000000000000000000000000006020830152604082019050919050565b6000613934601283613f21565b91507f5573657220646f65736e277420657869737400000000000000000000000000006000830152602082019050919050565b613970816140a5565b82525050565b61397f816140e1565b82525050565b61398e816140eb565b82525050565b60006020820190506139a96000830184613688565b92915050565b60006060820190506139c46000830186613688565b6139d160208301856136a6565b6139de6040830184613688565b949350505050565b600060e0820190506139fb600083018a613688565b613a08602083018961370c565b613a156040830188613985565b613a226060830187613688565b613a2f6080830186613976565b613a3c60a0830185613967565b613a4960c0830184613688565b98975050505050505050565b600060e082019050613a6a600083018a613688565b8181036020830152613a7c818961371b565b9050613a8b6040830188613976565b613a986060830187613985565b613aa56080830186613688565b613ab260a0830185613976565b613abf60c0830184613688565b98975050505050505050565b600060e082019050613ae0600083018a613688565b613aed6020830189613967565b613afa6040830188613985565b613b076060830187613688565b613b146080830186613976565b613b2160a0830185613967565b613b2e60c0830184613688565b98975050505050505050565b6000602082019050613b4f6000830184613697565b92915050565b6000606082019050613b6a60008301866136ee565b8181036020830152613b7c81856136b5565b90508181036040830152613b9081846136b5565b9050949350505050565b6000608082019050613baf60008301876136fd565b613bbc6020830186613688565b613bc96040830185613985565b613bd66060830184613976565b95945050505050565b600060a082019050613bf460008301886136fd565b613c016020830187613985565b613c0e6040830186613688565b613c1b6060830185613967565b8181036080830152613c2d81846136b5565b90509695505050505050565b6000606082019050613c4e60008301866136fd565b613c5b6020830185613985565b8181036040830152613c6d81846136b5565b9050949350505050565b6000608082019050613c8c60008301876136fd565b613c996020830186613985565b613ca66040830185613976565b8181036060830152613cb881846136b5565b905095945050505050565b60006020820190508181036000830152613cdc8161379b565b9050919050565b60006020820190508181036000830152613cfc81613801565b9050919050565b60006020820190508181036000830152613d1c81613841565b9050919050565b60006020820190508181036000830152613d3c81613881565b9050919050565b60006020820190508181036000830152613d5c816138c1565b9050919050565b60006020820190508181036000830152613d7c81613927565b9050919050565b6000602082019050613d986000830184613967565b92915050565b600060a082019050613db36000830188613967565b613dc06020830187613985565b613dcd6040830186613688565b613dda6060830185613976565b613de76080830184613688565b9695505050505050565b6000602082019050613e066000830184613976565b92915050565b600060c082019050613e216000830189613976565b613e2e6020830188613985565b613e3b6040830187613688565b613e486060830186613976565b8181036080830152613e5a818561371b565b9050613e6960a0830184613688565b979650505050505050565b6000602082019050613e896000830184613985565b92915050565b6000604051905081810181811067ffffffffffffffff82111715613eb657613eb5614247565b5b8060405250919050565b600067ffffffffffffffff821115613edb57613eda614247565b5b601f19601f8301169050602081019050919050565b60008190508160005260206000209050919050565b600081519050919050565b600082825260208201905092915050565b600082825260208201905092915050565b6000613f3d826140a5565b9150613f48836140a5565b9250826fffffffffffffffffffffffffffffffff03821115613f6d57613f6c6141ba565b5b828201905092915050565b6000613f83826140e1565b9150613f8e836140e1565b9250827fffffffffffffffffffffffffffffffffffffffffffffffffffffffffffffffff03821115613fc357613fc26141ba565b5b828201905092915050565b6000613fd9826140a5565b9150613fe4836140a5565b925082613ff457613ff36141e9565b5b828204905092915050565b600061400a826140a5565b9150614015836140a5565b9250816fffffffffffffffffffffffffffffffff048311821515161561403e5761403d6141ba565b5b828202905092915050565b6000614054826140a5565b915061405f836140a5565b925082821015614072576140716141ba565b5b828203905092915050565b6000614088826140c1565b9050919050565b60008115159050919050565b6000819050919050565b60006fffffffffffffffffffffffffffffffff82169050919050565b600073ffffffffffffffffffffffffffffffffffffffff82169050919050565b6000819050919050565b600063ffffffff82169050919050565b60006141068261410d565b9050919050565b6000614118826140c1565b9050919050565b600061412a82614131565b9050919050565b600061413c826140c1565b9050919050565b600061414e826140a5565b9050919050565b60005b83811015614173578082015181840152602081019050614158565b83811115614182576000848401525b50505050565b600060028204905060018216806141a057607f821691505b602082108114156141b4576141b3614218565b5b50919050565b7f4e487b7100000000000000000000000000000000000000000000000000000000600052601160045260246000fd5b7f4e487b7100000000000000000000000000000000000000000000000000000000600052601260045260246000fd5b7f4e487b7100000000000000000000000000000000000000000000000000000000600052602260045260246000fd5b7f4e487b7100000000000000000000000000000000000000000000000000000000600052604160045260246000fd5b6000601f19601f8301169050919050565b6142908161407d565b811461429b57600080fd5b50565b6142a7816140a5565b81146142b257600080fd5b50565b6142be816140e1565b81146142c957600080fd5b5056fea2646970667358221220d95ce0872b0e38d14e6558a62e8615f42b1c1b7b6016d2eb62e15a57addac16264736f6c63430008000033",
  "immutableReferences": {},
  "source": "// SPDX-License-Identifier: UNLICENSED\npragma solidity ^0.8.0;\npragma experimental ABIEncoderV2;\n\nimport './Emitter.sol';\n\nimport {\n    ISuperfluid,\n    ISuperToken\n} from \"@superfluid-finance/ethereum-contracts/contracts/apps/SuperAppBase.sol\";\n//from \"https://github.com/superfluid-finance/protocol-monorepo/blob/remix-support/packages/ethereum-contracts/contracts/apps/SuperAppBase.sol\";\nimport {\n    IInstantDistributionAgreementV1\n} from \"@superfluid-finance/ethereum-contracts/contracts/interfaces/agreements/IInstantDistributionAgreementV1.sol\";\n//from \"https://github.com/superfluid-finance/protocol-monorepo/blob/remix-support/packages/ethereum-contracts/contracts/interfaces/agreements/IInstantDistributionAgreementV1.sol\";\n\nimport \"@openzeppelin/contracts/token/ERC777/IERC777.sol\";\nimport \"@openzeppelin/contracts/utils/introspection/IERC1820Registry.sol\";\nimport \"@openzeppelin/contracts/token/ERC777/IERC777Recipient.sol\";\nimport \"@openzeppelin/contracts/proxy/utils/Initializable.sol\";\n\n\n\ncontract BaseDistributor is IERC777Recipient,Initializable {\n    Emitter emitter;\n    uint256 public totalDonations=0;\n    uint128 public totalShareUnits=0;\n    mapping (address=>uint128) shareMapping;\n    mapping (address=>string) tokenNameMapping;\n\n    uint32 public constant INDEX_ID = 0;\n\n    address public owner;\n    ISuperToken private _cashToken;\n\n    ISuperToken private fDAIx;\n    ISuperToken private fUSDCx;\n    ISuperToken private fTUSDx;\n    ISuperToken private ETHx;\n\n    ISuperfluid private _host;\n    IInstantDistributionAgreementV1 private _ida;\n\n    IERC1820Registry private _erc1820;// = IERC1820Registry(0x1820a4B7618BdE71Dce8cdc73aAB6C95905faD24);\n    bytes32 constant private TOKENS_RECIPIENT_INTERFACE_HASH = keccak256(\"ERC777TokensRecipient\");\n\n    // use callbacks to track approved subscriptions\n    mapping (address => bool) public isSubscribing;\n\n    //Events\n    // event DonationReceived(address from, string token, uint256 amount,uint32 index,address publisher,uint timeStamp);\n    // event UserAdded(address userAddress,uint128 shares,uint32 index,address publisher,uint timeStamp,uint128 totalShares);\n    // event UserRemoved(address userAddress,uint128 shares,uint32 index,address publisher,uint timeStamp,uint128 totalShares);\n    // event UserModified(address userAddress,uint128 shares,uint32 index,address publisher,uint timeStamp,uint128 totalShares);\n    // event Distribution(uint256 amountDistributed,uint32 index,address publisher,uint timeStamp,string token);\n    // event TotalShares(uint128 totalShares,uint32 index,address publisher,uint timeStamp);\n\n    function initialize (\n        address host,\n        address ida,\n        address emitterAdd,\n        address _owner,\n        address _fDAIx,\n        address _fUSDCx,\n        address _fTUSDx,\n        address _ETHx,\n        address _erc1820Add\n        ) public initializer{\n        \n        emitter = Emitter(emitterAdd);\n        owner = _owner;\n        _erc1820 = IERC1820Registry(_erc1820Add);\n        _erc1820.setInterfaceImplementer(address(this), TOKENS_RECIPIENT_INTERFACE_HASH, address(this));\n        // transferOwnership(_owner);\n        \n\n         fDAIx = ISuperToken(_fDAIx);\n        tokenNameMapping[_fDAIx] = \"fDAIx\";\n\n         fUSDCx = ISuperToken(_fUSDCx);\n        tokenNameMapping[_fUSDCx] = \"fUSDCx\";\n\n         fTUSDx = ISuperToken(_fTUSDx);\n        tokenNameMapping[_fTUSDx] = \"fTUSDx\";\n\n         ETHx = ISuperToken(_ETHx);\n        tokenNameMapping[_ETHx] = \"ETHx\";\n\n        \n        _host = ISuperfluid(host);\n        _ida = IInstantDistributionAgreementV1(ida);\n    // }\n\n    // function initalize2() external onlyOwner{\n\n        _host.callAgreement(\n            _ida,\n            abi.encodeWithSelector(\n                _ida.createIndex.selector,\n                fDAIx,\n                INDEX_ID,\n                new bytes(0) // placeholder ctx\n            ),\n            new bytes(0) // user data\n        );\n\n        _host.callAgreement(\n            _ida,\n            abi.encodeWithSelector(\n                _ida.createIndex.selector,\n                fUSDCx,\n                INDEX_ID,\n                new bytes(0) // placeholder ctx\n            ),\n            new bytes(0) // user data\n        );\n\n        _host.callAgreement(\n            _ida,\n            abi.encodeWithSelector(\n                _ida.createIndex.selector,\n                fTUSDx,\n                INDEX_ID,\n                new bytes(0) // placeholder ctx\n            ),\n            new bytes(0) // user data\n        );\n\n        _host.callAgreement(\n            _ida,\n            abi.encodeWithSelector(\n                _ida.createIndex.selector,\n                ETHx,\n                INDEX_ID,\n                new bytes(0) // placeholder ctx\n            ),\n            new bytes(0) // user data\n        );\n    }\n\n    modifier onlyOwner(){\n        require(owner==msg.sender,\"Only the owner could use this\");\n        _;\n    }\n\n    function sharesOf(address user) view external returns(uint128){\n        return shareMapping[user];\n    }\n\n    // function beforeAgreementCreated(\n    //     ISuperToken superToken,\n    //     address agreementClass,\n    //     bytes32 /* agreementId */,\n    //     bytes calldata /*agreementData*/,\n    //     bytes calldata /*ctx*/\n    // )\n    //     external view override\n    //     returns (bytes memory data)\n    // {\n    //     // require(superToken == _cashToken, \"DRT: Unsupported cash token\");\n    //     require(agreementClass == address(_ida), \"DRT: Unsupported agreement\");\n    //     return new bytes(0);\n    // }\n\n    // function afterAgreementCreated(\n    //     ISuperToken superToken,\n    //     address /* agreementClass */,\n    //     bytes32 agreementId,\n    //     bytes calldata /*agreementData*/,\n    //     bytes calldata /*cbdata*/,\n    //     bytes calldata ctx\n    // )\n    //     external override\n    //     returns(bytes memory newCtx)\n    // {\n    //     _checkSubscription(superToken, ctx, agreementId);\n    //     newCtx = ctx;\n    // }\n\n    // function beforeAgreementUpdated(\n    //     ISuperToken superToken,\n    //     address agreementClass,\n    //     bytes32 /* agreementId */,\n    //     bytes calldata /*agreementData*/,\n    //     bytes calldata /*ctx*/\n    // )\n    //     external view override\n    //     returns (bytes memory data)\n    // {\n    //     // require(superToken == _cashToken, \"DRT: Unsupported cash token\");\n    //     require(agreementClass == address(_ida), \"DRT: Unsupported agreement\");\n    //     return new bytes(0);\n    // }\n\n    // function afterAgreementUpdated(\n    //     ISuperToken superToken,\n    //     address /* agreementClass */,\n    //     bytes32 agreementId,\n    //     bytes calldata /*agreementData*/,\n    //     bytes calldata /*cbdata*/,\n    //     bytes calldata ctx\n    // )\n    //     external override\n    //     returns(bytes memory newCtx)\n    // {\n    //     _checkSubscription(superToken, ctx, agreementId);\n    //     newCtx = ctx;\n    // }\n\n    function _checkSubscription(\n        ISuperToken superToken,\n        bytes calldata ctx,\n        bytes32 agreementId\n    )\n        private\n    {\n        ISuperfluid.Context memory context = _host.decodeCtx(ctx);\n        // only interested in the subscription approval callbacks\n        if (context.agreementSelector == IInstantDistributionAgreementV1.approveSubscription.selector) {\n            address publisher;\n            uint32 indexId;\n            bool approved;\n            uint128 units;\n            uint256 pendingDistribution;\n            (publisher, indexId, approved, units, pendingDistribution) =\n                _ida.getSubscriptionByID(superToken, agreementId);\n\n            // sanity checks for testing purpose\n            require(publisher == address(this), \"DRT: publisher mismatch\");\n            require(indexId == INDEX_ID, \"DRT: publisher mismatch\");\n\n            if (approved) {\n                isSubscribing[context.msgSender /* subscriber */] = true;\n            }\n        }\n    }\n\n    function modifySub(address user,uint128 shareUnits) internal{\n        _host.callAgreement(\n            _ida,\n            abi.encodeWithSelector(\n                _ida.updateSubscription.selector,\n                fDAIx,\n                INDEX_ID,\n                user,\n                shareUnits,\n                new bytes(0) // placeholder ctx\n            ),\n            new bytes(0) // user data\n        );\n\n        _host.callAgreement(\n            _ida,\n            abi.encodeWithSelector(\n                _ida.updateSubscription.selector,\n                fUSDCx,\n                INDEX_ID,\n                user,\n                shareUnits,\n                new bytes(0) // placeholder ctx\n            ),\n            new bytes(0) // user data\n        );\n\n        _host.callAgreement(\n            _ida,\n            abi.encodeWithSelector(\n                _ida.updateSubscription.selector,\n                fTUSDx,\n                INDEX_ID,\n                user,\n                shareUnits,\n                new bytes(0) // placeholder ctx\n            ),\n            new bytes(0) // user data\n        );\n\n        _host.callAgreement(\n            _ida,\n            abi.encodeWithSelector(\n                _ida.updateSubscription.selector,\n                ETHx,\n                INDEX_ID,\n                user,\n                shareUnits,\n                new bytes(0) // placeholder ctx\n            ),\n            new bytes(0) // user data\n        );\n        \n    }\n\n    function abs(uint128 x,uint128 y) private pure returns (uint128) {\n        if(x>y)\n         return x-y;\n        if(x<y)\n         return y-x;\n        if(x==y)\n         return x;\n    }\n\n    function addUser(address newUser,uint128 sharePercentage) external onlyOwner{\n        require(shareMapping[newUser]==0,\"User already exists\");\n        require(sharePercentage>0,\"Share Percentage should be greater than zero\");\n\n        uint128 shareUnits = totalShareUnits==0?100: (sharePercentage * totalShareUnits)/(100- sharePercentage);\n        modifySub(newUser, shareUnits);\n        totalShareUnits += shareUnits;\n        shareMapping[newUser] = shareUnits;\n        emitter.UserAdded2(newUser,shareUnits,INDEX_ID,address(this),block.timestamp,totalShareUnits,owner);\n        emitter.TotalShares2(totalShareUnits,INDEX_ID,address(this),block.timestamp,owner);\n    }\n\n    function modifyUser(address existingUser,uint128 sharePercentage) external onlyOwner{\n        require(shareMapping[existingUser]!=0,\"User doesn't exist\");\n        require(sharePercentage>0,\"Share Percentage should be greater than zero\");\n        uint128 shareUnits = totalShareUnits==shareMapping[existingUser]?100:(sharePercentage * abs(totalShareUnits,shareMapping[existingUser]))/(100- sharePercentage);\n        modifySub(existingUser, shareUnits);\n        totalShareUnits -= shareMapping[existingUser];//Need to handle case where shareMapping is larger than total share units\n        totalShareUnits += shareUnits ;\n        shareMapping[existingUser] = shareUnits;\n        emitter.UserModified2(existingUser,shareUnits,INDEX_ID,address(this),block.timestamp,totalShareUnits,owner);\n        emitter.TotalShares2(totalShareUnits,INDEX_ID,address(this),block.timestamp,owner);\n    }\n\n    function removeUser(address existingUser) external onlyOwner{\n        require(shareMapping[existingUser]!=0,\"User doesn't exist\");\n        totalShareUnits -= shareMapping[existingUser];\n        shareMapping[existingUser] = 0;\n        modifySub(existingUser, 0);\n        emitter.UserRemoved2(existingUser,0,INDEX_ID,address(this),block.timestamp,totalShareUnits,owner);//Changed the shareUnits to zero to read in the frontend the exit of the user\n        emitter.TotalShares2(totalShareUnits,INDEX_ID,address(this),block.timestamp,owner);\n    }\n\n    /// @dev Distribute `amount` of cash among all token holders\n    function distribute(uint256 cashAmount,address tokenAddress) internal {\n        (uint256 actualCashAmount,) = _ida.calculateDistribution(\n            ISuperToken(tokenAddress),\n            address(this), INDEX_ID,\n            cashAmount);\n\n        _host.callAgreement(\n            _ida,\n            abi.encodeWithSelector(\n                _ida.distribute.selector,\n                ISuperToken(tokenAddress),\n                INDEX_ID,\n                actualCashAmount,\n                new bytes(0) // placeholder ctx\n            ),\n            new bytes(0) // user data\n        );\n        emitter.Distribution2(actualCashAmount,INDEX_ID,address(this),block.timestamp,tokenNameMapping[tokenAddress],owner);\n    }\n\n    function tokensReceived(\n        address operator,\n        address from,\n        address to,\n        uint256 amount,\n        bytes calldata userData,\n        bytes calldata operatorData\n    ) external override {\n        //require(msg.sender == address(_token), \"Simple777Recipient: Invalid token\");\n        require((msg.sender==address(fDAIx))||(msg.sender==address(fUSDCx))||(msg.sender==address(fTUSDx))||(msg.sender==address(ETHx)),\"Can only accept ERC777 tokens\");\n        // do stuff\n        totalDonations += amount;\n        distribute(amount,msg.sender);\n        emitter.DonationReceived2( from, tokenNameMapping[msg.sender], amount,INDEX_ID,address(this),block.timestamp,owner);\n    }\n}",
  "sourcePath": "/Users/praffulsahu/Documents/Crypto/erc777distributor/contracts/BaseDistributor.sol",
  "compiler": {
    "name": "solc",
    "version": "0.8.0+commit.c7dfd78e.Emscripten.clang"
  },
  "schemaVersion": "3.3.3",
  "updatedAt": "2021-06-28T10:31:37.747Z",
  "networkType": "ethereum",
  "devdoc": {
    "kind": "dev",
    "methods": {
      "tokensReceived(address,address,address,uint256,bytes,bytes)": {
        "details": "Called by an {IERC777} token contract whenever tokens are being moved or created into a registered account (`to`). The type of operation is conveyed by `from` being the zero address or not. This call occurs _after_ the token contract's state is updated, so {IERC777-balanceOf}, etc., can be used to query the post-operation state. This function may revert to prevent the operation from being executed."
      }
    },
    "version": 1
  },
  "userdoc": {
    "kind": "user",
    "methods": {},
    "version": 1
  }
}