{
  "contractName": "DistributorFactory",
  "abi": [
    {
      "anonymous": false,
      "inputs": [
        {
          "indexed": true,
          "internalType": "address",
          "name": "previousOwner",
          "type": "address"
        },
        {
          "indexed": true,
          "internalType": "address",
          "name": "newOwner",
          "type": "address"
        }
      ],
      "name": "OwnershipTransferred",
      "type": "event"
    },
    {
      "anonymous": false,
      "inputs": [
        {
          "indexed": false,
          "internalType": "address",
          "name": "newThingAddress",
          "type": "address"
        }
      ],
      "name": "ThingCreated",
      "type": "event"
    },
    {
      "inputs": [
        {
          "internalType": "uint256",
          "name": "",
          "type": "uint256"
        }
      ],
      "name": "distributors",
      "outputs": [
        {
          "internalType": "address",
          "name": "",
          "type": "address"
        }
      ],
      "stateMutability": "view",
      "type": "function",
      "constant": true
    },
    {
      "inputs": [],
      "name": "owner",
      "outputs": [
        {
          "internalType": "address",
          "name": "",
          "type": "address"
        }
      ],
      "stateMutability": "view",
      "type": "function",
      "constant": true
    },
    {
      "inputs": [],
      "name": "renounceOwnership",
      "outputs": [],
      "stateMutability": "nonpayable",
      "type": "function"
    },
    {
      "inputs": [
        {
          "internalType": "address",
          "name": "newOwner",
          "type": "address"
        }
      ],
      "name": "transferOwnership",
      "outputs": [],
      "stateMutability": "nonpayable",
      "type": "function"
    },
    {
      "inputs": [
        {
          "internalType": "address",
          "name": "_libraryAddress",
          "type": "address"
        }
      ],
      "name": "EmitterAddress",
      "outputs": [],
      "stateMutability": "nonpayable",
      "type": "function"
    },
    {
      "inputs": [
        {
          "internalType": "address",
          "name": "_libraryAddress",
          "type": "address"
        }
      ],
      "name": "setDistributorAddress",
      "outputs": [],
      "stateMutability": "nonpayable",
      "type": "function"
    },
    {
      "inputs": [
        {
          "internalType": "contract ISuperfluid",
          "name": "host",
          "type": "address"
        },
        {
          "internalType": "contract IInstantDistributionAgreementV1",
          "name": "ida",
          "type": "address"
        },
        {
          "internalType": "address",
          "name": "_fDAIx",
          "type": "address"
        },
        {
          "internalType": "address",
          "name": "_fUSDCx",
          "type": "address"
        },
        {
          "internalType": "address",
          "name": "_fTUSDx",
          "type": "address"
        },
        {
          "internalType": "address",
          "name": "_erc1820Add",
          "type": "address"
        }
      ],
      "name": "createThing",
      "outputs": [],
      "stateMutability": "nonpayable",
      "type": "function"
    }
  ],
  "bytecode": "0x608060405234801561001057600080fd5b5060006100216100c460201b60201c565b9050806000806101000a81548173ffffffffffffffffffffffffffffffffffffffff021916908373ffffffffffffffffffffffffffffffffffffffff1602179055508073ffffffffffffffffffffffffffffffffffffffff16600073ffffffffffffffffffffffffffffffffffffffff167f8be0079c531659141344cd1fd0a4f28419497f9722a3daafe3b4186f6b6457e060405160405180910390a3506100cc565b600033905090565b610c1a806100db6000396000f3fe608060405234801561001057600080fd5b506004361061007d5760003560e01c806378bf4ec61161005b57806378bf4ec6146100d857806387950f49146100f45780638da5cb5b14610110578063f2fde38b1461012e5761007d565b806332e2b5031461008257806350b492ba1461009e578063715018a6146100ce575b600080fd5b61009c60048036038101906100979190610871565b61014a565b005b6100b860048036038101906100b391906108fa565b6102b7565b6040516100c591906109f6565b60405180910390f35b6100d66102f6565b005b6100f260048036038101906100ed9190610848565b610430565b005b61010e60048036038101906101099190610848565b6104f0565b005b6101186105b0565b60405161012591906109f6565b60405180910390f35b61014860048036038101906101439190610848565b6105d9565b005b6000610177600260009054906101000a900473ffffffffffffffffffffffffffffffffffffffff16610782565b90508073ffffffffffffffffffffffffffffffffffffffff16638a29e2de8888600160009054906101000a900473ffffffffffffffffffffffffffffffffffffffff16338a8a8a8a6040518963ffffffff1660e01b81526004016101e2989796959493929190610a11565b600060405180830381600087803b1580156101fc57600080fd5b505af1158015610210573d6000803e3d6000fd5b505050506003819080600181540180825580915050600190039060005260206000200160009091909190916101000a81548173ffffffffffffffffffffffffffffffffffffffff021916908373ffffffffffffffffffffffffffffffffffffffff1602179055507f2d4294d0f147fc1954a12fa9af35f0d314ed4b2d7fb1dff7bd73a9256239d981816040516102a691906109f6565b60405180910390a150505050505050565b600381815481106102c757600080fd5b906000526020600020016000915054906101000a900473ffffffffffffffffffffffffffffffffffffffff1681565b6102fe6107ec565b73ffffffffffffffffffffffffffffffffffffffff1661031c6105b0565b73ffffffffffffffffffffffffffffffffffffffff1614610372576040517f08c379a000000000000000000000000000000000000000000000000000000000815260040161036990610aaf565b60405180910390fd5b600073ffffffffffffffffffffffffffffffffffffffff1660008054906101000a900473ffffffffffffffffffffffffffffffffffffffff1673ffffffffffffffffffffffffffffffffffffffff167f8be0079c531659141344cd1fd0a4f28419497f9722a3daafe3b4186f6b6457e060405160405180910390a360008060006101000a81548173ffffffffffffffffffffffffffffffffffffffff021916908373ffffffffffffffffffffffffffffffffffffffff160217905550565b6104386107ec565b73ffffffffffffffffffffffffffffffffffffffff166104566105b0565b73ffffffffffffffffffffffffffffffffffffffff16146104ac576040517f08c379a00000000000000000000000000000000000000000000000000000000081526004016104a390610aaf565b60405180910390fd5b80600160006101000a81548173ffffffffffffffffffffffffffffffffffffffff021916908373ffffffffffffffffffffffffffffffffffffffff16021790555050565b6104f86107ec565b73ffffffffffffffffffffffffffffffffffffffff166105166105b0565b73ffffffffffffffffffffffffffffffffffffffff161461056c576040517f08c379a000000000000000000000000000000000000000000000000000000000815260040161056390610aaf565b60405180910390fd5b80600260006101000a81548173ffffffffffffffffffffffffffffffffffffffff021916908373ffffffffffffffffffffffffffffffffffffffff16021790555050565b60008060009054906101000a900473ffffffffffffffffffffffffffffffffffffffff16905090565b6105e16107ec565b73ffffffffffffffffffffffffffffffffffffffff166105ff6105b0565b73ffffffffffffffffffffffffffffffffffffffff1614610655576040517f08c379a000000000000000000000000000000000000000000000000000000000815260040161064c90610aaf565b60405180910390fd5b600073ffffffffffffffffffffffffffffffffffffffff168173ffffffffffffffffffffffffffffffffffffffff1614156106c5576040517f08c379a00000000000000000000000000000000000000000000000000000000081526004016106bc90610a8f565b60405180910390fd5b8073ffffffffffffffffffffffffffffffffffffffff1660008054906101000a900473ffffffffffffffffffffffffffffffffffffffff1673ffffffffffffffffffffffffffffffffffffffff167f8be0079c531659141344cd1fd0a4f28419497f9722a3daafe3b4186f6b6457e060405160405180910390a3806000806101000a81548173ffffffffffffffffffffffffffffffffffffffff021916908373ffffffffffffffffffffffffffffffffffffffff16021790555050565b6000808260601b90506040517f3d602d80600a3d3981f3363d3d373d3d3d363d7300000000000000000000000081528160148201527f5af43d82803e903d91602b57fd5bf3000000000000000000000000000000000060288201526037816000f092505050919050565b600033905090565b60008135905061080381610b88565b92915050565b60008135905061081881610b9f565b92915050565b60008135905061082d81610bb6565b92915050565b60008135905061084281610bcd565b92915050565b60006020828403121561085a57600080fd5b6000610868848285016107f4565b91505092915050565b60008060008060008060c0878903121561088a57600080fd5b600061089889828a0161081e565b96505060206108a989828a01610809565b95505060406108ba89828a016107f4565b94505060606108cb89828a016107f4565b93505060806108dc89828a016107f4565b92505060a06108ed89828a016107f4565b9150509295509295509295565b60006020828403121561090c57600080fd5b600061091a84828501610833565b91505092915050565b61092c81610ae0565b82525050565b61093b81610b40565b82525050565b61094a81610b64565b82525050565b600061095d602683610acf565b91507f4f776e61626c653a206e6577206f776e657220697320746865207a65726f206160008301527f64647265737300000000000000000000000000000000000000000000000000006020830152604082019050919050565b60006109c3602083610acf565b91507f4f776e61626c653a2063616c6c6572206973206e6f7420746865206f776e65726000830152602082019050919050565b6000602082019050610a0b6000830184610923565b92915050565b600061010082019050610a27600083018b610941565b610a34602083018a610932565b610a416040830189610923565b610a4e6060830188610923565b610a5b6080830187610923565b610a6860a0830186610923565b610a7560c0830185610923565b610a8260e0830184610923565b9998505050505050505050565b60006020820190508181036000830152610aa881610950565b9050919050565b60006020820190508181036000830152610ac8816109b6565b9050919050565b600082825260208201905092915050565b6000610aeb82610b16565b9050919050565b6000610afd82610ae0565b9050919050565b6000610b0f82610ae0565b9050919050565b600073ffffffffffffffffffffffffffffffffffffffff82169050919050565b6000819050919050565b6000610b4b82610b52565b9050919050565b6000610b5d82610b16565b9050919050565b6000610b6f82610b76565b9050919050565b6000610b8182610b16565b9050919050565b610b9181610ae0565b8114610b9c57600080fd5b50565b610ba881610af2565b8114610bb357600080fd5b50565b610bbf81610b04565b8114610bca57600080fd5b50565b610bd681610b36565b8114610be157600080fd5b5056fea2646970667358221220b2339415bc28ff7d89602354fcb92ec2a465579efcc806c585631e6105799ad364736f6c63430008000033",
  "immutableReferences": {},
  "source": "pragma solidity ^0.8.0;\nimport './CloneFactory.sol';\nimport '@openzeppelin/contracts/access/Ownable.sol';\nimport './BaseDistributor.sol';\n\ncontract DistributorFactory is CloneFactory,Ownable{\n    address emitter;\n    address distributorContract;\n    address[] public distributors;\n    event ThingCreated(address newThingAddress);\n\n  function EmitterAddress(address _libraryAddress) public onlyOwner{\n    emitter = _libraryAddress;\n  }\n\n  function setDistributorAddress(address _libraryAddress) public onlyOwner {\n    distributorContract = _libraryAddress;\n  }\n\n  function createThing(ISuperfluid host, IInstantDistributionAgreementV1 ida,\n        address _fDAIx,\n        address _fUSDCx,\n        address _fTUSDx,\n        address _erc1820Add) public {\n    address clone = createClone(distributorContract);\n    BaseDistributor(clone).initialize(host,ida,emitter,msg.sender,_fDAIx,_fUSDCx,_fTUSDx,_erc1820Add);\n    distributors.push(clone);\n    emit ThingCreated(clone);\n  }\n}",
  "sourcePath": "/Users/praffulsahu/Documents/Crypto/erc777distributor/contracts/DistributorFactory.sol",
  "compiler": {
    "name": "solc",
    "version": "0.8.0+commit.c7dfd78e.Emscripten.clang"
  },
  "schemaVersion": "3.3.3",
  "updatedAt": "2021-06-27T08:04:55.342Z",
  "networkType": "ethereum",
  "devdoc": {
    "kind": "dev",
    "methods": {
      "owner()": {
        "details": "Returns the address of the current owner."
      },
      "renounceOwnership()": {
        "details": "Leaves the contract without owner. It will not be possible to call `onlyOwner` functions anymore. Can only be called by the current owner. NOTE: Renouncing ownership will leave the contract without an owner, thereby removing any functionality that is only available to the owner."
      },
      "transferOwnership(address)": {
        "details": "Transfers ownership of the contract to a new account (`newOwner`). Can only be called by the current owner."
      }
    },
    "version": 1
  },
  "userdoc": {
    "kind": "user",
    "methods": {},
    "version": 1
  }
}