{
  "contractName": "DistributorFactory",
  "abi": [
    {
      "inputs": [
        {
          "internalType": "address",
          "name": "host",
          "type": "address"
        },
        {
          "internalType": "address",
          "name": "ida",
          "type": "address"
        },
        {
          "internalType": "address",
          "name": "fDAIx",
          "type": "address"
        },
        {
          "internalType": "address",
          "name": "fUSDCx",
          "type": "address"
        },
        {
          "internalType": "address",
          "name": "fTUSDx",
          "type": "address"
        },
        {
          "internalType": "address",
          "name": "fETHx",
          "type": "address"
        },
        {
          "internalType": "address",
          "name": "erc1820Add",
          "type": "address"
        },
        {
          "internalType": "address",
          "name": "emitr",
          "type": "address"
        },
        {
          "internalType": "address",
          "name": "baseCont",
          "type": "address"
        }
      ],
      "stateMutability": "nonpayable",
      "type": "constructor"
    },
    {
      "anonymous": false,
      "inputs": [
        {
          "indexed": true,
          "internalType": "address",
          "name": "previousOwner",
          "type": "address"
        },
        {
          "indexed": true,
          "internalType": "address",
          "name": "newOwner",
          "type": "address"
        }
      ],
      "name": "OwnershipTransferred",
      "type": "event"
    },
    {
      "anonymous": false,
      "inputs": [
        {
          "indexed": false,
          "internalType": "address",
          "name": "newThingAddress",
          "type": "address"
        }
      ],
      "name": "ReceivingAddressCreated",
      "type": "event"
    },
    {
      "inputs": [
        {
          "internalType": "uint256",
          "name": "",
          "type": "uint256"
        }
      ],
      "name": "distributors",
      "outputs": [
        {
          "internalType": "address",
          "name": "",
          "type": "address"
        }
      ],
      "stateMutability": "view",
      "type": "function",
      "constant": true
    },
    {
      "inputs": [],
      "name": "owner",
      "outputs": [
        {
          "internalType": "address",
          "name": "",
          "type": "address"
        }
      ],
      "stateMutability": "view",
      "type": "function",
      "constant": true
    },
    {
      "inputs": [],
      "name": "renounceOwnership",
      "outputs": [],
      "stateMutability": "nonpayable",
      "type": "function"
    },
    {
      "inputs": [
        {
          "internalType": "address",
          "name": "newOwner",
          "type": "address"
        }
      ],
      "name": "transferOwnership",
      "outputs": [],
      "stateMutability": "nonpayable",
      "type": "function"
    },
    {
      "inputs": [
        {
          "internalType": "address",
          "name": "_libraryAddress",
          "type": "address"
        }
      ],
      "name": "EmitterAddress",
      "outputs": [],
      "stateMutability": "nonpayable",
      "type": "function"
    },
    {
      "inputs": [
        {
          "internalType": "address",
          "name": "fDAIx",
          "type": "address"
        },
        {
          "internalType": "address",
          "name": "fUSDCx",
          "type": "address"
        },
        {
          "internalType": "address",
          "name": "fTUSDx",
          "type": "address"
        },
        {
          "internalType": "address",
          "name": "fETHx",
          "type": "address"
        }
      ],
      "name": "ChangeTokenAddresses",
      "outputs": [],
      "stateMutability": "nonpayable",
      "type": "function"
    },
    {
      "inputs": [
        {
          "internalType": "address",
          "name": "_libraryAddress",
          "type": "address"
        }
      ],
      "name": "setDistributorAddress",
      "outputs": [],
      "stateMutability": "nonpayable",
      "type": "function"
    },
    {
      "inputs": [
        {
          "internalType": "string",
          "name": "_name",
          "type": "string"
        }
      ],
      "name": "createThing",
      "outputs": [],
      "stateMutability": "nonpayable",
      "type": "function"
    }
  ],
  "bytecode": "0x60806040523480156200001157600080fd5b50604051620015573803806200155783398181016040528101906200003791906200039f565b6000620000496200038060201b60201c565b9050806000806101000a81548173ffffffffffffffffffffffffffffffffffffffff021916908373ffffffffffffffffffffffffffffffffffffffff1602179055508073ffffffffffffffffffffffffffffffffffffffff16600073ffffffffffffffffffffffffffffffffffffffff167f8be0079c531659141344cd1fd0a4f28419497f9722a3daafe3b4186f6b6457e060405160405180910390a35088600560006101000a81548173ffffffffffffffffffffffffffffffffffffffff021916908373ffffffffffffffffffffffffffffffffffffffff16021790555087600660006101000a81548173ffffffffffffffffffffffffffffffffffffffff021916908373ffffffffffffffffffffffffffffffffffffffff16021790555086600760006101000a81548173ffffffffffffffffffffffffffffffffffffffff021916908373ffffffffffffffffffffffffffffffffffffffff16021790555085600860006101000a81548173ffffffffffffffffffffffffffffffffffffffff021916908373ffffffffffffffffffffffffffffffffffffffff16021790555084600960006101000a81548173ffffffffffffffffffffffffffffffffffffffff021916908373ffffffffffffffffffffffffffffffffffffffff16021790555083600a60006101000a81548173ffffffffffffffffffffffffffffffffffffffff021916908373ffffffffffffffffffffffffffffffffffffffff16021790555082600b60006101000a81548173ffffffffffffffffffffffffffffffffffffffff021916908373ffffffffffffffffffffffffffffffffffffffff16021790555081600160006101000a81548173ffffffffffffffffffffffffffffffffffffffff021916908373ffffffffffffffffffffffffffffffffffffffff16021790555081600260006101000a81548173ffffffffffffffffffffffffffffffffffffffff021916908373ffffffffffffffffffffffffffffffffffffffff16021790555080600360006101000a81548173ffffffffffffffffffffffffffffffffffffffff021916908373ffffffffffffffffffffffffffffffffffffffff160217905550505050505050505050620004c6565b600033905090565b6000815190506200039981620004ac565b92915050565b60008060008060008060008060006101208a8c031215620003bf57600080fd5b6000620003cf8c828d0162000388565b9950506020620003e28c828d0162000388565b9850506040620003f58c828d0162000388565b9750506060620004088c828d0162000388565b96505060806200041b8c828d0162000388565b95505060a06200042e8c828d0162000388565b94505060c0620004418c828d0162000388565b93505060e0620004548c828d0162000388565b925050610100620004688c828d0162000388565b9150509295985092959850929598565b600062000485826200048c565b9050919050565b600073ffffffffffffffffffffffffffffffffffffffff82169050919050565b620004b78162000478565b8114620004c357600080fd5b50565b61108180620004d66000396000f3fe608060405234801561001057600080fd5b50600436106100885760003560e01c806387950f491161005b57806387950f49146100ff5780638da5cb5b1461011b578063a990f10314610139578063f2fde38b1461015557610088565b80633504bb6b1461008d57806350b492ba146100a9578063715018a6146100d957806378bf4ec6146100e3575b600080fd5b6100a760048036038101906100a29190610c47565b610171565b005b6100c360048036038101906100be9190610c88565b610425565b6040516100d09190610dae565b60405180910390f35b6100e1610464565b005b6100fd60048036038101906100f89190610bbb565b61059e565b005b61011960048036038101906101149190610bbb565b61069f565b005b61012361075f565b6040516101309190610dae565b60405180910390f35b610153600480360381019061014e9190610be4565b610788565b005b61016f600480360381019061016a9190610bbb565b61090e565b005b600061019e600360009054906101000a900473ffffffffffffffffffffffffffffffffffffffff16610ab7565b90508073ffffffffffffffffffffffffffffffffffffffff1663f5e95acb600560009054906101000a900473ffffffffffffffffffffffffffffffffffffffff16600660009054906101000a900473ffffffffffffffffffffffffffffffffffffffff16600160009054906101000a900473ffffffffffffffffffffffffffffffffffffffff1633600760009054906101000a900473ffffffffffffffffffffffffffffffffffffffff16600860009054906101000a900473ffffffffffffffffffffffffffffffffffffffff16600960009054906101000a900473ffffffffffffffffffffffffffffffffffffffff16600a60009054906101000a900473ffffffffffffffffffffffffffffffffffffffff16600b60009054906101000a900473ffffffffffffffffffffffffffffffffffffffff166040518a63ffffffff1660e01b81526004016102f999989796959493929190610dc9565b600060405180830381600087803b15801561031357600080fd5b505af1158015610327573d6000803e3d6000fd5b505050506004819080600181540180825580915050600190039060005260206000200160009091909190916101000a81548173ffffffffffffffffffffffffffffffffffffffff021916908373ffffffffffffffffffffffffffffffffffffffff160217905550600260009054906101000a900473ffffffffffffffffffffffffffffffffffffffff1673ffffffffffffffffffffffffffffffffffffffff166345837370823342866040518563ffffffff1660e01b81526004016103ef9493929190610e56565b600060405180830381600087803b15801561040957600080fd5b505af115801561041d573d6000803e3d6000fd5b505050505050565b6004818154811061043557600080fd5b906000526020600020016000915054906101000a900473ffffffffffffffffffffffffffffffffffffffff1681565b61046c610b21565b73ffffffffffffffffffffffffffffffffffffffff1661048a61075f565b73ffffffffffffffffffffffffffffffffffffffff16146104e0576040517f08c379a00000000000000000000000000000000000000000000000000000000081526004016104d790610ec2565b60405180910390fd5b600073ffffffffffffffffffffffffffffffffffffffff1660008054906101000a900473ffffffffffffffffffffffffffffffffffffffff1673ffffffffffffffffffffffffffffffffffffffff167f8be0079c531659141344cd1fd0a4f28419497f9722a3daafe3b4186f6b6457e060405160405180910390a360008060006101000a81548173ffffffffffffffffffffffffffffffffffffffff021916908373ffffffffffffffffffffffffffffffffffffffff160217905550565b6105a6610b21565b73ffffffffffffffffffffffffffffffffffffffff166105c461075f565b73ffffffffffffffffffffffffffffffffffffffff161461061a576040517f08c379a000000000000000000000000000000000000000000000000000000000815260040161061190610ec2565b60405180910390fd5b80600160006101000a81548173ffffffffffffffffffffffffffffffffffffffff021916908373ffffffffffffffffffffffffffffffffffffffff16021790555080600260006101000a81548173ffffffffffffffffffffffffffffffffffffffff021916908373ffffffffffffffffffffffffffffffffffffffff16021790555050565b6106a7610b21565b73ffffffffffffffffffffffffffffffffffffffff166106c561075f565b73ffffffffffffffffffffffffffffffffffffffff161461071b576040517f08c379a000000000000000000000000000000000000000000000000000000000815260040161071290610ec2565b60405180910390fd5b80600360006101000a81548173ffffffffffffffffffffffffffffffffffffffff021916908373ffffffffffffffffffffffffffffffffffffffff16021790555050565b60008060009054906101000a900473ffffffffffffffffffffffffffffffffffffffff16905090565b610790610b21565b73ffffffffffffffffffffffffffffffffffffffff166107ae61075f565b73ffffffffffffffffffffffffffffffffffffffff1614610804576040517f08c379a00000000000000000000000000000000000000000000000000000000081526004016107fb90610ec2565b60405180910390fd5b83600760006101000a81548173ffffffffffffffffffffffffffffffffffffffff021916908373ffffffffffffffffffffffffffffffffffffffff16021790555082600860006101000a81548173ffffffffffffffffffffffffffffffffffffffff021916908373ffffffffffffffffffffffffffffffffffffffff16021790555081600960006101000a81548173ffffffffffffffffffffffffffffffffffffffff021916908373ffffffffffffffffffffffffffffffffffffffff16021790555080600a60006101000a81548173ffffffffffffffffffffffffffffffffffffffff021916908373ffffffffffffffffffffffffffffffffffffffff16021790555050505050565b610916610b21565b73ffffffffffffffffffffffffffffffffffffffff1661093461075f565b73ffffffffffffffffffffffffffffffffffffffff161461098a576040517f08c379a000000000000000000000000000000000000000000000000000000000815260040161098190610ec2565b60405180910390fd5b600073ffffffffffffffffffffffffffffffffffffffff168173ffffffffffffffffffffffffffffffffffffffff1614156109fa576040517f08c379a00000000000000000000000000000000000000000000000000000000081526004016109f190610ea2565b60405180910390fd5b8073ffffffffffffffffffffffffffffffffffffffff1660008054906101000a900473ffffffffffffffffffffffffffffffffffffffff1673ffffffffffffffffffffffffffffffffffffffff167f8be0079c531659141344cd1fd0a4f28419497f9722a3daafe3b4186f6b6457e060405160405180910390a3806000806101000a81548173ffffffffffffffffffffffffffffffffffffffff021916908373ffffffffffffffffffffffffffffffffffffffff16021790555050565b6000808260601b90506040517f3d602d80600a3d3981f3363d3d373d3d3d363d7300000000000000000000000081528160148201527f5af43d82803e903d91602b57fd5bf3000000000000000000000000000000000060288201526037816000f092505050919050565b600033905090565b6000610b3c610b3784610f13565b610ee2565b905082815260208101848484011115610b5457600080fd5b610b5f848285610f9b565b509392505050565b600081359050610b768161101d565b92915050565b600082601f830112610b8d57600080fd5b8135610b9d848260208601610b29565b91505092915050565b600081359050610bb581611034565b92915050565b600060208284031215610bcd57600080fd5b6000610bdb84828501610b67565b91505092915050565b60008060008060808587031215610bfa57600080fd5b6000610c0887828801610b67565b9450506020610c1987828801610b67565b9350506040610c2a87828801610b67565b9250506060610c3b87828801610b67565b91505092959194509250565b600060208284031215610c5957600080fd5b600082013567ffffffffffffffff811115610c7357600080fd5b610c7f84828501610b7c565b91505092915050565b600060208284031215610c9a57600080fd5b6000610ca884828501610ba6565b91505092915050565b610cba81610f5f565b82525050565b6000610ccb82610f43565b610cd58185610f4e565b9350610ce5818560208601610faa565b610cee8161100c565b840191505092915050565b6000610d06602683610f4e565b91507f4f776e61626c653a206e6577206f776e657220697320746865207a65726f206160008301527f64647265737300000000000000000000000000000000000000000000000000006020830152604082019050919050565b6000610d6c602083610f4e565b91507f4f776e61626c653a2063616c6c6572206973206e6f7420746865206f776e65726000830152602082019050919050565b610da881610f91565b82525050565b6000602082019050610dc36000830184610cb1565b92915050565b600061012082019050610ddf600083018c610cb1565b610dec602083018b610cb1565b610df9604083018a610cb1565b610e066060830189610cb1565b610e136080830188610cb1565b610e2060a0830187610cb1565b610e2d60c0830186610cb1565b610e3a60e0830185610cb1565b610e48610100830184610cb1565b9a9950505050505050505050565b6000608082019050610e6b6000830187610cb1565b610e786020830186610cb1565b610e856040830185610d9f565b8181036060830152610e978184610cc0565b905095945050505050565b60006020820190508181036000830152610ebb81610cf9565b9050919050565b60006020820190508181036000830152610edb81610d5f565b9050919050565b6000604051905081810181811067ffffffffffffffff82111715610f0957610f08610fdd565b5b8060405250919050565b600067ffffffffffffffff821115610f2e57610f2d610fdd565b5b601f19601f8301169050602081019050919050565b600081519050919050565b600082825260208201905092915050565b6000610f6a82610f71565b9050919050565b600073ffffffffffffffffffffffffffffffffffffffff82169050919050565b6000819050919050565b82818337600083830152505050565b60005b83811015610fc8578082015181840152602081019050610fad565b83811115610fd7576000848401525b50505050565b7f4e487b7100000000000000000000000000000000000000000000000000000000600052604160045260246000fd5b6000601f19601f8301169050919050565b61102681610f5f565b811461103157600080fd5b50565b61103d81610f91565b811461104857600080fd5b5056fea26469706673582212206bcb0b70c917419a6aa12c2da94a42f5fb447799f7aa0e90ff6414dfbba1aa5564736f6c63430008000033",
  "immutableReferences": {},
  "source": "// SPDX-License-Identifier: UNLICENSED\npragma solidity ^0.8.0;\nimport './CloneFactory.sol';\nimport '@openzeppelin/contracts/access/Ownable.sol';\nimport './BaseDistributor.sol';\nimport './Emitter.sol';\n\ncontract DistributorFactory is CloneFactory,Ownable{\n    address emitterAdd;\n    Emitter _emitter;\n    address distributorContract;\n    address[] public distributors;\n    event ReceivingAddressCreated(address newThingAddress);\n\n    address _host; \n    address _ida;\n    address _fDAIx;\n    address _fUSDCx;\n    address _fTUSDx;\n    address _ETHx;\n    address _erc1820Add;\n\n  constructor(\n    address host, \n    address ida,\n    address fDAIx,\n    address fUSDCx,\n    address fTUSDx,\n    address fETHx,\n    address erc1820Add,\n    address emitr,\n    address baseCont){\n      _host=host; \n      _ida=ida;\n      _fDAIx=fDAIx;\n      _fUSDCx=fUSDCx;\n      _fTUSDx=fTUSDx;\n      _ETHx = fETHx;\n      _erc1820Add=erc1820Add;\n\n      emitterAdd = emitr;\n      _emitter = Emitter(emitr);\n\n      distributorContract = baseCont;\n  }\n\n  function EmitterAddress(address _libraryAddress) public onlyOwner{\n    emitterAdd = _libraryAddress;\n    _emitter = Emitter(_libraryAddress);\n  }\n\n  function ChangeTokenAddresses(address fDAIx,\n    address fUSDCx,\n    address fTUSDx,\n    address fETHx) public onlyOwner{\n      _fDAIx=fDAIx;\n      _fUSDCx=fUSDCx;\n      _fTUSDx=fTUSDx;\n      _ETHx = fETHx;\n  }\n\n  function setDistributorAddress(address _libraryAddress) public onlyOwner {\n    distributorContract = _libraryAddress;\n  }\n\n  function createThing(string memory _name) public {\n    address clone = createClone(distributorContract);\n    BaseDistributor(clone).initialize(_host,_ida,emitterAdd,msg.sender,_fDAIx,_fUSDCx,_fTUSDx,_ETHx,_erc1820Add);\n    distributors.push(clone);\n    _emitter.AddressCreated2(clone,msg.sender,block.timestamp,_name);\n  }\n}",
  "sourcePath": "/Users/praffulsahu/Documents/Crypto/erc777distributor/contracts/DistributorFactory.sol",
  "compiler": {
    "name": "solc",
    "version": "0.8.0+commit.c7dfd78e.Emscripten.clang"
  },
  "schemaVersion": "3.3.3",
  "updatedAt": "2021-06-28T15:21:27.539Z",
  "networkType": "ethereum",
  "devdoc": {
    "kind": "dev",
    "methods": {
      "owner()": {
        "details": "Returns the address of the current owner."
      },
      "renounceOwnership()": {
        "details": "Leaves the contract without owner. It will not be possible to call `onlyOwner` functions anymore. Can only be called by the current owner. NOTE: Renouncing ownership will leave the contract without an owner, thereby removing any functionality that is only available to the owner."
      },
      "transferOwnership(address)": {
        "details": "Transfers ownership of the contract to a new account (`newOwner`). Can only be called by the current owner."
      }
    },
    "version": 1
  },
  "userdoc": {
    "kind": "user",
    "methods": {},
    "version": 1
  }
}