{
  "contractName": "DistributorFactory",
  "abi": [
    {
      "inputs": [
        {
          "internalType": "address",
          "name": "host",
          "type": "address"
        },
        {
          "internalType": "address",
          "name": "ida",
          "type": "address"
        },
        {
          "internalType": "address",
          "name": "fDAIx",
          "type": "address"
        },
        {
          "internalType": "address",
          "name": "fUSDCx",
          "type": "address"
        },
        {
          "internalType": "address",
          "name": "fTUSDx",
          "type": "address"
        },
        {
          "internalType": "address",
          "name": "fETHx",
          "type": "address"
        },
        {
          "internalType": "address",
          "name": "erc1820Add",
          "type": "address"
        },
        {
          "internalType": "address",
          "name": "emitr",
          "type": "address"
        },
        {
          "internalType": "address",
          "name": "baseCont",
          "type": "address"
        }
      ],
      "stateMutability": "nonpayable",
      "type": "constructor"
    },
    {
      "anonymous": false,
      "inputs": [
        {
          "indexed": true,
          "internalType": "address",
          "name": "previousOwner",
          "type": "address"
        },
        {
          "indexed": true,
          "internalType": "address",
          "name": "newOwner",
          "type": "address"
        }
      ],
      "name": "OwnershipTransferred",
      "type": "event"
    },
    {
      "anonymous": false,
      "inputs": [
        {
          "indexed": false,
          "internalType": "address",
          "name": "newThingAddress",
          "type": "address"
        }
      ],
      "name": "ReceivingAddressCreated",
      "type": "event"
    },
    {
      "inputs": [
        {
          "internalType": "uint256",
          "name": "",
          "type": "uint256"
        }
      ],
      "name": "distributors",
      "outputs": [
        {
          "internalType": "address",
          "name": "",
          "type": "address"
        }
      ],
      "stateMutability": "view",
      "type": "function",
      "constant": true
    },
    {
      "inputs": [],
      "name": "owner",
      "outputs": [
        {
          "internalType": "address",
          "name": "",
          "type": "address"
        }
      ],
      "stateMutability": "view",
      "type": "function",
      "constant": true
    },
    {
      "inputs": [],
      "name": "renounceOwnership",
      "outputs": [],
      "stateMutability": "nonpayable",
      "type": "function"
    },
    {
      "inputs": [
        {
          "internalType": "address",
          "name": "newOwner",
          "type": "address"
        }
      ],
      "name": "transferOwnership",
      "outputs": [],
      "stateMutability": "nonpayable",
      "type": "function"
    },
    {
      "inputs": [
        {
          "internalType": "address",
          "name": "_libraryAddress",
          "type": "address"
        }
      ],
      "name": "EmitterAddress",
      "outputs": [],
      "stateMutability": "nonpayable",
      "type": "function"
    },
    {
      "inputs": [
        {
          "internalType": "address",
          "name": "fDAIx",
          "type": "address"
        },
        {
          "internalType": "address",
          "name": "fUSDCx",
          "type": "address"
        },
        {
          "internalType": "address",
          "name": "fTUSDx",
          "type": "address"
        },
        {
          "internalType": "address",
          "name": "fETHx",
          "type": "address"
        }
      ],
      "name": "ChangeTokenAddresses",
      "outputs": [],
      "stateMutability": "nonpayable",
      "type": "function"
    },
    {
      "inputs": [
        {
          "internalType": "address",
          "name": "_libraryAddress",
          "type": "address"
        }
      ],
      "name": "setDistributorAddress",
      "outputs": [],
      "stateMutability": "nonpayable",
      "type": "function"
    },
    {
      "inputs": [],
      "name": "createThing",
      "outputs": [],
      "stateMutability": "nonpayable",
      "type": "function"
    }
  ],
  "bytecode": "0x60806040523480156200001157600080fd5b506040516200133e3803806200133e83398181016040528101906200003791906200039f565b6000620000496200038060201b60201c565b9050806000806101000a81548173ffffffffffffffffffffffffffffffffffffffff021916908373ffffffffffffffffffffffffffffffffffffffff1602179055508073ffffffffffffffffffffffffffffffffffffffff16600073ffffffffffffffffffffffffffffffffffffffff167f8be0079c531659141344cd1fd0a4f28419497f9722a3daafe3b4186f6b6457e060405160405180910390a35088600560006101000a81548173ffffffffffffffffffffffffffffffffffffffff021916908373ffffffffffffffffffffffffffffffffffffffff16021790555087600660006101000a81548173ffffffffffffffffffffffffffffffffffffffff021916908373ffffffffffffffffffffffffffffffffffffffff16021790555086600760006101000a81548173ffffffffffffffffffffffffffffffffffffffff021916908373ffffffffffffffffffffffffffffffffffffffff16021790555085600860006101000a81548173ffffffffffffffffffffffffffffffffffffffff021916908373ffffffffffffffffffffffffffffffffffffffff16021790555084600960006101000a81548173ffffffffffffffffffffffffffffffffffffffff021916908373ffffffffffffffffffffffffffffffffffffffff16021790555083600a60006101000a81548173ffffffffffffffffffffffffffffffffffffffff021916908373ffffffffffffffffffffffffffffffffffffffff16021790555082600b60006101000a81548173ffffffffffffffffffffffffffffffffffffffff021916908373ffffffffffffffffffffffffffffffffffffffff16021790555081600160006101000a81548173ffffffffffffffffffffffffffffffffffffffff021916908373ffffffffffffffffffffffffffffffffffffffff16021790555081600260006101000a81548173ffffffffffffffffffffffffffffffffffffffff021916908373ffffffffffffffffffffffffffffffffffffffff16021790555080600360006101000a81548173ffffffffffffffffffffffffffffffffffffffff021916908373ffffffffffffffffffffffffffffffffffffffff160217905550505050505050505050620004c6565b600033905090565b6000815190506200039981620004ac565b92915050565b60008060008060008060008060006101208a8c031215620003bf57600080fd5b6000620003cf8c828d0162000388565b9950506020620003e28c828d0162000388565b9850506040620003f58c828d0162000388565b9750506060620004088c828d0162000388565b96505060806200041b8c828d0162000388565b95505060a06200042e8c828d0162000388565b94505060c0620004418c828d0162000388565b93505060e0620004548c828d0162000388565b925050610100620004688c828d0162000388565b9150509295985092959850929598565b600062000485826200048c565b9050919050565b600073ffffffffffffffffffffffffffffffffffffffff82169050919050565b620004b78162000478565b8114620004c357600080fd5b50565b610e6880620004d66000396000f3fe608060405234801561001057600080fd5b50600436106100885760003560e01c806387950f491161005b57806387950f49146100ed5780638da5cb5b14610109578063a990f10314610127578063f2fde38b1461014357610088565b806350b492ba1461008d5780636f63dcc8146100bd578063715018a6146100c757806378bf4ec6146100d1575b600080fd5b6100a760048036038101906100a29190610bc8565b61015f565b6040516100b49190610ca6565b60405180910390f35b6100c561019e565b005b6100cf61044d565b005b6100eb60048036038101906100e69190610b3c565b610587565b005b61010760048036038101906101029190610b3c565b610688565b005b610111610748565b60405161011e9190610ca6565b60405180910390f35b610141600480360381019061013c9190610b65565b610771565b005b61015d60048036038101906101589190610b3c565b6108f7565b005b6004818154811061016f57600080fd5b906000526020600020016000915054906101000a900473ffffffffffffffffffffffffffffffffffffffff1681565b60006101cb600360009054906101000a900473ffffffffffffffffffffffffffffffffffffffff16610aa0565b90508073ffffffffffffffffffffffffffffffffffffffff1663f5e95acb600560009054906101000a900473ffffffffffffffffffffffffffffffffffffffff16600660009054906101000a900473ffffffffffffffffffffffffffffffffffffffff16600160009054906101000a900473ffffffffffffffffffffffffffffffffffffffff1633600760009054906101000a900473ffffffffffffffffffffffffffffffffffffffff16600860009054906101000a900473ffffffffffffffffffffffffffffffffffffffff16600960009054906101000a900473ffffffffffffffffffffffffffffffffffffffff16600a60009054906101000a900473ffffffffffffffffffffffffffffffffffffffff16600b60009054906101000a900473ffffffffffffffffffffffffffffffffffffffff166040518a63ffffffff1660e01b815260040161032699989796959493929190610cea565b600060405180830381600087803b15801561034057600080fd5b505af1158015610354573d6000803e3d6000fd5b505050506004819080600181540180825580915050600190039060005260206000200160009091909190916101000a81548173ffffffffffffffffffffffffffffffffffffffff021916908373ffffffffffffffffffffffffffffffffffffffff160217905550600260009054906101000a900473ffffffffffffffffffffffffffffffffffffffff1673ffffffffffffffffffffffffffffffffffffffff16630d03051882336040518363ffffffff1660e01b8152600401610418929190610cc1565b600060405180830381600087803b15801561043257600080fd5b505af1158015610446573d6000803e3d6000fd5b5050505050565b610455610b0a565b73ffffffffffffffffffffffffffffffffffffffff16610473610748565b73ffffffffffffffffffffffffffffffffffffffff16146104c9576040517f08c379a00000000000000000000000000000000000000000000000000000000081526004016104c090610d97565b60405180910390fd5b600073ffffffffffffffffffffffffffffffffffffffff1660008054906101000a900473ffffffffffffffffffffffffffffffffffffffff1673ffffffffffffffffffffffffffffffffffffffff167f8be0079c531659141344cd1fd0a4f28419497f9722a3daafe3b4186f6b6457e060405160405180910390a360008060006101000a81548173ffffffffffffffffffffffffffffffffffffffff021916908373ffffffffffffffffffffffffffffffffffffffff160217905550565b61058f610b0a565b73ffffffffffffffffffffffffffffffffffffffff166105ad610748565b73ffffffffffffffffffffffffffffffffffffffff1614610603576040517f08c379a00000000000000000000000000000000000000000000000000000000081526004016105fa90610d97565b60405180910390fd5b80600160006101000a81548173ffffffffffffffffffffffffffffffffffffffff021916908373ffffffffffffffffffffffffffffffffffffffff16021790555080600260006101000a81548173ffffffffffffffffffffffffffffffffffffffff021916908373ffffffffffffffffffffffffffffffffffffffff16021790555050565b610690610b0a565b73ffffffffffffffffffffffffffffffffffffffff166106ae610748565b73ffffffffffffffffffffffffffffffffffffffff1614610704576040517f08c379a00000000000000000000000000000000000000000000000000000000081526004016106fb90610d97565b60405180910390fd5b80600360006101000a81548173ffffffffffffffffffffffffffffffffffffffff021916908373ffffffffffffffffffffffffffffffffffffffff16021790555050565b60008060009054906101000a900473ffffffffffffffffffffffffffffffffffffffff16905090565b610779610b0a565b73ffffffffffffffffffffffffffffffffffffffff16610797610748565b73ffffffffffffffffffffffffffffffffffffffff16146107ed576040517f08c379a00000000000000000000000000000000000000000000000000000000081526004016107e490610d97565b60405180910390fd5b83600760006101000a81548173ffffffffffffffffffffffffffffffffffffffff021916908373ffffffffffffffffffffffffffffffffffffffff16021790555082600860006101000a81548173ffffffffffffffffffffffffffffffffffffffff021916908373ffffffffffffffffffffffffffffffffffffffff16021790555081600960006101000a81548173ffffffffffffffffffffffffffffffffffffffff021916908373ffffffffffffffffffffffffffffffffffffffff16021790555080600a60006101000a81548173ffffffffffffffffffffffffffffffffffffffff021916908373ffffffffffffffffffffffffffffffffffffffff16021790555050505050565b6108ff610b0a565b73ffffffffffffffffffffffffffffffffffffffff1661091d610748565b73ffffffffffffffffffffffffffffffffffffffff1614610973576040517f08c379a000000000000000000000000000000000000000000000000000000000815260040161096a90610d97565b60405180910390fd5b600073ffffffffffffffffffffffffffffffffffffffff168173ffffffffffffffffffffffffffffffffffffffff1614156109e3576040517f08c379a00000000000000000000000000000000000000000000000000000000081526004016109da90610d77565b60405180910390fd5b8073ffffffffffffffffffffffffffffffffffffffff1660008054906101000a900473ffffffffffffffffffffffffffffffffffffffff1673ffffffffffffffffffffffffffffffffffffffff167f8be0079c531659141344cd1fd0a4f28419497f9722a3daafe3b4186f6b6457e060405160405180910390a3806000806101000a81548173ffffffffffffffffffffffffffffffffffffffff021916908373ffffffffffffffffffffffffffffffffffffffff16021790555050565b6000808260601b90506040517f3d602d80600a3d3981f3363d3d373d3d3d363d7300000000000000000000000081528160148201527f5af43d82803e903d91602b57fd5bf3000000000000000000000000000000000060288201526037816000f092505050919050565b600033905090565b600081359050610b2181610e04565b92915050565b600081359050610b3681610e1b565b92915050565b600060208284031215610b4e57600080fd5b6000610b5c84828501610b12565b91505092915050565b60008060008060808587031215610b7b57600080fd5b6000610b8987828801610b12565b9450506020610b9a87828801610b12565b9350506040610bab87828801610b12565b9250506060610bbc87828801610b12565b91505092959194509250565b600060208284031215610bda57600080fd5b6000610be884828501610b27565b91505092915050565b610bfa81610dc8565b82525050565b6000610c0d602683610db7565b91507f4f776e61626c653a206e6577206f776e657220697320746865207a65726f206160008301527f64647265737300000000000000000000000000000000000000000000000000006020830152604082019050919050565b6000610c73602083610db7565b91507f4f776e61626c653a2063616c6c6572206973206e6f7420746865206f776e65726000830152602082019050919050565b6000602082019050610cbb6000830184610bf1565b92915050565b6000604082019050610cd66000830185610bf1565b610ce36020830184610bf1565b9392505050565b600061012082019050610d00600083018c610bf1565b610d0d602083018b610bf1565b610d1a604083018a610bf1565b610d276060830189610bf1565b610d346080830188610bf1565b610d4160a0830187610bf1565b610d4e60c0830186610bf1565b610d5b60e0830185610bf1565b610d69610100830184610bf1565b9a9950505050505050505050565b60006020820190508181036000830152610d9081610c00565b9050919050565b60006020820190508181036000830152610db081610c66565b9050919050565b600082825260208201905092915050565b6000610dd382610dda565b9050919050565b600073ffffffffffffffffffffffffffffffffffffffff82169050919050565b6000819050919050565b610e0d81610dc8565b8114610e1857600080fd5b50565b610e2481610dfa565b8114610e2f57600080fd5b5056fea264697066735822122082765bcc9a16d1eecd38fcc2854750f559ef93a1e6f366edeed73febeaddd59264736f6c63430008000033",
  "immutableReferences": {},
  "source": "// SPDX-License-Identifier: UNLICENSED\npragma solidity ^0.8.0;\nimport './CloneFactory.sol';\nimport '@openzeppelin/contracts/access/Ownable.sol';\nimport './BaseDistributor.sol';\nimport './Emitter.sol';\n\ncontract DistributorFactory is CloneFactory,Ownable{\n    address emitterAdd;\n    Emitter _emitter;\n    address distributorContract;\n    address[] public distributors;\n    event ReceivingAddressCreated(address newThingAddress);\n\n    address _host; \n    address _ida;\n    address _fDAIx;\n    address _fUSDCx;\n    address _fTUSDx;\n    address _ETHx;\n    address _erc1820Add;\n\n  constructor(\n    address host, \n    address ida,\n    address fDAIx,\n    address fUSDCx,\n    address fTUSDx,\n    address fETHx,\n    address erc1820Add,\n    address emitr,\n    address baseCont){\n      _host=host; \n      _ida=ida;\n      _fDAIx=fDAIx;\n      _fUSDCx=fUSDCx;\n      _fTUSDx=fTUSDx;\n      _ETHx = fETHx;\n      _erc1820Add=erc1820Add;\n\n      emitterAdd = emitr;\n      _emitter = Emitter(emitr);\n\n      distributorContract = baseCont;\n  }\n\n  function EmitterAddress(address _libraryAddress) public onlyOwner{\n    emitterAdd = _libraryAddress;\n    _emitter = Emitter(_libraryAddress);\n  }\n\n  function ChangeTokenAddresses(address fDAIx,\n    address fUSDCx,\n    address fTUSDx,\n    address fETHx) public onlyOwner{\n      _fDAIx=fDAIx;\n      _fUSDCx=fUSDCx;\n      _fTUSDx=fTUSDx;\n      _ETHx = fETHx;\n  }\n\n  function setDistributorAddress(address _libraryAddress) public onlyOwner {\n    distributorContract = _libraryAddress;\n  }\n\n  function createThing() public {\n    address clone = createClone(distributorContract);\n    BaseDistributor(clone).initialize(_host,_ida,emitterAdd,msg.sender,_fDAIx,_fUSDCx,_fTUSDx,_ETHx,_erc1820Add);\n    distributors.push(clone);\n    _emitter.AddressCreated2(clone,msg.sender);\n  }\n}",
  "sourcePath": "/Users/praffulsahu/Documents/Crypto/erc777distributor/contracts/DistributorFactory.sol",
  "compiler": {
    "name": "solc",
    "version": "0.8.0+commit.c7dfd78e.Emscripten.clang"
  },
  "schemaVersion": "3.3.3",
  "updatedAt": "2021-06-28T08:21:10.977Z",
  "networkType": "ethereum",
  "devdoc": {
    "kind": "dev",
    "methods": {
      "owner()": {
        "details": "Returns the address of the current owner."
      },
      "renounceOwnership()": {
        "details": "Leaves the contract without owner. It will not be possible to call `onlyOwner` functions anymore. Can only be called by the current owner. NOTE: Renouncing ownership will leave the contract without an owner, thereby removing any functionality that is only available to the owner."
      },
      "transferOwnership(address)": {
        "details": "Transfers ownership of the contract to a new account (`newOwner`). Can only be called by the current owner."
      }
    },
    "version": 1
  },
  "userdoc": {
    "kind": "user",
    "methods": {},
    "version": 1
  }
}