{
  "contractName": "Emitter",
  "abi": [
    {
      "anonymous": false,
      "inputs": [
        {
          "indexed": false,
          "internalType": "uint256",
          "name": "amountDistributed",
          "type": "uint256"
        },
        {
          "indexed": false,
          "internalType": "uint32",
          "name": "index",
          "type": "uint32"
        },
        {
          "indexed": false,
          "internalType": "address",
          "name": "publisher",
          "type": "address"
        },
        {
          "indexed": false,
          "internalType": "uint256",
          "name": "timeStamp",
          "type": "uint256"
        },
        {
          "indexed": false,
          "internalType": "string",
          "name": "token",
          "type": "string"
        }
      ],
      "name": "Distribution",
      "type": "event"
    },
    {
      "anonymous": false,
      "inputs": [
        {
          "indexed": false,
          "internalType": "address",
          "name": "from",
          "type": "address"
        },
        {
          "indexed": false,
          "internalType": "string",
          "name": "token",
          "type": "string"
        },
        {
          "indexed": false,
          "internalType": "uint256",
          "name": "amount",
          "type": "uint256"
        },
        {
          "indexed": false,
          "internalType": "uint32",
          "name": "index",
          "type": "uint32"
        },
        {
          "indexed": false,
          "internalType": "address",
          "name": "publisher",
          "type": "address"
        },
        {
          "indexed": false,
          "internalType": "uint256",
          "name": "timeStamp",
          "type": "uint256"
        }
      ],
      "name": "DonationReceived",
      "type": "event"
    },
    {
      "anonymous": false,
      "inputs": [
        {
          "indexed": false,
          "internalType": "uint128",
          "name": "totalShares",
          "type": "uint128"
        },
        {
          "indexed": false,
          "internalType": "uint32",
          "name": "index",
          "type": "uint32"
        },
        {
          "indexed": false,
          "internalType": "address",
          "name": "publisher",
          "type": "address"
        },
        {
          "indexed": false,
          "internalType": "uint256",
          "name": "timeStamp",
          "type": "uint256"
        }
      ],
      "name": "TotalShares",
      "type": "event"
    },
    {
      "anonymous": false,
      "inputs": [
        {
          "indexed": false,
          "internalType": "address",
          "name": "userAddress",
          "type": "address"
        },
        {
          "indexed": false,
          "internalType": "uint128",
          "name": "shares",
          "type": "uint128"
        },
        {
          "indexed": false,
          "internalType": "uint32",
          "name": "index",
          "type": "uint32"
        },
        {
          "indexed": false,
          "internalType": "address",
          "name": "publisher",
          "type": "address"
        },
        {
          "indexed": false,
          "internalType": "uint256",
          "name": "timeStamp",
          "type": "uint256"
        },
        {
          "indexed": false,
          "internalType": "uint128",
          "name": "totalShares",
          "type": "uint128"
        }
      ],
      "name": "UserAdded",
      "type": "event"
    },
    {
      "anonymous": false,
      "inputs": [
        {
          "indexed": false,
          "internalType": "address",
          "name": "userAddress",
          "type": "address"
        },
        {
          "indexed": false,
          "internalType": "uint128",
          "name": "shares",
          "type": "uint128"
        },
        {
          "indexed": false,
          "internalType": "uint32",
          "name": "index",
          "type": "uint32"
        },
        {
          "indexed": false,
          "internalType": "address",
          "name": "publisher",
          "type": "address"
        },
        {
          "indexed": false,
          "internalType": "uint256",
          "name": "timeStamp",
          "type": "uint256"
        },
        {
          "indexed": false,
          "internalType": "uint128",
          "name": "totalShares",
          "type": "uint128"
        }
      ],
      "name": "UserModified",
      "type": "event"
    },
    {
      "anonymous": false,
      "inputs": [
        {
          "indexed": false,
          "internalType": "address",
          "name": "userAddress",
          "type": "address"
        },
        {
          "indexed": false,
          "internalType": "uint128",
          "name": "shares",
          "type": "uint128"
        },
        {
          "indexed": false,
          "internalType": "uint32",
          "name": "index",
          "type": "uint32"
        },
        {
          "indexed": false,
          "internalType": "address",
          "name": "publisher",
          "type": "address"
        },
        {
          "indexed": false,
          "internalType": "uint256",
          "name": "timeStamp",
          "type": "uint256"
        },
        {
          "indexed": false,
          "internalType": "uint128",
          "name": "totalShares",
          "type": "uint128"
        }
      ],
      "name": "UserRemoved",
      "type": "event"
    },
    {
      "inputs": [
        {
          "internalType": "address",
          "name": "from",
          "type": "address"
        },
        {
          "internalType": "string",
          "name": "token",
          "type": "string"
        },
        {
          "internalType": "uint256",
          "name": "amount",
          "type": "uint256"
        },
        {
          "internalType": "uint32",
          "name": "index",
          "type": "uint32"
        },
        {
          "internalType": "address",
          "name": "publisher",
          "type": "address"
        },
        {
          "internalType": "uint256",
          "name": "timeStamp",
          "type": "uint256"
        }
      ],
      "name": "DonationReceived2",
      "outputs": [],
      "stateMutability": "nonpayable",
      "type": "function"
    },
    {
      "inputs": [
        {
          "internalType": "address",
          "name": "userAddress",
          "type": "address"
        },
        {
          "internalType": "uint128",
          "name": "shares",
          "type": "uint128"
        },
        {
          "internalType": "uint32",
          "name": "index",
          "type": "uint32"
        },
        {
          "internalType": "address",
          "name": "publisher",
          "type": "address"
        },
        {
          "internalType": "uint256",
          "name": "timeStamp",
          "type": "uint256"
        },
        {
          "internalType": "uint128",
          "name": "totalShares",
          "type": "uint128"
        }
      ],
      "name": "UserAdded2",
      "outputs": [],
      "stateMutability": "nonpayable",
      "type": "function"
    },
    {
      "inputs": [
        {
          "internalType": "address",
          "name": "userAddress",
          "type": "address"
        },
        {
          "internalType": "uint128",
          "name": "shares",
          "type": "uint128"
        },
        {
          "internalType": "uint32",
          "name": "index",
          "type": "uint32"
        },
        {
          "internalType": "address",
          "name": "publisher",
          "type": "address"
        },
        {
          "internalType": "uint256",
          "name": "timeStamp",
          "type": "uint256"
        },
        {
          "internalType": "uint128",
          "name": "totalShares",
          "type": "uint128"
        }
      ],
      "name": "UserRemoved2",
      "outputs": [],
      "stateMutability": "nonpayable",
      "type": "function"
    },
    {
      "inputs": [
        {
          "internalType": "address",
          "name": "userAddress",
          "type": "address"
        },
        {
          "internalType": "uint128",
          "name": "shares",
          "type": "uint128"
        },
        {
          "internalType": "uint32",
          "name": "index",
          "type": "uint32"
        },
        {
          "internalType": "address",
          "name": "publisher",
          "type": "address"
        },
        {
          "internalType": "uint256",
          "name": "timeStamp",
          "type": "uint256"
        },
        {
          "internalType": "uint128",
          "name": "totalShares",
          "type": "uint128"
        }
      ],
      "name": "UserModified2",
      "outputs": [],
      "stateMutability": "nonpayable",
      "type": "function"
    },
    {
      "inputs": [
        {
          "internalType": "uint256",
          "name": "amountDistributed",
          "type": "uint256"
        },
        {
          "internalType": "uint32",
          "name": "index",
          "type": "uint32"
        },
        {
          "internalType": "address",
          "name": "publisher",
          "type": "address"
        },
        {
          "internalType": "uint256",
          "name": "timeStamp",
          "type": "uint256"
        },
        {
          "internalType": "string",
          "name": "token",
          "type": "string"
        }
      ],
      "name": "Distribution2",
      "outputs": [],
      "stateMutability": "nonpayable",
      "type": "function"
    },
    {
      "inputs": [
        {
          "internalType": "uint128",
          "name": "totalShares",
          "type": "uint128"
        },
        {
          "internalType": "uint32",
          "name": "index",
          "type": "uint32"
        },
        {
          "internalType": "address",
          "name": "publisher",
          "type": "address"
        },
        {
          "internalType": "uint256",
          "name": "timeStamp",
          "type": "uint256"
        }
      ],
      "name": "TotalShares2",
      "outputs": [],
      "stateMutability": "nonpayable",
      "type": "function"
    }
  ],
  "bytecode": "0x608060405234801561001057600080fd5b5061096a806100206000396000f3fe608060405234801561001057600080fd5b50600436106100625760003560e01c806326d35089146100675780634652ed8a14610083578063aeed6fd21461009f578063b464319c146100bb578063c207fd9a146100d7578063e028b05d146100f3575b600080fd5b610081600480360381019061007c91906104a2565b61010f565b005b61009d60048036038101906100989190610505565b610152565b005b6100b960048036038101906100b49190610378565b610198565b005b6100d560048036038101906100d09190610419565b6101e1565b005b6100f160048036038101906100ec9190610419565b61022a565b005b61010d60048036038101906101089190610419565b610273565b005b7f3f0b37810834384d2e75ddcb117cea7717a403ca60272c9824cb42c665f05ad68484848460405161014494939291906106d2565b60405180910390a150505050565b7fac31fd416e918b8a8d73ff2fab2dde3251bd00db40031e5990cedac15771e6d28585858585604051610189959493929190610717565b60405180910390a15050505050565b7f06025452741aefba2517f074584c98b74e7fbf558c672e1deb190dd1c4ac2e788686868686866040516101d196959493929190610609565b60405180910390a1505050505050565b7f770a7097ec8f9d359bc549b4a53c8664d6ba32764ccef1e1954cf4ebae0f002186868686868660405161021a96959493929190610671565b60405180910390a1505050505050565b7f065689651f18eaf808ec5f8ccb6b7a8ef5a7a1ddfdd58314da33fc5637d1252286868686868660405161026396959493929190610671565b60405180910390a1505050505050565b7f9b1f4981fdb1f3b5689710b2535cafc1b22e22c05bb12a0ca9acb1293a49e82c8686868686866040516102ac96959493929190610671565b60405180910390a1505050505050565b60006102cf6102ca846107a2565b610771565b9050828152602081018484840111156102e757600080fd5b6102f2848285610856565b509392505050565b600081359050610309816108d8565b92915050565b600082601f83011261032057600080fd5b81356103308482602086016102bc565b91505092915050565b600081359050610348816108ef565b92915050565b60008135905061035d81610906565b92915050565b6000813590506103728161091d565b92915050565b60008060008060008060c0878903121561039157600080fd5b600061039f89828a016102fa565b965050602087013567ffffffffffffffff8111156103bc57600080fd5b6103c889828a0161030f565b95505060406103d989828a0161034e565b94505060606103ea89828a01610363565b93505060806103fb89828a016102fa565b92505060a061040c89828a0161034e565b9150509295509295509295565b60008060008060008060c0878903121561043257600080fd5b600061044089828a016102fa565b965050602061045189828a01610339565b955050604061046289828a01610363565b945050606061047389828a016102fa565b935050608061048489828a0161034e565b92505060a061049589828a01610339565b9150509295509295509295565b600080600080608085870312156104b857600080fd5b60006104c687828801610339565b94505060206104d787828801610363565b93505060406104e8878288016102fa565b92505060606104f98782880161034e565b91505092959194509250565b600080600080600060a0868803121561051d57600080fd5b600061052b8882890161034e565b955050602061053c88828901610363565b945050604061054d888289016102fa565b935050606061055e8882890161034e565b925050608086013567ffffffffffffffff81111561057b57600080fd5b6105878882890161030f565b9150509295509295909350565b61059d816107ee565b82525050565b60006105ae826107d2565b6105b881856107dd565b93506105c8818560208601610865565b6105d1816108c7565b840191505092915050565b6105e581610800565b82525050565b6105f48161083c565b82525050565b61060381610846565b82525050565b600060c08201905061061e6000830189610594565b818103602083015261063081886105a3565b905061063f60408301876105eb565b61064c60608301866105fa565b6106596080830185610594565b61066660a08301846105eb565b979650505050505050565b600060c0820190506106866000830189610594565b61069360208301886105dc565b6106a060408301876105fa565b6106ad6060830186610594565b6106ba60808301856105eb565b6106c760a08301846105dc565b979650505050505050565b60006080820190506106e760008301876105dc565b6106f460208301866105fa565b6107016040830185610594565b61070e60608301846105eb565b95945050505050565b600060a08201905061072c60008301886105eb565b61073960208301876105fa565b6107466040830186610594565b61075360608301856105eb565b818103608083015261076581846105a3565b90509695505050505050565b6000604051905081810181811067ffffffffffffffff8211171561079857610797610898565b5b8060405250919050565b600067ffffffffffffffff8211156107bd576107bc610898565b5b601f19601f8301169050602081019050919050565b600081519050919050565b600082825260208201905092915050565b60006107f98261081c565b9050919050565b60006fffffffffffffffffffffffffffffffff82169050919050565b600073ffffffffffffffffffffffffffffffffffffffff82169050919050565b6000819050919050565b600063ffffffff82169050919050565b82818337600083830152505050565b60005b83811015610883578082015181840152602081019050610868565b83811115610892576000848401525b50505050565b7f4e487b7100000000000000000000000000000000000000000000000000000000600052604160045260246000fd5b6000601f19601f8301169050919050565b6108e1816107ee565b81146108ec57600080fd5b50565b6108f881610800565b811461090357600080fd5b50565b61090f8161083c565b811461091a57600080fd5b50565b61092681610846565b811461093157600080fd5b5056fea264697066735822122034f858ace408f9f2bd29261bff2bd48729ebe5a5f262ec2239464ae66258330264736f6c63430008000033",
  "immutableReferences": {},
  "source": "pragma solidity ^0.8.0;\n\ncontract Emitter{\n    event DonationReceived(address from, string token, uint256 amount,uint32 index,address publisher,uint timeStamp);\n    event UserAdded(address userAddress,uint128 shares,uint32 index,address publisher,uint timeStamp,uint128 totalShares);\n    event UserRemoved(address userAddress,uint128 shares,uint32 index,address publisher,uint timeStamp,uint128 totalShares);\n    event UserModified(address userAddress,uint128 shares,uint32 index,address publisher,uint timeStamp,uint128 totalShares);\n    event Distribution(uint256 amountDistributed,uint32 index,address publisher,uint timeStamp,string token);\n    event TotalShares(uint128 totalShares,uint32 index,address publisher,uint timeStamp);\n    \n    function DonationReceived2(address from, string memory token, uint256 amount,uint32 index,address publisher,uint timeStamp) external {\n        emit DonationReceived(from, token, amount,index,publisher,timeStamp);\n    }\n    function UserAdded2(address userAddress,uint128 shares,uint32 index,address publisher,uint timeStamp,uint128 totalShares) external {\n        emit UserAdded(userAddress,shares,index,publisher,timeStamp,totalShares);\n    }\n    function UserRemoved2(address userAddress,uint128 shares,uint32 index,address publisher,uint timeStamp,uint128 totalShares) external {\n        emit UserRemoved(userAddress,shares,index,publisher,timeStamp,totalShares);\n    }\n    function UserModified2(address userAddress,uint128 shares,uint32 index,address publisher,uint timeStamp,uint128 totalShares) external {\n        emit UserModified(userAddress,shares,index,publisher,timeStamp,totalShares);\n    }\n    function Distribution2(uint256 amountDistributed,uint32 index,address publisher,uint timeStamp,string memory token) external {\n        emit Distribution(amountDistributed,index,publisher,timeStamp,token);\n    }\n    function TotalShares2(uint128 totalShares,uint32 index,address publisher,uint timeStamp) external {\n        emit TotalShares(totalShares,index,publisher,timeStamp);\n    }\n    \n}",
  "sourcePath": "/Users/praffulsahu/Documents/Crypto/erc777distributor/contracts/Emitter.sol",
  "compiler": {
    "name": "solc",
    "version": "0.8.0+commit.c7dfd78e.Emscripten.clang"
  },
  "schemaVersion": "3.3.3",
  "updatedAt": "2021-06-25T14:37:46.266Z",
  "devdoc": {
    "kind": "dev",
    "methods": {},
    "version": 1
  },
  "userdoc": {
    "kind": "user",
    "methods": {},
    "version": 1
  }
}