{
  "contractName": "Emitter",
  "abi": [
    {
      "anonymous": false,
      "inputs": [
        {
          "indexed": false,
          "internalType": "address",
          "name": "_address",
          "type": "address"
        },
        {
          "indexed": false,
          "internalType": "address",
          "name": "owner",
          "type": "address"
        }
      ],
      "name": "AddressCreated",
      "type": "event"
    },
    {
      "anonymous": false,
      "inputs": [
        {
          "indexed": false,
          "internalType": "uint256",
          "name": "amountDistributed",
          "type": "uint256"
        },
        {
          "indexed": false,
          "internalType": "uint32",
          "name": "index",
          "type": "uint32"
        },
        {
          "indexed": false,
          "internalType": "address",
          "name": "publisher",
          "type": "address"
        },
        {
          "indexed": false,
          "internalType": "uint256",
          "name": "timeStamp",
          "type": "uint256"
        },
        {
          "indexed": false,
          "internalType": "string",
          "name": "token",
          "type": "string"
        }
      ],
      "name": "Distribution",
      "type": "event"
    },
    {
      "anonymous": false,
      "inputs": [
        {
          "indexed": false,
          "internalType": "address",
          "name": "from",
          "type": "address"
        },
        {
          "indexed": false,
          "internalType": "string",
          "name": "token",
          "type": "string"
        },
        {
          "indexed": false,
          "internalType": "uint256",
          "name": "amount",
          "type": "uint256"
        },
        {
          "indexed": false,
          "internalType": "uint32",
          "name": "index",
          "type": "uint32"
        },
        {
          "indexed": false,
          "internalType": "address",
          "name": "publisher",
          "type": "address"
        },
        {
          "indexed": false,
          "internalType": "uint256",
          "name": "timeStamp",
          "type": "uint256"
        }
      ],
      "name": "DonationReceived",
      "type": "event"
    },
    {
      "anonymous": false,
      "inputs": [
        {
          "indexed": false,
          "internalType": "uint128",
          "name": "totalShares",
          "type": "uint128"
        },
        {
          "indexed": false,
          "internalType": "uint32",
          "name": "index",
          "type": "uint32"
        },
        {
          "indexed": false,
          "internalType": "address",
          "name": "publisher",
          "type": "address"
        },
        {
          "indexed": false,
          "internalType": "uint256",
          "name": "timeStamp",
          "type": "uint256"
        }
      ],
      "name": "TotalShares",
      "type": "event"
    },
    {
      "anonymous": false,
      "inputs": [
        {
          "indexed": false,
          "internalType": "address",
          "name": "userAddress",
          "type": "address"
        },
        {
          "indexed": false,
          "internalType": "uint128",
          "name": "shares",
          "type": "uint128"
        },
        {
          "indexed": false,
          "internalType": "uint32",
          "name": "index",
          "type": "uint32"
        },
        {
          "indexed": false,
          "internalType": "address",
          "name": "publisher",
          "type": "address"
        },
        {
          "indexed": false,
          "internalType": "uint256",
          "name": "timeStamp",
          "type": "uint256"
        },
        {
          "indexed": false,
          "internalType": "uint128",
          "name": "totalShares",
          "type": "uint128"
        }
      ],
      "name": "UserAdded",
      "type": "event"
    },
    {
      "anonymous": false,
      "inputs": [
        {
          "indexed": false,
          "internalType": "address",
          "name": "userAddress",
          "type": "address"
        },
        {
          "indexed": false,
          "internalType": "uint128",
          "name": "shares",
          "type": "uint128"
        },
        {
          "indexed": false,
          "internalType": "uint32",
          "name": "index",
          "type": "uint32"
        },
        {
          "indexed": false,
          "internalType": "address",
          "name": "publisher",
          "type": "address"
        },
        {
          "indexed": false,
          "internalType": "uint256",
          "name": "timeStamp",
          "type": "uint256"
        },
        {
          "indexed": false,
          "internalType": "uint128",
          "name": "totalShares",
          "type": "uint128"
        }
      ],
      "name": "UserModified",
      "type": "event"
    },
    {
      "anonymous": false,
      "inputs": [
        {
          "indexed": false,
          "internalType": "address",
          "name": "userAddress",
          "type": "address"
        },
        {
          "indexed": false,
          "internalType": "uint128",
          "name": "shares",
          "type": "uint128"
        },
        {
          "indexed": false,
          "internalType": "uint32",
          "name": "index",
          "type": "uint32"
        },
        {
          "indexed": false,
          "internalType": "address",
          "name": "publisher",
          "type": "address"
        },
        {
          "indexed": false,
          "internalType": "uint256",
          "name": "timeStamp",
          "type": "uint256"
        },
        {
          "indexed": false,
          "internalType": "uint128",
          "name": "totalShares",
          "type": "uint128"
        }
      ],
      "name": "UserRemoved",
      "type": "event"
    },
    {
      "inputs": [
        {
          "internalType": "address",
          "name": "from",
          "type": "address"
        },
        {
          "internalType": "string",
          "name": "token",
          "type": "string"
        },
        {
          "internalType": "uint256",
          "name": "amount",
          "type": "uint256"
        },
        {
          "internalType": "uint32",
          "name": "index",
          "type": "uint32"
        },
        {
          "internalType": "address",
          "name": "publisher",
          "type": "address"
        },
        {
          "internalType": "uint256",
          "name": "timeStamp",
          "type": "uint256"
        }
      ],
      "name": "DonationReceived2",
      "outputs": [],
      "stateMutability": "nonpayable",
      "type": "function"
    },
    {
      "inputs": [
        {
          "internalType": "address",
          "name": "userAddress",
          "type": "address"
        },
        {
          "internalType": "uint128",
          "name": "shares",
          "type": "uint128"
        },
        {
          "internalType": "uint32",
          "name": "index",
          "type": "uint32"
        },
        {
          "internalType": "address",
          "name": "publisher",
          "type": "address"
        },
        {
          "internalType": "uint256",
          "name": "timeStamp",
          "type": "uint256"
        },
        {
          "internalType": "uint128",
          "name": "totalShares",
          "type": "uint128"
        }
      ],
      "name": "UserAdded2",
      "outputs": [],
      "stateMutability": "nonpayable",
      "type": "function"
    },
    {
      "inputs": [
        {
          "internalType": "address",
          "name": "userAddress",
          "type": "address"
        },
        {
          "internalType": "uint128",
          "name": "shares",
          "type": "uint128"
        },
        {
          "internalType": "uint32",
          "name": "index",
          "type": "uint32"
        },
        {
          "internalType": "address",
          "name": "publisher",
          "type": "address"
        },
        {
          "internalType": "uint256",
          "name": "timeStamp",
          "type": "uint256"
        },
        {
          "internalType": "uint128",
          "name": "totalShares",
          "type": "uint128"
        }
      ],
      "name": "UserRemoved2",
      "outputs": [],
      "stateMutability": "nonpayable",
      "type": "function"
    },
    {
      "inputs": [
        {
          "internalType": "address",
          "name": "userAddress",
          "type": "address"
        },
        {
          "internalType": "uint128",
          "name": "shares",
          "type": "uint128"
        },
        {
          "internalType": "uint32",
          "name": "index",
          "type": "uint32"
        },
        {
          "internalType": "address",
          "name": "publisher",
          "type": "address"
        },
        {
          "internalType": "uint256",
          "name": "timeStamp",
          "type": "uint256"
        },
        {
          "internalType": "uint128",
          "name": "totalShares",
          "type": "uint128"
        }
      ],
      "name": "UserModified2",
      "outputs": [],
      "stateMutability": "nonpayable",
      "type": "function"
    },
    {
      "inputs": [
        {
          "internalType": "uint256",
          "name": "amountDistributed",
          "type": "uint256"
        },
        {
          "internalType": "uint32",
          "name": "index",
          "type": "uint32"
        },
        {
          "internalType": "address",
          "name": "publisher",
          "type": "address"
        },
        {
          "internalType": "uint256",
          "name": "timeStamp",
          "type": "uint256"
        },
        {
          "internalType": "string",
          "name": "token",
          "type": "string"
        }
      ],
      "name": "Distribution2",
      "outputs": [],
      "stateMutability": "nonpayable",
      "type": "function"
    },
    {
      "inputs": [
        {
          "internalType": "uint128",
          "name": "totalShares",
          "type": "uint128"
        },
        {
          "internalType": "uint32",
          "name": "index",
          "type": "uint32"
        },
        {
          "internalType": "address",
          "name": "publisher",
          "type": "address"
        },
        {
          "internalType": "uint256",
          "name": "timeStamp",
          "type": "uint256"
        }
      ],
      "name": "TotalShares2",
      "outputs": [],
      "stateMutability": "nonpayable",
      "type": "function"
    },
    {
      "inputs": [
        {
          "internalType": "address",
          "name": "_address",
          "type": "address"
        },
        {
          "internalType": "address",
          "name": "owner",
          "type": "address"
        }
      ],
      "name": "AddressCreated2",
      "outputs": [],
      "stateMutability": "nonpayable",
      "type": "function"
    }
  ],
  "bytecode": "0x608060405234801561001057600080fd5b50610a43806100206000396000f3fe608060405234801561001057600080fd5b506004361061007d5760003560e01c8063aeed6fd21161005b578063aeed6fd2146100d6578063b464319c146100f2578063c207fd9a1461010e578063e028b05d1461012a5761007d565b80630d0305181461008257806326d350891461009e5780634652ed8a146100ba575b600080fd5b61009c600480360381019061009791906103ec565b610146565b005b6100b860048036038101906100b39190610552565b610183565b005b6100d460048036038101906100cf91906105b5565b6101c6565b005b6100f060048036038101906100eb9190610428565b61020c565b005b61010c600480360381019061010791906104c9565b610255565b005b610128600480360381019061012391906104c9565b61029e565b005b610144600480360381019061013f91906104c9565b6102e7565b005b7f40de9a527caa44970d30c8d0600dc3ba1b7962a4fa1aa814b212f2343c589acc82826040516101779291906106b9565b60405180910390a15050565b7f3f0b37810834384d2e75ddcb117cea7717a403ca60272c9824cb42c665f05ad6848484846040516101b894939291906107ab565b60405180910390a150505050565b7fac31fd416e918b8a8d73ff2fab2dde3251bd00db40031e5990cedac15771e6d285858585856040516101fd9594939291906107f0565b60405180910390a15050505050565b7f06025452741aefba2517f074584c98b74e7fbf558c672e1deb190dd1c4ac2e78868686868686604051610245969594939291906106e2565b60405180910390a1505050505050565b7f770a7097ec8f9d359bc549b4a53c8664d6ba32764ccef1e1954cf4ebae0f002186868686868660405161028e9695949392919061074a565b60405180910390a1505050505050565b7f065689651f18eaf808ec5f8ccb6b7a8ef5a7a1ddfdd58314da33fc5637d125228686868686866040516102d79695949392919061074a565b60405180910390a1505050505050565b7f9b1f4981fdb1f3b5689710b2535cafc1b22e22c05bb12a0ca9acb1293a49e82c8686868686866040516103209695949392919061074a565b60405180910390a1505050505050565b600061034361033e8461087b565b61084a565b90508281526020810184848401111561035b57600080fd5b61036684828561092f565b509392505050565b60008135905061037d816109b1565b92915050565b600082601f83011261039457600080fd5b81356103a4848260208601610330565b91505092915050565b6000813590506103bc816109c8565b92915050565b6000813590506103d1816109df565b92915050565b6000813590506103e6816109f6565b92915050565b600080604083850312156103ff57600080fd5b600061040d8582860161036e565b925050602061041e8582860161036e565b9150509250929050565b60008060008060008060c0878903121561044157600080fd5b600061044f89828a0161036e565b965050602087013567ffffffffffffffff81111561046c57600080fd5b61047889828a01610383565b955050604061048989828a016103c2565b945050606061049a89828a016103d7565b93505060806104ab89828a0161036e565b92505060a06104bc89828a016103c2565b9150509295509295509295565b60008060008060008060c087890312156104e257600080fd5b60006104f089828a0161036e565b965050602061050189828a016103ad565b955050604061051289828a016103d7565b945050606061052389828a0161036e565b935050608061053489828a016103c2565b92505060a061054589828a016103ad565b9150509295509295509295565b6000806000806080858703121561056857600080fd5b6000610576878288016103ad565b9450506020610587878288016103d7565b93505060406105988782880161036e565b92505060606105a9878288016103c2565b91505092959194509250565b600080600080600060a086880312156105cd57600080fd5b60006105db888289016103c2565b95505060206105ec888289016103d7565b94505060406105fd8882890161036e565b935050606061060e888289016103c2565b925050608086013567ffffffffffffffff81111561062b57600080fd5b61063788828901610383565b9150509295509295909350565b61064d816108c7565b82525050565b600061065e826108ab565b61066881856108b6565b935061067881856020860161093e565b610681816109a0565b840191505092915050565b610695816108d9565b82525050565b6106a481610915565b82525050565b6106b38161091f565b82525050565b60006040820190506106ce6000830185610644565b6106db6020830184610644565b9392505050565b600060c0820190506106f76000830189610644565b81810360208301526107098188610653565b9050610718604083018761069b565b61072560608301866106aa565b6107326080830185610644565b61073f60a083018461069b565b979650505050505050565b600060c08201905061075f6000830189610644565b61076c602083018861068c565b61077960408301876106aa565b6107866060830186610644565b610793608083018561069b565b6107a060a083018461068c565b979650505050505050565b60006080820190506107c0600083018761068c565b6107cd60208301866106aa565b6107da6040830185610644565b6107e7606083018461069b565b95945050505050565b600060a082019050610805600083018861069b565b61081260208301876106aa565b61081f6040830186610644565b61082c606083018561069b565b818103608083015261083e8184610653565b90509695505050505050565b6000604051905081810181811067ffffffffffffffff8211171561087157610870610971565b5b8060405250919050565b600067ffffffffffffffff82111561089657610895610971565b5b601f19601f8301169050602081019050919050565b600081519050919050565b600082825260208201905092915050565b60006108d2826108f5565b9050919050565b60006fffffffffffffffffffffffffffffffff82169050919050565b600073ffffffffffffffffffffffffffffffffffffffff82169050919050565b6000819050919050565b600063ffffffff82169050919050565b82818337600083830152505050565b60005b8381101561095c578082015181840152602081019050610941565b8381111561096b576000848401525b50505050565b7f4e487b7100000000000000000000000000000000000000000000000000000000600052604160045260246000fd5b6000601f19601f8301169050919050565b6109ba816108c7565b81146109c557600080fd5b50565b6109d1816108d9565b81146109dc57600080fd5b50565b6109e881610915565b81146109f357600080fd5b50565b6109ff8161091f565b8114610a0a57600080fd5b5056fea26469706673582212201b94c7b23d50d642858b52f2cc8fbde10aa4f512c86d4f46770e9825aa26646b64736f6c63430008000033",
  "immutableReferences": {},
  "source": "// SPDX-License-Identifier: UNLICENSED\npragma solidity ^0.8.0;\n\ncontract Emitter{\n    event DonationReceived(address from, string token, uint256 amount,uint32 index,address publisher,uint timeStamp);\n    event UserAdded(address userAddress,uint128 shares,uint32 index,address publisher,uint timeStamp,uint128 totalShares);\n    event UserRemoved(address userAddress,uint128 shares,uint32 index,address publisher,uint timeStamp,uint128 totalShares);\n    event UserModified(address userAddress,uint128 shares,uint32 index,address publisher,uint timeStamp,uint128 totalShares);\n    event Distribution(uint256 amountDistributed,uint32 index,address publisher,uint timeStamp,string token);\n    event TotalShares(uint128 totalShares,uint32 index,address publisher,uint timeStamp);\n    event AddressCreated(address _address,address owner);\n    \n    function DonationReceived2(address from, string memory token, uint256 amount,uint32 index,address publisher,uint timeStamp) external {\n        emit DonationReceived(from, token, amount,index,publisher,timeStamp);\n    }\n    function UserAdded2(address userAddress,uint128 shares,uint32 index,address publisher,uint timeStamp,uint128 totalShares) external {\n        emit UserAdded(userAddress,shares,index,publisher,timeStamp,totalShares);\n    }\n    function UserRemoved2(address userAddress,uint128 shares,uint32 index,address publisher,uint timeStamp,uint128 totalShares) external {\n        emit UserRemoved(userAddress,shares,index,publisher,timeStamp,totalShares);\n    }\n    function UserModified2(address userAddress,uint128 shares,uint32 index,address publisher,uint timeStamp,uint128 totalShares) external {\n        emit UserModified(userAddress,shares,index,publisher,timeStamp,totalShares);\n    }\n    function Distribution2(uint256 amountDistributed,uint32 index,address publisher,uint timeStamp,string memory token) external {\n        emit Distribution(amountDistributed,index,publisher,timeStamp,token);\n    }\n    function TotalShares2(uint128 totalShares,uint32 index,address publisher,uint timeStamp) external {\n        emit TotalShares(totalShares,index,publisher,timeStamp);\n    }\n\n    function AddressCreated2(address _address,address owner) external{\n        emit AddressCreated(_address, owner);\n    }\n    \n}",
  "sourcePath": "/Users/praffulsahu/Documents/Crypto/erc777distributor/contracts/Emitter.sol",
  "compiler": {
    "name": "solc",
    "version": "0.8.0+commit.c7dfd78e.Emscripten.clang"
  },
  "schemaVersion": "3.3.3",
  "updatedAt": "2021-06-28T08:21:10.937Z",
  "networkType": "ethereum",
  "devdoc": {
    "kind": "dev",
    "methods": {},
    "version": 1
  },
  "userdoc": {
    "kind": "user",
    "methods": {},
    "version": 1
  }
}