{
  "contractName": "Emitter",
  "abi": [
    {
      "anonymous": false,
      "inputs": [
        {
          "indexed": false,
          "internalType": "address",
          "name": "_address",
          "type": "address"
        },
        {
          "indexed": false,
          "internalType": "address",
          "name": "owner",
          "type": "address"
        },
        {
          "indexed": false,
          "internalType": "uint256",
          "name": "timeStamp",
          "type": "uint256"
        },
        {
          "indexed": false,
          "internalType": "string",
          "name": "name",
          "type": "string"
        }
      ],
      "name": "AddressCreated",
      "type": "event"
    },
    {
      "anonymous": false,
      "inputs": [
        {
          "indexed": false,
          "internalType": "uint256",
          "name": "amountDistributed",
          "type": "uint256"
        },
        {
          "indexed": false,
          "internalType": "uint32",
          "name": "index",
          "type": "uint32"
        },
        {
          "indexed": false,
          "internalType": "address",
          "name": "publisher",
          "type": "address"
        },
        {
          "indexed": false,
          "internalType": "uint256",
          "name": "timeStamp",
          "type": "uint256"
        },
        {
          "indexed": false,
          "internalType": "string",
          "name": "token",
          "type": "string"
        },
        {
          "indexed": false,
          "internalType": "address",
          "name": "owner",
          "type": "address"
        }
      ],
      "name": "Distribution",
      "type": "event"
    },
    {
      "anonymous": false,
      "inputs": [
        {
          "indexed": false,
          "internalType": "address",
          "name": "from",
          "type": "address"
        },
        {
          "indexed": false,
          "internalType": "string",
          "name": "token",
          "type": "string"
        },
        {
          "indexed": false,
          "internalType": "uint256",
          "name": "amount",
          "type": "uint256"
        },
        {
          "indexed": false,
          "internalType": "uint32",
          "name": "index",
          "type": "uint32"
        },
        {
          "indexed": false,
          "internalType": "address",
          "name": "publisher",
          "type": "address"
        },
        {
          "indexed": false,
          "internalType": "uint256",
          "name": "timeStamp",
          "type": "uint256"
        },
        {
          "indexed": false,
          "internalType": "address",
          "name": "owner",
          "type": "address"
        }
      ],
      "name": "DonationReceived",
      "type": "event"
    },
    {
      "anonymous": false,
      "inputs": [
        {
          "indexed": false,
          "internalType": "address",
          "name": "_address",
          "type": "address"
        },
        {
          "indexed": false,
          "internalType": "address",
          "name": "owner",
          "type": "address"
        },
        {
          "indexed": false,
          "internalType": "uint256",
          "name": "timeStamp",
          "type": "uint256"
        },
        {
          "indexed": false,
          "internalType": "string",
          "name": "name",
          "type": "string"
        }
      ],
      "name": "ModifyContractName",
      "type": "event"
    },
    {
      "anonymous": false,
      "inputs": [
        {
          "indexed": false,
          "internalType": "address",
          "name": "userAddress",
          "type": "address"
        },
        {
          "indexed": false,
          "internalType": "uint32",
          "name": "index",
          "type": "uint32"
        },
        {
          "indexed": false,
          "internalType": "address",
          "name": "publisher",
          "type": "address"
        },
        {
          "indexed": false,
          "internalType": "uint256",
          "name": "timeStamp",
          "type": "uint256"
        },
        {
          "indexed": false,
          "internalType": "address",
          "name": "owner",
          "type": "address"
        },
        {
          "indexed": false,
          "internalType": "string",
          "name": "_name",
          "type": "string"
        }
      ],
      "name": "ReceiverNameModified",
      "type": "event"
    },
    {
      "anonymous": false,
      "inputs": [
        {
          "indexed": false,
          "internalType": "uint128",
          "name": "totalShares",
          "type": "uint128"
        },
        {
          "indexed": false,
          "internalType": "uint32",
          "name": "index",
          "type": "uint32"
        },
        {
          "indexed": false,
          "internalType": "address",
          "name": "publisher",
          "type": "address"
        },
        {
          "indexed": false,
          "internalType": "uint256",
          "name": "timeStamp",
          "type": "uint256"
        },
        {
          "indexed": false,
          "internalType": "address",
          "name": "owner",
          "type": "address"
        }
      ],
      "name": "TotalShares",
      "type": "event"
    },
    {
      "anonymous": false,
      "inputs": [
        {
          "indexed": false,
          "internalType": "address",
          "name": "userAddress",
          "type": "address"
        },
        {
          "indexed": false,
          "internalType": "uint128",
          "name": "shares",
          "type": "uint128"
        },
        {
          "indexed": false,
          "internalType": "uint32",
          "name": "index",
          "type": "uint32"
        },
        {
          "indexed": false,
          "internalType": "address",
          "name": "publisher",
          "type": "address"
        },
        {
          "indexed": false,
          "internalType": "uint256",
          "name": "timeStamp",
          "type": "uint256"
        },
        {
          "indexed": false,
          "internalType": "uint128",
          "name": "totalShares",
          "type": "uint128"
        },
        {
          "indexed": false,
          "internalType": "address",
          "name": "owner",
          "type": "address"
        },
        {
          "indexed": false,
          "internalType": "string",
          "name": "_name",
          "type": "string"
        }
      ],
      "name": "UserAdded",
      "type": "event"
    },
    {
      "anonymous": false,
      "inputs": [
        {
          "indexed": false,
          "internalType": "address",
          "name": "userAddress",
          "type": "address"
        },
        {
          "indexed": false,
          "internalType": "uint128",
          "name": "shares",
          "type": "uint128"
        },
        {
          "indexed": false,
          "internalType": "uint32",
          "name": "index",
          "type": "uint32"
        },
        {
          "indexed": false,
          "internalType": "address",
          "name": "publisher",
          "type": "address"
        },
        {
          "indexed": false,
          "internalType": "uint256",
          "name": "timeStamp",
          "type": "uint256"
        },
        {
          "indexed": false,
          "internalType": "uint128",
          "name": "totalShares",
          "type": "uint128"
        },
        {
          "indexed": false,
          "internalType": "address",
          "name": "owner",
          "type": "address"
        }
      ],
      "name": "UserModified",
      "type": "event"
    },
    {
      "anonymous": false,
      "inputs": [
        {
          "indexed": false,
          "internalType": "address",
          "name": "userAddress",
          "type": "address"
        },
        {
          "indexed": false,
          "internalType": "uint128",
          "name": "shares",
          "type": "uint128"
        },
        {
          "indexed": false,
          "internalType": "uint32",
          "name": "index",
          "type": "uint32"
        },
        {
          "indexed": false,
          "internalType": "address",
          "name": "publisher",
          "type": "address"
        },
        {
          "indexed": false,
          "internalType": "uint256",
          "name": "timeStamp",
          "type": "uint256"
        },
        {
          "indexed": false,
          "internalType": "uint128",
          "name": "totalShares",
          "type": "uint128"
        },
        {
          "indexed": false,
          "internalType": "address",
          "name": "owner",
          "type": "address"
        }
      ],
      "name": "UserRemoved",
      "type": "event"
    },
    {
      "inputs": [
        {
          "internalType": "address",
          "name": "from",
          "type": "address"
        },
        {
          "internalType": "string",
          "name": "token",
          "type": "string"
        },
        {
          "internalType": "uint256",
          "name": "amount",
          "type": "uint256"
        },
        {
          "internalType": "uint32",
          "name": "index",
          "type": "uint32"
        },
        {
          "internalType": "address",
          "name": "publisher",
          "type": "address"
        },
        {
          "internalType": "uint256",
          "name": "timeStamp",
          "type": "uint256"
        },
        {
          "internalType": "address",
          "name": "owner",
          "type": "address"
        }
      ],
      "name": "DonationReceived2",
      "outputs": [],
      "stateMutability": "nonpayable",
      "type": "function"
    },
    {
      "inputs": [
        {
          "internalType": "address",
          "name": "userAddress",
          "type": "address"
        },
        {
          "internalType": "uint128",
          "name": "shares",
          "type": "uint128"
        },
        {
          "internalType": "uint32",
          "name": "index",
          "type": "uint32"
        },
        {
          "internalType": "address",
          "name": "publisher",
          "type": "address"
        },
        {
          "internalType": "uint256",
          "name": "timeStamp",
          "type": "uint256"
        },
        {
          "internalType": "uint128",
          "name": "totalShares",
          "type": "uint128"
        },
        {
          "internalType": "address",
          "name": "owner",
          "type": "address"
        },
        {
          "internalType": "string",
          "name": "_name",
          "type": "string"
        }
      ],
      "name": "UserAdded2",
      "outputs": [],
      "stateMutability": "nonpayable",
      "type": "function"
    },
    {
      "inputs": [
        {
          "internalType": "address",
          "name": "userAddress",
          "type": "address"
        },
        {
          "internalType": "uint128",
          "name": "shares",
          "type": "uint128"
        },
        {
          "internalType": "uint32",
          "name": "index",
          "type": "uint32"
        },
        {
          "internalType": "address",
          "name": "publisher",
          "type": "address"
        },
        {
          "internalType": "uint256",
          "name": "timeStamp",
          "type": "uint256"
        },
        {
          "internalType": "uint128",
          "name": "totalShares",
          "type": "uint128"
        },
        {
          "internalType": "address",
          "name": "owner",
          "type": "address"
        }
      ],
      "name": "UserRemoved2",
      "outputs": [],
      "stateMutability": "nonpayable",
      "type": "function"
    },
    {
      "inputs": [
        {
          "internalType": "address",
          "name": "userAddress",
          "type": "address"
        },
        {
          "internalType": "uint128",
          "name": "shares",
          "type": "uint128"
        },
        {
          "internalType": "uint32",
          "name": "index",
          "type": "uint32"
        },
        {
          "internalType": "address",
          "name": "publisher",
          "type": "address"
        },
        {
          "internalType": "uint256",
          "name": "timeStamp",
          "type": "uint256"
        },
        {
          "internalType": "uint128",
          "name": "totalShares",
          "type": "uint128"
        },
        {
          "internalType": "address",
          "name": "owner",
          "type": "address"
        }
      ],
      "name": "UserModified2",
      "outputs": [],
      "stateMutability": "nonpayable",
      "type": "function"
    },
    {
      "inputs": [
        {
          "internalType": "uint256",
          "name": "amountDistributed",
          "type": "uint256"
        },
        {
          "internalType": "uint32",
          "name": "index",
          "type": "uint32"
        },
        {
          "internalType": "address",
          "name": "publisher",
          "type": "address"
        },
        {
          "internalType": "uint256",
          "name": "timeStamp",
          "type": "uint256"
        },
        {
          "internalType": "string",
          "name": "token",
          "type": "string"
        },
        {
          "internalType": "address",
          "name": "owner",
          "type": "address"
        }
      ],
      "name": "Distribution2",
      "outputs": [],
      "stateMutability": "nonpayable",
      "type": "function"
    },
    {
      "inputs": [
        {
          "internalType": "uint128",
          "name": "totalShares",
          "type": "uint128"
        },
        {
          "internalType": "uint32",
          "name": "index",
          "type": "uint32"
        },
        {
          "internalType": "address",
          "name": "publisher",
          "type": "address"
        },
        {
          "internalType": "uint256",
          "name": "timeStamp",
          "type": "uint256"
        },
        {
          "internalType": "address",
          "name": "owner",
          "type": "address"
        }
      ],
      "name": "TotalShares2",
      "outputs": [],
      "stateMutability": "nonpayable",
      "type": "function"
    },
    {
      "inputs": [
        {
          "internalType": "address",
          "name": "_address",
          "type": "address"
        },
        {
          "internalType": "address",
          "name": "owner",
          "type": "address"
        },
        {
          "internalType": "uint256",
          "name": "timeStamp",
          "type": "uint256"
        },
        {
          "internalType": "string",
          "name": "_name",
          "type": "string"
        }
      ],
      "name": "AddressCreated2",
      "outputs": [],
      "stateMutability": "nonpayable",
      "type": "function"
    },
    {
      "inputs": [
        {
          "internalType": "address",
          "name": "_address",
          "type": "address"
        },
        {
          "internalType": "address",
          "name": "owner",
          "type": "address"
        },
        {
          "internalType": "uint256",
          "name": "timeStamp",
          "type": "uint256"
        },
        {
          "internalType": "string",
          "name": "_name",
          "type": "string"
        }
      ],
      "name": "ModifyContractName2",
      "outputs": [],
      "stateMutability": "nonpayable",
      "type": "function"
    },
    {
      "inputs": [
        {
          "internalType": "address",
          "name": "userAddress",
          "type": "address"
        },
        {
          "internalType": "uint32",
          "name": "index",
          "type": "uint32"
        },
        {
          "internalType": "address",
          "name": "publisher",
          "type": "address"
        },
        {
          "internalType": "uint256",
          "name": "timeStamp",
          "type": "uint256"
        },
        {
          "internalType": "address",
          "name": "owner",
          "type": "address"
        },
        {
          "internalType": "string",
          "name": "_name",
          "type": "string"
        }
      ],
      "name": "ReceiverNameModified2",
      "outputs": [],
      "stateMutability": "nonpayable",
      "type": "function"
    }
  ],
  "bytecode": "0x608060405234801561001057600080fd5b50610e7a806100206000396000f3fe608060405234801561001057600080fd5b50600436106100935760003560e01c80637ad2e252116100665780637ad2e252146101085780638f84993a14610124578063b829d0ed14610140578063bd9b21361461015c578063be84a0411461017857610093565b8063458373701461009857806359654a04146100b45780635d001ebb146100d0578063790b291b146100ec575b600080fd5b6100b260048036038101906100ad91906104e1565b610194565b005b6100ce60048036038101906100c9919061077a565b6101d7565b005b6100ea60048036038101906100e59190610892565b610220565b005b6101066004803603810190610101919061081b565b610269565b005b610122600480360381019061011d91906104e1565b6102af565b005b61013e60048036038101906101399190610612565b6102f2565b005b61015a600480360381019061015591906106b0565b61033e565b005b61017660048036038101906101719190610612565b61038d565b005b610192600480360381019061018d919061055c565b6103d9565b005b7fbaf31367574f966ba4af1db67695f11fabc293e2be87b29ce7afaef7362020ea848484846040516101c994939291906109a8565b60405180910390a150505050565b7f346ec6859762f0b1b6e202f4e1ddec86462b2a65793d2446746f49b60578e1e886868686868660405161021096959493929190610b5e565b60405180910390a1505050505050565b7fd479732cf9a35aada109ef952e57e4ea5854af82ddc99f134a6ba1956d9c65fe86868686868660405161025996959493929190610c19565b60405180910390a1505050505050565b7f670789323a2169a50e2f69aaee35e2278f7359602265dcebca53054abb2df72985858585856040516102a0959493929190610bc6565b60405180910390a15050505050565b7f6dddbf1efcde516afe34af661c4e63af15fe62c5e111761ad808cbcd7a85d6c5848484846040516102e494939291906109a8565b60405180910390a150505050565b7f668faa7d3e50fcacf68abd6b1998be4272d05a5f800e89f231a9157eb2a2f28c8787878787878760405161032d9796959493929190610a6a565b60405180910390a150505050505050565b7f8222b1cf0c57c74dd1e82ebcf44417662d58e10acd4409de22e198636768a92a888888888888888860405161037b989796959493929190610ad9565b60405180910390a15050505050505050565b7f625e0fcc12d4d3a32921f6c0ce1f503bcfb9a1d5f9b3a78bf9c8808dcc424970878787878787876040516103c89796959493929190610a6a565b60405180910390a150505050505050565b7f73322124396a58d13d0924942827283a89e65cdf4db829a1edbe1f13675d9ca48787878787878760405161041497969594939291906109f4565b60405180910390a150505050505050565b600061043861043384610cb2565b610c81565b90508281526020810184848401111561045057600080fd5b61045b848285610d66565b509392505050565b60008135905061047281610de8565b92915050565b600082601f83011261048957600080fd5b8135610499848260208601610425565b91505092915050565b6000813590506104b181610dff565b92915050565b6000813590506104c681610e16565b92915050565b6000813590506104db81610e2d565b92915050565b600080600080608085870312156104f757600080fd5b600061050587828801610463565b945050602061051687828801610463565b9350506040610527878288016104b7565b925050606085013567ffffffffffffffff81111561054457600080fd5b61055087828801610478565b91505092959194509250565b600080600080600080600060e0888a03121561057757600080fd5b60006105858a828b01610463565b975050602088013567ffffffffffffffff8111156105a257600080fd5b6105ae8a828b01610478565b96505060406105bf8a828b016104b7565b95505060606105d08a828b016104cc565b94505060806105e18a828b01610463565b93505060a06105f28a828b016104b7565b92505060c06106038a828b01610463565b91505092959891949750929550565b600080600080600080600060e0888a03121561062d57600080fd5b600061063b8a828b01610463565b975050602061064c8a828b016104a2565b965050604061065d8a828b016104cc565b955050606061066e8a828b01610463565b945050608061067f8a828b016104b7565b93505060a06106908a828b016104a2565b92505060c06106a18a828b01610463565b91505092959891949750929550565b600080600080600080600080610100898b0312156106cd57600080fd5b60006106db8b828c01610463565b98505060206106ec8b828c016104a2565b97505060406106fd8b828c016104cc565b965050606061070e8b828c01610463565b955050608061071f8b828c016104b7565b94505060a06107308b828c016104a2565b93505060c06107418b828c01610463565b92505060e089013567ffffffffffffffff81111561075e57600080fd5b61076a8b828c01610478565b9150509295985092959890939650565b60008060008060008060c0878903121561079357600080fd5b60006107a189828a01610463565b96505060206107b289828a016104cc565b95505060406107c389828a01610463565b94505060606107d489828a016104b7565b93505060806107e589828a01610463565b92505060a087013567ffffffffffffffff81111561080257600080fd5b61080e89828a01610478565b9150509295509295509295565b600080600080600060a0868803121561083357600080fd5b6000610841888289016104a2565b9550506020610852888289016104cc565b945050604061086388828901610463565b9350506060610874888289016104b7565b925050608061088588828901610463565b9150509295509295909350565b60008060008060008060c087890312156108ab57600080fd5b60006108b989828a016104b7565b96505060206108ca89828a016104cc565b95505060406108db89828a01610463565b94505060606108ec89828a016104b7565b935050608087013567ffffffffffffffff81111561090957600080fd5b61091589828a01610478565b92505060a061092689828a01610463565b9150509295509295509295565b61093c81610cfe565b82525050565b600061094d82610ce2565b6109578185610ced565b9350610967818560208601610d75565b61097081610dd7565b840191505092915050565b61098481610d10565b82525050565b61099381610d4c565b82525050565b6109a281610d56565b82525050565b60006080820190506109bd6000830187610933565b6109ca6020830186610933565b6109d7604083018561098a565b81810360608301526109e98184610942565b905095945050505050565b600060e082019050610a09600083018a610933565b8181036020830152610a1b8189610942565b9050610a2a604083018861098a565b610a376060830187610999565b610a446080830186610933565b610a5160a083018561098a565b610a5e60c0830184610933565b98975050505050505050565b600060e082019050610a7f600083018a610933565b610a8c602083018961097b565b610a996040830188610999565b610aa66060830187610933565b610ab3608083018661098a565b610ac060a083018561097b565b610acd60c0830184610933565b98975050505050505050565b600061010082019050610aef600083018b610933565b610afc602083018a61097b565b610b096040830189610999565b610b166060830188610933565b610b23608083018761098a565b610b3060a083018661097b565b610b3d60c0830185610933565b81810360e0830152610b4f8184610942565b90509998505050505050505050565b600060c082019050610b736000830189610933565b610b806020830188610999565b610b8d6040830187610933565b610b9a606083018661098a565b610ba76080830185610933565b81810360a0830152610bb98184610942565b9050979650505050505050565b600060a082019050610bdb600083018861097b565b610be86020830187610999565b610bf56040830186610933565b610c02606083018561098a565b610c0f6080830184610933565b9695505050505050565b600060c082019050610c2e600083018961098a565b610c3b6020830188610999565b610c486040830187610933565b610c55606083018661098a565b8181036080830152610c678185610942565b9050610c7660a0830184610933565b979650505050505050565b6000604051905081810181811067ffffffffffffffff82111715610ca857610ca7610da8565b5b8060405250919050565b600067ffffffffffffffff821115610ccd57610ccc610da8565b5b601f19601f8301169050602081019050919050565b600081519050919050565b600082825260208201905092915050565b6000610d0982610d2c565b9050919050565b60006fffffffffffffffffffffffffffffffff82169050919050565b600073ffffffffffffffffffffffffffffffffffffffff82169050919050565b6000819050919050565b600063ffffffff82169050919050565b82818337600083830152505050565b60005b83811015610d93578082015181840152602081019050610d78565b83811115610da2576000848401525b50505050565b7f4e487b7100000000000000000000000000000000000000000000000000000000600052604160045260246000fd5b6000601f19601f8301169050919050565b610df181610cfe565b8114610dfc57600080fd5b50565b610e0881610d10565b8114610e1357600080fd5b50565b610e1f81610d4c565b8114610e2a57600080fd5b50565b610e3681610d56565b8114610e4157600080fd5b5056fea264697066735822122072026528619418b7c95a66b492963db054e3763f8943a9eb63151c2f2d5aac3c64736f6c63430008000033",
  "immutableReferences": {},
  "source": "// SPDX-License-Identifier: UNLICENSED\npragma solidity ^0.8.0;\n// note We need to think of how to prevent anybody from using the emitter. This could result in false entries coming up in the dashboard\ncontract Emitter{\n    event DonationReceived(address from, string token, uint256 amount,uint32 index,address publisher,uint timeStamp,address owner);\n    event UserAdded(address userAddress,uint128 shares,uint32 index,address publisher,uint timeStamp,uint128 totalShares,address owner,string _name);\n    event UserRemoved(address userAddress,uint128 shares,uint32 index,address publisher,uint timeStamp,uint128 totalShares,address owner);\n    event UserModified(address userAddress,uint128 shares,uint32 index,address publisher,uint timeStamp,uint128 totalShares,address owner);\n    event Distribution(uint256 amountDistributed,uint32 index,address publisher,uint timeStamp,string token,address owner);\n    event TotalShares(uint128 totalShares,uint32 index,address publisher,uint timeStamp,address owner);\n    event AddressCreated(address _address,address owner,uint timeStamp,string name);\n    event ModifyContractName(address _address,address owner,uint timeStamp,string name);\n    event ReceiverNameModified(address userAddress,uint32 index,address publisher,uint timeStamp,address owner,string _name);\n\n    function DonationReceived2(address from, string memory token, uint256 amount,uint32 index,address publisher,uint timeStamp,address owner) external {\n        emit DonationReceived(from, token, amount,index,publisher,timeStamp, owner);\n    }\n    function UserAdded2(address userAddress,uint128 shares,uint32 index,address publisher,uint timeStamp,uint128 totalShares,address owner,string memory _name) external {\n        emit UserAdded(userAddress,shares,index,publisher,timeStamp,totalShares,owner,_name);\n    }\n    function UserRemoved2(address userAddress,uint128 shares,uint32 index,address publisher,uint timeStamp,uint128 totalShares,address owner) external {\n        emit UserRemoved(userAddress,shares,index,publisher,timeStamp,totalShares, owner);\n    }\n    function UserModified2(address userAddress,uint128 shares,uint32 index,address publisher,uint timeStamp,uint128 totalShares,address owner) external {\n        emit UserModified(userAddress,shares,index,publisher,timeStamp,totalShares, owner);\n    }\n    function Distribution2(uint256 amountDistributed,uint32 index,address publisher,uint timeStamp,string memory token,address owner) external {\n        emit Distribution(amountDistributed,index,publisher,timeStamp,token, owner);\n    }\n    function TotalShares2(uint128 totalShares,uint32 index,address publisher,uint timeStamp,address owner) external {\n        emit TotalShares(totalShares,index,publisher,timeStamp, owner);\n    }\n\n    function AddressCreated2(address _address,address owner,uint timeStamp,string memory _name) external{\n        emit AddressCreated(_address, owner,timeStamp,_name);\n    }\n    \n    function ModifyContractName2(address _address,address owner,uint timeStamp,string memory _name) external{\n        emit ModifyContractName(_address, owner,timeStamp,_name);\n    }\n\n    function ReceiverNameModified2(address userAddress,uint32 index,address publisher,uint timeStamp,address owner,string memory _name) external{\n        emit ReceiverNameModified(userAddress, index, publisher, timeStamp, owner,_name);\n    }\n}",
  "sourcePath": "/Users/praffulsahu/Documents/Crypto/erc777distributor/contracts/Emitter.sol",
  "compiler": {
    "name": "solc",
    "version": "0.8.0+commit.c7dfd78e.Emscripten.clang"
  },
  "schemaVersion": "3.3.3",
  "updatedAt": "2021-06-28T15:21:27.460Z",
  "networkType": "ethereum",
  "devdoc": {
    "kind": "dev",
    "methods": {},
    "version": 1
  },
  "userdoc": {
    "kind": "user",
    "methods": {},
    "version": 1
  }
}