{
  "contractName": "Emitter",
  "abi": [
    {
      "anonymous": false,
      "inputs": [
        {
          "indexed": false,
          "internalType": "address",
          "name": "_address",
          "type": "address"
        },
        {
          "indexed": false,
          "internalType": "address",
          "name": "owner",
          "type": "address"
        },
        {
          "indexed": false,
          "internalType": "uint256",
          "name": "timeStamp",
          "type": "uint256"
        }
      ],
      "name": "AddressCreated",
      "type": "event"
    },
    {
      "anonymous": false,
      "inputs": [
        {
          "indexed": false,
          "internalType": "uint256",
          "name": "amountDistributed",
          "type": "uint256"
        },
        {
          "indexed": false,
          "internalType": "uint32",
          "name": "index",
          "type": "uint32"
        },
        {
          "indexed": false,
          "internalType": "address",
          "name": "publisher",
          "type": "address"
        },
        {
          "indexed": false,
          "internalType": "uint256",
          "name": "timeStamp",
          "type": "uint256"
        },
        {
          "indexed": false,
          "internalType": "string",
          "name": "token",
          "type": "string"
        },
        {
          "indexed": false,
          "internalType": "address",
          "name": "owner",
          "type": "address"
        }
      ],
      "name": "Distribution",
      "type": "event"
    },
    {
      "anonymous": false,
      "inputs": [
        {
          "indexed": false,
          "internalType": "address",
          "name": "from",
          "type": "address"
        },
        {
          "indexed": false,
          "internalType": "string",
          "name": "token",
          "type": "string"
        },
        {
          "indexed": false,
          "internalType": "uint256",
          "name": "amount",
          "type": "uint256"
        },
        {
          "indexed": false,
          "internalType": "uint32",
          "name": "index",
          "type": "uint32"
        },
        {
          "indexed": false,
          "internalType": "address",
          "name": "publisher",
          "type": "address"
        },
        {
          "indexed": false,
          "internalType": "uint256",
          "name": "timeStamp",
          "type": "uint256"
        },
        {
          "indexed": false,
          "internalType": "address",
          "name": "owner",
          "type": "address"
        }
      ],
      "name": "DonationReceived",
      "type": "event"
    },
    {
      "anonymous": false,
      "inputs": [
        {
          "indexed": false,
          "internalType": "uint128",
          "name": "totalShares",
          "type": "uint128"
        },
        {
          "indexed": false,
          "internalType": "uint32",
          "name": "index",
          "type": "uint32"
        },
        {
          "indexed": false,
          "internalType": "address",
          "name": "publisher",
          "type": "address"
        },
        {
          "indexed": false,
          "internalType": "uint256",
          "name": "timeStamp",
          "type": "uint256"
        },
        {
          "indexed": false,
          "internalType": "address",
          "name": "owner",
          "type": "address"
        }
      ],
      "name": "TotalShares",
      "type": "event"
    },
    {
      "anonymous": false,
      "inputs": [
        {
          "indexed": false,
          "internalType": "address",
          "name": "userAddress",
          "type": "address"
        },
        {
          "indexed": false,
          "internalType": "uint128",
          "name": "shares",
          "type": "uint128"
        },
        {
          "indexed": false,
          "internalType": "uint32",
          "name": "index",
          "type": "uint32"
        },
        {
          "indexed": false,
          "internalType": "address",
          "name": "publisher",
          "type": "address"
        },
        {
          "indexed": false,
          "internalType": "uint256",
          "name": "timeStamp",
          "type": "uint256"
        },
        {
          "indexed": false,
          "internalType": "uint128",
          "name": "totalShares",
          "type": "uint128"
        },
        {
          "indexed": false,
          "internalType": "address",
          "name": "owner",
          "type": "address"
        }
      ],
      "name": "UserAdded",
      "type": "event"
    },
    {
      "anonymous": false,
      "inputs": [
        {
          "indexed": false,
          "internalType": "address",
          "name": "userAddress",
          "type": "address"
        },
        {
          "indexed": false,
          "internalType": "uint128",
          "name": "shares",
          "type": "uint128"
        },
        {
          "indexed": false,
          "internalType": "uint32",
          "name": "index",
          "type": "uint32"
        },
        {
          "indexed": false,
          "internalType": "address",
          "name": "publisher",
          "type": "address"
        },
        {
          "indexed": false,
          "internalType": "uint256",
          "name": "timeStamp",
          "type": "uint256"
        },
        {
          "indexed": false,
          "internalType": "uint128",
          "name": "totalShares",
          "type": "uint128"
        },
        {
          "indexed": false,
          "internalType": "address",
          "name": "owner",
          "type": "address"
        }
      ],
      "name": "UserModified",
      "type": "event"
    },
    {
      "anonymous": false,
      "inputs": [
        {
          "indexed": false,
          "internalType": "address",
          "name": "userAddress",
          "type": "address"
        },
        {
          "indexed": false,
          "internalType": "uint128",
          "name": "shares",
          "type": "uint128"
        },
        {
          "indexed": false,
          "internalType": "uint32",
          "name": "index",
          "type": "uint32"
        },
        {
          "indexed": false,
          "internalType": "address",
          "name": "publisher",
          "type": "address"
        },
        {
          "indexed": false,
          "internalType": "uint256",
          "name": "timeStamp",
          "type": "uint256"
        },
        {
          "indexed": false,
          "internalType": "uint128",
          "name": "totalShares",
          "type": "uint128"
        },
        {
          "indexed": false,
          "internalType": "address",
          "name": "owner",
          "type": "address"
        }
      ],
      "name": "UserRemoved",
      "type": "event"
    },
    {
      "inputs": [
        {
          "internalType": "address",
          "name": "from",
          "type": "address"
        },
        {
          "internalType": "string",
          "name": "token",
          "type": "string"
        },
        {
          "internalType": "uint256",
          "name": "amount",
          "type": "uint256"
        },
        {
          "internalType": "uint32",
          "name": "index",
          "type": "uint32"
        },
        {
          "internalType": "address",
          "name": "publisher",
          "type": "address"
        },
        {
          "internalType": "uint256",
          "name": "timeStamp",
          "type": "uint256"
        },
        {
          "internalType": "address",
          "name": "owner",
          "type": "address"
        }
      ],
      "name": "DonationReceived2",
      "outputs": [],
      "stateMutability": "nonpayable",
      "type": "function"
    },
    {
      "inputs": [
        {
          "internalType": "address",
          "name": "userAddress",
          "type": "address"
        },
        {
          "internalType": "uint128",
          "name": "shares",
          "type": "uint128"
        },
        {
          "internalType": "uint32",
          "name": "index",
          "type": "uint32"
        },
        {
          "internalType": "address",
          "name": "publisher",
          "type": "address"
        },
        {
          "internalType": "uint256",
          "name": "timeStamp",
          "type": "uint256"
        },
        {
          "internalType": "uint128",
          "name": "totalShares",
          "type": "uint128"
        },
        {
          "internalType": "address",
          "name": "owner",
          "type": "address"
        }
      ],
      "name": "UserAdded2",
      "outputs": [],
      "stateMutability": "nonpayable",
      "type": "function"
    },
    {
      "inputs": [
        {
          "internalType": "address",
          "name": "userAddress",
          "type": "address"
        },
        {
          "internalType": "uint128",
          "name": "shares",
          "type": "uint128"
        },
        {
          "internalType": "uint32",
          "name": "index",
          "type": "uint32"
        },
        {
          "internalType": "address",
          "name": "publisher",
          "type": "address"
        },
        {
          "internalType": "uint256",
          "name": "timeStamp",
          "type": "uint256"
        },
        {
          "internalType": "uint128",
          "name": "totalShares",
          "type": "uint128"
        },
        {
          "internalType": "address",
          "name": "owner",
          "type": "address"
        }
      ],
      "name": "UserRemoved2",
      "outputs": [],
      "stateMutability": "nonpayable",
      "type": "function"
    },
    {
      "inputs": [
        {
          "internalType": "address",
          "name": "userAddress",
          "type": "address"
        },
        {
          "internalType": "uint128",
          "name": "shares",
          "type": "uint128"
        },
        {
          "internalType": "uint32",
          "name": "index",
          "type": "uint32"
        },
        {
          "internalType": "address",
          "name": "publisher",
          "type": "address"
        },
        {
          "internalType": "uint256",
          "name": "timeStamp",
          "type": "uint256"
        },
        {
          "internalType": "uint128",
          "name": "totalShares",
          "type": "uint128"
        },
        {
          "internalType": "address",
          "name": "owner",
          "type": "address"
        }
      ],
      "name": "UserModified2",
      "outputs": [],
      "stateMutability": "nonpayable",
      "type": "function"
    },
    {
      "inputs": [
        {
          "internalType": "uint256",
          "name": "amountDistributed",
          "type": "uint256"
        },
        {
          "internalType": "uint32",
          "name": "index",
          "type": "uint32"
        },
        {
          "internalType": "address",
          "name": "publisher",
          "type": "address"
        },
        {
          "internalType": "uint256",
          "name": "timeStamp",
          "type": "uint256"
        },
        {
          "internalType": "string",
          "name": "token",
          "type": "string"
        },
        {
          "internalType": "address",
          "name": "owner",
          "type": "address"
        }
      ],
      "name": "Distribution2",
      "outputs": [],
      "stateMutability": "nonpayable",
      "type": "function"
    },
    {
      "inputs": [
        {
          "internalType": "uint128",
          "name": "totalShares",
          "type": "uint128"
        },
        {
          "internalType": "uint32",
          "name": "index",
          "type": "uint32"
        },
        {
          "internalType": "address",
          "name": "publisher",
          "type": "address"
        },
        {
          "internalType": "uint256",
          "name": "timeStamp",
          "type": "uint256"
        },
        {
          "internalType": "address",
          "name": "owner",
          "type": "address"
        }
      ],
      "name": "TotalShares2",
      "outputs": [],
      "stateMutability": "nonpayable",
      "type": "function"
    },
    {
      "inputs": [
        {
          "internalType": "address",
          "name": "_address",
          "type": "address"
        },
        {
          "internalType": "address",
          "name": "owner",
          "type": "address"
        },
        {
          "internalType": "uint256",
          "name": "timeStamp",
          "type": "uint256"
        }
      ],
      "name": "AddressCreated2",
      "outputs": [],
      "stateMutability": "nonpayable",
      "type": "function"
    }
  ],
  "bytecode": "0x608060405234801561001057600080fd5b50610b01806100206000396000f3fe608060405234801561001057600080fd5b506004361061007d5760003560e01c80638f84993a1161005b5780638f84993a146100d6578063bd9b2136146100f2578063be84a0411461010e578063e8ae7d451461012a5761007d565b8063496cb3bc146100825780635d001ebb1461009e578063790b291b146100ba575b600080fd5b61009c60048036038101906100979190610506565b610146565b005b6100b860048036038101906100b3919061061b565b610192565b005b6100d460048036038101906100cf91906105a4565b6101db565b005b6100f060048036038101906100eb9190610506565b610221565b005b61010c60048036038101906101079190610506565b61026d565b005b61012860048036038101906101239190610450565b6102b9565b005b610144600480360381019061013f9190610401565b610305565b005b7f2fa38a7b1eb7f2659ffc1d2ce48d176fa3116ad4eb63c39f5886961b5b037baf8787878787878760405161018197969594939291906107de565b60405180910390a150505050505050565b7fd479732cf9a35aada109ef952e57e4ea5854af82ddc99f134a6ba1956d9c65fe8686868686866040516101cb969594939291906108a0565b60405180910390a1505050505050565b7f670789323a2169a50e2f69aaee35e2278f7359602265dcebca53054abb2df729858585858560405161021295949392919061084d565b60405180910390a15050505050565b7f668faa7d3e50fcacf68abd6b1998be4272d05a5f800e89f231a9157eb2a2f28c8787878787878760405161025c97969594939291906107de565b60405180910390a150505050505050565b7f625e0fcc12d4d3a32921f6c0ce1f503bcfb9a1d5f9b3a78bf9c8808dcc424970878787878787876040516102a897969594939291906107de565b60405180910390a150505050505050565b7f73322124396a58d13d0924942827283a89e65cdf4db829a1edbe1f13675d9ca4878787878787876040516102f49796959493929190610768565b60405180910390a150505050505050565b7f18abb5c974f3527a569391eed28f6c6171feec5b476647ec8567e45446967f6283838360405161033893929190610731565b60405180910390a1505050565b600061035861035384610939565b610908565b90508281526020810184848401111561037057600080fd5b61037b8482856109ed565b509392505050565b60008135905061039281610a6f565b92915050565b600082601f8301126103a957600080fd5b81356103b9848260208601610345565b91505092915050565b6000813590506103d181610a86565b92915050565b6000813590506103e681610a9d565b92915050565b6000813590506103fb81610ab4565b92915050565b60008060006060848603121561041657600080fd5b600061042486828701610383565b935050602061043586828701610383565b9250506040610446868287016103d7565b9150509250925092565b600080600080600080600060e0888a03121561046b57600080fd5b60006104798a828b01610383565b975050602088013567ffffffffffffffff81111561049657600080fd5b6104a28a828b01610398565b96505060406104b38a828b016103d7565b95505060606104c48a828b016103ec565b94505060806104d58a828b01610383565b93505060a06104e68a828b016103d7565b92505060c06104f78a828b01610383565b91505092959891949750929550565b600080600080600080600060e0888a03121561052157600080fd5b600061052f8a828b01610383565b97505060206105408a828b016103c2565b96505060406105518a828b016103ec565b95505060606105628a828b01610383565b94505060806105738a828b016103d7565b93505060a06105848a828b016103c2565b92505060c06105958a828b01610383565b91505092959891949750929550565b600080600080600060a086880312156105bc57600080fd5b60006105ca888289016103c2565b95505060206105db888289016103ec565b94505060406105ec88828901610383565b93505060606105fd888289016103d7565b925050608061060e88828901610383565b9150509295509295909350565b60008060008060008060c0878903121561063457600080fd5b600061064289828a016103d7565b965050602061065389828a016103ec565b955050604061066489828a01610383565b945050606061067589828a016103d7565b935050608087013567ffffffffffffffff81111561069257600080fd5b61069e89828a01610398565b92505060a06106af89828a01610383565b9150509295509295509295565b6106c581610985565b82525050565b60006106d682610969565b6106e08185610974565b93506106f08185602086016109fc565b6106f981610a5e565b840191505092915050565b61070d81610997565b82525050565b61071c816109d3565b82525050565b61072b816109dd565b82525050565b600060608201905061074660008301866106bc565b61075360208301856106bc565b6107606040830184610713565b949350505050565b600060e08201905061077d600083018a6106bc565b818103602083015261078f81896106cb565b905061079e6040830188610713565b6107ab6060830187610722565b6107b860808301866106bc565b6107c560a0830185610713565b6107d260c08301846106bc565b98975050505050505050565b600060e0820190506107f3600083018a6106bc565b6108006020830189610704565b61080d6040830188610722565b61081a60608301876106bc565b6108276080830186610713565b61083460a0830185610704565b61084160c08301846106bc565b98975050505050505050565b600060a0820190506108626000830188610704565b61086f6020830187610722565b61087c60408301866106bc565b6108896060830185610713565b61089660808301846106bc565b9695505050505050565b600060c0820190506108b56000830189610713565b6108c26020830188610722565b6108cf60408301876106bc565b6108dc6060830186610713565b81810360808301526108ee81856106cb565b90506108fd60a08301846106bc565b979650505050505050565b6000604051905081810181811067ffffffffffffffff8211171561092f5761092e610a2f565b5b8060405250919050565b600067ffffffffffffffff82111561095457610953610a2f565b5b601f19601f8301169050602081019050919050565b600081519050919050565b600082825260208201905092915050565b6000610990826109b3565b9050919050565b60006fffffffffffffffffffffffffffffffff82169050919050565b600073ffffffffffffffffffffffffffffffffffffffff82169050919050565b6000819050919050565b600063ffffffff82169050919050565b82818337600083830152505050565b60005b83811015610a1a5780820151818401526020810190506109ff565b83811115610a29576000848401525b50505050565b7f4e487b7100000000000000000000000000000000000000000000000000000000600052604160045260246000fd5b6000601f19601f8301169050919050565b610a7881610985565b8114610a8357600080fd5b50565b610a8f81610997565b8114610a9a57600080fd5b50565b610aa6816109d3565b8114610ab157600080fd5b50565b610abd816109dd565b8114610ac857600080fd5b5056fea2646970667358221220dd0939fe44185babc59c0ed3a54ce2fa8afbf5d61b7b2c30309140d0540943cb64736f6c63430008000033",
  "immutableReferences": {},
  "source": "// SPDX-License-Identifier: UNLICENSED\npragma solidity ^0.8.0;\n\ncontract Emitter{\n    event DonationReceived(address from, string token, uint256 amount,uint32 index,address publisher,uint timeStamp,address owner);\n    event UserAdded(address userAddress,uint128 shares,uint32 index,address publisher,uint timeStamp,uint128 totalShares,address owner);\n    event UserRemoved(address userAddress,uint128 shares,uint32 index,address publisher,uint timeStamp,uint128 totalShares,address owner);\n    event UserModified(address userAddress,uint128 shares,uint32 index,address publisher,uint timeStamp,uint128 totalShares,address owner);\n    event Distribution(uint256 amountDistributed,uint32 index,address publisher,uint timeStamp,string token,address owner);\n    event TotalShares(uint128 totalShares,uint32 index,address publisher,uint timeStamp,address owner);\n    event AddressCreated(address _address,address owner,uint timeStamp);\n    \n    function DonationReceived2(address from, string memory token, uint256 amount,uint32 index,address publisher,uint timeStamp,address owner) external {\n        emit DonationReceived(from, token, amount,index,publisher,timeStamp, owner);\n    }\n    function UserAdded2(address userAddress,uint128 shares,uint32 index,address publisher,uint timeStamp,uint128 totalShares,address owner) external {\n        emit UserAdded(userAddress,shares,index,publisher,timeStamp,totalShares,owner);\n    }\n    function UserRemoved2(address userAddress,uint128 shares,uint32 index,address publisher,uint timeStamp,uint128 totalShares,address owner) external {\n        emit UserRemoved(userAddress,shares,index,publisher,timeStamp,totalShares, owner);\n    }\n    function UserModified2(address userAddress,uint128 shares,uint32 index,address publisher,uint timeStamp,uint128 totalShares,address owner) external {\n        emit UserModified(userAddress,shares,index,publisher,timeStamp,totalShares, owner);\n    }\n    function Distribution2(uint256 amountDistributed,uint32 index,address publisher,uint timeStamp,string memory token,address owner) external {\n        emit Distribution(amountDistributed,index,publisher,timeStamp,token, owner);\n    }\n    function TotalShares2(uint128 totalShares,uint32 index,address publisher,uint timeStamp,address owner) external {\n        emit TotalShares(totalShares,index,publisher,timeStamp, owner);\n    }\n\n    function AddressCreated2(address _address,address owner,uint timeStamp) external{\n        emit AddressCreated(_address, owner,timeStamp);\n    }\n    \n}",
  "sourcePath": "/Users/praffulsahu/Documents/Crypto/erc777distributor/contracts/Emitter.sol",
  "compiler": {
    "name": "solc",
    "version": "0.8.0+commit.c7dfd78e.Emscripten.clang"
  },
  "schemaVersion": "3.3.3",
  "updatedAt": "2021-06-28T10:31:37.695Z",
  "networkType": "ethereum",
  "devdoc": {
    "kind": "dev",
    "methods": {},
    "version": 1
  },
  "userdoc": {
    "kind": "user",
    "methods": {},
    "version": 1
  }
}