{
  "contractName": "ERC777Distributor",
  "abi": [
    {
      "inputs": [
        {
          "internalType": "contract ISuperToken",
          "name": "cashToken",
          "type": "address"
        },
        {
          "internalType": "contract ISuperfluid",
          "name": "host",
          "type": "address"
        },
        {
          "internalType": "contract IInstantDistributionAgreementV1",
          "name": "ida",
          "type": "address"
        }
      ],
      "stateMutability": "nonpayable",
      "type": "constructor"
    },
    {
      "anonymous": false,
      "inputs": [
        {
          "indexed": false,
          "internalType": "address",
          "name": "from",
          "type": "address"
        },
        {
          "indexed": false,
          "internalType": "string",
          "name": "token",
          "type": "string"
        },
        {
          "indexed": false,
          "internalType": "uint256",
          "name": "amount",
          "type": "uint256"
        }
      ],
      "name": "DonationReceived",
      "type": "event"
    },
    {
      "inputs": [],
      "name": "INDEX_ID",
      "outputs": [
        {
          "internalType": "uint32",
          "name": "",
          "type": "uint32"
        }
      ],
      "stateMutability": "view",
      "type": "function"
    },
    {
      "inputs": [
        {
          "internalType": "contract ISuperToken",
          "name": "",
          "type": "address"
        },
        {
          "internalType": "address",
          "name": "",
          "type": "address"
        },
        {
          "internalType": "bytes32",
          "name": "",
          "type": "bytes32"
        },
        {
          "internalType": "bytes",
          "name": "",
          "type": "bytes"
        },
        {
          "internalType": "bytes",
          "name": "",
          "type": "bytes"
        },
        {
          "internalType": "bytes",
          "name": "",
          "type": "bytes"
        }
      ],
      "name": "afterAgreementTerminated",
      "outputs": [
        {
          "internalType": "bytes",
          "name": "",
          "type": "bytes"
        }
      ],
      "stateMutability": "nonpayable",
      "type": "function"
    },
    {
      "inputs": [
        {
          "internalType": "contract ISuperToken",
          "name": "",
          "type": "address"
        },
        {
          "internalType": "address",
          "name": "",
          "type": "address"
        },
        {
          "internalType": "bytes32",
          "name": "",
          "type": "bytes32"
        },
        {
          "internalType": "bytes",
          "name": "",
          "type": "bytes"
        },
        {
          "internalType": "bytes",
          "name": "",
          "type": "bytes"
        }
      ],
      "name": "beforeAgreementTerminated",
      "outputs": [
        {
          "internalType": "bytes",
          "name": "",
          "type": "bytes"
        }
      ],
      "stateMutability": "view",
      "type": "function"
    },
    {
      "inputs": [
        {
          "internalType": "address",
          "name": "",
          "type": "address"
        }
      ],
      "name": "isSubscribing",
      "outputs": [
        {
          "internalType": "bool",
          "name": "",
          "type": "bool"
        }
      ],
      "stateMutability": "view",
      "type": "function"
    },
    {
      "inputs": [
        {
          "internalType": "contract ISuperToken",
          "name": "superToken",
          "type": "address"
        },
        {
          "internalType": "address",
          "name": "agreementClass",
          "type": "address"
        },
        {
          "internalType": "bytes32",
          "name": "",
          "type": "bytes32"
        },
        {
          "internalType": "bytes",
          "name": "",
          "type": "bytes"
        },
        {
          "internalType": "bytes",
          "name": "",
          "type": "bytes"
        }
      ],
      "name": "beforeAgreementCreated",
      "outputs": [
        {
          "internalType": "bytes",
          "name": "data",
          "type": "bytes"
        }
      ],
      "stateMutability": "view",
      "type": "function"
    },
    {
      "inputs": [
        {
          "internalType": "contract ISuperToken",
          "name": "superToken",
          "type": "address"
        },
        {
          "internalType": "address",
          "name": "",
          "type": "address"
        },
        {
          "internalType": "bytes32",
          "name": "agreementId",
          "type": "bytes32"
        },
        {
          "internalType": "bytes",
          "name": "",
          "type": "bytes"
        },
        {
          "internalType": "bytes",
          "name": "",
          "type": "bytes"
        },
        {
          "internalType": "bytes",
          "name": "ctx",
          "type": "bytes"
        }
      ],
      "name": "afterAgreementCreated",
      "outputs": [
        {
          "internalType": "bytes",
          "name": "newCtx",
          "type": "bytes"
        }
      ],
      "stateMutability": "nonpayable",
      "type": "function"
    },
    {
      "inputs": [
        {
          "internalType": "contract ISuperToken",
          "name": "superToken",
          "type": "address"
        },
        {
          "internalType": "address",
          "name": "agreementClass",
          "type": "address"
        },
        {
          "internalType": "bytes32",
          "name": "",
          "type": "bytes32"
        },
        {
          "internalType": "bytes",
          "name": "",
          "type": "bytes"
        },
        {
          "internalType": "bytes",
          "name": "",
          "type": "bytes"
        }
      ],
      "name": "beforeAgreementUpdated",
      "outputs": [
        {
          "internalType": "bytes",
          "name": "data",
          "type": "bytes"
        }
      ],
      "stateMutability": "view",
      "type": "function"
    },
    {
      "inputs": [
        {
          "internalType": "contract ISuperToken",
          "name": "superToken",
          "type": "address"
        },
        {
          "internalType": "address",
          "name": "",
          "type": "address"
        },
        {
          "internalType": "bytes32",
          "name": "agreementId",
          "type": "bytes32"
        },
        {
          "internalType": "bytes",
          "name": "",
          "type": "bytes"
        },
        {
          "internalType": "bytes",
          "name": "",
          "type": "bytes"
        },
        {
          "internalType": "bytes",
          "name": "ctx",
          "type": "bytes"
        }
      ],
      "name": "afterAgreementUpdated",
      "outputs": [
        {
          "internalType": "bytes",
          "name": "newCtx",
          "type": "bytes"
        }
      ],
      "stateMutability": "nonpayable",
      "type": "function"
    },
    {
      "inputs": [
        {
          "internalType": "address",
          "name": "operator",
          "type": "address"
        },
        {
          "internalType": "address",
          "name": "from",
          "type": "address"
        },
        {
          "internalType": "address",
          "name": "to",
          "type": "address"
        },
        {
          "internalType": "uint256",
          "name": "amount",
          "type": "uint256"
        },
        {
          "internalType": "bytes",
          "name": "userData",
          "type": "bytes"
        },
        {
          "internalType": "bytes",
          "name": "operatorData",
          "type": "bytes"
        }
      ],
      "name": "tokensReceived",
      "outputs": [],
      "stateMutability": "nonpayable",
      "type": "function"
    }
  ],
  "bytecode": "0x6080604052731820a4b7618bde71dce8cdc73aab6c95905fad24600460006101000a81548173ffffffffffffffffffffffffffffffffffffffff021916908373ffffffffffffffffffffffffffffffffffffffff1602179055503480156200006657600080fd5b506040516200267b3803806200267b83398181016040528101906200008c919062000615565b600460009054906101000a900473ffffffffffffffffffffffffffffffffffffffff1673ffffffffffffffffffffffffffffffffffffffff166329965a1d307fb281fc8c12954d22544db45de3159a39272895b169a852b314f9cc762e44c53b306040518463ffffffff1660e01b81526004016200010d9392919062000712565b600060405180830381600087803b1580156200012857600080fd5b505af11580156200013d573d6000803e3d6000fd5b5050505082600160006101000a81548173ffffffffffffffffffffffffffffffffffffffff021916908373ffffffffffffffffffffffffffffffffffffffff16021790555081600260006101000a81548173ffffffffffffffffffffffffffffffffffffffff021916908373ffffffffffffffffffffffffffffffffffffffff16021790555080600360006101000a81548173ffffffffffffffffffffffffffffffffffffffff021916908373ffffffffffffffffffffffffffffffffffffffff1602179055506000642000000000641000000000600117179050600260009054906101000a900473ffffffffffffffffffffffffffffffffffffffff1673ffffffffffffffffffffffffffffffffffffffff1663ad3915c8826040518263ffffffff1660e01b8152600401620002759190620007de565b600060405180830381600087803b1580156200029057600080fd5b505af1158015620002a5573d6000803e3d6000fd5b50505050600260009054906101000a900473ffffffffffffffffffffffffffffffffffffffff1673ffffffffffffffffffffffffffffffffffffffff166339255d5b600360009054906101000a900473ffffffffffffffffffffffffffffffffffffffff1663d787840a60e01b600160009054906101000a900473ffffffffffffffffffffffffffffffffffffffff1660008067ffffffffffffffff81111562000378577f4e487b7100000000000000000000000000000000000000000000000000000000600052604160045260246000fd5b6040519080825280601f01601f191660200182016040528015620003ab5781602001600182028036833780820191505090505b50604051602401620003c0939291906200079a565b604051602081830303815290604052907bffffffffffffffffffffffffffffffffffffffffffffffffffffffff19166020820180517bffffffffffffffffffffffffffffffffffffffffffffffffffffffff8381831617835250505050600067ffffffffffffffff8111156200045f577f4e487b7100000000000000000000000000000000000000000000000000000000600052604160045260246000fd5b6040519080825280601f01601f191660200182016040528015620004925781602001600182028036833780820191505090505b506040518463ffffffff1660e01b8152600401620004b3939291906200074f565b600060405180830381600087803b158015620004ce57600080fd5b505af1158015620004e3573d6000803e3d6000fd5b505050506040513d6000823e3d601f19601f820116820180604052508101906200050e9190620005d0565b505050505062000a26565b6000620005306200052a846200082f565b620007fb565b9050828152602081018484840111156200054957600080fd5b6200055684828562000962565b509392505050565b600082601f8301126200057057600080fd5b81516200058284826020860162000519565b91505092915050565b6000815190506200059c81620009d8565b92915050565b600081519050620005b381620009f2565b92915050565b600081519050620005ca8162000a0c565b92915050565b600060208284031215620005e357600080fd5b600082015167ffffffffffffffff811115620005fe57600080fd5b6200060c848285016200055e565b91505092915050565b6000806000606084860312156200062b57600080fd5b60006200063b86828701620005a2565b93505060206200064e86828701620005b9565b925050604062000661868287016200058b565b9150509250925092565b62000676816200087e565b82525050565b620006878162000892565b82525050565b60006200069a8262000862565b620006a681856200086d565b9350620006b881856020860162000962565b620006c381620009c7565b840191505092915050565b620006d98162000912565b82525050565b620006ea816200093a565b82525050565b620006fb81620008f8565b82525050565b6200070c8162000902565b82525050565b60006060820190506200072960008301866200066b565b6200073860208301856200067c565b6200074760408301846200066b565b949350505050565b6000606082019050620007666000830186620006ce565b81810360208301526200077a81856200068d565b905081810360408301526200079081846200068d565b9050949350505050565b6000606082019050620007b16000830186620006df565b620007c0602083018562000701565b8181036040830152620007d481846200068d565b9050949350505050565b6000602082019050620007f56000830184620006f0565b92915050565b6000604051905081810181811067ffffffffffffffff8211171562000825576200082462000998565b5b8060405250919050565b600067ffffffffffffffff8211156200084d576200084c62000998565b5b601f19601f8301169050602081019050919050565b600081519050919050565b600082825260208201905092915050565b60006200088b82620008d8565b9050919050565b6000819050919050565b6000620008a9826200087e565b9050919050565b6000620008bd826200087e565b9050919050565b6000620008d1826200087e565b9050919050565b600073ffffffffffffffffffffffffffffffffffffffff82169050919050565b6000819050919050565b600063ffffffff82169050919050565b60006200091f8262000926565b9050919050565b60006200093382620008d8565b9050919050565b600062000947826200094e565b9050919050565b60006200095b82620008d8565b9050919050565b60005b838110156200098257808201518184015260208101905062000965565b8381111562000992576000848401525b50505050565b7f4e487b7100000000000000000000000000000000000000000000000000000000600052604160045260246000fd5b6000601f19601f8301169050919050565b620009e3816200089c565b8114620009ef57600080fd5b50565b620009fd81620008b0565b811462000a0957600080fd5b50565b62000a1781620008c4565b811462000a2357600080fd5b50565b611c458062000a366000396000f3fe608060405234801561001057600080fd5b50600436106100925760003560e01c80635f9e7d77116100665780635f9e7d7714610143578063884d1f40146101735780638c7f0959146101a3578063915e3364146101c1578063d86ed3e5146101f157610092565b806223de2914610097578063230dbd29146100b357806330d9c915146100e357806353c11f9914610113575b600080fd5b6100b160048036038101906100ac9190611085565b610221565b005b6100cd60048036038101906100c891906112b0565b61026d565b6040516100da9190611722565b60405180910390f35b6100fd60048036038101906100f89190611200565b6102cf565b60405161010a9190611722565b60405180910390f35b61012d600480360381019061012891906112b0565b610472565b60405161013a9190611722565b60405180910390f35b61015d60048036038101906101589190611200565b6104af565b60405161016a9190611722565b60405180910390f35b61018d60048036038101906101889190611200565b6104ec565b60405161019a9190611722565b60405180910390f35b6101ab61068f565b6040516101b891906118e3565b60405180910390f35b6101db60048036038101906101d6919061105c565b610694565b6040516101e891906116e3565b60405180910390f35b61020b600480360381019061020691906112b0565b6106b4565b6040516102189190611722565b60405180910390f35b61022a85610716565b7f91a631485fcb697827429988737671b22367c3f76633aed1ed4193b7a52590ab878660405161025b9291906116a7565b60405180910390a15050505050505050565b606061027b8a84848b610aa7565b82828080601f016020809104026020016040519081016040528093929190818152602001838380828437600081840152601f19601f8201169050808301925050505050505090509998505050505050505050565b6060600160009054906101000a900473ffffffffffffffffffffffffffffffffffffffff1673ffffffffffffffffffffffffffffffffffffffff168873ffffffffffffffffffffffffffffffffffffffff1614610361576040517f08c379a000000000000000000000000000000000000000000000000000000000815260040161035890611883565b60405180910390fd5b600360009054906101000a900473ffffffffffffffffffffffffffffffffffffffff1673ffffffffffffffffffffffffffffffffffffffff168773ffffffffffffffffffffffffffffffffffffffff16146103f1576040517f08c379a00000000000000000000000000000000000000000000000000000000081526004016103e890611863565b60405180910390fd5b600067ffffffffffffffff811115610432577f4e487b7100000000000000000000000000000000000000000000000000000000600052604160045260246000fd5b6040519080825280601f01601f1916602001820160405280156104645781602001600182028036833780820191505090505b509050979650505050505050565b60606040517f08c379a00000000000000000000000000000000000000000000000000000000081526004016104a6906118c3565b60405180910390fd5b60606040517f08c379a00000000000000000000000000000000000000000000000000000000081526004016104e390611843565b60405180910390fd5b6060600160009054906101000a900473ffffffffffffffffffffffffffffffffffffffff1673ffffffffffffffffffffffffffffffffffffffff168873ffffffffffffffffffffffffffffffffffffffff161461057e576040517f08c379a000000000000000000000000000000000000000000000000000000000815260040161057590611883565b60405180910390fd5b600360009054906101000a900473ffffffffffffffffffffffffffffffffffffffff1673ffffffffffffffffffffffffffffffffffffffff168773ffffffffffffffffffffffffffffffffffffffff161461060e576040517f08c379a000000000000000000000000000000000000000000000000000000000815260040161060590611863565b60405180910390fd5b600067ffffffffffffffff81111561064f577f4e487b7100000000000000000000000000000000000000000000000000000000600052604160045260246000fd5b6040519080825280601f01601f1916602001820160405280156106815781602001600182028036833780820191505090505b509050979650505050505050565b600081565b60056020528060005260406000206000915054906101000a900460ff1681565b60606106c28a84848b610aa7565b82828080601f016020809104026020016040519081016040528093929190818152602001838380828437600081840152601f19601f8201169050808301925050505050505090509998505050505050505050565b3373ffffffffffffffffffffffffffffffffffffffff1660008054906101000a900473ffffffffffffffffffffffffffffffffffffffff1673ffffffffffffffffffffffffffffffffffffffff161461076e57600080fd5b6000600360009054906101000a900473ffffffffffffffffffffffffffffffffffffffff1673ffffffffffffffffffffffffffffffffffffffff1663899baaec600160009054906101000a900473ffffffffffffffffffffffffffffffffffffffff16306000866040518563ffffffff1660e01b81526004016107f49493929190611789565b604080518083038186803b15801561080b57600080fd5b505afa15801561081f573d6000803e3d6000fd5b505050506040513d601f19601f8201168201806040525081019061084391906113d0565b509050600260009054906101000a900473ffffffffffffffffffffffffffffffffffffffff1673ffffffffffffffffffffffffffffffffffffffff166339255d5b600360009054906101000a900473ffffffffffffffffffffffffffffffffffffffff1663b96731c260e01b600160009054906101000a900473ffffffffffffffffffffffffffffffffffffffff16600086600067ffffffffffffffff811115610916577f4e487b7100000000000000000000000000000000000000000000000000000000600052604160045260246000fd5b6040519080825280601f01601f1916602001820160405280156109485781602001600182028036833780820191505090505b5060405160240161095c94939291906117f7565b604051602081830303815290604052907bffffffffffffffffffffffffffffffffffffffffffffffffffffffff19166020820180517bffffffffffffffffffffffffffffffffffffffffffffffffffffffff8381831617835250505050600067ffffffffffffffff8111156109fa577f4e487b7100000000000000000000000000000000000000000000000000000000600052604160045260246000fd5b6040519080825280601f01601f191660200182016040528015610a2c5781602001600182028036833780820191505090505b506040518463ffffffff1660e01b8152600401610a4b93929190611744565b600060405180830381600087803b158015610a6557600080fd5b505af1158015610a79573d6000803e3d6000fd5b505050506040513d6000823e3d601f19601f82011682018060405250810190610aa291906111bf565b505050565b6000600260009054906101000a900473ffffffffffffffffffffffffffffffffffffffff1673ffffffffffffffffffffffffffffffffffffffff16633f6c923a85856040518363ffffffff1660e01b8152600401610b069291906116fe565b60006040518083038186803b158015610b1e57600080fd5b505afa158015610b32573d6000803e3d6000fd5b505050506040513d6000823e3d601f19601f82011682018060405250810190610b5b919061138f565b905063acf4a6c260e01b7bffffffffffffffffffffffffffffffffffffffffffffffffffffffff191681608001517bffffffffffffffffffffffffffffffffffffffffffffffffffffffff19161415610d9d576000806000806000600360009054906101000a900473ffffffffffffffffffffffffffffffffffffffff1673ffffffffffffffffffffffffffffffffffffffff1663cd7245c58b896040518363ffffffff1660e01b8152600401610c139291906117ce565b60a06040518083038186803b158015610c2b57600080fd5b505afa158015610c3f573d6000803e3d6000fd5b505050506040513d601f19601f82011682018060405250810190610c639190611148565b80955081965082975083985084995050505050503073ffffffffffffffffffffffffffffffffffffffff168573ffffffffffffffffffffffffffffffffffffffff1614610ce5576040517f08c379a0000000000000000000000000000000000000000000000000000000008152600401610cdc906118a3565b60405180910390fd5b600063ffffffff168463ffffffff1614610d34576040517f08c379a0000000000000000000000000000000000000000000000000000000008152600401610d2b906118a3565b60405180910390fd5b8215610d9757600160056000886060015173ffffffffffffffffffffffffffffffffffffffff1673ffffffffffffffffffffffffffffffffffffffff16815260200190815260200160002060006101000a81548160ff0219169083151502179055505b50505050505b5050505050565b6000610db7610db28461192f565b6118fe565b905082815260208101848484011115610dcf57600080fd5b610dda848285611ab6565b509392505050565b600081359050610df181611b29565b92915050565b600081519050610e0681611b29565b92915050565b600081519050610e1b81611b40565b92915050565b600081359050610e3081611b57565b92915050565b600081519050610e4581611b6e565b92915050565b60008083601f840112610e5d57600080fd5b8235905067ffffffffffffffff811115610e7657600080fd5b602083019150836001820283011115610e8e57600080fd5b9250929050565b600082601f830112610ea657600080fd5b8151610eb6848260208601610da4565b91505092915050565b600081359050610ece81611b85565b92915050565b600081519050610ee381611b9c565b92915050565b60006101408284031215610efc57600080fd5b610f076101406118fe565b90506000610f1784828501611047565b6000830152506020610f2b84828501611047565b6020830152506040610f3f8482850161101d565b6040830152506060610f5384828501610df7565b6060830152506080610f6784828501610e36565b60808301525060a082015167ffffffffffffffff811115610f8757600080fd5b610f9384828501610e95565b60a08301525060c0610fa78482850161101d565b60c08301525060e0610fbb8482850161101d565b60e083015250610100610fd084828501610ed4565b61010083015250610120610fe684828501610df7565b6101208301525092915050565b60008151905061100281611bb3565b92915050565b60008135905061101781611bca565b92915050565b60008151905061102c81611bca565b92915050565b60008151905061104181611be1565b92915050565b60008151905061105681611bf8565b92915050565b60006020828403121561106e57600080fd5b600061107c84828501610de2565b91505092915050565b60008060008060008060008060c0898b0312156110a157600080fd5b60006110af8b828c01610de2565b98505060206110c08b828c01610de2565b97505060406110d18b828c01610de2565b96505060606110e28b828c01611008565b955050608089013567ffffffffffffffff8111156110ff57600080fd5b61110b8b828c01610e4b565b945094505060a089013567ffffffffffffffff81111561112a57600080fd5b6111368b828c01610e4b565b92509250509295985092959890939650565b600080600080600060a0868803121561116057600080fd5b600061116e88828901610df7565b955050602061117f88828901611032565b945050604061119088828901610e0c565b93505060606111a188828901610ff3565b92505060806111b28882890161101d565b9150509295509295909350565b6000602082840312156111d157600080fd5b600082015167ffffffffffffffff8111156111eb57600080fd5b6111f784828501610e95565b91505092915050565b600080600080600080600060a0888a03121561121b57600080fd5b60006112298a828b01610ebf565b975050602061123a8a828b01610de2565b965050604061124b8a828b01610e21565b955050606088013567ffffffffffffffff81111561126857600080fd5b6112748a828b01610e4b565b9450945050608088013567ffffffffffffffff81111561129357600080fd5b61129f8a828b01610e4b565b925092505092959891949750929550565b600080600080600080600080600060c08a8c0312156112ce57600080fd5b60006112dc8c828d01610ebf565b99505060206112ed8c828d01610de2565b98505060406112fe8c828d01610e21565b97505060608a013567ffffffffffffffff81111561131b57600080fd5b6113278c828d01610e4b565b965096505060808a013567ffffffffffffffff81111561134657600080fd5b6113528c828d01610e4b565b945094505060a08a013567ffffffffffffffff81111561137157600080fd5b61137d8c828d01610e4b565b92509250509295985092959850929598565b6000602082840312156113a157600080fd5b600082015167ffffffffffffffff8111156113bb57600080fd5b6113c784828501610ee9565b91505092915050565b600080604083850312156113e357600080fd5b60006113f18582860161101d565b925050602061140285828601610ff3565b9150509250929050565b6114158161198c565b82525050565b6114248161199e565b82525050565b611433816119aa565b82525050565b6000611445838561196a565b9350611452838584611aa7565b61145b83611b18565b840190509392505050565b60006114718261195f565b61147b818561196a565b935061148b818560208601611ab6565b61149481611b18565b840191505092915050565b6114a881611a5f565b82525050565b6114b781611a83565b82525050565b60006114ca60098361197b565b91507f746f6b656e4e616d6500000000000000000000000000000000000000000000006000830152602082019050919050565b600061150a60338361197b565b91507f556e737570706f727465642063616c6c6261636b202d20204265666f7265204160008301527f677265656d656e74205465726d696e61746564000000000000000000000000006020830152604082019050919050565b6000611570601a8361197b565b91507f4452543a20556e737570706f727465642061677265656d656e740000000000006000830152602082019050919050565b60006115b0601b8361197b565b91507f4452543a20556e737570706f72746564206361736820746f6b656e00000000006000830152602082019050919050565b60006115f060178361197b565b91507f4452543a207075626c6973686572206d69736d617463680000000000000000006000830152602082019050919050565b600061163060318361197b565b91507f556e737570706f727465642063616c6c6261636b202d2041667465722041677260008301527f65656d656e74205465726d696e617465640000000000000000000000000000006020830152604082019050919050565b61169281611a38565b82525050565b6116a181611a42565b82525050565b60006060820190506116bc600083018561140c565b81810360208301526116cd816114bd565b90506116dc6040830184611689565b9392505050565b60006020820190506116f8600083018461141b565b92915050565b60006020820190508181036000830152611719818486611439565b90509392505050565b6000602082019050818103600083015261173c8184611466565b905092915050565b6000606082019050611759600083018661149f565b818103602083015261176b8185611466565b9050818103604083015261177f8184611466565b9050949350505050565b600060808201905061179e60008301876114ae565b6117ab602083018661140c565b6117b86040830185611698565b6117c56060830184611689565b95945050505050565b60006040820190506117e360008301856114ae565b6117f0602083018461142a565b9392505050565b600060808201905061180c60008301876114ae565b6118196020830186611698565b6118266040830185611689565b81810360608301526118388184611466565b905095945050505050565b6000602082019050818103600083015261185c816114fd565b9050919050565b6000602082019050818103600083015261187c81611563565b9050919050565b6000602082019050818103600083015261189c816115a3565b9050919050565b600060208201905081810360008301526118bc816115e3565b9050919050565b600060208201905081810360008301526118dc81611623565b9050919050565b60006020820190506118f86000830184611698565b92915050565b6000604051905081810181811067ffffffffffffffff8211171561192557611924611ae9565b5b8060405250919050565b600067ffffffffffffffff82111561194a57611949611ae9565b5b601f19601f8301169050602081019050919050565b600081519050919050565b600082825260208201905092915050565b600082825260208201905092915050565b600061199782611a18565b9050919050565b60008115159050919050565b6000819050919050565b60007fffffffff0000000000000000000000000000000000000000000000000000000082169050919050565b60006119eb8261198c565b9050919050565b6000819050919050565b60006fffffffffffffffffffffffffffffffff82169050919050565b600073ffffffffffffffffffffffffffffffffffffffff82169050919050565b6000819050919050565b600063ffffffff82169050919050565b600060ff82169050919050565b6000611a6a82611a71565b9050919050565b6000611a7c82611a18565b9050919050565b6000611a8e82611a95565b9050919050565b6000611aa082611a18565b9050919050565b82818337600083830152505050565b60005b83811015611ad4578082015181840152602081019050611ab9565b83811115611ae3576000848401525b50505050565b7f4e487b7100000000000000000000000000000000000000000000000000000000600052604160045260246000fd5b6000601f19601f8301169050919050565b611b328161198c565b8114611b3d57600080fd5b50565b611b498161199e565b8114611b5457600080fd5b50565b611b60816119aa565b8114611b6b57600080fd5b50565b611b77816119b4565b8114611b8257600080fd5b50565b611b8e816119e0565b8114611b9957600080fd5b50565b611ba5816119f2565b8114611bb057600080fd5b50565b611bbc816119fc565b8114611bc757600080fd5b50565b611bd381611a38565b8114611bde57600080fd5b50565b611bea81611a42565b8114611bf557600080fd5b50565b611c0181611a52565b8114611c0c57600080fd5b5056fea26469706673582212208714e7d59cf433017fef5f0ea6ce16f0f10065ea9589fc81dcdf413348446a5d64736f6c63430008000033",
  "immutableReferences": {},
  "source": "pragma solidity ^0.8.0;\npragma experimental ABIEncoderV2;\n\nimport {\n    ISuperfluid,\n    ISuperToken,\n    SuperAppBase,\n    SuperAppDefinitions\n} from \"@superfluid-finance/ethereum-contracts/contracts/apps/SuperAppBase.sol\";\n//from \"https://github.com/superfluid-finance/protocol-monorepo/blob/remix-support/packages/ethereum-contracts/contracts/apps/SuperAppBase.sol\";\nimport {\n    IInstantDistributionAgreementV1\n} from \"@superfluid-finance/ethereum-contracts/contracts/interfaces/agreements/IInstantDistributionAgreementV1.sol\";\n//from \"https://github.com/superfluid-finance/protocol-monorepo/blob/remix-support/packages/ethereum-contracts/contracts/interfaces/agreements/IInstantDistributionAgreementV1.sol\";\n\nimport \"@openzeppelin/contracts/token/ERC777/IERC777.sol\";\nimport \"@openzeppelin/contracts/utils/introspection/IERC1820Registry.sol\";\nimport \"@openzeppelin/contracts/token/ERC777/IERC777Recipient.sol\";\n\ncontract ERC777Distributor is IERC777Recipient,SuperAppBase {\n\n    uint32 public constant INDEX_ID = 0;\n\n    address owner;\n\n    ISuperToken private _cashToken;\n    ISuperfluid private _host;\n    IInstantDistributionAgreementV1 private _ida;\n\n    IERC1820Registry private _erc1820 = IERC1820Registry(0x1820a4B7618BdE71Dce8cdc73aAB6C95905faD24);\n    bytes32 constant private TOKENS_RECIPIENT_INTERFACE_HASH = keccak256(\"ERC777TokensRecipient\");\n\n    // use callbacks to track approved subscriptions\n    mapping (address => bool) public isSubscribing;\n\n    event DonationReceived(address from, string token, uint256 amount);\n\n    constructor (\n        ISuperToken cashToken,\n        ISuperfluid host,\n        IInstantDistributionAgreementV1 ida) public {\n        \n        _erc1820.setInterfaceImplementer(address(this), TOKENS_RECIPIENT_INTERFACE_HASH, address(this));\n\n        _cashToken = cashToken;\n        _host = host;\n        _ida = ida;\n\n        uint256 configWord =\n            SuperAppDefinitions.APP_LEVEL_FINAL |\n            SuperAppDefinitions.BEFORE_AGREEMENT_TERMINATED_NOOP |\n            SuperAppDefinitions.AFTER_AGREEMENT_TERMINATED_NOOP;\n\n        _host.registerApp(configWord);\n\n        _host.callAgreement(\n            _ida,\n            abi.encodeWithSelector(\n                _ida.createIndex.selector,\n                _cashToken,\n                INDEX_ID,\n                new bytes(0) // placeholder ctx\n            ),\n            new bytes(0) // user data\n        );\n    }\n\n    modifier onlyOwner(){\n        require(owner==msg.sender);\n        _;\n    }\n\n    \n\n    function beforeAgreementCreated(\n        ISuperToken superToken,\n        address agreementClass,\n        bytes32 /* agreementId */,\n        bytes calldata /*agreementData*/,\n        bytes calldata /*ctx*/\n    )\n        external view override\n        returns (bytes memory data)\n    {\n        require(superToken == _cashToken, \"DRT: Unsupported cash token\");\n        require(agreementClass == address(_ida), \"DRT: Unsupported agreement\");\n        return new bytes(0);\n    }\n\n    function afterAgreementCreated(\n        ISuperToken superToken,\n        address /* agreementClass */,\n        bytes32 agreementId,\n        bytes calldata /*agreementData*/,\n        bytes calldata /*cbdata*/,\n        bytes calldata ctx\n    )\n        external override\n        returns(bytes memory newCtx)\n    {\n        _checkSubscription(superToken, ctx, agreementId);\n        newCtx = ctx;\n    }\n\n    function beforeAgreementUpdated(\n        ISuperToken superToken,\n        address agreementClass,\n        bytes32 /* agreementId */,\n        bytes calldata /*agreementData*/,\n        bytes calldata /*ctx*/\n    )\n        external view override\n        returns (bytes memory data)\n    {\n        require(superToken == _cashToken, \"DRT: Unsupported cash token\");\n        require(agreementClass == address(_ida), \"DRT: Unsupported agreement\");\n        return new bytes(0);\n    }\n\n    function afterAgreementUpdated(\n        ISuperToken superToken,\n        address /* agreementClass */,\n        bytes32 agreementId,\n        bytes calldata /*agreementData*/,\n        bytes calldata /*cbdata*/,\n        bytes calldata ctx\n    )\n        external override\n        returns(bytes memory newCtx)\n    {\n        _checkSubscription(superToken, ctx, agreementId);\n        newCtx = ctx;\n    }\n\n    function _checkSubscription(\n        ISuperToken superToken,\n        bytes calldata ctx,\n        bytes32 agreementId\n    )\n        private\n    {\n        ISuperfluid.Context memory context = _host.decodeCtx(ctx);\n        // only interested in the subscription approval callbacks\n        if (context.agreementSelector == IInstantDistributionAgreementV1.approveSubscription.selector) {\n            address publisher;\n            uint32 indexId;\n            bool approved;\n            uint128 units;\n            uint256 pendingDistribution;\n            (publisher, indexId, approved, units, pendingDistribution) =\n                _ida.getSubscriptionByID(superToken, agreementId);\n\n            // sanity checks for testing purpose\n            require(publisher == address(this), \"DRT: publisher mismatch\");\n            require(indexId == INDEX_ID, \"DRT: publisher mismatch\");\n\n            if (approved) {\n                isSubscribing[context.msgSender /* subscriber */] = true;\n            }\n        }\n    }\n\n    /// @dev Distribute `amount` of cash among all token holders\n    function distribute(uint256 cashAmount) internal onlyOwner {\n        (uint256 actualCashAmount,) = _ida.calculateDistribution(\n            _cashToken,\n            address(this), INDEX_ID,\n            cashAmount);\n\n        //_cashToken.transferFrom(owner(), address(this), actualCashAmount);\n\n        _host.callAgreement(\n            _ida,\n            abi.encodeWithSelector(\n                _ida.distribute.selector,\n                _cashToken,\n                INDEX_ID,\n                actualCashAmount,\n                new bytes(0) // placeholder ctx\n            ),\n            new bytes(0) // user data\n        );\n    }\n\n    function tokensReceived(\n        address operator,\n        address from,\n        address to,\n        uint256 amount,\n        bytes calldata userData,\n        bytes calldata operatorData\n    ) external override {\n        //require(msg.sender == address(_token), \"Simple777Recipient: Invalid token\");\n\n        // do stuff\n        distribute(amount);\n        emit DonationReceived( from, \"tokenName\", amount);\n    }   \n\n}",
  "sourcePath": "/Users/praffulsahu/Documents/Crypto/erc777distributor/contracts/ERC777Distributor.sol",
  "compiler": {
    "name": "solc",
    "version": "0.8.0+commit.c7dfd78e.Emscripten.clang"
  },
  "schemaVersion": "3.3.3",
  "updatedAt": "2021-06-19T13:28:33.748Z",
  "devdoc": {
    "kind": "dev",
    "methods": {
      "tokensReceived(address,address,address,uint256,bytes,bytes)": {
        "details": "Called by an {IERC777} token contract whenever tokens are being moved or created into a registered account (`to`). The type of operation is conveyed by `from` being the zero address or not. This call occurs _after_ the token contract's state is updated, so {IERC777-balanceOf}, etc., can be used to query the post-operation state. This function may revert to prevent the operation from being executed."
      }
    },
    "version": 1
  },
  "userdoc": {
    "kind": "user",
    "methods": {},
    "version": 1
  }
}