{
  "contractName": "ERC777Distributor",
  "abi": [
    {
      "inputs": [
        {
          "internalType": "contract ISuperToken",
          "name": "cashToken",
          "type": "address"
        },
        {
          "internalType": "contract ISuperfluid",
          "name": "host",
          "type": "address"
        },
        {
          "internalType": "contract IInstantDistributionAgreementV1",
          "name": "ida",
          "type": "address"
        }
      ],
      "stateMutability": "nonpayable",
      "type": "constructor"
    },
    {
      "anonymous": false,
      "inputs": [
        {
          "indexed": false,
          "internalType": "uint256",
          "name": "amountDistributed",
          "type": "uint256"
        },
        {
          "indexed": false,
          "internalType": "uint32",
          "name": "index",
          "type": "uint32"
        },
        {
          "indexed": false,
          "internalType": "address",
          "name": "tokenAddress",
          "type": "address"
        },
        {
          "indexed": false,
          "internalType": "address",
          "name": "publisher",
          "type": "address"
        },
        {
          "indexed": false,
          "internalType": "uint256",
          "name": "timeStamp",
          "type": "uint256"
        }
      ],
      "name": "Distribution",
      "type": "event"
    },
    {
      "anonymous": false,
      "inputs": [
        {
          "indexed": false,
          "internalType": "address",
          "name": "from",
          "type": "address"
        },
        {
          "indexed": false,
          "internalType": "string",
          "name": "token",
          "type": "string"
        },
        {
          "indexed": false,
          "internalType": "uint256",
          "name": "amount",
          "type": "uint256"
        },
        {
          "indexed": false,
          "internalType": "uint32",
          "name": "index",
          "type": "uint32"
        },
        {
          "indexed": false,
          "internalType": "address",
          "name": "tokenAddress",
          "type": "address"
        },
        {
          "indexed": false,
          "internalType": "address",
          "name": "publisher",
          "type": "address"
        },
        {
          "indexed": false,
          "internalType": "uint256",
          "name": "timeStamp",
          "type": "uint256"
        }
      ],
      "name": "DonationReceived",
      "type": "event"
    },
    {
      "anonymous": false,
      "inputs": [
        {
          "indexed": false,
          "internalType": "uint128",
          "name": "totalShares",
          "type": "uint128"
        },
        {
          "indexed": false,
          "internalType": "uint32",
          "name": "index",
          "type": "uint32"
        },
        {
          "indexed": false,
          "internalType": "address",
          "name": "tokenAddress",
          "type": "address"
        },
        {
          "indexed": false,
          "internalType": "address",
          "name": "publisher",
          "type": "address"
        },
        {
          "indexed": false,
          "internalType": "uint256",
          "name": "timeStamp",
          "type": "uint256"
        }
      ],
      "name": "TotalShares",
      "type": "event"
    },
    {
      "anonymous": false,
      "inputs": [
        {
          "indexed": false,
          "internalType": "address",
          "name": "userAddress",
          "type": "address"
        },
        {
          "indexed": false,
          "internalType": "uint128",
          "name": "shares",
          "type": "uint128"
        },
        {
          "indexed": false,
          "internalType": "uint32",
          "name": "index",
          "type": "uint32"
        },
        {
          "indexed": false,
          "internalType": "address",
          "name": "tokenAddress",
          "type": "address"
        },
        {
          "indexed": false,
          "internalType": "address",
          "name": "publisher",
          "type": "address"
        },
        {
          "indexed": false,
          "internalType": "uint256",
          "name": "timeStamp",
          "type": "uint256"
        }
      ],
      "name": "UserAdded",
      "type": "event"
    },
    {
      "anonymous": false,
      "inputs": [
        {
          "indexed": false,
          "internalType": "address",
          "name": "userAddress",
          "type": "address"
        },
        {
          "indexed": false,
          "internalType": "uint128",
          "name": "shares",
          "type": "uint128"
        },
        {
          "indexed": false,
          "internalType": "uint32",
          "name": "index",
          "type": "uint32"
        },
        {
          "indexed": false,
          "internalType": "address",
          "name": "tokenAddress",
          "type": "address"
        },
        {
          "indexed": false,
          "internalType": "address",
          "name": "publisher",
          "type": "address"
        },
        {
          "indexed": false,
          "internalType": "uint256",
          "name": "timeStamp",
          "type": "uint256"
        }
      ],
      "name": "UserModified",
      "type": "event"
    },
    {
      "anonymous": false,
      "inputs": [
        {
          "indexed": false,
          "internalType": "address",
          "name": "userAddress",
          "type": "address"
        },
        {
          "indexed": false,
          "internalType": "uint128",
          "name": "shares",
          "type": "uint128"
        },
        {
          "indexed": false,
          "internalType": "uint32",
          "name": "index",
          "type": "uint32"
        },
        {
          "indexed": false,
          "internalType": "address",
          "name": "tokenAddress",
          "type": "address"
        },
        {
          "indexed": false,
          "internalType": "address",
          "name": "publisher",
          "type": "address"
        },
        {
          "indexed": false,
          "internalType": "uint256",
          "name": "timeStamp",
          "type": "uint256"
        }
      ],
      "name": "UserRemoved",
      "type": "event"
    },
    {
      "inputs": [],
      "name": "INDEX_ID",
      "outputs": [
        {
          "internalType": "uint32",
          "name": "",
          "type": "uint32"
        }
      ],
      "stateMutability": "view",
      "type": "function",
      "constant": true
    },
    {
      "inputs": [
        {
          "internalType": "contract ISuperToken",
          "name": "",
          "type": "address"
        },
        {
          "internalType": "address",
          "name": "",
          "type": "address"
        },
        {
          "internalType": "bytes32",
          "name": "",
          "type": "bytes32"
        },
        {
          "internalType": "bytes",
          "name": "",
          "type": "bytes"
        },
        {
          "internalType": "bytes",
          "name": "",
          "type": "bytes"
        },
        {
          "internalType": "bytes",
          "name": "",
          "type": "bytes"
        }
      ],
      "name": "afterAgreementTerminated",
      "outputs": [
        {
          "internalType": "bytes",
          "name": "",
          "type": "bytes"
        }
      ],
      "stateMutability": "nonpayable",
      "type": "function"
    },
    {
      "inputs": [
        {
          "internalType": "contract ISuperToken",
          "name": "",
          "type": "address"
        },
        {
          "internalType": "address",
          "name": "",
          "type": "address"
        },
        {
          "internalType": "bytes32",
          "name": "",
          "type": "bytes32"
        },
        {
          "internalType": "bytes",
          "name": "",
          "type": "bytes"
        },
        {
          "internalType": "bytes",
          "name": "",
          "type": "bytes"
        }
      ],
      "name": "beforeAgreementTerminated",
      "outputs": [
        {
          "internalType": "bytes",
          "name": "",
          "type": "bytes"
        }
      ],
      "stateMutability": "view",
      "type": "function",
      "constant": true
    },
    {
      "inputs": [
        {
          "internalType": "address",
          "name": "",
          "type": "address"
        }
      ],
      "name": "isSubscribing",
      "outputs": [
        {
          "internalType": "bool",
          "name": "",
          "type": "bool"
        }
      ],
      "stateMutability": "view",
      "type": "function",
      "constant": true
    },
    {
      "inputs": [
        {
          "internalType": "contract ISuperToken",
          "name": "superToken",
          "type": "address"
        },
        {
          "internalType": "address",
          "name": "agreementClass",
          "type": "address"
        },
        {
          "internalType": "bytes32",
          "name": "",
          "type": "bytes32"
        },
        {
          "internalType": "bytes",
          "name": "",
          "type": "bytes"
        },
        {
          "internalType": "bytes",
          "name": "",
          "type": "bytes"
        }
      ],
      "name": "beforeAgreementCreated",
      "outputs": [
        {
          "internalType": "bytes",
          "name": "data",
          "type": "bytes"
        }
      ],
      "stateMutability": "view",
      "type": "function",
      "constant": true
    },
    {
      "inputs": [
        {
          "internalType": "contract ISuperToken",
          "name": "superToken",
          "type": "address"
        },
        {
          "internalType": "address",
          "name": "",
          "type": "address"
        },
        {
          "internalType": "bytes32",
          "name": "agreementId",
          "type": "bytes32"
        },
        {
          "internalType": "bytes",
          "name": "",
          "type": "bytes"
        },
        {
          "internalType": "bytes",
          "name": "",
          "type": "bytes"
        },
        {
          "internalType": "bytes",
          "name": "ctx",
          "type": "bytes"
        }
      ],
      "name": "afterAgreementCreated",
      "outputs": [
        {
          "internalType": "bytes",
          "name": "newCtx",
          "type": "bytes"
        }
      ],
      "stateMutability": "nonpayable",
      "type": "function"
    },
    {
      "inputs": [
        {
          "internalType": "contract ISuperToken",
          "name": "superToken",
          "type": "address"
        },
        {
          "internalType": "address",
          "name": "agreementClass",
          "type": "address"
        },
        {
          "internalType": "bytes32",
          "name": "",
          "type": "bytes32"
        },
        {
          "internalType": "bytes",
          "name": "",
          "type": "bytes"
        },
        {
          "internalType": "bytes",
          "name": "",
          "type": "bytes"
        }
      ],
      "name": "beforeAgreementUpdated",
      "outputs": [
        {
          "internalType": "bytes",
          "name": "data",
          "type": "bytes"
        }
      ],
      "stateMutability": "view",
      "type": "function",
      "constant": true
    },
    {
      "inputs": [
        {
          "internalType": "contract ISuperToken",
          "name": "superToken",
          "type": "address"
        },
        {
          "internalType": "address",
          "name": "",
          "type": "address"
        },
        {
          "internalType": "bytes32",
          "name": "agreementId",
          "type": "bytes32"
        },
        {
          "internalType": "bytes",
          "name": "",
          "type": "bytes"
        },
        {
          "internalType": "bytes",
          "name": "",
          "type": "bytes"
        },
        {
          "internalType": "bytes",
          "name": "ctx",
          "type": "bytes"
        }
      ],
      "name": "afterAgreementUpdated",
      "outputs": [
        {
          "internalType": "bytes",
          "name": "newCtx",
          "type": "bytes"
        }
      ],
      "stateMutability": "nonpayable",
      "type": "function"
    },
    {
      "inputs": [
        {
          "internalType": "address",
          "name": "newUser",
          "type": "address"
        },
        {
          "internalType": "uint128",
          "name": "sharePercentage",
          "type": "uint128"
        }
      ],
      "name": "addUser",
      "outputs": [],
      "stateMutability": "nonpayable",
      "type": "function"
    },
    {
      "inputs": [
        {
          "internalType": "address",
          "name": "existingUser",
          "type": "address"
        },
        {
          "internalType": "uint128",
          "name": "sharePercentage",
          "type": "uint128"
        }
      ],
      "name": "modifyUser",
      "outputs": [],
      "stateMutability": "nonpayable",
      "type": "function"
    },
    {
      "inputs": [
        {
          "internalType": "address",
          "name": "existingUser",
          "type": "address"
        }
      ],
      "name": "removeUser",
      "outputs": [],
      "stateMutability": "nonpayable",
      "type": "function"
    },
    {
      "inputs": [
        {
          "internalType": "address",
          "name": "operator",
          "type": "address"
        },
        {
          "internalType": "address",
          "name": "from",
          "type": "address"
        },
        {
          "internalType": "address",
          "name": "to",
          "type": "address"
        },
        {
          "internalType": "uint256",
          "name": "amount",
          "type": "uint256"
        },
        {
          "internalType": "bytes",
          "name": "userData",
          "type": "bytes"
        },
        {
          "internalType": "bytes",
          "name": "operatorData",
          "type": "bytes"
        }
      ],
      "name": "tokensReceived",
      "outputs": [],
      "stateMutability": "nonpayable",
      "type": "function"
    }
  ],
  "bytecode": "0x6080604052600080556064600160006101000a8154816fffffffffffffffffffffffffffffffff02191690836fffffffffffffffffffffffffffffffff160217905550731820a4b7618bde71dce8cdc73aab6c95905fad24600760006101000a81548173ffffffffffffffffffffffffffffffffffffffff021916908373ffffffffffffffffffffffffffffffffffffffff160217905550348015620000a457600080fd5b5060405162003917380380620039178339818101604052810190620000ca919062000694565b33600360006101000a81548173ffffffffffffffffffffffffffffffffffffffff021916908373ffffffffffffffffffffffffffffffffffffffff160217905550600760009054906101000a900473ffffffffffffffffffffffffffffffffffffffff1673ffffffffffffffffffffffffffffffffffffffff166329965a1d307fb281fc8c12954d22544db45de3159a39272895b169a852b314f9cc762e44c53b306040518463ffffffff1660e01b81526004016200018c9392919062000791565b600060405180830381600087803b158015620001a757600080fd5b505af1158015620001bc573d6000803e3d6000fd5b5050505082600460006101000a81548173ffffffffffffffffffffffffffffffffffffffff021916908373ffffffffffffffffffffffffffffffffffffffff16021790555081600560006101000a81548173ffffffffffffffffffffffffffffffffffffffff021916908373ffffffffffffffffffffffffffffffffffffffff16021790555080600660006101000a81548173ffffffffffffffffffffffffffffffffffffffff021916908373ffffffffffffffffffffffffffffffffffffffff1602179055506000642000000000641000000000600117179050600560009054906101000a900473ffffffffffffffffffffffffffffffffffffffff1673ffffffffffffffffffffffffffffffffffffffff1663ad3915c8826040518263ffffffff1660e01b8152600401620002f491906200085d565b600060405180830381600087803b1580156200030f57600080fd5b505af115801562000324573d6000803e3d6000fd5b50505050600560009054906101000a900473ffffffffffffffffffffffffffffffffffffffff1673ffffffffffffffffffffffffffffffffffffffff166339255d5b600660009054906101000a900473ffffffffffffffffffffffffffffffffffffffff1663d787840a60e01b600460009054906101000a900473ffffffffffffffffffffffffffffffffffffffff1660008067ffffffffffffffff811115620003f7577f4e487b7100000000000000000000000000000000000000000000000000000000600052604160045260246000fd5b6040519080825280601f01601f1916602001820160405280156200042a5781602001600182028036833780820191505090505b506040516024016200043f9392919062000819565b604051602081830303815290604052907bffffffffffffffffffffffffffffffffffffffffffffffffffffffff19166020820180517bffffffffffffffffffffffffffffffffffffffffffffffffffffffff8381831617835250505050600067ffffffffffffffff811115620004de577f4e487b7100000000000000000000000000000000000000000000000000000000600052604160045260246000fd5b6040519080825280601f01601f191660200182016040528015620005115781602001600182028036833780820191505090505b506040518463ffffffff1660e01b81526004016200053293929190620007ce565b600060405180830381600087803b1580156200054d57600080fd5b505af115801562000562573d6000803e3d6000fd5b505050506040513d6000823e3d601f19601f820116820180604052508101906200058d91906200064f565b505050505062000aa5565b6000620005af620005a984620008ae565b6200087a565b905082815260208101848484011115620005c857600080fd5b620005d5848285620009e1565b509392505050565b600082601f830112620005ef57600080fd5b81516200060184826020860162000598565b91505092915050565b6000815190506200061b8162000a57565b92915050565b600081519050620006328162000a71565b92915050565b600081519050620006498162000a8b565b92915050565b6000602082840312156200066257600080fd5b600082015167ffffffffffffffff8111156200067d57600080fd5b6200068b84828501620005dd565b91505092915050565b600080600060608486031215620006aa57600080fd5b6000620006ba8682870162000621565b9350506020620006cd8682870162000638565b9250506040620006e0868287016200060a565b9150509250925092565b620006f581620008fd565b82525050565b620007068162000911565b82525050565b60006200071982620008e1565b620007258185620008ec565b935062000737818560208601620009e1565b620007428162000a46565b840191505092915050565b620007588162000991565b82525050565b6200076981620009b9565b82525050565b6200077a8162000977565b82525050565b6200078b8162000981565b82525050565b6000606082019050620007a86000830186620006ea565b620007b76020830185620006fb565b620007c66040830184620006ea565b949350505050565b6000606082019050620007e560008301866200074d565b8181036020830152620007f981856200070c565b905081810360408301526200080f81846200070c565b9050949350505050565b60006060820190506200083060008301866200075e565b6200083f602083018562000780565b81810360408301526200085381846200070c565b9050949350505050565b60006020820190506200087460008301846200076f565b92915050565b6000604051905081810181811067ffffffffffffffff82111715620008a457620008a362000a17565b5b8060405250919050565b600067ffffffffffffffff821115620008cc57620008cb62000a17565b5b601f19601f8301169050602081019050919050565b600081519050919050565b600082825260208201905092915050565b60006200090a8262000957565b9050919050565b6000819050919050565b60006200092882620008fd565b9050919050565b60006200093c82620008fd565b9050919050565b60006200095082620008fd565b9050919050565b600073ffffffffffffffffffffffffffffffffffffffff82169050919050565b6000819050919050565b600063ffffffff82169050919050565b60006200099e82620009a5565b9050919050565b6000620009b28262000957565b9050919050565b6000620009c682620009cd565b9050919050565b6000620009da8262000957565b9050919050565b60005b8381101562000a01578082015181840152602081019050620009e4565b8381111562000a11576000848401525b50505050565b7f4e487b7100000000000000000000000000000000000000000000000000000000600052604160045260246000fd5b6000601f19601f8301169050919050565b62000a62816200091b565b811462000a6e57600080fd5b50565b62000a7c816200092f565b811462000a8857600080fd5b50565b62000a968162000943565b811462000aa257600080fd5b50565b612e628062000ab56000396000f3fe608060405234801561001057600080fd5b50600436106100b35760003560e01c80638378f8c0116100715780638378f8c0146101b0578063884d1f40146101cc5780638c7f0959146101fc578063915e33641461021a578063985751881461024a578063d86ed3e514610266576100b3565b806223de29146100b8578063230dbd29146100d457806330d9c9151461010457806353c11f99146101345780635f9e7d771461016457806380e85c5114610194575b600080fd5b6100d260048036038101906100cd9190611e55565b610296565b005b6100ee60048036038101906100e991906120bc565b610325565b6040516100fb9190612656565b60405180910390f35b61011e6004803603810190610119919061200c565b610387565b60405161012b9190612656565b60405180910390f35b61014e600480360381019061014991906120bc565b61052a565b60405161015b9190612656565b60405180910390f35b61017e6004803603810190610179919061200c565b610567565b60405161018b9190612656565b60405180910390f35b6101ae60048036038101906101a99190611f18565b6105a4565b005b6101ca60048036038101906101c59190611f18565b6108bf565b005b6101e660048036038101906101e1919061200c565b610ca7565b6040516101f39190612656565b60405180910390f35b610204610e4a565b6040516102119190612957565b60405180910390f35b610234600480360381019061022f9190611e2c565b610e4f565b6040516102419190612617565b60405180910390f35b610264600480360381019061025f9190611e2c565b610e6f565b005b610280600480360381019061027b91906120bc565b611202565b60405161028d9190612656565b60405180910390f35b846000808282546102a79190612a46565b925050819055506102b785611264565b7f8e4912340ecb0f3c19a605b3776723de30abbc77cf91f07b7ad82c3497887f9887866000600460009054906101000a900473ffffffffffffffffffffffffffffffffffffffff16304260405161031396959493929190612542565b60405180910390a15050505050505050565b60606103338a84848b6115ff565b82828080601f016020809104026020016040519081016040528093929190818152602001838380828437600081840152601f19601f8201169050808301925050505050505090509998505050505050505050565b6060600460009054906101000a900473ffffffffffffffffffffffffffffffffffffffff1673ffffffffffffffffffffffffffffffffffffffff168873ffffffffffffffffffffffffffffffffffffffff1614610419576040517f08c379a000000000000000000000000000000000000000000000000000000000815260040161041090612831565b60405180910390fd5b600660009054906101000a900473ffffffffffffffffffffffffffffffffffffffff1673ffffffffffffffffffffffffffffffffffffffff168773ffffffffffffffffffffffffffffffffffffffff16146104a9576040517f08c379a00000000000000000000000000000000000000000000000000000000081526004016104a0906127f1565b60405180910390fd5b600067ffffffffffffffff8111156104ea577f4e487b7100000000000000000000000000000000000000000000000000000000600052604160045260246000fd5b6040519080825280601f01601f19166020018201604052801561051c5781602001600182028036833780820191505090505b509050979650505050505050565b60606040517f08c379a000000000000000000000000000000000000000000000000000000000815260040161055e90612891565b60405180910390fd5b60606040517f08c379a000000000000000000000000000000000000000000000000000000000815260040161059b906127d1565b60405180910390fd5b3373ffffffffffffffffffffffffffffffffffffffff16600360009054906101000a900473ffffffffffffffffffffffffffffffffffffffff1673ffffffffffffffffffffffffffffffffffffffff16146105fe57600080fd5b6000600260008473ffffffffffffffffffffffffffffffffffffffff1673ffffffffffffffffffffffffffffffffffffffff16815260200190815260200160002060009054906101000a90046fffffffffffffffffffffffffffffffff166fffffffffffffffffffffffffffffffff16146106ae576040517f08c379a00000000000000000000000000000000000000000000000000000000081526004016106a590612811565b60405180910390fd5b60008160646106bd9190612b17565b600160009054906101000a90046fffffffffffffffffffffffffffffffff16836106e79190612acd565b6106f19190612a9c565b90506106fd83826118fc565b80600160008282829054906101000a90046fffffffffffffffffffffffffffffffff1661072a9190612a00565b92506101000a8154816fffffffffffffffffffffffffffffffff02191690836fffffffffffffffffffffffffffffffff16021790555080600260008573ffffffffffffffffffffffffffffffffffffffff1673ffffffffffffffffffffffffffffffffffffffff16815260200190815260200160002060006101000a8154816fffffffffffffffffffffffffffffffff02191690836fffffffffffffffffffffffffffffffff1602179055507f2bbe5f5d5a9cdda77cc59310f5a84259dbc64e35e3fb022488d0d97a45e252d983826000600460009054906101000a900473ffffffffffffffffffffffffffffffffffffffff163042604051610832969594939291906125b6565b60405180910390a17fb5f637e0dafe266804a3442b18aa2aa440ae853d52542940177467b723f369bf600160009054906101000a90046fffffffffffffffffffffffffffffffff166000600460009054906101000a900473ffffffffffffffffffffffffffffffffffffffff1630426040516108b29594939291906128b1565b60405180910390a1505050565b3373ffffffffffffffffffffffffffffffffffffffff16600360009054906101000a900473ffffffffffffffffffffffffffffffffffffffff1673ffffffffffffffffffffffffffffffffffffffff161461091957600080fd5b6000600260008473ffffffffffffffffffffffffffffffffffffffff1673ffffffffffffffffffffffffffffffffffffffff16815260200190815260200160002060009054906101000a90046fffffffffffffffffffffffffffffffff166fffffffffffffffffffffffffffffffff1614156109ca576040517f08c379a00000000000000000000000000000000000000000000000000000000081526004016109c190612871565b60405180910390fd5b60008160646109d99190612b17565b600260008573ffffffffffffffffffffffffffffffffffffffff1673ffffffffffffffffffffffffffffffffffffffff16815260200190815260200160002060009054906101000a90046fffffffffffffffffffffffffffffffff16600160009054906101000a90046fffffffffffffffffffffffffffffffff16610a5e9190612b17565b83610a699190612acd565b610a739190612a9c565b9050610a7f83826118fc565b600260008473ffffffffffffffffffffffffffffffffffffffff1673ffffffffffffffffffffffffffffffffffffffff16815260200190815260200160002060009054906101000a90046fffffffffffffffffffffffffffffffff1681610ae69190612b17565b600160008282829054906101000a90046fffffffffffffffffffffffffffffffff16610b129190612a00565b92506101000a8154816fffffffffffffffffffffffffffffffff02191690836fffffffffffffffffffffffffffffffff16021790555080600260008573ffffffffffffffffffffffffffffffffffffffff1673ffffffffffffffffffffffffffffffffffffffff16815260200190815260200160002060006101000a8154816fffffffffffffffffffffffffffffffff02191690836fffffffffffffffffffffffffffffffff1602179055507fa029ef1828dc87b0638de58cbcf6f68b8062af3ad355212c34146263da65793a83826000600460009054906101000a900473ffffffffffffffffffffffffffffffffffffffff163042604051610c1a969594939291906125b6565b60405180910390a17fb5f637e0dafe266804a3442b18aa2aa440ae853d52542940177467b723f369bf600160009054906101000a90046fffffffffffffffffffffffffffffffff166000600460009054906101000a900473ffffffffffffffffffffffffffffffffffffffff163042604051610c9a9594939291906128b1565b60405180910390a1505050565b6060600460009054906101000a900473ffffffffffffffffffffffffffffffffffffffff1673ffffffffffffffffffffffffffffffffffffffff168873ffffffffffffffffffffffffffffffffffffffff1614610d39576040517f08c379a0000000000000000000000000000000000000000000000000000000008152600401610d3090612831565b60405180910390fd5b600660009054906101000a900473ffffffffffffffffffffffffffffffffffffffff1673ffffffffffffffffffffffffffffffffffffffff168773ffffffffffffffffffffffffffffffffffffffff1614610dc9576040517f08c379a0000000000000000000000000000000000000000000000000000000008152600401610dc0906127f1565b60405180910390fd5b600067ffffffffffffffff811115610e0a577f4e487b7100000000000000000000000000000000000000000000000000000000600052604160045260246000fd5b6040519080825280601f01601f191660200182016040528015610e3c5781602001600182028036833780820191505090505b509050979650505050505050565b600081565b60086020528060005260406000206000915054906101000a900460ff1681565b3373ffffffffffffffffffffffffffffffffffffffff16600360009054906101000a900473ffffffffffffffffffffffffffffffffffffffff1673ffffffffffffffffffffffffffffffffffffffff1614610ec957600080fd5b6000600260008373ffffffffffffffffffffffffffffffffffffffff1673ffffffffffffffffffffffffffffffffffffffff16815260200190815260200160002060009054906101000a90046fffffffffffffffffffffffffffffffff166fffffffffffffffffffffffffffffffff161415610f7a576040517f08c379a0000000000000000000000000000000000000000000000000000000008152600401610f7190612871565b60405180910390fd5b600260008273ffffffffffffffffffffffffffffffffffffffff1673ffffffffffffffffffffffffffffffffffffffff16815260200190815260200160002060009054906101000a90046fffffffffffffffffffffffffffffffff16600160008282829054906101000a90046fffffffffffffffffffffffffffffffff166110029190612b17565b92506101000a8154816fffffffffffffffffffffffffffffffff02191690836fffffffffffffffffffffffffffffffff1602179055506000600260008373ffffffffffffffffffffffffffffffffffffffff1673ffffffffffffffffffffffffffffffffffffffff16815260200190815260200160002060009054906101000a90046fffffffffffffffffffffffffffffffff1690506000600260008473ffffffffffffffffffffffffffffffffffffffff1673ffffffffffffffffffffffffffffffffffffffff16815260200190815260200160002060006101000a8154816fffffffffffffffffffffffffffffffff02191690836fffffffffffffffffffffffffffffffff16021790555061111a8260006118fc565b7fff7a2179ab2e3cf7f2082e7a16d8f1b3908ad03e1532f7352596a041f2e1cec182826000600460009054906101000a900473ffffffffffffffffffffffffffffffffffffffff163042604051611176969594939291906125b6565b60405180910390a17fb5f637e0dafe266804a3442b18aa2aa440ae853d52542940177467b723f369bf600160009054906101000a90046fffffffffffffffffffffffffffffffff166000600460009054906101000a900473ffffffffffffffffffffffffffffffffffffffff1630426040516111f69594939291906128b1565b60405180910390a15050565b60606112108a84848b6115ff565b82828080601f016020809104026020016040519081016040528093929190818152602001838380828437600081840152601f19601f8201169050808301925050505050505090509998505050505050505050565b6000600660009054906101000a900473ffffffffffffffffffffffffffffffffffffffff1673ffffffffffffffffffffffffffffffffffffffff1663899baaec600460009054906101000a900473ffffffffffffffffffffffffffffffffffffffff16306000866040518563ffffffff1660e01b81526004016112ea94939291906126bd565b604080518083038186803b15801561130157600080fd5b505afa158015611315573d6000803e3d6000fd5b505050506040513d601f19601f8201168201806040525081019061133991906121dc565b509050600560009054906101000a900473ffffffffffffffffffffffffffffffffffffffff1673ffffffffffffffffffffffffffffffffffffffff166339255d5b600660009054906101000a900473ffffffffffffffffffffffffffffffffffffffff1663b96731c260e01b600460009054906101000a900473ffffffffffffffffffffffffffffffffffffffff16600086600067ffffffffffffffff81111561140c577f4e487b7100000000000000000000000000000000000000000000000000000000600052604160045260246000fd5b6040519080825280601f01601f19166020018201604052801561143e5781602001600182028036833780820191505090505b506040516024016114529493929190612785565b604051602081830303815290604052907bffffffffffffffffffffffffffffffffffffffffffffffffffffffff19166020820180517bffffffffffffffffffffffffffffffffffffffffffffffffffffffff8381831617835250505050600067ffffffffffffffff8111156114f0577f4e487b7100000000000000000000000000000000000000000000000000000000600052604160045260246000fd5b6040519080825280601f01601f1916602001820160405280156115225781602001600182028036833780820191505090505b506040518463ffffffff1660e01b815260040161154193929190612678565b600060405180830381600087803b15801561155b57600080fd5b505af115801561156f573d6000803e3d6000fd5b505050506040513d6000823e3d601f19601f820116820180604052508101906115989190611fcb565b507f97b954bd6ecece0e4ce83187862b22882a00c74b8c0c10f40a170e2fffecf2ba826000600460009054906101000a900473ffffffffffffffffffffffffffffffffffffffff1630426040516115f3959493929190612904565b60405180910390a15050565b6000600560009054906101000a900473ffffffffffffffffffffffffffffffffffffffff1673ffffffffffffffffffffffffffffffffffffffff16633f6c923a85856040518363ffffffff1660e01b815260040161165e929190612632565b60006040518083038186803b15801561167657600080fd5b505afa15801561168a573d6000803e3d6000fd5b505050506040513d6000823e3d601f19601f820116820180604052508101906116b3919061219b565b905063acf4a6c260e01b7bffffffffffffffffffffffffffffffffffffffffffffffffffffffff191681608001517bffffffffffffffffffffffffffffffffffffffffffffffffffffffff191614156118f5576000806000806000600660009054906101000a900473ffffffffffffffffffffffffffffffffffffffff1673ffffffffffffffffffffffffffffffffffffffff1663cd7245c58b896040518363ffffffff1660e01b815260040161176b929190612702565b60a06040518083038186803b15801561178357600080fd5b505afa158015611797573d6000803e3d6000fd5b505050506040513d601f19601f820116820180604052508101906117bb9190611f54565b80955081965082975083985084995050505050503073ffffffffffffffffffffffffffffffffffffffff168573ffffffffffffffffffffffffffffffffffffffff161461183d576040517f08c379a000000000000000000000000000000000000000000000000000000000815260040161183490612851565b60405180910390fd5b600063ffffffff168463ffffffff161461188c576040517f08c379a000000000000000000000000000000000000000000000000000000000815260040161188390612851565b60405180910390fd5b82156118ef57600160086000886060015173ffffffffffffffffffffffffffffffffffffffff1673ffffffffffffffffffffffffffffffffffffffff16815260200190815260200160002060006101000a81548160ff0219169083151502179055505b50505050505b5050505050565b600560009054906101000a900473ffffffffffffffffffffffffffffffffffffffff1673ffffffffffffffffffffffffffffffffffffffff166339255d5b600660009054906101000a900473ffffffffffffffffffffffffffffffffffffffff1663232d2b5860e01b600460009054906101000a900473ffffffffffffffffffffffffffffffffffffffff1660008787600067ffffffffffffffff8111156119cd577f4e487b7100000000000000000000000000000000000000000000000000000000600052604160045260246000fd5b6040519080825280601f01601f1916602001820160405280156119ff5781602001600182028036833780820191505090505b50604051602401611a1495949392919061272b565b604051602081830303815290604052907bffffffffffffffffffffffffffffffffffffffffffffffffffffffff19166020820180517bffffffffffffffffffffffffffffffffffffffffffffffffffffffff8381831617835250505050600067ffffffffffffffff811115611ab2577f4e487b7100000000000000000000000000000000000000000000000000000000600052604160045260246000fd5b6040519080825280601f01601f191660200182016040528015611ae45781602001600182028036833780820191505090505b506040518463ffffffff1660e01b8152600401611b0393929190612678565b600060405180830381600087803b158015611b1d57600080fd5b505af1158015611b31573d6000803e3d6000fd5b505050506040513d6000823e3d601f19601f82011682018060405250810190611b5a9190611fcb565b505050565b6000611b72611b6d846129a3565b612972565b905082815260208101848484011115611b8a57600080fd5b611b95848285612c75565b509392505050565b600081359050611bac81612d46565b92915050565b600081519050611bc181612d46565b92915050565b600081519050611bd681612d5d565b92915050565b600081359050611beb81612d74565b92915050565b600081519050611c0081612d8b565b92915050565b60008083601f840112611c1857600080fd5b8235905067ffffffffffffffff811115611c3157600080fd5b602083019150836001820283011115611c4957600080fd5b9250929050565b600082601f830112611c6157600080fd5b8151611c71848260208601611b5f565b91505092915050565b600081359050611c8981612da2565b92915050565b600081519050611c9e81612db9565b92915050565b60006101408284031215611cb757600080fd5b611cc2610140612972565b90506000611cd284828501611e17565b6000830152506020611ce684828501611e17565b6020830152506040611cfa84828501611ded565b6040830152506060611d0e84828501611bb2565b6060830152506080611d2284828501611bf1565b60808301525060a082015167ffffffffffffffff811115611d4257600080fd5b611d4e84828501611c50565b60a08301525060c0611d6284828501611ded565b60c08301525060e0611d7684828501611ded565b60e083015250610100611d8b84828501611c8f565b61010083015250610120611da184828501611bb2565b6101208301525092915050565b600081359050611dbd81612dd0565b92915050565b600081519050611dd281612dd0565b92915050565b600081359050611de781612de7565b92915050565b600081519050611dfc81612de7565b92915050565b600081519050611e1181612dfe565b92915050565b600081519050611e2681612e15565b92915050565b600060208284031215611e3e57600080fd5b6000611e4c84828501611b9d565b91505092915050565b60008060008060008060008060c0898b031215611e7157600080fd5b6000611e7f8b828c01611b9d565b9850506020611e908b828c01611b9d565b9750506040611ea18b828c01611b9d565b9650506060611eb28b828c01611dd8565b955050608089013567ffffffffffffffff811115611ecf57600080fd5b611edb8b828c01611c06565b945094505060a089013567ffffffffffffffff811115611efa57600080fd5b611f068b828c01611c06565b92509250509295985092959890939650565b60008060408385031215611f2b57600080fd5b6000611f3985828601611b9d565b9250506020611f4a85828601611dae565b9150509250929050565b600080600080600060a08688031215611f6c57600080fd5b6000611f7a88828901611bb2565b9550506020611f8b88828901611e02565b9450506040611f9c88828901611bc7565b9350506060611fad88828901611dc3565b9250506080611fbe88828901611ded565b9150509295509295909350565b600060208284031215611fdd57600080fd5b600082015167ffffffffffffffff811115611ff757600080fd5b61200384828501611c50565b91505092915050565b600080600080600080600060a0888a03121561202757600080fd5b60006120358a828b01611c7a565b97505060206120468a828b01611b9d565b96505060406120578a828b01611bdc565b955050606088013567ffffffffffffffff81111561207457600080fd5b6120808a828b01611c06565b9450945050608088013567ffffffffffffffff81111561209f57600080fd5b6120ab8a828b01611c06565b925092505092959891949750929550565b600080600080600080600080600060c08a8c0312156120da57600080fd5b60006120e88c828d01611c7a565b99505060206120f98c828d01611b9d565b985050604061210a8c828d01611bdc565b97505060608a013567ffffffffffffffff81111561212757600080fd5b6121338c828d01611c06565b965096505060808a013567ffffffffffffffff81111561215257600080fd5b61215e8c828d01611c06565b945094505060a08a013567ffffffffffffffff81111561217d57600080fd5b6121898c828d01611c06565b92509250509295985092959850929598565b6000602082840312156121ad57600080fd5b600082015167ffffffffffffffff8111156121c757600080fd5b6121d384828501611ca4565b91505092915050565b600080604083850312156121ef57600080fd5b60006121fd85828601611ded565b925050602061220e85828601611dc3565b9150509250929050565b61222181612b4b565b82525050565b61223081612b5d565b82525050565b61223f81612b69565b82525050565b600061225183856129de565b935061225e838584612c66565b61226783612d35565b840190509392505050565b600061227d826129d3565b61228781856129de565b9350612297818560208601612c75565b6122a081612d35565b840191505092915050565b6122b481612c1e565b82525050565b6122c381612c42565b82525050565b60006122d66033836129ef565b91507f556e737570706f727465642063616c6c6261636b202d20204265666f7265204160008301527f677265656d656e74205465726d696e61746564000000000000000000000000006020830152604082019050919050565b600061233c601a836129ef565b91507f4452543a20556e737570706f727465642061677265656d656e740000000000006000830152602082019050919050565b600061237c6005836129ef565b91507f664441497a0000000000000000000000000000000000000000000000000000006000830152602082019050919050565b60006123bc600b836129ef565b91507f55736572206578697374730000000000000000000000000000000000000000006000830152602082019050919050565b60006123fc601b836129ef565b91507f4452543a20556e737570706f72746564206361736820746f6b656e00000000006000830152602082019050919050565b600061243c6017836129ef565b91507f4452543a207075626c6973686572206d69736d617463680000000000000000006000830152602082019050919050565b600061247c6012836129ef565b91507f5573657220646f65736e277420657869737400000000000000000000000000006000830152602082019050919050565b60006124bc6031836129ef565b91507f556e737570706f727465642063616c6c6261636b202d2041667465722041677260008301527f65656d656e74205465726d696e617465640000000000000000000000000000006020830152604082019050919050565b61251e81612bbb565b82525050565b61252d81612bf7565b82525050565b61253c81612c01565b82525050565b600060e0820190506125576000830189612218565b81810360208301526125688161236f565b90506125776040830188612524565b6125846060830187612533565b6125916080830186612218565b61259e60a0830185612218565b6125ab60c0830184612524565b979650505050505050565b600060c0820190506125cb6000830189612218565b6125d86020830188612515565b6125e56040830187612533565b6125f26060830186612218565b6125ff6080830185612218565b61260c60a0830184612524565b979650505050505050565b600060208201905061262c6000830184612227565b92915050565b6000602082019050818103600083015261264d818486612245565b90509392505050565b600060208201905081810360008301526126708184612272565b905092915050565b600060608201905061268d60008301866122ab565b818103602083015261269f8185612272565b905081810360408301526126b38184612272565b9050949350505050565b60006080820190506126d260008301876122ba565b6126df6020830186612218565b6126ec6040830185612533565b6126f96060830184612524565b95945050505050565b600060408201905061271760008301856122ba565b6127246020830184612236565b9392505050565b600060a08201905061274060008301886122ba565b61274d6020830187612533565b61275a6040830186612218565b6127676060830185612515565b81810360808301526127798184612272565b90509695505050505050565b600060808201905061279a60008301876122ba565b6127a76020830186612533565b6127b46040830185612524565b81810360608301526127c68184612272565b905095945050505050565b600060208201905081810360008301526127ea816122c9565b9050919050565b6000602082019050818103600083015261280a8161232f565b9050919050565b6000602082019050818103600083015261282a816123af565b9050919050565b6000602082019050818103600083015261284a816123ef565b9050919050565b6000602082019050818103600083015261286a8161242f565b9050919050565b6000602082019050818103600083015261288a8161246f565b9050919050565b600060208201905081810360008301526128aa816124af565b9050919050565b600060a0820190506128c66000830188612515565b6128d36020830187612533565b6128e06040830186612218565b6128ed6060830185612218565b6128fa6080830184612524565b9695505050505050565b600060a0820190506129196000830188612524565b6129266020830187612533565b6129336040830186612218565b6129406060830185612218565b61294d6080830184612524565b9695505050505050565b600060208201905061296c6000830184612533565b92915050565b6000604051905081810181811067ffffffffffffffff8211171561299957612998612d06565b5b8060405250919050565b600067ffffffffffffffff8211156129be576129bd612d06565b5b601f19601f8301169050602081019050919050565b600081519050919050565b600082825260208201905092915050565b600082825260208201905092915050565b6000612a0b82612bbb565b9150612a1683612bbb565b9250826fffffffffffffffffffffffffffffffff03821115612a3b57612a3a612ca8565b5b828201905092915050565b6000612a5182612bf7565b9150612a5c83612bf7565b9250827fffffffffffffffffffffffffffffffffffffffffffffffffffffffffffffffff03821115612a9157612a90612ca8565b5b828201905092915050565b6000612aa782612bbb565b9150612ab283612bbb565b925082612ac257612ac1612cd7565b5b828204905092915050565b6000612ad882612bbb565b9150612ae383612bbb565b9250816fffffffffffffffffffffffffffffffff0483118215151615612b0c57612b0b612ca8565b5b828202905092915050565b6000612b2282612bbb565b9150612b2d83612bbb565b925082821015612b4057612b3f612ca8565b5b828203905092915050565b6000612b5682612bd7565b9050919050565b60008115159050919050565b6000819050919050565b60007fffffffff0000000000000000000000000000000000000000000000000000000082169050919050565b6000612baa82612b4b565b9050919050565b6000819050919050565b60006fffffffffffffffffffffffffffffffff82169050919050565b600073ffffffffffffffffffffffffffffffffffffffff82169050919050565b6000819050919050565b600063ffffffff82169050919050565b600060ff82169050919050565b6000612c2982612c30565b9050919050565b6000612c3b82612bd7565b9050919050565b6000612c4d82612c54565b9050919050565b6000612c5f82612bd7565b9050919050565b82818337600083830152505050565b60005b83811015612c93578082015181840152602081019050612c78565b83811115612ca2576000848401525b50505050565b7f4e487b7100000000000000000000000000000000000000000000000000000000600052601160045260246000fd5b7f4e487b7100000000000000000000000000000000000000000000000000000000600052601260045260246000fd5b7f4e487b7100000000000000000000000000000000000000000000000000000000600052604160045260246000fd5b6000601f19601f8301169050919050565b612d4f81612b4b565b8114612d5a57600080fd5b50565b612d6681612b5d565b8114612d7157600080fd5b50565b612d7d81612b69565b8114612d8857600080fd5b50565b612d9481612b73565b8114612d9f57600080fd5b50565b612dab81612b9f565b8114612db657600080fd5b50565b612dc281612bb1565b8114612dcd57600080fd5b50565b612dd981612bbb565b8114612de457600080fd5b50565b612df081612bf7565b8114612dfb57600080fd5b50565b612e0781612c01565b8114612e1257600080fd5b50565b612e1e81612c11565b8114612e2957600080fd5b5056fea264697066735822122023be759502e7f0d9b61323463407f38cb242c8c2459b99299bfc7f4122ce646264736f6c63430008000033",
  "immutableReferences": {},
  "source": "pragma solidity ^0.8.0;\npragma experimental ABIEncoderV2;\n\nimport {\n    ISuperfluid,\n    ISuperToken,\n    SuperAppBase,\n    SuperAppDefinitions\n} from \"@superfluid-finance/ethereum-contracts/contracts/apps/SuperAppBase.sol\";\n//from \"https://github.com/superfluid-finance/protocol-monorepo/blob/remix-support/packages/ethereum-contracts/contracts/apps/SuperAppBase.sol\";\nimport {\n    IInstantDistributionAgreementV1\n} from \"@superfluid-finance/ethereum-contracts/contracts/interfaces/agreements/IInstantDistributionAgreementV1.sol\";\n//from \"https://github.com/superfluid-finance/protocol-monorepo/blob/remix-support/packages/ethereum-contracts/contracts/interfaces/agreements/IInstantDistributionAgreementV1.sol\";\n\nimport \"@openzeppelin/contracts/token/ERC777/IERC777.sol\";\nimport \"@openzeppelin/contracts/utils/introspection/IERC1820Registry.sol\";\nimport \"@openzeppelin/contracts/token/ERC777/IERC777Recipient.sol\";\n\ncontract ERC777Distributor is IERC777Recipient,SuperAppBase {\n\n    uint256 totalDonations=0;\n    uint128 totalShareUnits=100;\n    mapping (address=>uint128) shareMapping;\n\n    uint32 public constant INDEX_ID = 0;\n\n    address owner;\n\n    ISuperToken private _cashToken;\n    ISuperfluid private _host;\n    IInstantDistributionAgreementV1 private _ida;\n\n    IERC1820Registry private _erc1820 = IERC1820Registry(0x1820a4B7618BdE71Dce8cdc73aAB6C95905faD24);\n    bytes32 constant private TOKENS_RECIPIENT_INTERFACE_HASH = keccak256(\"ERC777TokensRecipient\");\n\n    // use callbacks to track approved subscriptions\n    mapping (address => bool) public isSubscribing;\n\n    //Events\n    event DonationReceived(address from, string token, uint256 amount,uint32 index,address tokenAddress,address publisher,uint timeStamp);\n    event UserAdded(address userAddress,uint128 shares,uint32 index,address tokenAddress,address publisher,uint timeStamp);\n    event UserRemoved(address userAddress,uint128 shares,uint32 index,address tokenAddress,address publisher,uint timeStamp);\n    event UserModified(address userAddress,uint128 shares,uint32 index,address tokenAddress,address publisher,uint timeStamp);\n    event Distribution(uint256 amountDistributed,uint32 index,address tokenAddress,address publisher,uint timeStamp);\n    event TotalShares(uint128 totalShares,uint32 index,address tokenAddress,address publisher,uint timeStamp);\n\n    constructor (\n        ISuperToken cashToken,\n        ISuperfluid host,\n        IInstantDistributionAgreementV1 ida) public {\n        owner = msg.sender;\n        _erc1820.setInterfaceImplementer(address(this), TOKENS_RECIPIENT_INTERFACE_HASH, address(this));\n\n        _cashToken = cashToken;\n        _host = host;\n        _ida = ida;\n\n        uint256 configWord =\n            SuperAppDefinitions.APP_LEVEL_FINAL |\n            SuperAppDefinitions.BEFORE_AGREEMENT_TERMINATED_NOOP |\n            SuperAppDefinitions.AFTER_AGREEMENT_TERMINATED_NOOP;\n\n        _host.registerApp(configWord);\n\n        _host.callAgreement(\n            _ida,\n            abi.encodeWithSelector(\n                _ida.createIndex.selector,\n                _cashToken,\n                INDEX_ID,\n                new bytes(0) // placeholder ctx\n            ),\n            new bytes(0) // user data\n        );\n    }\n\n    modifier onlyOwner(){\n        require(owner==msg.sender);\n        _;\n    }\n\n    \n\n    function beforeAgreementCreated(\n        ISuperToken superToken,\n        address agreementClass,\n        bytes32 /* agreementId */,\n        bytes calldata /*agreementData*/,\n        bytes calldata /*ctx*/\n    )\n        external view override\n        returns (bytes memory data)\n    {\n        require(superToken == _cashToken, \"DRT: Unsupported cash token\");\n        require(agreementClass == address(_ida), \"DRT: Unsupported agreement\");\n        return new bytes(0);\n    }\n\n    function afterAgreementCreated(\n        ISuperToken superToken,\n        address /* agreementClass */,\n        bytes32 agreementId,\n        bytes calldata /*agreementData*/,\n        bytes calldata /*cbdata*/,\n        bytes calldata ctx\n    )\n        external override\n        returns(bytes memory newCtx)\n    {\n        _checkSubscription(superToken, ctx, agreementId);\n        newCtx = ctx;\n    }\n\n    function beforeAgreementUpdated(\n        ISuperToken superToken,\n        address agreementClass,\n        bytes32 /* agreementId */,\n        bytes calldata /*agreementData*/,\n        bytes calldata /*ctx*/\n    )\n        external view override\n        returns (bytes memory data)\n    {\n        require(superToken == _cashToken, \"DRT: Unsupported cash token\");\n        require(agreementClass == address(_ida), \"DRT: Unsupported agreement\");\n        return new bytes(0);\n    }\n\n    function afterAgreementUpdated(\n        ISuperToken superToken,\n        address /* agreementClass */,\n        bytes32 agreementId,\n        bytes calldata /*agreementData*/,\n        bytes calldata /*cbdata*/,\n        bytes calldata ctx\n    )\n        external override\n        returns(bytes memory newCtx)\n    {\n        _checkSubscription(superToken, ctx, agreementId);\n        newCtx = ctx;\n    }\n\n    function _checkSubscription(\n        ISuperToken superToken,\n        bytes calldata ctx,\n        bytes32 agreementId\n    )\n        private\n    {\n        ISuperfluid.Context memory context = _host.decodeCtx(ctx);\n        // only interested in the subscription approval callbacks\n        if (context.agreementSelector == IInstantDistributionAgreementV1.approveSubscription.selector) {\n            address publisher;\n            uint32 indexId;\n            bool approved;\n            uint128 units;\n            uint256 pendingDistribution;\n            (publisher, indexId, approved, units, pendingDistribution) =\n                _ida.getSubscriptionByID(superToken, agreementId);\n\n            // sanity checks for testing purpose\n            require(publisher == address(this), \"DRT: publisher mismatch\");\n            require(indexId == INDEX_ID, \"DRT: publisher mismatch\");\n\n            if (approved) {\n                isSubscribing[context.msgSender /* subscriber */] = true;\n            }\n        }\n    }\n\n    function modifySub(address newUser,uint128 shareUnits) internal{\n        _host.callAgreement(\n            _ida,\n            abi.encodeWithSelector(\n                _ida.updateSubscription.selector,\n                _cashToken,\n                INDEX_ID,\n                newUser,\n                shareUnits,\n                new bytes(0) // placeholder ctx\n            ),\n            new bytes(0) // user data\n        );\n        \n    }\n\n    function addUser(address newUser,uint128 sharePercentage) external onlyOwner{\n        require(shareMapping[newUser]==0,'User exists');\n        uint128 shareUnits = (sharePercentage * totalShareUnits)/(100- sharePercentage);\n        modifySub(newUser, shareUnits);\n        totalShareUnits += shareUnits;\n        shareMapping[newUser] = shareUnits;\n        emit UserAdded(newUser,shareUnits,INDEX_ID,address(_cashToken),address(this),block.timestamp);\n        emit TotalShares(totalShareUnits,INDEX_ID,address(_cashToken),address(this),block.timestamp);\n    }\n\n    function modifyUser(address existingUser,uint128 sharePercentage) external onlyOwner{\n        require(shareMapping[existingUser]!=0,\"User doesn't exist\");\n        uint128 shareUnits = (sharePercentage * (totalShareUnits-shareMapping[existingUser]))/(100- sharePercentage);\n        modifySub(existingUser, shareUnits);\n        totalShareUnits += shareUnits - shareMapping[existingUser];\n        shareMapping[existingUser] = shareUnits;\n        emit UserModified(existingUser,shareUnits,INDEX_ID,address(_cashToken),address(this),block.timestamp);\n        emit TotalShares(totalShareUnits,INDEX_ID,address(_cashToken),address(this),block.timestamp);\n    }\n\n    function removeUser(address existingUser) external onlyOwner{\n        require(shareMapping[existingUser]!=0,\"User doesn't exist\");\n        totalShareUnits -= shareMapping[existingUser];\n        uint128 temp = shareMapping[existingUser];\n        shareMapping[existingUser] = 0;\n        modifySub(existingUser, 0);\n        emit UserRemoved(existingUser,temp,INDEX_ID,address(_cashToken),address(this),block.timestamp);\n        emit TotalShares(totalShareUnits,INDEX_ID,address(_cashToken),address(this),block.timestamp);\n    }\n\n    /// @dev Distribute `amount` of cash among all token holders\n    function distribute(uint256 cashAmount) internal {\n        (uint256 actualCashAmount,) = _ida.calculateDistribution(\n            _cashToken,\n            address(this), INDEX_ID,\n            cashAmount);\n\n        _host.callAgreement(\n            _ida,\n            abi.encodeWithSelector(\n                _ida.distribute.selector,\n                _cashToken,\n                INDEX_ID,\n                actualCashAmount,\n                new bytes(0) // placeholder ctx\n            ),\n            new bytes(0) // user data\n        );\n        emit Distribution(cashAmount,INDEX_ID,address(_cashToken),address(this),block.timestamp);\n    }\n\n    function tokensReceived(\n        address operator,\n        address from,\n        address to,\n        uint256 amount,\n        bytes calldata userData,\n        bytes calldata operatorData\n    ) external override {\n        //require(msg.sender == address(_token), \"Simple777Recipient: Invalid token\");\n\n        // do stuff\n        totalDonations += amount;\n        distribute(amount);\n        emit DonationReceived( from, \"fDAIz\", amount,INDEX_ID,address(_cashToken),address(this),block.timestamp);\n    }\n}\n",
  "sourcePath": "/Users/praffulsahu/Documents/Crypto/erc777distributor/contracts/ERC777Distributor.sol",
  "compiler": {
    "name": "solc",
    "version": "0.8.0+commit.c7dfd78e.Emscripten.clang"
  },
  "schemaVersion": "3.3.3",
  "updatedAt": "2021-06-22T14:25:06.540Z",
  "networkType": "ethereum",
  "devdoc": {
    "kind": "dev",
    "methods": {
      "tokensReceived(address,address,address,uint256,bytes,bytes)": {
        "details": "Called by an {IERC777} token contract whenever tokens are being moved or created into a registered account (`to`). The type of operation is conveyed by `from` being the zero address or not. This call occurs _after_ the token contract's state is updated, so {IERC777-balanceOf}, etc., can be used to query the post-operation state. This function may revert to prevent the operation from being executed."
      }
    },
    "version": 1
  },
  "userdoc": {
    "kind": "user",
    "methods": {},
    "version": 1
  }
}