{
  "contractName": "ERC777Distributor",
  "abi": [
    {
      "inputs": [
        {
          "internalType": "contract ISuperToken",
          "name": "cashToken",
          "type": "address"
        },
        {
          "internalType": "contract ISuperfluid",
          "name": "host",
          "type": "address"
        },
        {
          "internalType": "contract IInstantDistributionAgreementV1",
          "name": "ida",
          "type": "address"
        }
      ],
      "stateMutability": "nonpayable",
      "type": "constructor"
    },
    {
      "anonymous": false,
      "inputs": [
        {
          "indexed": false,
          "internalType": "address",
          "name": "from",
          "type": "address"
        },
        {
          "indexed": false,
          "internalType": "string",
          "name": "token",
          "type": "string"
        },
        {
          "indexed": false,
          "internalType": "uint256",
          "name": "amount",
          "type": "uint256"
        }
      ],
      "name": "DonationReceived",
      "type": "event"
    },
    {
      "inputs": [],
      "name": "INDEX_ID",
      "outputs": [
        {
          "internalType": "uint32",
          "name": "",
          "type": "uint32"
        }
      ],
      "stateMutability": "view",
      "type": "function"
    },
    {
      "inputs": [
        {
          "internalType": "contract ISuperToken",
          "name": "",
          "type": "address"
        },
        {
          "internalType": "address",
          "name": "",
          "type": "address"
        },
        {
          "internalType": "bytes32",
          "name": "",
          "type": "bytes32"
        },
        {
          "internalType": "bytes",
          "name": "",
          "type": "bytes"
        },
        {
          "internalType": "bytes",
          "name": "",
          "type": "bytes"
        },
        {
          "internalType": "bytes",
          "name": "",
          "type": "bytes"
        }
      ],
      "name": "afterAgreementTerminated",
      "outputs": [
        {
          "internalType": "bytes",
          "name": "",
          "type": "bytes"
        }
      ],
      "stateMutability": "nonpayable",
      "type": "function"
    },
    {
      "inputs": [
        {
          "internalType": "contract ISuperToken",
          "name": "",
          "type": "address"
        },
        {
          "internalType": "address",
          "name": "",
          "type": "address"
        },
        {
          "internalType": "bytes32",
          "name": "",
          "type": "bytes32"
        },
        {
          "internalType": "bytes",
          "name": "",
          "type": "bytes"
        },
        {
          "internalType": "bytes",
          "name": "",
          "type": "bytes"
        }
      ],
      "name": "beforeAgreementTerminated",
      "outputs": [
        {
          "internalType": "bytes",
          "name": "",
          "type": "bytes"
        }
      ],
      "stateMutability": "view",
      "type": "function"
    },
    {
      "inputs": [
        {
          "internalType": "address",
          "name": "",
          "type": "address"
        }
      ],
      "name": "isSubscribing",
      "outputs": [
        {
          "internalType": "bool",
          "name": "",
          "type": "bool"
        }
      ],
      "stateMutability": "view",
      "type": "function"
    },
    {
      "inputs": [
        {
          "internalType": "contract ISuperToken",
          "name": "superToken",
          "type": "address"
        },
        {
          "internalType": "address",
          "name": "agreementClass",
          "type": "address"
        },
        {
          "internalType": "bytes32",
          "name": "",
          "type": "bytes32"
        },
        {
          "internalType": "bytes",
          "name": "",
          "type": "bytes"
        },
        {
          "internalType": "bytes",
          "name": "",
          "type": "bytes"
        }
      ],
      "name": "beforeAgreementCreated",
      "outputs": [
        {
          "internalType": "bytes",
          "name": "data",
          "type": "bytes"
        }
      ],
      "stateMutability": "view",
      "type": "function"
    },
    {
      "inputs": [
        {
          "internalType": "contract ISuperToken",
          "name": "superToken",
          "type": "address"
        },
        {
          "internalType": "address",
          "name": "",
          "type": "address"
        },
        {
          "internalType": "bytes32",
          "name": "agreementId",
          "type": "bytes32"
        },
        {
          "internalType": "bytes",
          "name": "",
          "type": "bytes"
        },
        {
          "internalType": "bytes",
          "name": "",
          "type": "bytes"
        },
        {
          "internalType": "bytes",
          "name": "ctx",
          "type": "bytes"
        }
      ],
      "name": "afterAgreementCreated",
      "outputs": [
        {
          "internalType": "bytes",
          "name": "newCtx",
          "type": "bytes"
        }
      ],
      "stateMutability": "nonpayable",
      "type": "function"
    },
    {
      "inputs": [
        {
          "internalType": "contract ISuperToken",
          "name": "superToken",
          "type": "address"
        },
        {
          "internalType": "address",
          "name": "agreementClass",
          "type": "address"
        },
        {
          "internalType": "bytes32",
          "name": "",
          "type": "bytes32"
        },
        {
          "internalType": "bytes",
          "name": "",
          "type": "bytes"
        },
        {
          "internalType": "bytes",
          "name": "",
          "type": "bytes"
        }
      ],
      "name": "beforeAgreementUpdated",
      "outputs": [
        {
          "internalType": "bytes",
          "name": "data",
          "type": "bytes"
        }
      ],
      "stateMutability": "view",
      "type": "function"
    },
    {
      "inputs": [
        {
          "internalType": "contract ISuperToken",
          "name": "superToken",
          "type": "address"
        },
        {
          "internalType": "address",
          "name": "",
          "type": "address"
        },
        {
          "internalType": "bytes32",
          "name": "agreementId",
          "type": "bytes32"
        },
        {
          "internalType": "bytes",
          "name": "",
          "type": "bytes"
        },
        {
          "internalType": "bytes",
          "name": "",
          "type": "bytes"
        },
        {
          "internalType": "bytes",
          "name": "ctx",
          "type": "bytes"
        }
      ],
      "name": "afterAgreementUpdated",
      "outputs": [
        {
          "internalType": "bytes",
          "name": "newCtx",
          "type": "bytes"
        }
      ],
      "stateMutability": "nonpayable",
      "type": "function"
    },
    {
      "inputs": [
        {
          "internalType": "address",
          "name": "operator",
          "type": "address"
        },
        {
          "internalType": "address",
          "name": "from",
          "type": "address"
        },
        {
          "internalType": "address",
          "name": "to",
          "type": "address"
        },
        {
          "internalType": "uint256",
          "name": "amount",
          "type": "uint256"
        },
        {
          "internalType": "bytes",
          "name": "userData",
          "type": "bytes"
        },
        {
          "internalType": "bytes",
          "name": "operatorData",
          "type": "bytes"
        }
      ],
      "name": "tokensReceived",
      "outputs": [],
      "stateMutability": "nonpayable",
      "type": "function"
    }
  ],
  "bytecode": "0x6080604052731820a4b7618bde71dce8cdc73aab6c95905fad24600560006101000a81548173ffffffffffffffffffffffffffffffffffffffff021916908373ffffffffffffffffffffffffffffffffffffffff1602179055503480156200006657600080fd5b50604051620026c0380380620026c083398181016040528101906200008c919062000615565b600560009054906101000a900473ffffffffffffffffffffffffffffffffffffffff1673ffffffffffffffffffffffffffffffffffffffff166329965a1d307fb281fc8c12954d22544db45de3159a39272895b169a852b314f9cc762e44c53b306040518463ffffffff1660e01b81526004016200010d9392919062000712565b600060405180830381600087803b1580156200012857600080fd5b505af11580156200013d573d6000803e3d6000fd5b5050505082600260006101000a81548173ffffffffffffffffffffffffffffffffffffffff021916908373ffffffffffffffffffffffffffffffffffffffff16021790555081600360006101000a81548173ffffffffffffffffffffffffffffffffffffffff021916908373ffffffffffffffffffffffffffffffffffffffff16021790555080600460006101000a81548173ffffffffffffffffffffffffffffffffffffffff021916908373ffffffffffffffffffffffffffffffffffffffff1602179055506000642000000000641000000000600117179050600360009054906101000a900473ffffffffffffffffffffffffffffffffffffffff1673ffffffffffffffffffffffffffffffffffffffff1663ad3915c8826040518263ffffffff1660e01b8152600401620002759190620007de565b600060405180830381600087803b1580156200029057600080fd5b505af1158015620002a5573d6000803e3d6000fd5b50505050600360009054906101000a900473ffffffffffffffffffffffffffffffffffffffff1673ffffffffffffffffffffffffffffffffffffffff166339255d5b600460009054906101000a900473ffffffffffffffffffffffffffffffffffffffff1663d787840a60e01b600260009054906101000a900473ffffffffffffffffffffffffffffffffffffffff1660008067ffffffffffffffff81111562000378577f4e487b7100000000000000000000000000000000000000000000000000000000600052604160045260246000fd5b6040519080825280601f01601f191660200182016040528015620003ab5781602001600182028036833780820191505090505b50604051602401620003c0939291906200079a565b604051602081830303815290604052907bffffffffffffffffffffffffffffffffffffffffffffffffffffffff19166020820180517bffffffffffffffffffffffffffffffffffffffffffffffffffffffff8381831617835250505050600067ffffffffffffffff8111156200045f577f4e487b7100000000000000000000000000000000000000000000000000000000600052604160045260246000fd5b6040519080825280601f01601f191660200182016040528015620004925781602001600182028036833780820191505090505b506040518463ffffffff1660e01b8152600401620004b3939291906200074f565b600060405180830381600087803b158015620004ce57600080fd5b505af1158015620004e3573d6000803e3d6000fd5b505050506040513d6000823e3d601f19601f820116820180604052508101906200050e9190620005d0565b505050505062000a26565b6000620005306200052a846200082f565b620007fb565b9050828152602081018484840111156200054957600080fd5b6200055684828562000962565b509392505050565b600082601f8301126200057057600080fd5b81516200058284826020860162000519565b91505092915050565b6000815190506200059c81620009d8565b92915050565b600081519050620005b381620009f2565b92915050565b600081519050620005ca8162000a0c565b92915050565b600060208284031215620005e357600080fd5b600082015167ffffffffffffffff811115620005fe57600080fd5b6200060c848285016200055e565b91505092915050565b6000806000606084860312156200062b57600080fd5b60006200063b86828701620005a2565b93505060206200064e86828701620005b9565b925050604062000661868287016200058b565b9150509250925092565b62000676816200087e565b82525050565b620006878162000892565b82525050565b60006200069a8262000862565b620006a681856200086d565b9350620006b881856020860162000962565b620006c381620009c7565b840191505092915050565b620006d98162000912565b82525050565b620006ea816200093a565b82525050565b620006fb81620008f8565b82525050565b6200070c8162000902565b82525050565b60006060820190506200072960008301866200066b565b6200073860208301856200067c565b6200074760408301846200066b565b949350505050565b6000606082019050620007666000830186620006ce565b81810360208301526200077a81856200068d565b905081810360408301526200079081846200068d565b9050949350505050565b6000606082019050620007b16000830186620006df565b620007c0602083018562000701565b8181036040830152620007d481846200068d565b9050949350505050565b6000602082019050620007f56000830184620006f0565b92915050565b6000604051905081810181811067ffffffffffffffff8211171562000825576200082462000998565b5b8060405250919050565b600067ffffffffffffffff8211156200084d576200084c62000998565b5b601f19601f8301169050602081019050919050565b600081519050919050565b600082825260208201905092915050565b60006200088b82620008d8565b9050919050565b6000819050919050565b6000620008a9826200087e565b9050919050565b6000620008bd826200087e565b9050919050565b6000620008d1826200087e565b9050919050565b600073ffffffffffffffffffffffffffffffffffffffff82169050919050565b6000819050919050565b600063ffffffff82169050919050565b60006200091f8262000926565b9050919050565b60006200093382620008d8565b9050919050565b600062000947826200094e565b9050919050565b60006200095b82620008d8565b9050919050565b60005b838110156200098257808201518184015260208101905062000965565b8381111562000992576000848401525b50505050565b7f4e487b7100000000000000000000000000000000000000000000000000000000600052604160045260246000fd5b6000601f19601f8301169050919050565b620009e3816200089c565b8114620009ef57600080fd5b50565b620009fd81620008b0565b811462000a0957600080fd5b50565b62000a1781620008c4565b811462000a2357600080fd5b50565b611c8a8062000a366000396000f3fe608060405234801561001057600080fd5b50600436106100925760003560e01c80635f9e7d77116100665780635f9e7d7714610143578063884d1f40146101735780638c7f0959146101a3578063915e3364146101c1578063d86ed3e5146101f157610092565b806223de2914610097578063230dbd29146100b357806330d9c915146100e357806353c11f9914610113575b600080fd5b6100b160048036038101906100ac9190611045565b610221565b005b6100cd60048036038101906100c89190611270565b610285565b6040516100da91906116e2565b60405180910390f35b6100fd60048036038101906100f891906111c0565b6102e7565b60405161010a91906116e2565b60405180910390f35b61012d60048036038101906101289190611270565b61048a565b60405161013a91906116e2565b60405180910390f35b61015d600480360381019061015891906111c0565b6104c7565b60405161016a91906116e2565b60405180910390f35b61018d600480360381019061018891906111c0565b610504565b60405161019a91906116e2565b60405180910390f35b6101ab6106a7565b6040516101b891906118a3565b60405180910390f35b6101db60048036038101906101d6919061101c565b6106ac565b6040516101e891906116a3565b60405180910390f35b61020b60048036038101906102069190611270565b6106cc565b60405161021891906116e2565b60405180910390f35b84600080828254610232919061194c565b925050819055506102428561072e565b7f91a631485fcb697827429988737671b22367c3f76633aed1ed4193b7a52590ab8786604051610273929190611667565b60405180910390a15050505050505050565b60606102938a84848b610a67565b82828080601f016020809104026020016040519081016040528093929190818152602001838380828437600081840152601f19601f8201169050808301925050505050505090509998505050505050505050565b6060600260009054906101000a900473ffffffffffffffffffffffffffffffffffffffff1673ffffffffffffffffffffffffffffffffffffffff168873ffffffffffffffffffffffffffffffffffffffff1614610379576040517f08c379a000000000000000000000000000000000000000000000000000000000815260040161037090611843565b60405180910390fd5b600460009054906101000a900473ffffffffffffffffffffffffffffffffffffffff1673ffffffffffffffffffffffffffffffffffffffff168773ffffffffffffffffffffffffffffffffffffffff1614610409576040517f08c379a000000000000000000000000000000000000000000000000000000000815260040161040090611823565b60405180910390fd5b600067ffffffffffffffff81111561044a577f4e487b7100000000000000000000000000000000000000000000000000000000600052604160045260246000fd5b6040519080825280601f01601f19166020018201604052801561047c5781602001600182028036833780820191505090505b509050979650505050505050565b60606040517f08c379a00000000000000000000000000000000000000000000000000000000081526004016104be90611883565b60405180910390fd5b60606040517f08c379a00000000000000000000000000000000000000000000000000000000081526004016104fb90611803565b60405180910390fd5b6060600260009054906101000a900473ffffffffffffffffffffffffffffffffffffffff1673ffffffffffffffffffffffffffffffffffffffff168873ffffffffffffffffffffffffffffffffffffffff1614610596576040517f08c379a000000000000000000000000000000000000000000000000000000000815260040161058d90611843565b60405180910390fd5b600460009054906101000a900473ffffffffffffffffffffffffffffffffffffffff1673ffffffffffffffffffffffffffffffffffffffff168773ffffffffffffffffffffffffffffffffffffffff1614610626576040517f08c379a000000000000000000000000000000000000000000000000000000000815260040161061d90611823565b60405180910390fd5b600067ffffffffffffffff811115610667577f4e487b7100000000000000000000000000000000000000000000000000000000600052604160045260246000fd5b6040519080825280601f01601f1916602001820160405280156106995781602001600182028036833780820191505090505b509050979650505050505050565b600081565b60066020528060005260406000206000915054906101000a900460ff1681565b60606106da8a84848b610a67565b82828080601f016020809104026020016040519081016040528093929190818152602001838380828437600081840152601f19601f8201169050808301925050505050505090509998505050505050505050565b6000600460009054906101000a900473ffffffffffffffffffffffffffffffffffffffff1673ffffffffffffffffffffffffffffffffffffffff1663899baaec600260009054906101000a900473ffffffffffffffffffffffffffffffffffffffff16306000866040518563ffffffff1660e01b81526004016107b49493929190611749565b604080518083038186803b1580156107cb57600080fd5b505afa1580156107df573d6000803e3d6000fd5b505050506040513d601f19601f820116820180604052508101906108039190611390565b509050600360009054906101000a900473ffffffffffffffffffffffffffffffffffffffff1673ffffffffffffffffffffffffffffffffffffffff166339255d5b600460009054906101000a900473ffffffffffffffffffffffffffffffffffffffff1663b96731c260e01b600260009054906101000a900473ffffffffffffffffffffffffffffffffffffffff16600086600067ffffffffffffffff8111156108d6577f4e487b7100000000000000000000000000000000000000000000000000000000600052604160045260246000fd5b6040519080825280601f01601f1916602001820160405280156109085781602001600182028036833780820191505090505b5060405160240161091c94939291906117b7565b604051602081830303815290604052907bffffffffffffffffffffffffffffffffffffffffffffffffffffffff19166020820180517bffffffffffffffffffffffffffffffffffffffffffffffffffffffff8381831617835250505050600067ffffffffffffffff8111156109ba577f4e487b7100000000000000000000000000000000000000000000000000000000600052604160045260246000fd5b6040519080825280601f01601f1916602001820160405280156109ec5781602001600182028036833780820191505090505b506040518463ffffffff1660e01b8152600401610a0b93929190611704565b600060405180830381600087803b158015610a2557600080fd5b505af1158015610a39573d6000803e3d6000fd5b505050506040513d6000823e3d601f19601f82011682018060405250810190610a62919061117f565b505050565b6000600360009054906101000a900473ffffffffffffffffffffffffffffffffffffffff1673ffffffffffffffffffffffffffffffffffffffff16633f6c923a85856040518363ffffffff1660e01b8152600401610ac69291906116be565b60006040518083038186803b158015610ade57600080fd5b505afa158015610af2573d6000803e3d6000fd5b505050506040513d6000823e3d601f19601f82011682018060405250810190610b1b919061134f565b905063acf4a6c260e01b7bffffffffffffffffffffffffffffffffffffffffffffffffffffffff191681608001517bffffffffffffffffffffffffffffffffffffffffffffffffffffffff19161415610d5d576000806000806000600460009054906101000a900473ffffffffffffffffffffffffffffffffffffffff1673ffffffffffffffffffffffffffffffffffffffff1663cd7245c58b896040518363ffffffff1660e01b8152600401610bd392919061178e565b60a06040518083038186803b158015610beb57600080fd5b505afa158015610bff573d6000803e3d6000fd5b505050506040513d601f19601f82011682018060405250810190610c239190611108565b80955081965082975083985084995050505050503073ffffffffffffffffffffffffffffffffffffffff168573ffffffffffffffffffffffffffffffffffffffff1614610ca5576040517f08c379a0000000000000000000000000000000000000000000000000000000008152600401610c9c90611863565b60405180910390fd5b600063ffffffff168463ffffffff1614610cf4576040517f08c379a0000000000000000000000000000000000000000000000000000000008152600401610ceb90611863565b60405180910390fd5b8215610d5757600160066000886060015173ffffffffffffffffffffffffffffffffffffffff1673ffffffffffffffffffffffffffffffffffffffff16815260200190815260200160002060006101000a81548160ff0219169083151502179055505b50505050505b5050505050565b6000610d77610d72846118ef565b6118be565b905082815260208101848484011115610d8f57600080fd5b610d9a848285611acc565b509392505050565b600081359050610db181611b6e565b92915050565b600081519050610dc681611b6e565b92915050565b600081519050610ddb81611b85565b92915050565b600081359050610df081611b9c565b92915050565b600081519050610e0581611bb3565b92915050565b60008083601f840112610e1d57600080fd5b8235905067ffffffffffffffff811115610e3657600080fd5b602083019150836001820283011115610e4e57600080fd5b9250929050565b600082601f830112610e6657600080fd5b8151610e76848260208601610d64565b91505092915050565b600081359050610e8e81611bca565b92915050565b600081519050610ea381611be1565b92915050565b60006101408284031215610ebc57600080fd5b610ec76101406118be565b90506000610ed784828501611007565b6000830152506020610eeb84828501611007565b6020830152506040610eff84828501610fdd565b6040830152506060610f1384828501610db7565b6060830152506080610f2784828501610df6565b60808301525060a082015167ffffffffffffffff811115610f4757600080fd5b610f5384828501610e55565b60a08301525060c0610f6784828501610fdd565b60c08301525060e0610f7b84828501610fdd565b60e083015250610100610f9084828501610e94565b61010083015250610120610fa684828501610db7565b6101208301525092915050565b600081519050610fc281611bf8565b92915050565b600081359050610fd781611c0f565b92915050565b600081519050610fec81611c0f565b92915050565b60008151905061100181611c26565b92915050565b60008151905061101681611c3d565b92915050565b60006020828403121561102e57600080fd5b600061103c84828501610da2565b91505092915050565b60008060008060008060008060c0898b03121561106157600080fd5b600061106f8b828c01610da2565b98505060206110808b828c01610da2565b97505060406110918b828c01610da2565b96505060606110a28b828c01610fc8565b955050608089013567ffffffffffffffff8111156110bf57600080fd5b6110cb8b828c01610e0b565b945094505060a089013567ffffffffffffffff8111156110ea57600080fd5b6110f68b828c01610e0b565b92509250509295985092959890939650565b600080600080600060a0868803121561112057600080fd5b600061112e88828901610db7565b955050602061113f88828901610ff2565b945050604061115088828901610dcc565b935050606061116188828901610fb3565b925050608061117288828901610fdd565b9150509295509295909350565b60006020828403121561119157600080fd5b600082015167ffffffffffffffff8111156111ab57600080fd5b6111b784828501610e55565b91505092915050565b600080600080600080600060a0888a0312156111db57600080fd5b60006111e98a828b01610e7f565b97505060206111fa8a828b01610da2565b965050604061120b8a828b01610de1565b955050606088013567ffffffffffffffff81111561122857600080fd5b6112348a828b01610e0b565b9450945050608088013567ffffffffffffffff81111561125357600080fd5b61125f8a828b01610e0b565b925092505092959891949750929550565b600080600080600080600080600060c08a8c03121561128e57600080fd5b600061129c8c828d01610e7f565b99505060206112ad8c828d01610da2565b98505060406112be8c828d01610de1565b97505060608a013567ffffffffffffffff8111156112db57600080fd5b6112e78c828d01610e0b565b965096505060808a013567ffffffffffffffff81111561130657600080fd5b6113128c828d01610e0b565b945094505060a08a013567ffffffffffffffff81111561133157600080fd5b61133d8c828d01610e0b565b92509250509295985092959850929598565b60006020828403121561136157600080fd5b600082015167ffffffffffffffff81111561137b57600080fd5b61138784828501610ea9565b91505092915050565b600080604083850312156113a357600080fd5b60006113b185828601610fdd565b92505060206113c285828601610fb3565b9150509250929050565b6113d5816119a2565b82525050565b6113e4816119b4565b82525050565b6113f3816119c0565b82525050565b6000611405838561192a565b9350611412838584611abd565b61141b83611b5d565b840190509392505050565b60006114318261191f565b61143b818561192a565b935061144b818560208601611acc565b61145481611b5d565b840191505092915050565b61146881611a75565b82525050565b61147781611a99565b82525050565b600061148a60098361193b565b91507f746f6b656e4e616d6500000000000000000000000000000000000000000000006000830152602082019050919050565b60006114ca60338361193b565b91507f556e737570706f727465642063616c6c6261636b202d20204265666f7265204160008301527f677265656d656e74205465726d696e61746564000000000000000000000000006020830152604082019050919050565b6000611530601a8361193b565b91507f4452543a20556e737570706f727465642061677265656d656e740000000000006000830152602082019050919050565b6000611570601b8361193b565b91507f4452543a20556e737570706f72746564206361736820746f6b656e00000000006000830152602082019050919050565b60006115b060178361193b565b91507f4452543a207075626c6973686572206d69736d617463680000000000000000006000830152602082019050919050565b60006115f060318361193b565b91507f556e737570706f727465642063616c6c6261636b202d2041667465722041677260008301527f65656d656e74205465726d696e617465640000000000000000000000000000006020830152604082019050919050565b61165281611a4e565b82525050565b61166181611a58565b82525050565b600060608201905061167c60008301856113cc565b818103602083015261168d8161147d565b905061169c6040830184611649565b9392505050565b60006020820190506116b860008301846113db565b92915050565b600060208201905081810360008301526116d98184866113f9565b90509392505050565b600060208201905081810360008301526116fc8184611426565b905092915050565b6000606082019050611719600083018661145f565b818103602083015261172b8185611426565b9050818103604083015261173f8184611426565b9050949350505050565b600060808201905061175e600083018761146e565b61176b60208301866113cc565b6117786040830185611658565b6117856060830184611649565b95945050505050565b60006040820190506117a3600083018561146e565b6117b060208301846113ea565b9392505050565b60006080820190506117cc600083018761146e565b6117d96020830186611658565b6117e66040830185611649565b81810360608301526117f88184611426565b905095945050505050565b6000602082019050818103600083015261181c816114bd565b9050919050565b6000602082019050818103600083015261183c81611523565b9050919050565b6000602082019050818103600083015261185c81611563565b9050919050565b6000602082019050818103600083015261187c816115a3565b9050919050565b6000602082019050818103600083015261189c816115e3565b9050919050565b60006020820190506118b86000830184611658565b92915050565b6000604051905081810181811067ffffffffffffffff821117156118e5576118e4611b2e565b5b8060405250919050565b600067ffffffffffffffff82111561190a57611909611b2e565b5b601f19601f8301169050602081019050919050565b600081519050919050565b600082825260208201905092915050565b600082825260208201905092915050565b600061195782611a4e565b915061196283611a4e565b9250827fffffffffffffffffffffffffffffffffffffffffffffffffffffffffffffffff0382111561199757611996611aff565b5b828201905092915050565b60006119ad82611a2e565b9050919050565b60008115159050919050565b6000819050919050565b60007fffffffff0000000000000000000000000000000000000000000000000000000082169050919050565b6000611a01826119a2565b9050919050565b6000819050919050565b60006fffffffffffffffffffffffffffffffff82169050919050565b600073ffffffffffffffffffffffffffffffffffffffff82169050919050565b6000819050919050565b600063ffffffff82169050919050565b600060ff82169050919050565b6000611a8082611a87565b9050919050565b6000611a9282611a2e565b9050919050565b6000611aa482611aab565b9050919050565b6000611ab682611a2e565b9050919050565b82818337600083830152505050565b60005b83811015611aea578082015181840152602081019050611acf565b83811115611af9576000848401525b50505050565b7f4e487b7100000000000000000000000000000000000000000000000000000000600052601160045260246000fd5b7f4e487b7100000000000000000000000000000000000000000000000000000000600052604160045260246000fd5b6000601f19601f8301169050919050565b611b77816119a2565b8114611b8257600080fd5b50565b611b8e816119b4565b8114611b9957600080fd5b50565b611ba5816119c0565b8114611bb057600080fd5b50565b611bbc816119ca565b8114611bc757600080fd5b50565b611bd3816119f6565b8114611bde57600080fd5b50565b611bea81611a08565b8114611bf557600080fd5b50565b611c0181611a12565b8114611c0c57600080fd5b50565b611c1881611a4e565b8114611c2357600080fd5b50565b611c2f81611a58565b8114611c3a57600080fd5b50565b611c4681611a68565b8114611c5157600080fd5b5056fea2646970667358221220523b39a153a1e9f5b371cbe2f32ea69222854a30c8f14ccd4dfc535359d1c60f64736f6c63430008000033",
  "immutableReferences": {},
  "source": "pragma solidity ^0.8.0;\npragma experimental ABIEncoderV2;\n\nimport {\n    ISuperfluid,\n    ISuperToken,\n    SuperAppBase,\n    SuperAppDefinitions\n} from \"@superfluid-finance/ethereum-contracts/contracts/apps/SuperAppBase.sol\";\n//from \"https://github.com/superfluid-finance/protocol-monorepo/blob/remix-support/packages/ethereum-contracts/contracts/apps/SuperAppBase.sol\";\nimport {\n    IInstantDistributionAgreementV1\n} from \"@superfluid-finance/ethereum-contracts/contracts/interfaces/agreements/IInstantDistributionAgreementV1.sol\";\n//from \"https://github.com/superfluid-finance/protocol-monorepo/blob/remix-support/packages/ethereum-contracts/contracts/interfaces/agreements/IInstantDistributionAgreementV1.sol\";\n\nimport \"@openzeppelin/contracts/token/ERC777/IERC777.sol\";\nimport \"@openzeppelin/contracts/utils/introspection/IERC1820Registry.sol\";\nimport \"@openzeppelin/contracts/token/ERC777/IERC777Recipient.sol\";\n\ncontract ERC777Distributor is IERC777Recipient,SuperAppBase {\n\n    uint256 totalDontaions;\n\n    uint32 public constant INDEX_ID = 0;\n\n    address owner;\n\n    ISuperToken private _cashToken;\n    ISuperfluid private _host;\n    IInstantDistributionAgreementV1 private _ida;\n\n    IERC1820Registry private _erc1820 = IERC1820Registry(0x1820a4B7618BdE71Dce8cdc73aAB6C95905faD24);\n    bytes32 constant private TOKENS_RECIPIENT_INTERFACE_HASH = keccak256(\"ERC777TokensRecipient\");\n\n    // use callbacks to track approved subscriptions\n    mapping (address => bool) public isSubscribing;\n\n    event DonationReceived(address from, string token, uint256 amount);\n\n    constructor (\n        ISuperToken cashToken,\n        ISuperfluid host,\n        IInstantDistributionAgreementV1 ida) public {\n        \n        _erc1820.setInterfaceImplementer(address(this), TOKENS_RECIPIENT_INTERFACE_HASH, address(this));\n\n        _cashToken = cashToken;\n        _host = host;\n        _ida = ida;\n\n        uint256 configWord =\n            SuperAppDefinitions.APP_LEVEL_FINAL |\n            SuperAppDefinitions.BEFORE_AGREEMENT_TERMINATED_NOOP |\n            SuperAppDefinitions.AFTER_AGREEMENT_TERMINATED_NOOP;\n\n        _host.registerApp(configWord);\n\n        _host.callAgreement(\n            _ida,\n            abi.encodeWithSelector(\n                _ida.createIndex.selector,\n                _cashToken,\n                INDEX_ID,\n                new bytes(0) // placeholder ctx\n            ),\n            new bytes(0) // user data\n        );\n    }\n\n    modifier onlyOwner(){\n        require(owner==msg.sender);\n        _;\n    }\n\n    \n\n    function beforeAgreementCreated(\n        ISuperToken superToken,\n        address agreementClass,\n        bytes32 /* agreementId */,\n        bytes calldata /*agreementData*/,\n        bytes calldata /*ctx*/\n    )\n        external view override\n        returns (bytes memory data)\n    {\n        require(superToken == _cashToken, \"DRT: Unsupported cash token\");\n        require(agreementClass == address(_ida), \"DRT: Unsupported agreement\");\n        return new bytes(0);\n    }\n\n    function afterAgreementCreated(\n        ISuperToken superToken,\n        address /* agreementClass */,\n        bytes32 agreementId,\n        bytes calldata /*agreementData*/,\n        bytes calldata /*cbdata*/,\n        bytes calldata ctx\n    )\n        external override\n        returns(bytes memory newCtx)\n    {\n        _checkSubscription(superToken, ctx, agreementId);\n        newCtx = ctx;\n    }\n\n    function beforeAgreementUpdated(\n        ISuperToken superToken,\n        address agreementClass,\n        bytes32 /* agreementId */,\n        bytes calldata /*agreementData*/,\n        bytes calldata /*ctx*/\n    )\n        external view override\n        returns (bytes memory data)\n    {\n        require(superToken == _cashToken, \"DRT: Unsupported cash token\");\n        require(agreementClass == address(_ida), \"DRT: Unsupported agreement\");\n        return new bytes(0);\n    }\n\n    function afterAgreementUpdated(\n        ISuperToken superToken,\n        address /* agreementClass */,\n        bytes32 agreementId,\n        bytes calldata /*agreementData*/,\n        bytes calldata /*cbdata*/,\n        bytes calldata ctx\n    )\n        external override\n        returns(bytes memory newCtx)\n    {\n        _checkSubscription(superToken, ctx, agreementId);\n        newCtx = ctx;\n    }\n\n    function _checkSubscription(\n        ISuperToken superToken,\n        bytes calldata ctx,\n        bytes32 agreementId\n    )\n        private\n    {\n        ISuperfluid.Context memory context = _host.decodeCtx(ctx);\n        // only interested in the subscription approval callbacks\n        if (context.agreementSelector == IInstantDistributionAgreementV1.approveSubscription.selector) {\n            address publisher;\n            uint32 indexId;\n            bool approved;\n            uint128 units;\n            uint256 pendingDistribution;\n            (publisher, indexId, approved, units, pendingDistribution) =\n                _ida.getSubscriptionByID(superToken, agreementId);\n\n            // sanity checks for testing purpose\n            require(publisher == address(this), \"DRT: publisher mismatch\");\n            require(indexId == INDEX_ID, \"DRT: publisher mismatch\");\n\n            if (approved) {\n                isSubscribing[context.msgSender /* subscriber */] = true;\n            }\n        }\n    }\n\n    /// @dev Distribute `amount` of cash among all token holders\n    function distribute(uint256 cashAmount) internal {\n        (uint256 actualCashAmount,) = _ida.calculateDistribution(\n            _cashToken,\n            address(this), INDEX_ID,\n            cashAmount);\n\n        _host.callAgreement(\n            _ida,\n            abi.encodeWithSelector(\n                _ida.distribute.selector,\n                _cashToken,\n                INDEX_ID,\n                actualCashAmount,\n                new bytes(0) // placeholder ctx\n            ),\n            new bytes(0) // user data\n        );\n    }\n\n    function tokensReceived(\n        address operator,\n        address from,\n        address to,\n        uint256 amount,\n        bytes calldata userData,\n        bytes calldata operatorData\n    ) external override {\n        //require(msg.sender == address(_token), \"Simple777Recipient: Invalid token\");\n\n        // do stuff\n        totalDontaions += amount;\n        distribute(amount);//TO DO: How will this workout?? We need to figure out whether a fees needs to be paid for distribute function & how would it be paid?\n        emit DonationReceived( from, \"tokenName\", amount);\n    }   \n\n}\n",
  "sourcePath": "/Users/praffulsahu/Documents/Crypto/erc777distributor/contracts/ERC777Distributor.sol",
  "compiler": {
    "name": "solc",
    "version": "0.8.0+commit.c7dfd78e.Emscripten.clang"
  },
  "schemaVersion": "3.3.3",
  "updatedAt": "2021-06-20T12:56:11.325Z",
  "devdoc": {
    "kind": "dev",
    "methods": {
      "tokensReceived(address,address,address,uint256,bytes,bytes)": {
        "details": "Called by an {IERC777} token contract whenever tokens are being moved or created into a registered account (`to`). The type of operation is conveyed by `from` being the zero address or not. This call occurs _after_ the token contract's state is updated, so {IERC777-balanceOf}, etc., can be used to query the post-operation state. This function may revert to prevent the operation from being executed."
      }
    },
    "version": 1
  },
  "userdoc": {
    "kind": "user",
    "methods": {},
    "version": 1
  }
}