{
  "contractName": "ERC777Distributor",
  "abi": [
    {
      "inputs": [
        {
          "internalType": "contract ISuperToken",
          "name": "cashToken",
          "type": "address"
        },
        {
          "internalType": "contract ISuperfluid",
          "name": "host",
          "type": "address"
        },
        {
          "internalType": "contract IInstantDistributionAgreementV1",
          "name": "ida",
          "type": "address"
        }
      ],
      "stateMutability": "nonpayable",
      "type": "constructor"
    },
    {
      "anonymous": false,
      "inputs": [
        {
          "indexed": false,
          "internalType": "uint256",
          "name": "amountDistributed",
          "type": "uint256"
        },
        {
          "indexed": false,
          "internalType": "uint32",
          "name": "index",
          "type": "uint32"
        },
        {
          "indexed": false,
          "internalType": "address",
          "name": "tokenAddress",
          "type": "address"
        },
        {
          "indexed": false,
          "internalType": "address",
          "name": "publisher",
          "type": "address"
        }
      ],
      "name": "Distribution",
      "type": "event"
    },
    {
      "anonymous": false,
      "inputs": [
        {
          "indexed": false,
          "internalType": "address",
          "name": "from",
          "type": "address"
        },
        {
          "indexed": false,
          "internalType": "string",
          "name": "token",
          "type": "string"
        },
        {
          "indexed": false,
          "internalType": "uint256",
          "name": "amount",
          "type": "uint256"
        },
        {
          "indexed": false,
          "internalType": "uint32",
          "name": "index",
          "type": "uint32"
        },
        {
          "indexed": false,
          "internalType": "address",
          "name": "tokenAddress",
          "type": "address"
        },
        {
          "indexed": false,
          "internalType": "address",
          "name": "publisher",
          "type": "address"
        }
      ],
      "name": "DonationReceived",
      "type": "event"
    },
    {
      "anonymous": false,
      "inputs": [
        {
          "indexed": false,
          "internalType": "uint128",
          "name": "totalShares",
          "type": "uint128"
        },
        {
          "indexed": false,
          "internalType": "uint32",
          "name": "index",
          "type": "uint32"
        },
        {
          "indexed": false,
          "internalType": "address",
          "name": "tokenAddress",
          "type": "address"
        },
        {
          "indexed": false,
          "internalType": "address",
          "name": "publisher",
          "type": "address"
        }
      ],
      "name": "TotalShares",
      "type": "event"
    },
    {
      "anonymous": false,
      "inputs": [
        {
          "indexed": false,
          "internalType": "address",
          "name": "userAddress",
          "type": "address"
        },
        {
          "indexed": false,
          "internalType": "uint128",
          "name": "shares",
          "type": "uint128"
        },
        {
          "indexed": false,
          "internalType": "uint32",
          "name": "index",
          "type": "uint32"
        },
        {
          "indexed": false,
          "internalType": "address",
          "name": "tokenAddress",
          "type": "address"
        },
        {
          "indexed": false,
          "internalType": "address",
          "name": "publisher",
          "type": "address"
        }
      ],
      "name": "UserAdded",
      "type": "event"
    },
    {
      "anonymous": false,
      "inputs": [
        {
          "indexed": false,
          "internalType": "address",
          "name": "userAddress",
          "type": "address"
        },
        {
          "indexed": false,
          "internalType": "uint128",
          "name": "shares",
          "type": "uint128"
        },
        {
          "indexed": false,
          "internalType": "uint32",
          "name": "index",
          "type": "uint32"
        },
        {
          "indexed": false,
          "internalType": "address",
          "name": "tokenAddress",
          "type": "address"
        },
        {
          "indexed": false,
          "internalType": "address",
          "name": "publisher",
          "type": "address"
        }
      ],
      "name": "UserModified",
      "type": "event"
    },
    {
      "anonymous": false,
      "inputs": [
        {
          "indexed": false,
          "internalType": "address",
          "name": "userAddress",
          "type": "address"
        },
        {
          "indexed": false,
          "internalType": "uint128",
          "name": "shares",
          "type": "uint128"
        },
        {
          "indexed": false,
          "internalType": "uint32",
          "name": "index",
          "type": "uint32"
        },
        {
          "indexed": false,
          "internalType": "address",
          "name": "tokenAddress",
          "type": "address"
        },
        {
          "indexed": false,
          "internalType": "address",
          "name": "publisher",
          "type": "address"
        }
      ],
      "name": "UserRemoved",
      "type": "event"
    },
    {
      "inputs": [],
      "name": "INDEX_ID",
      "outputs": [
        {
          "internalType": "uint32",
          "name": "",
          "type": "uint32"
        }
      ],
      "stateMutability": "view",
      "type": "function"
    },
    {
      "inputs": [
        {
          "internalType": "contract ISuperToken",
          "name": "",
          "type": "address"
        },
        {
          "internalType": "address",
          "name": "",
          "type": "address"
        },
        {
          "internalType": "bytes32",
          "name": "",
          "type": "bytes32"
        },
        {
          "internalType": "bytes",
          "name": "",
          "type": "bytes"
        },
        {
          "internalType": "bytes",
          "name": "",
          "type": "bytes"
        },
        {
          "internalType": "bytes",
          "name": "",
          "type": "bytes"
        }
      ],
      "name": "afterAgreementTerminated",
      "outputs": [
        {
          "internalType": "bytes",
          "name": "",
          "type": "bytes"
        }
      ],
      "stateMutability": "nonpayable",
      "type": "function"
    },
    {
      "inputs": [
        {
          "internalType": "contract ISuperToken",
          "name": "",
          "type": "address"
        },
        {
          "internalType": "address",
          "name": "",
          "type": "address"
        },
        {
          "internalType": "bytes32",
          "name": "",
          "type": "bytes32"
        },
        {
          "internalType": "bytes",
          "name": "",
          "type": "bytes"
        },
        {
          "internalType": "bytes",
          "name": "",
          "type": "bytes"
        }
      ],
      "name": "beforeAgreementTerminated",
      "outputs": [
        {
          "internalType": "bytes",
          "name": "",
          "type": "bytes"
        }
      ],
      "stateMutability": "view",
      "type": "function"
    },
    {
      "inputs": [
        {
          "internalType": "address",
          "name": "",
          "type": "address"
        }
      ],
      "name": "isSubscribing",
      "outputs": [
        {
          "internalType": "bool",
          "name": "",
          "type": "bool"
        }
      ],
      "stateMutability": "view",
      "type": "function"
    },
    {
      "inputs": [
        {
          "internalType": "contract ISuperToken",
          "name": "superToken",
          "type": "address"
        },
        {
          "internalType": "address",
          "name": "agreementClass",
          "type": "address"
        },
        {
          "internalType": "bytes32",
          "name": "",
          "type": "bytes32"
        },
        {
          "internalType": "bytes",
          "name": "",
          "type": "bytes"
        },
        {
          "internalType": "bytes",
          "name": "",
          "type": "bytes"
        }
      ],
      "name": "beforeAgreementCreated",
      "outputs": [
        {
          "internalType": "bytes",
          "name": "data",
          "type": "bytes"
        }
      ],
      "stateMutability": "view",
      "type": "function"
    },
    {
      "inputs": [
        {
          "internalType": "contract ISuperToken",
          "name": "superToken",
          "type": "address"
        },
        {
          "internalType": "address",
          "name": "",
          "type": "address"
        },
        {
          "internalType": "bytes32",
          "name": "agreementId",
          "type": "bytes32"
        },
        {
          "internalType": "bytes",
          "name": "",
          "type": "bytes"
        },
        {
          "internalType": "bytes",
          "name": "",
          "type": "bytes"
        },
        {
          "internalType": "bytes",
          "name": "ctx",
          "type": "bytes"
        }
      ],
      "name": "afterAgreementCreated",
      "outputs": [
        {
          "internalType": "bytes",
          "name": "newCtx",
          "type": "bytes"
        }
      ],
      "stateMutability": "nonpayable",
      "type": "function"
    },
    {
      "inputs": [
        {
          "internalType": "contract ISuperToken",
          "name": "superToken",
          "type": "address"
        },
        {
          "internalType": "address",
          "name": "agreementClass",
          "type": "address"
        },
        {
          "internalType": "bytes32",
          "name": "",
          "type": "bytes32"
        },
        {
          "internalType": "bytes",
          "name": "",
          "type": "bytes"
        },
        {
          "internalType": "bytes",
          "name": "",
          "type": "bytes"
        }
      ],
      "name": "beforeAgreementUpdated",
      "outputs": [
        {
          "internalType": "bytes",
          "name": "data",
          "type": "bytes"
        }
      ],
      "stateMutability": "view",
      "type": "function"
    },
    {
      "inputs": [
        {
          "internalType": "contract ISuperToken",
          "name": "superToken",
          "type": "address"
        },
        {
          "internalType": "address",
          "name": "",
          "type": "address"
        },
        {
          "internalType": "bytes32",
          "name": "agreementId",
          "type": "bytes32"
        },
        {
          "internalType": "bytes",
          "name": "",
          "type": "bytes"
        },
        {
          "internalType": "bytes",
          "name": "",
          "type": "bytes"
        },
        {
          "internalType": "bytes",
          "name": "ctx",
          "type": "bytes"
        }
      ],
      "name": "afterAgreementUpdated",
      "outputs": [
        {
          "internalType": "bytes",
          "name": "newCtx",
          "type": "bytes"
        }
      ],
      "stateMutability": "nonpayable",
      "type": "function"
    },
    {
      "inputs": [
        {
          "internalType": "address",
          "name": "newUser",
          "type": "address"
        },
        {
          "internalType": "uint128",
          "name": "sharePercentage",
          "type": "uint128"
        }
      ],
      "name": "addUser",
      "outputs": [],
      "stateMutability": "nonpayable",
      "type": "function"
    },
    {
      "inputs": [
        {
          "internalType": "address",
          "name": "existingUser",
          "type": "address"
        },
        {
          "internalType": "uint128",
          "name": "sharePercentage",
          "type": "uint128"
        }
      ],
      "name": "modifyUser",
      "outputs": [],
      "stateMutability": "nonpayable",
      "type": "function"
    },
    {
      "inputs": [
        {
          "internalType": "address",
          "name": "newUser",
          "type": "address"
        }
      ],
      "name": "removeUser",
      "outputs": [],
      "stateMutability": "nonpayable",
      "type": "function"
    },
    {
      "inputs": [
        {
          "internalType": "address",
          "name": "operator",
          "type": "address"
        },
        {
          "internalType": "address",
          "name": "from",
          "type": "address"
        },
        {
          "internalType": "address",
          "name": "to",
          "type": "address"
        },
        {
          "internalType": "uint256",
          "name": "amount",
          "type": "uint256"
        },
        {
          "internalType": "bytes",
          "name": "userData",
          "type": "bytes"
        },
        {
          "internalType": "bytes",
          "name": "operatorData",
          "type": "bytes"
        }
      ],
      "name": "tokensReceived",
      "outputs": [],
      "stateMutability": "nonpayable",
      "type": "function"
    }
  ],
  "bytecode": "0x6080604052731820a4b7618bde71dce8cdc73aab6c95905fad24600760006101000a81548173ffffffffffffffffffffffffffffffffffffffff021916908373ffffffffffffffffffffffffffffffffffffffff1602179055503480156200006657600080fd5b50604051620034353803806200343583398181016040528101906200008c919062000615565b600760009054906101000a900473ffffffffffffffffffffffffffffffffffffffff1673ffffffffffffffffffffffffffffffffffffffff166329965a1d307fb281fc8c12954d22544db45de3159a39272895b169a852b314f9cc762e44c53b306040518463ffffffff1660e01b81526004016200010d9392919062000712565b600060405180830381600087803b1580156200012857600080fd5b505af11580156200013d573d6000803e3d6000fd5b5050505082600460006101000a81548173ffffffffffffffffffffffffffffffffffffffff021916908373ffffffffffffffffffffffffffffffffffffffff16021790555081600560006101000a81548173ffffffffffffffffffffffffffffffffffffffff021916908373ffffffffffffffffffffffffffffffffffffffff16021790555080600660006101000a81548173ffffffffffffffffffffffffffffffffffffffff021916908373ffffffffffffffffffffffffffffffffffffffff1602179055506000642000000000641000000000600117179050600560009054906101000a900473ffffffffffffffffffffffffffffffffffffffff1673ffffffffffffffffffffffffffffffffffffffff1663ad3915c8826040518263ffffffff1660e01b8152600401620002759190620007de565b600060405180830381600087803b1580156200029057600080fd5b505af1158015620002a5573d6000803e3d6000fd5b50505050600560009054906101000a900473ffffffffffffffffffffffffffffffffffffffff1673ffffffffffffffffffffffffffffffffffffffff166339255d5b600660009054906101000a900473ffffffffffffffffffffffffffffffffffffffff1663d787840a60e01b600460009054906101000a900473ffffffffffffffffffffffffffffffffffffffff1660008067ffffffffffffffff81111562000378577f4e487b7100000000000000000000000000000000000000000000000000000000600052604160045260246000fd5b6040519080825280601f01601f191660200182016040528015620003ab5781602001600182028036833780820191505090505b50604051602401620003c0939291906200079a565b604051602081830303815290604052907bffffffffffffffffffffffffffffffffffffffffffffffffffffffff19166020820180517bffffffffffffffffffffffffffffffffffffffffffffffffffffffff8381831617835250505050600067ffffffffffffffff8111156200045f577f4e487b7100000000000000000000000000000000000000000000000000000000600052604160045260246000fd5b6040519080825280601f01601f191660200182016040528015620004925781602001600182028036833780820191505090505b506040518463ffffffff1660e01b8152600401620004b3939291906200074f565b600060405180830381600087803b158015620004ce57600080fd5b505af1158015620004e3573d6000803e3d6000fd5b505050506040513d6000823e3d601f19601f820116820180604052508101906200050e9190620005d0565b505050505062000a26565b6000620005306200052a846200082f565b620007fb565b9050828152602081018484840111156200054957600080fd5b6200055684828562000962565b509392505050565b600082601f8301126200057057600080fd5b81516200058284826020860162000519565b91505092915050565b6000815190506200059c81620009d8565b92915050565b600081519050620005b381620009f2565b92915050565b600081519050620005ca8162000a0c565b92915050565b600060208284031215620005e357600080fd5b600082015167ffffffffffffffff811115620005fe57600080fd5b6200060c848285016200055e565b91505092915050565b6000806000606084860312156200062b57600080fd5b60006200063b86828701620005a2565b93505060206200064e86828701620005b9565b925050604062000661868287016200058b565b9150509250925092565b62000676816200087e565b82525050565b620006878162000892565b82525050565b60006200069a8262000862565b620006a681856200086d565b9350620006b881856020860162000962565b620006c381620009c7565b840191505092915050565b620006d98162000912565b82525050565b620006ea816200093a565b82525050565b620006fb81620008f8565b82525050565b6200070c8162000902565b82525050565b60006060820190506200072960008301866200066b565b6200073860208301856200067c565b6200074760408301846200066b565b949350505050565b6000606082019050620007666000830186620006ce565b81810360208301526200077a81856200068d565b905081810360408301526200079081846200068d565b9050949350505050565b6000606082019050620007b16000830186620006df565b620007c0602083018562000701565b8181036040830152620007d481846200068d565b9050949350505050565b6000602082019050620007f56000830184620006f0565b92915050565b6000604051905081810181811067ffffffffffffffff8211171562000825576200082462000998565b5b8060405250919050565b600067ffffffffffffffff8211156200084d576200084c62000998565b5b601f19601f8301169050602081019050919050565b600081519050919050565b600082825260208201905092915050565b60006200088b82620008d8565b9050919050565b6000819050919050565b6000620008a9826200087e565b9050919050565b6000620008bd826200087e565b9050919050565b6000620008d1826200087e565b9050919050565b600073ffffffffffffffffffffffffffffffffffffffff82169050919050565b6000819050919050565b600063ffffffff82169050919050565b60006200091f8262000926565b9050919050565b60006200093382620008d8565b9050919050565b600062000947826200094e565b9050919050565b60006200095b82620008d8565b9050919050565b60005b838110156200098257808201518184015260208101905062000965565b8381111562000992576000848401525b50505050565b7f4e487b7100000000000000000000000000000000000000000000000000000000600052604160045260246000fd5b6000601f19601f8301169050919050565b620009e3816200089c565b8114620009ef57600080fd5b50565b620009fd81620008b0565b811462000a0957600080fd5b50565b62000a1781620008c4565b811462000a2357600080fd5b50565b6129ff8062000a366000396000f3fe608060405234801561001057600080fd5b50600436106100b35760003560e01c80638378f8c0116100715780638378f8c0146101b0578063884d1f40146101cc5780638c7f0959146101fc578063915e33641461021a578063985751881461024a578063d86ed3e514610266576100b3565b806223de29146100b8578063230dbd29146100d457806330d9c9151461010457806353c11f99146101345780635f9e7d771461016457806380e85c5114610194575b600080fd5b6100d260048036038101906100cd9190611b2f565b610296565b005b6100ee60048036038101906100e99190611d96565b610323565b6040516100fb9190612294565b60405180910390f35b61011e60048036038101906101199190611ce6565b610385565b60405161012b9190612294565b60405180910390f35b61014e60048036038101906101499190611d96565b610528565b60405161015b9190612294565b60405180910390f35b61017e60048036038101906101799190611ce6565b610565565b60405161018b9190612294565b60405180910390f35b6101ae60048036038101906101a99190611bf2565b6105a2565b005b6101ca60048036038101906101c59190611bf2565b61078b565b005b6101e660048036038101906101e19190611ce6565b610a40565b6040516101f39190612294565b60405180910390f35b610204610be3565b60405161021191906124f4565b60405180910390f35b610234600480360381019061022f9190611b06565b610be8565b6040516102419190612255565b60405180910390f35b610264600480360381019061025f9190611b06565b610c08565b005b610280600480360381019061027b9190611d96565b610e68565b60405161028d9190612294565b60405180910390f35b846000808282546102a791906125e3565b925050819055506102b785610eca565b7f8ded6efe3e394d492fe03ccbcdc165e112133d6f01cc0b89328dca00300d650187866000600460009054906101000a900473ffffffffffffffffffffffffffffffffffffffff163060405161031195949392919061219c565b60405180910390a15050505050505050565b60606103318a84848b611263565b82828080601f016020809104026020016040519081016040528093929190818152602001838380828437600081840152601f19601f8201169050808301925050505050505090509998505050505050505050565b6060600460009054906101000a900473ffffffffffffffffffffffffffffffffffffffff1673ffffffffffffffffffffffffffffffffffffffff168873ffffffffffffffffffffffffffffffffffffffff1614610417576040517f08c379a000000000000000000000000000000000000000000000000000000000815260040161040e9061244f565b60405180910390fd5b600660009054906101000a900473ffffffffffffffffffffffffffffffffffffffff1673ffffffffffffffffffffffffffffffffffffffff168773ffffffffffffffffffffffffffffffffffffffff16146104a7576040517f08c379a000000000000000000000000000000000000000000000000000000000815260040161049e9061242f565b60405180910390fd5b600067ffffffffffffffff8111156104e8577f4e487b7100000000000000000000000000000000000000000000000000000000600052604160045260246000fd5b6040519080825280601f01601f19166020018201604052801561051a5781602001600182028036833780820191505090505b509050979650505050505050565b60606040517f08c379a000000000000000000000000000000000000000000000000000000000815260040161055c9061248f565b60405180910390fd5b60606040517f08c379a00000000000000000000000000000000000000000000000000000000081526004016105999061240f565b60405180910390fd5b3373ffffffffffffffffffffffffffffffffffffffff16600360009054906101000a900473ffffffffffffffffffffffffffffffffffffffff1673ffffffffffffffffffffffffffffffffffffffff16146105fc57600080fd5b600081606461060b91906126b4565b600160009054906101000a90046fffffffffffffffffffffffffffffffff1683610635919061266a565b61063f9190612639565b905061064b8382611560565b80600160008282829054906101000a90046fffffffffffffffffffffffffffffffff16610678919061259d565b92506101000a8154816fffffffffffffffffffffffffffffffff02191690836fffffffffffffffffffffffffffffffff16021790555080600260008573ffffffffffffffffffffffffffffffffffffffff1673ffffffffffffffffffffffffffffffffffffffff16815260200190815260200160002060006101000a8154816fffffffffffffffffffffffffffffffff02191690836fffffffffffffffffffffffffffffffff1602179055507ffb228bfa31c0a867045a518ca3f72f171666b2be96fcbff3e8491fbbcb63ab7683826000600460009054906101000a900473ffffffffffffffffffffffffffffffffffffffff163060405161077e959493929190612202565b60405180910390a1505050565b3373ffffffffffffffffffffffffffffffffffffffff16600360009054906101000a900473ffffffffffffffffffffffffffffffffffffffff1673ffffffffffffffffffffffffffffffffffffffff16146107e557600080fd5b60008160646107f491906126b4565b600260008573ffffffffffffffffffffffffffffffffffffffff1673ffffffffffffffffffffffffffffffffffffffff16815260200190815260200160002060009054906101000a90046fffffffffffffffffffffffffffffffff16600160009054906101000a90046fffffffffffffffffffffffffffffffff1661087991906126b4565b83610884919061266a565b61088e9190612639565b905061089a8382611560565b600260008473ffffffffffffffffffffffffffffffffffffffff1673ffffffffffffffffffffffffffffffffffffffff16815260200190815260200160002060009054906101000a90046fffffffffffffffffffffffffffffffff168161090191906126b4565b600160008282829054906101000a90046fffffffffffffffffffffffffffffffff1661092d919061259d565b92506101000a8154816fffffffffffffffffffffffffffffffff02191690836fffffffffffffffffffffffffffffffff16021790555080600260008573ffffffffffffffffffffffffffffffffffffffff1673ffffffffffffffffffffffffffffffffffffffff16815260200190815260200160002060006101000a8154816fffffffffffffffffffffffffffffffff02191690836fffffffffffffffffffffffffffffffff1602179055507f0798fe4660e82c24c043e09cf58d005ae8875648bf665a2ab0b8dfa6368818e683826000600460009054906101000a900473ffffffffffffffffffffffffffffffffffffffff1630604051610a33959493929190612202565b60405180910390a1505050565b6060600460009054906101000a900473ffffffffffffffffffffffffffffffffffffffff1673ffffffffffffffffffffffffffffffffffffffff168873ffffffffffffffffffffffffffffffffffffffff1614610ad2576040517f08c379a0000000000000000000000000000000000000000000000000000000008152600401610ac99061244f565b60405180910390fd5b600660009054906101000a900473ffffffffffffffffffffffffffffffffffffffff1673ffffffffffffffffffffffffffffffffffffffff168773ffffffffffffffffffffffffffffffffffffffff1614610b62576040517f08c379a0000000000000000000000000000000000000000000000000000000008152600401610b599061242f565b60405180910390fd5b600067ffffffffffffffff811115610ba3577f4e487b7100000000000000000000000000000000000000000000000000000000600052604160045260246000fd5b6040519080825280601f01601f191660200182016040528015610bd55781602001600182028036833780820191505090505b509050979650505050505050565b600081565b60086020528060005260406000206000915054906101000a900460ff1681565b3373ffffffffffffffffffffffffffffffffffffffff16600360009054906101000a900473ffffffffffffffffffffffffffffffffffffffff1673ffffffffffffffffffffffffffffffffffffffff1614610c6257600080fd5b600260008273ffffffffffffffffffffffffffffffffffffffff1673ffffffffffffffffffffffffffffffffffffffff16815260200190815260200160002060009054906101000a90046fffffffffffffffffffffffffffffffff16600160008282829054906101000a90046fffffffffffffffffffffffffffffffff16610cea91906126b4565b92506101000a8154816fffffffffffffffffffffffffffffffff02191690836fffffffffffffffffffffffffffffffff1602179055506000600260008373ffffffffffffffffffffffffffffffffffffffff1673ffffffffffffffffffffffffffffffffffffffff16815260200190815260200160002060009054906101000a90046fffffffffffffffffffffffffffffffff1690506000600260008473ffffffffffffffffffffffffffffffffffffffff1673ffffffffffffffffffffffffffffffffffffffff16815260200190815260200160002060006101000a8154816fffffffffffffffffffffffffffffffff02191690836fffffffffffffffffffffffffffffffff160217905550610e02826000611560565b7f405ec7a3dabc29a749552e324adafc80a77c3d8643831e3e280c74abae3f57bd82826000600460009054906101000a900473ffffffffffffffffffffffffffffffffffffffff1630604051610e5c959493929190612202565b60405180910390a15050565b6060610e768a84848b611263565b82828080601f016020809104026020016040519081016040528093929190818152602001838380828437600081840152601f19601f8201169050808301925050505050505090509998505050505050505050565b6000600660009054906101000a900473ffffffffffffffffffffffffffffffffffffffff1673ffffffffffffffffffffffffffffffffffffffff1663899baaec600460009054906101000a900473ffffffffffffffffffffffffffffffffffffffff16306000866040518563ffffffff1660e01b8152600401610f5094939291906122fb565b604080518083038186803b158015610f6757600080fd5b505afa158015610f7b573d6000803e3d6000fd5b505050506040513d601f19601f82011682018060405250810190610f9f9190611eb6565b509050600560009054906101000a900473ffffffffffffffffffffffffffffffffffffffff1673ffffffffffffffffffffffffffffffffffffffff166339255d5b600660009054906101000a900473ffffffffffffffffffffffffffffffffffffffff1663b96731c260e01b600460009054906101000a900473ffffffffffffffffffffffffffffffffffffffff16600086600067ffffffffffffffff811115611072577f4e487b7100000000000000000000000000000000000000000000000000000000600052604160045260246000fd5b6040519080825280601f01601f1916602001820160405280156110a45781602001600182028036833780820191505090505b506040516024016110b894939291906123c3565b604051602081830303815290604052907bffffffffffffffffffffffffffffffffffffffffffffffffffffffff19166020820180517bffffffffffffffffffffffffffffffffffffffffffffffffffffffff8381831617835250505050600067ffffffffffffffff811115611156577f4e487b7100000000000000000000000000000000000000000000000000000000600052604160045260246000fd5b6040519080825280601f01601f1916602001820160405280156111885781602001600182028036833780820191505090505b506040518463ffffffff1660e01b81526004016111a7939291906122b6565b600060405180830381600087803b1580156111c157600080fd5b505af11580156111d5573d6000803e3d6000fd5b505050506040513d6000823e3d601f19601f820116820180604052508101906111fe9190611ca5565b507fc0d57a4e02c728696550e86b52673e6c752750783b7d24a431c2b6d67ca421b2826000600460009054906101000a900473ffffffffffffffffffffffffffffffffffffffff163060405161125794939291906124af565b60405180910390a15050565b6000600560009054906101000a900473ffffffffffffffffffffffffffffffffffffffff1673ffffffffffffffffffffffffffffffffffffffff16633f6c923a85856040518363ffffffff1660e01b81526004016112c2929190612270565b60006040518083038186803b1580156112da57600080fd5b505afa1580156112ee573d6000803e3d6000fd5b505050506040513d6000823e3d601f19601f820116820180604052508101906113179190611e75565b905063acf4a6c260e01b7bffffffffffffffffffffffffffffffffffffffffffffffffffffffff191681608001517bffffffffffffffffffffffffffffffffffffffffffffffffffffffff19161415611559576000806000806000600660009054906101000a900473ffffffffffffffffffffffffffffffffffffffff1673ffffffffffffffffffffffffffffffffffffffff1663cd7245c58b896040518363ffffffff1660e01b81526004016113cf929190612340565b60a06040518083038186803b1580156113e757600080fd5b505afa1580156113fb573d6000803e3d6000fd5b505050506040513d601f19601f8201168201806040525081019061141f9190611c2e565b80955081965082975083985084995050505050503073ffffffffffffffffffffffffffffffffffffffff168573ffffffffffffffffffffffffffffffffffffffff16146114a1576040517f08c379a00000000000000000000000000000000000000000000000000000000081526004016114989061246f565b60405180910390fd5b600063ffffffff168463ffffffff16146114f0576040517f08c379a00000000000000000000000000000000000000000000000000000000081526004016114e79061246f565b60405180910390fd5b821561155357600160086000886060015173ffffffffffffffffffffffffffffffffffffffff1673ffffffffffffffffffffffffffffffffffffffff16815260200190815260200160002060006101000a81548160ff0219169083151502179055505b50505050505b5050505050565b600560009054906101000a900473ffffffffffffffffffffffffffffffffffffffff1673ffffffffffffffffffffffffffffffffffffffff166339255d5b600660009054906101000a900473ffffffffffffffffffffffffffffffffffffffff1663232d2b5860e01b600460009054906101000a900473ffffffffffffffffffffffffffffffffffffffff1660008787600067ffffffffffffffff811115611631577f4e487b7100000000000000000000000000000000000000000000000000000000600052604160045260246000fd5b6040519080825280601f01601f1916602001820160405280156116635781602001600182028036833780820191505090505b50604051602401611678959493929190612369565b604051602081830303815290604052907bffffffffffffffffffffffffffffffffffffffffffffffffffffffff19166020820180517bffffffffffffffffffffffffffffffffffffffffffffffffffffffff8381831617835250505050600067ffffffffffffffff811115611716577f4e487b7100000000000000000000000000000000000000000000000000000000600052604160045260246000fd5b6040519080825280601f01601f1916602001820160405280156117485781602001600182028036833780820191505090505b506040518463ffffffff1660e01b8152600401611767939291906122b6565b600060405180830381600087803b15801561178157600080fd5b505af1158015611795573d6000803e3d6000fd5b505050506040513d6000823e3d601f19601f820116820180604052508101906117be9190611ca5565b5080600260008473ffffffffffffffffffffffffffffffffffffffff1673ffffffffffffffffffffffffffffffffffffffff16815260200190815260200160002060006101000a8154816fffffffffffffffffffffffffffffffff02191690836fffffffffffffffffffffffffffffffff1602179055505050565b600061184c61184784612540565b61250f565b90508281526020810184848401111561186457600080fd5b61186f848285612812565b509392505050565b600081359050611886816128e3565b92915050565b60008151905061189b816128e3565b92915050565b6000815190506118b0816128fa565b92915050565b6000813590506118c581612911565b92915050565b6000815190506118da81612928565b92915050565b60008083601f8401126118f257600080fd5b8235905067ffffffffffffffff81111561190b57600080fd5b60208301915083600182028301111561192357600080fd5b9250929050565b600082601f83011261193b57600080fd5b815161194b848260208601611839565b91505092915050565b6000813590506119638161293f565b92915050565b60008151905061197881612956565b92915050565b6000610140828403121561199157600080fd5b61199c61014061250f565b905060006119ac84828501611af1565b60008301525060206119c084828501611af1565b60208301525060406119d484828501611ac7565b60408301525060606119e88482850161188c565b60608301525060806119fc848285016118cb565b60808301525060a082015167ffffffffffffffff811115611a1c57600080fd5b611a288482850161192a565b60a08301525060c0611a3c84828501611ac7565b60c08301525060e0611a5084828501611ac7565b60e083015250610100611a6584828501611969565b61010083015250610120611a7b8482850161188c565b6101208301525092915050565b600081359050611a978161296d565b92915050565b600081519050611aac8161296d565b92915050565b600081359050611ac181612984565b92915050565b600081519050611ad681612984565b92915050565b600081519050611aeb8161299b565b92915050565b600081519050611b00816129b2565b92915050565b600060208284031215611b1857600080fd5b6000611b2684828501611877565b91505092915050565b60008060008060008060008060c0898b031215611b4b57600080fd5b6000611b598b828c01611877565b9850506020611b6a8b828c01611877565b9750506040611b7b8b828c01611877565b9650506060611b8c8b828c01611ab2565b955050608089013567ffffffffffffffff811115611ba957600080fd5b611bb58b828c016118e0565b945094505060a089013567ffffffffffffffff811115611bd457600080fd5b611be08b828c016118e0565b92509250509295985092959890939650565b60008060408385031215611c0557600080fd5b6000611c1385828601611877565b9250506020611c2485828601611a88565b9150509250929050565b600080600080600060a08688031215611c4657600080fd5b6000611c548882890161188c565b9550506020611c6588828901611adc565b9450506040611c76888289016118a1565b9350506060611c8788828901611a9d565b9250506080611c9888828901611ac7565b9150509295509295909350565b600060208284031215611cb757600080fd5b600082015167ffffffffffffffff811115611cd157600080fd5b611cdd8482850161192a565b91505092915050565b600080600080600080600060a0888a031215611d0157600080fd5b6000611d0f8a828b01611954565b9750506020611d208a828b01611877565b9650506040611d318a828b016118b6565b955050606088013567ffffffffffffffff811115611d4e57600080fd5b611d5a8a828b016118e0565b9450945050608088013567ffffffffffffffff811115611d7957600080fd5b611d858a828b016118e0565b925092505092959891949750929550565b600080600080600080600080600060c08a8c031215611db457600080fd5b6000611dc28c828d01611954565b9950506020611dd38c828d01611877565b9850506040611de48c828d016118b6565b97505060608a013567ffffffffffffffff811115611e0157600080fd5b611e0d8c828d016118e0565b965096505060808a013567ffffffffffffffff811115611e2c57600080fd5b611e388c828d016118e0565b945094505060a08a013567ffffffffffffffff811115611e5757600080fd5b611e638c828d016118e0565b92509250509295985092959850929598565b600060208284031215611e8757600080fd5b600082015167ffffffffffffffff811115611ea157600080fd5b611ead8482850161197e565b91505092915050565b60008060408385031215611ec957600080fd5b6000611ed785828601611ac7565b9250506020611ee885828601611a9d565b9150509250929050565b611efb816126e8565b82525050565b611f0a816126fa565b82525050565b611f1981612706565b82525050565b6000611f2b838561257b565b9350611f38838584612803565b611f41836128d2565b840190509392505050565b6000611f5782612570565b611f61818561257b565b9350611f71818560208601612812565b611f7a816128d2565b840191505092915050565b611f8e816127bb565b82525050565b611f9d816127df565b82525050565b6000611fb060098361258c565b91507f746f6b656e4e616d6500000000000000000000000000000000000000000000006000830152602082019050919050565b6000611ff060338361258c565b91507f556e737570706f727465642063616c6c6261636b202d20204265666f7265204160008301527f677265656d656e74205465726d696e61746564000000000000000000000000006020830152604082019050919050565b6000612056601a8361258c565b91507f4452543a20556e737570706f727465642061677265656d656e740000000000006000830152602082019050919050565b6000612096601b8361258c565b91507f4452543a20556e737570706f72746564206361736820746f6b656e00000000006000830152602082019050919050565b60006120d660178361258c565b91507f4452543a207075626c6973686572206d69736d617463680000000000000000006000830152602082019050919050565b600061211660318361258c565b91507f556e737570706f727465642063616c6c6261636b202d2041667465722041677260008301527f65656d656e74205465726d696e617465640000000000000000000000000000006020830152604082019050919050565b61217881612758565b82525050565b61218781612794565b82525050565b6121968161279e565b82525050565b600060c0820190506121b16000830188611ef2565b81810360208301526121c281611fa3565b90506121d1604083018761217e565b6121de606083018661218d565b6121eb6080830185611ef2565b6121f860a0830184611ef2565b9695505050505050565b600060a0820190506122176000830188611ef2565b612224602083018761216f565b612231604083018661218d565b61223e6060830185611ef2565b61224b6080830184611ef2565b9695505050505050565b600060208201905061226a6000830184611f01565b92915050565b6000602082019050818103600083015261228b818486611f1f565b90509392505050565b600060208201905081810360008301526122ae8184611f4c565b905092915050565b60006060820190506122cb6000830186611f85565b81810360208301526122dd8185611f4c565b905081810360408301526122f18184611f4c565b9050949350505050565b60006080820190506123106000830187611f94565b61231d6020830186611ef2565b61232a604083018561218d565b612337606083018461217e565b95945050505050565b60006040820190506123556000830185611f94565b6123626020830184611f10565b9392505050565b600060a08201905061237e6000830188611f94565b61238b602083018761218d565b6123986040830186611ef2565b6123a5606083018561216f565b81810360808301526123b78184611f4c565b90509695505050505050565b60006080820190506123d86000830187611f94565b6123e5602083018661218d565b6123f2604083018561217e565b81810360608301526124048184611f4c565b905095945050505050565b6000602082019050818103600083015261242881611fe3565b9050919050565b6000602082019050818103600083015261244881612049565b9050919050565b6000602082019050818103600083015261246881612089565b9050919050565b60006020820190508181036000830152612488816120c9565b9050919050565b600060208201905081810360008301526124a881612109565b9050919050565b60006080820190506124c4600083018761217e565b6124d1602083018661218d565b6124de6040830185611ef2565b6124eb6060830184611ef2565b95945050505050565b6000602082019050612509600083018461218d565b92915050565b6000604051905081810181811067ffffffffffffffff82111715612536576125356128a3565b5b8060405250919050565b600067ffffffffffffffff82111561255b5761255a6128a3565b5b601f19601f8301169050602081019050919050565b600081519050919050565b600082825260208201905092915050565b600082825260208201905092915050565b60006125a882612758565b91506125b383612758565b9250826fffffffffffffffffffffffffffffffff038211156125d8576125d7612845565b5b828201905092915050565b60006125ee82612794565b91506125f983612794565b9250827fffffffffffffffffffffffffffffffffffffffffffffffffffffffffffffffff0382111561262e5761262d612845565b5b828201905092915050565b600061264482612758565b915061264f83612758565b92508261265f5761265e612874565b5b828204905092915050565b600061267582612758565b915061268083612758565b9250816fffffffffffffffffffffffffffffffff04831182151516156126a9576126a8612845565b5b828202905092915050565b60006126bf82612758565b91506126ca83612758565b9250828210156126dd576126dc612845565b5b828203905092915050565b60006126f382612774565b9050919050565b60008115159050919050565b6000819050919050565b60007fffffffff0000000000000000000000000000000000000000000000000000000082169050919050565b6000612747826126e8565b9050919050565b6000819050919050565b60006fffffffffffffffffffffffffffffffff82169050919050565b600073ffffffffffffffffffffffffffffffffffffffff82169050919050565b6000819050919050565b600063ffffffff82169050919050565b600060ff82169050919050565b60006127c6826127cd565b9050919050565b60006127d882612774565b9050919050565b60006127ea826127f1565b9050919050565b60006127fc82612774565b9050919050565b82818337600083830152505050565b60005b83811015612830578082015181840152602081019050612815565b8381111561283f576000848401525b50505050565b7f4e487b7100000000000000000000000000000000000000000000000000000000600052601160045260246000fd5b7f4e487b7100000000000000000000000000000000000000000000000000000000600052601260045260246000fd5b7f4e487b7100000000000000000000000000000000000000000000000000000000600052604160045260246000fd5b6000601f19601f8301169050919050565b6128ec816126e8565b81146128f757600080fd5b50565b612903816126fa565b811461290e57600080fd5b50565b61291a81612706565b811461292557600080fd5b50565b61293181612710565b811461293c57600080fd5b50565b6129488161273c565b811461295357600080fd5b50565b61295f8161274e565b811461296a57600080fd5b50565b61297681612758565b811461298157600080fd5b50565b61298d81612794565b811461299857600080fd5b50565b6129a48161279e565b81146129af57600080fd5b50565b6129bb816127ae565b81146129c657600080fd5b5056fea264697066735822122036a1e29e5608328c3af11caff78c50dcbd28cd66f1a3143f21b99cc891e5e2ce64736f6c63430008000033",
  "immutableReferences": {},
  "source": "pragma solidity ^0.8.0;\npragma experimental ABIEncoderV2;\n\nimport {\n    ISuperfluid,\n    ISuperToken,\n    SuperAppBase,\n    SuperAppDefinitions\n} from \"@superfluid-finance/ethereum-contracts/contracts/apps/SuperAppBase.sol\";\n//from \"https://github.com/superfluid-finance/protocol-monorepo/blob/remix-support/packages/ethereum-contracts/contracts/apps/SuperAppBase.sol\";\nimport {\n    IInstantDistributionAgreementV1\n} from \"@superfluid-finance/ethereum-contracts/contracts/interfaces/agreements/IInstantDistributionAgreementV1.sol\";\n//from \"https://github.com/superfluid-finance/protocol-monorepo/blob/remix-support/packages/ethereum-contracts/contracts/interfaces/agreements/IInstantDistributionAgreementV1.sol\";\n\nimport \"@openzeppelin/contracts/token/ERC777/IERC777.sol\";\nimport \"@openzeppelin/contracts/utils/introspection/IERC1820Registry.sol\";\nimport \"@openzeppelin/contracts/token/ERC777/IERC777Recipient.sol\";\n\ncontract ERC777Distributor is IERC777Recipient,SuperAppBase {\n\n    uint256 totalDonations;\n    uint128 totalShareUnits;\n    mapping (address=>uint128) shareMapping;\n\n    uint32 public constant INDEX_ID = 0;\n\n    address owner;\n\n    ISuperToken private _cashToken;\n    ISuperfluid private _host;\n    IInstantDistributionAgreementV1 private _ida;\n\n    IERC1820Registry private _erc1820 = IERC1820Registry(0x1820a4B7618BdE71Dce8cdc73aAB6C95905faD24);\n    bytes32 constant private TOKENS_RECIPIENT_INTERFACE_HASH = keccak256(\"ERC777TokensRecipient\");\n\n    // use callbacks to track approved subscriptions\n    mapping (address => bool) public isSubscribing;\n\n    //Events\n    event DonationReceived(address from, string token, uint256 amount,uint32 index,address tokenAddress,address publisher);\n    event UserAdded(address userAddress,uint128 shares,uint32 index,address tokenAddress,address publisher);\n    event UserRemoved(address userAddress,uint128 shares,uint32 index,address tokenAddress,address publisher);\n    event UserModified(address userAddress,uint128 shares,uint32 index,address tokenAddress,address publisher);\n    event Distribution(uint256 amountDistributed,uint32 index,address tokenAddress,address publisher);\n    event TotalShares(uint128 totalShares,uint32 index,address tokenAddress,address publisher);\n\n    constructor (\n        ISuperToken cashToken,\n        ISuperfluid host,\n        IInstantDistributionAgreementV1 ida) public {\n        \n        _erc1820.setInterfaceImplementer(address(this), TOKENS_RECIPIENT_INTERFACE_HASH, address(this));\n\n        _cashToken = cashToken;\n        _host = host;\n        _ida = ida;\n\n        uint256 configWord =\n            SuperAppDefinitions.APP_LEVEL_FINAL |\n            SuperAppDefinitions.BEFORE_AGREEMENT_TERMINATED_NOOP |\n            SuperAppDefinitions.AFTER_AGREEMENT_TERMINATED_NOOP;\n\n        _host.registerApp(configWord);\n\n        _host.callAgreement(\n            _ida,\n            abi.encodeWithSelector(\n                _ida.createIndex.selector,\n                _cashToken,\n                INDEX_ID,\n                new bytes(0) // placeholder ctx\n            ),\n            new bytes(0) // user data\n        );\n    }\n\n    modifier onlyOwner(){\n        require(owner==msg.sender);\n        _;\n    }\n\n    \n\n    function beforeAgreementCreated(\n        ISuperToken superToken,\n        address agreementClass,\n        bytes32 /* agreementId */,\n        bytes calldata /*agreementData*/,\n        bytes calldata /*ctx*/\n    )\n        external view override\n        returns (bytes memory data)\n    {\n        require(superToken == _cashToken, \"DRT: Unsupported cash token\");\n        require(agreementClass == address(_ida), \"DRT: Unsupported agreement\");\n        return new bytes(0);\n    }\n\n    function afterAgreementCreated(\n        ISuperToken superToken,\n        address /* agreementClass */,\n        bytes32 agreementId,\n        bytes calldata /*agreementData*/,\n        bytes calldata /*cbdata*/,\n        bytes calldata ctx\n    )\n        external override\n        returns(bytes memory newCtx)\n    {\n        _checkSubscription(superToken, ctx, agreementId);\n        newCtx = ctx;\n    }\n\n    function beforeAgreementUpdated(\n        ISuperToken superToken,\n        address agreementClass,\n        bytes32 /* agreementId */,\n        bytes calldata /*agreementData*/,\n        bytes calldata /*ctx*/\n    )\n        external view override\n        returns (bytes memory data)\n    {\n        require(superToken == _cashToken, \"DRT: Unsupported cash token\");\n        require(agreementClass == address(_ida), \"DRT: Unsupported agreement\");\n        return new bytes(0);\n    }\n\n    function afterAgreementUpdated(\n        ISuperToken superToken,\n        address /* agreementClass */,\n        bytes32 agreementId,\n        bytes calldata /*agreementData*/,\n        bytes calldata /*cbdata*/,\n        bytes calldata ctx\n    )\n        external override\n        returns(bytes memory newCtx)\n    {\n        _checkSubscription(superToken, ctx, agreementId);\n        newCtx = ctx;\n    }\n\n    function _checkSubscription(\n        ISuperToken superToken,\n        bytes calldata ctx,\n        bytes32 agreementId\n    )\n        private\n    {\n        ISuperfluid.Context memory context = _host.decodeCtx(ctx);\n        // only interested in the subscription approval callbacks\n        if (context.agreementSelector == IInstantDistributionAgreementV1.approveSubscription.selector) {\n            address publisher;\n            uint32 indexId;\n            bool approved;\n            uint128 units;\n            uint256 pendingDistribution;\n            (publisher, indexId, approved, units, pendingDistribution) =\n                _ida.getSubscriptionByID(superToken, agreementId);\n\n            // sanity checks for testing purpose\n            require(publisher == address(this), \"DRT: publisher mismatch\");\n            require(indexId == INDEX_ID, \"DRT: publisher mismatch\");\n\n            if (approved) {\n                isSubscribing[context.msgSender /* subscriber */] = true;\n            }\n        }\n    }\n\n    function modifySub(address newUser,uint128 shareUnits) internal{\n        _host.callAgreement(\n            _ida,\n            abi.encodeWithSelector(\n                _ida.updateSubscription.selector,\n                _cashToken,\n                INDEX_ID,\n                newUser,\n                shareUnits,\n                new bytes(0) // placeholder ctx\n            ),\n            new bytes(0) // user data\n        );\n        shareMapping[newUser] = shareUnits;\n    }\n\n    function addUser(address newUser,uint128 sharePercentage) external onlyOwner{\n        uint128 shareUnits = (sharePercentage * totalShareUnits)/(100- sharePercentage);\n        modifySub(newUser, shareUnits);\n        totalShareUnits += shareUnits;\n        shareMapping[newUser] = shareUnits;\n        emit UserAdded(newUser,shareUnits,INDEX_ID,address(_cashToken),address(this));\n    }\n\n    function modifyUser(address existingUser,uint128 sharePercentage) external onlyOwner{\n        \n        uint128 shareUnits = (sharePercentage * (totalShareUnits-shareMapping[existingUser]))/(100- sharePercentage);\n        modifySub(existingUser, shareUnits);\n        totalShareUnits += shareUnits - shareMapping[existingUser];\n        shareMapping[existingUser] = shareUnits;\n        emit UserModified(existingUser,shareUnits,INDEX_ID,address(_cashToken),address(this));\n    }\n\n    function removeUser(address newUser) external onlyOwner{\n        \n        totalShareUnits -= shareMapping[newUser];\n        uint128 temp = shareMapping[newUser];\n        shareMapping[newUser] = 0;\n        modifySub(newUser, 0);\n        emit UserRemoved(newUser,temp,INDEX_ID,address(_cashToken),address(this));\n    }\n\n    /// @dev Distribute `amount` of cash among all token holders\n    function distribute(uint256 cashAmount) internal {\n        (uint256 actualCashAmount,) = _ida.calculateDistribution(\n            _cashToken,\n            address(this), INDEX_ID,\n            cashAmount);\n\n        _host.callAgreement(\n            _ida,\n            abi.encodeWithSelector(\n                _ida.distribute.selector,\n                _cashToken,\n                INDEX_ID,\n                actualCashAmount,\n                new bytes(0) // placeholder ctx\n            ),\n            new bytes(0) // user data\n        );\n        emit Distribution(cashAmount,INDEX_ID,address(_cashToken),address(this));\n    }\n\n    function tokensReceived(\n        address operator,\n        address from,\n        address to,\n        uint256 amount,\n        bytes calldata userData,\n        bytes calldata operatorData\n    ) external override {\n        //require(msg.sender == address(_token), \"Simple777Recipient: Invalid token\");\n\n        // do stuff\n        totalDonations += amount;\n        distribute(amount);//TO DO: How will this workout?? We need to figure out whether a fees needs to be paid for distribute function & how would it be paid?\n        emit DonationReceived( from, \"tokenName\", amount,INDEX_ID,address(_cashToken),address(this));\n    }   \n\n}\n",
  "sourcePath": "/Users/praffulsahu/Documents/Crypto/erc777distributor/contracts/ERC777Distributor.sol",
  "compiler": {
    "name": "solc",
    "version": "0.8.0+commit.c7dfd78e.Emscripten.clang"
  },
  "schemaVersion": "3.3.3",
  "updatedAt": "2021-06-21T11:32:22.565Z",
  "devdoc": {
    "kind": "dev",
    "methods": {
      "tokensReceived(address,address,address,uint256,bytes,bytes)": {
        "details": "Called by an {IERC777} token contract whenever tokens are being moved or created into a registered account (`to`). The type of operation is conveyed by `from` being the zero address or not. This call occurs _after_ the token contract's state is updated, so {IERC777-balanceOf}, etc., can be used to query the post-operation state. This function may revert to prevent the operation from being executed."
      }
    },
    "version": 1
  },
  "userdoc": {
    "kind": "user",
    "methods": {},
    "version": 1
  }
}