{
  "contractName": "ERC777Distributor",
  "abi": [
    {
      "inputs": [
        {
          "internalType": "contract ISuperfluid",
          "name": "host",
          "type": "address"
        },
        {
          "internalType": "contract IInstantDistributionAgreementV1",
          "name": "ida",
          "type": "address"
        }
      ],
      "stateMutability": "nonpayable",
      "type": "constructor"
    },
    {
      "anonymous": false,
      "inputs": [
        {
          "indexed": false,
          "internalType": "uint256",
          "name": "amountDistributed",
          "type": "uint256"
        },
        {
          "indexed": false,
          "internalType": "uint32",
          "name": "index",
          "type": "uint32"
        },
        {
          "indexed": false,
          "internalType": "address",
          "name": "publisher",
          "type": "address"
        },
        {
          "indexed": false,
          "internalType": "uint256",
          "name": "timeStamp",
          "type": "uint256"
        },
        {
          "indexed": false,
          "internalType": "string",
          "name": "token",
          "type": "string"
        }
      ],
      "name": "Distribution",
      "type": "event"
    },
    {
      "anonymous": false,
      "inputs": [
        {
          "indexed": false,
          "internalType": "address",
          "name": "from",
          "type": "address"
        },
        {
          "indexed": false,
          "internalType": "string",
          "name": "token",
          "type": "string"
        },
        {
          "indexed": false,
          "internalType": "uint256",
          "name": "amount",
          "type": "uint256"
        },
        {
          "indexed": false,
          "internalType": "uint32",
          "name": "index",
          "type": "uint32"
        },
        {
          "indexed": false,
          "internalType": "address",
          "name": "publisher",
          "type": "address"
        },
        {
          "indexed": false,
          "internalType": "uint256",
          "name": "timeStamp",
          "type": "uint256"
        }
      ],
      "name": "DonationReceived",
      "type": "event"
    },
    {
      "anonymous": false,
      "inputs": [
        {
          "indexed": false,
          "internalType": "uint128",
          "name": "totalShares",
          "type": "uint128"
        },
        {
          "indexed": false,
          "internalType": "uint32",
          "name": "index",
          "type": "uint32"
        },
        {
          "indexed": false,
          "internalType": "address",
          "name": "publisher",
          "type": "address"
        },
        {
          "indexed": false,
          "internalType": "uint256",
          "name": "timeStamp",
          "type": "uint256"
        }
      ],
      "name": "TotalShares",
      "type": "event"
    },
    {
      "anonymous": false,
      "inputs": [
        {
          "indexed": false,
          "internalType": "address",
          "name": "userAddress",
          "type": "address"
        },
        {
          "indexed": false,
          "internalType": "uint128",
          "name": "shares",
          "type": "uint128"
        },
        {
          "indexed": false,
          "internalType": "uint32",
          "name": "index",
          "type": "uint32"
        },
        {
          "indexed": false,
          "internalType": "address",
          "name": "publisher",
          "type": "address"
        },
        {
          "indexed": false,
          "internalType": "uint256",
          "name": "timeStamp",
          "type": "uint256"
        },
        {
          "indexed": false,
          "internalType": "uint128",
          "name": "totalShares",
          "type": "uint128"
        }
      ],
      "name": "UserAdded",
      "type": "event"
    },
    {
      "anonymous": false,
      "inputs": [
        {
          "indexed": false,
          "internalType": "address",
          "name": "userAddress",
          "type": "address"
        },
        {
          "indexed": false,
          "internalType": "uint128",
          "name": "shares",
          "type": "uint128"
        },
        {
          "indexed": false,
          "internalType": "uint32",
          "name": "index",
          "type": "uint32"
        },
        {
          "indexed": false,
          "internalType": "address",
          "name": "publisher",
          "type": "address"
        },
        {
          "indexed": false,
          "internalType": "uint256",
          "name": "timeStamp",
          "type": "uint256"
        },
        {
          "indexed": false,
          "internalType": "uint128",
          "name": "totalShares",
          "type": "uint128"
        }
      ],
      "name": "UserModified",
      "type": "event"
    },
    {
      "anonymous": false,
      "inputs": [
        {
          "indexed": false,
          "internalType": "address",
          "name": "userAddress",
          "type": "address"
        },
        {
          "indexed": false,
          "internalType": "uint128",
          "name": "shares",
          "type": "uint128"
        },
        {
          "indexed": false,
          "internalType": "uint32",
          "name": "index",
          "type": "uint32"
        },
        {
          "indexed": false,
          "internalType": "address",
          "name": "publisher",
          "type": "address"
        },
        {
          "indexed": false,
          "internalType": "uint256",
          "name": "timeStamp",
          "type": "uint256"
        },
        {
          "indexed": false,
          "internalType": "uint128",
          "name": "totalShares",
          "type": "uint128"
        }
      ],
      "name": "UserRemoved",
      "type": "event"
    },
    {
      "inputs": [],
      "name": "INDEX_ID",
      "outputs": [
        {
          "internalType": "uint32",
          "name": "",
          "type": "uint32"
        }
      ],
      "stateMutability": "view",
      "type": "function",
      "constant": true
    },
    {
      "inputs": [
        {
          "internalType": "contract ISuperToken",
          "name": "",
          "type": "address"
        },
        {
          "internalType": "address",
          "name": "",
          "type": "address"
        },
        {
          "internalType": "bytes32",
          "name": "",
          "type": "bytes32"
        },
        {
          "internalType": "bytes",
          "name": "",
          "type": "bytes"
        },
        {
          "internalType": "bytes",
          "name": "",
          "type": "bytes"
        },
        {
          "internalType": "bytes",
          "name": "",
          "type": "bytes"
        }
      ],
      "name": "afterAgreementTerminated",
      "outputs": [
        {
          "internalType": "bytes",
          "name": "",
          "type": "bytes"
        }
      ],
      "stateMutability": "nonpayable",
      "type": "function"
    },
    {
      "inputs": [
        {
          "internalType": "contract ISuperToken",
          "name": "",
          "type": "address"
        },
        {
          "internalType": "address",
          "name": "",
          "type": "address"
        },
        {
          "internalType": "bytes32",
          "name": "",
          "type": "bytes32"
        },
        {
          "internalType": "bytes",
          "name": "",
          "type": "bytes"
        },
        {
          "internalType": "bytes",
          "name": "",
          "type": "bytes"
        }
      ],
      "name": "beforeAgreementTerminated",
      "outputs": [
        {
          "internalType": "bytes",
          "name": "",
          "type": "bytes"
        }
      ],
      "stateMutability": "view",
      "type": "function",
      "constant": true
    },
    {
      "inputs": [
        {
          "internalType": "address",
          "name": "",
          "type": "address"
        }
      ],
      "name": "isSubscribing",
      "outputs": [
        {
          "internalType": "bool",
          "name": "",
          "type": "bool"
        }
      ],
      "stateMutability": "view",
      "type": "function",
      "constant": true
    },
    {
      "inputs": [],
      "name": "totalDonations",
      "outputs": [
        {
          "internalType": "uint256",
          "name": "",
          "type": "uint256"
        }
      ],
      "stateMutability": "view",
      "type": "function",
      "constant": true
    },
    {
      "inputs": [],
      "name": "totalShareUnits",
      "outputs": [
        {
          "internalType": "uint128",
          "name": "",
          "type": "uint128"
        }
      ],
      "stateMutability": "view",
      "type": "function",
      "constant": true
    },
    {
      "inputs": [
        {
          "internalType": "address",
          "name": "user",
          "type": "address"
        }
      ],
      "name": "sharesOf",
      "outputs": [
        {
          "internalType": "uint128",
          "name": "",
          "type": "uint128"
        }
      ],
      "stateMutability": "view",
      "type": "function",
      "constant": true
    },
    {
      "inputs": [
        {
          "internalType": "contract ISuperToken",
          "name": "superToken",
          "type": "address"
        },
        {
          "internalType": "address",
          "name": "agreementClass",
          "type": "address"
        },
        {
          "internalType": "bytes32",
          "name": "",
          "type": "bytes32"
        },
        {
          "internalType": "bytes",
          "name": "",
          "type": "bytes"
        },
        {
          "internalType": "bytes",
          "name": "",
          "type": "bytes"
        }
      ],
      "name": "beforeAgreementCreated",
      "outputs": [
        {
          "internalType": "bytes",
          "name": "data",
          "type": "bytes"
        }
      ],
      "stateMutability": "view",
      "type": "function",
      "constant": true
    },
    {
      "inputs": [
        {
          "internalType": "contract ISuperToken",
          "name": "superToken",
          "type": "address"
        },
        {
          "internalType": "address",
          "name": "",
          "type": "address"
        },
        {
          "internalType": "bytes32",
          "name": "agreementId",
          "type": "bytes32"
        },
        {
          "internalType": "bytes",
          "name": "",
          "type": "bytes"
        },
        {
          "internalType": "bytes",
          "name": "",
          "type": "bytes"
        },
        {
          "internalType": "bytes",
          "name": "ctx",
          "type": "bytes"
        }
      ],
      "name": "afterAgreementCreated",
      "outputs": [
        {
          "internalType": "bytes",
          "name": "newCtx",
          "type": "bytes"
        }
      ],
      "stateMutability": "nonpayable",
      "type": "function"
    },
    {
      "inputs": [
        {
          "internalType": "contract ISuperToken",
          "name": "superToken",
          "type": "address"
        },
        {
          "internalType": "address",
          "name": "agreementClass",
          "type": "address"
        },
        {
          "internalType": "bytes32",
          "name": "",
          "type": "bytes32"
        },
        {
          "internalType": "bytes",
          "name": "",
          "type": "bytes"
        },
        {
          "internalType": "bytes",
          "name": "",
          "type": "bytes"
        }
      ],
      "name": "beforeAgreementUpdated",
      "outputs": [
        {
          "internalType": "bytes",
          "name": "data",
          "type": "bytes"
        }
      ],
      "stateMutability": "view",
      "type": "function",
      "constant": true
    },
    {
      "inputs": [
        {
          "internalType": "contract ISuperToken",
          "name": "superToken",
          "type": "address"
        },
        {
          "internalType": "address",
          "name": "",
          "type": "address"
        },
        {
          "internalType": "bytes32",
          "name": "agreementId",
          "type": "bytes32"
        },
        {
          "internalType": "bytes",
          "name": "",
          "type": "bytes"
        },
        {
          "internalType": "bytes",
          "name": "",
          "type": "bytes"
        },
        {
          "internalType": "bytes",
          "name": "ctx",
          "type": "bytes"
        }
      ],
      "name": "afterAgreementUpdated",
      "outputs": [
        {
          "internalType": "bytes",
          "name": "newCtx",
          "type": "bytes"
        }
      ],
      "stateMutability": "nonpayable",
      "type": "function"
    },
    {
      "inputs": [
        {
          "internalType": "address",
          "name": "newUser",
          "type": "address"
        },
        {
          "internalType": "uint128",
          "name": "sharePercentage",
          "type": "uint128"
        }
      ],
      "name": "addUser",
      "outputs": [],
      "stateMutability": "nonpayable",
      "type": "function"
    },
    {
      "inputs": [
        {
          "internalType": "address",
          "name": "existingUser",
          "type": "address"
        },
        {
          "internalType": "uint128",
          "name": "sharePercentage",
          "type": "uint128"
        }
      ],
      "name": "modifyUser",
      "outputs": [],
      "stateMutability": "nonpayable",
      "type": "function"
    },
    {
      "inputs": [
        {
          "internalType": "address",
          "name": "existingUser",
          "type": "address"
        }
      ],
      "name": "removeUser",
      "outputs": [],
      "stateMutability": "nonpayable",
      "type": "function"
    },
    {
      "inputs": [
        {
          "internalType": "address",
          "name": "operator",
          "type": "address"
        },
        {
          "internalType": "address",
          "name": "from",
          "type": "address"
        },
        {
          "internalType": "address",
          "name": "to",
          "type": "address"
        },
        {
          "internalType": "uint256",
          "name": "amount",
          "type": "uint256"
        },
        {
          "internalType": "bytes",
          "name": "userData",
          "type": "bytes"
        },
        {
          "internalType": "bytes",
          "name": "operatorData",
          "type": "bytes"
        }
      ],
      "name": "tokensReceived",
      "outputs": [],
      "stateMutability": "nonpayable",
      "type": "function"
    }
  ],
  "bytecode": "0x6080604052600080556000600160006101000a8154816fffffffffffffffffffffffffffffffff02191690836fffffffffffffffffffffffffffffffff160217905550731820a4b7618bde71dce8cdc73aab6c95905fad24600c60006101000a81548173ffffffffffffffffffffffffffffffffffffffff021916908373ffffffffffffffffffffffffffffffffffffffff160217905550348015620000a457600080fd5b5060405162004eec38038062004eec8339818101604052810190620000ca9190620011ed565b33600460006101000a81548173ffffffffffffffffffffffffffffffffffffffff021916908373ffffffffffffffffffffffffffffffffffffffff160217905550600c60009054906101000a900473ffffffffffffffffffffffffffffffffffffffff1673ffffffffffffffffffffffffffffffffffffffff166329965a1d307fb281fc8c12954d22544db45de3159a39272895b169a852b314f9cc762e44c53b306040518463ffffffff1660e01b81526004016200018c93929190620012d5565b600060405180830381600087803b158015620001a757600080fd5b505af1158015620001bc573d6000803e3d6000fd5b5050505073745861aed1eee363b4aaa5f1994be40b1e05ff90600660006101000a81548173ffffffffffffffffffffffffffffffffffffffff021916908373ffffffffffffffffffffffffffffffffffffffff1602179055506040518060400160405280600581526020017f66444149780000000000000000000000000000000000000000000000000000008152506003600073745861aed1eee363b4aaa5f1994be40b1e05ff9073ffffffffffffffffffffffffffffffffffffffff1673ffffffffffffffffffffffffffffffffffffffff1681526020019081526020016000209080519060200190620002b392919062001058565b50730f1d7c55a2b133e000ea10eec03c774e0d6796e8600760006101000a81548173ffffffffffffffffffffffffffffffffffffffff021916908373ffffffffffffffffffffffffffffffffffffffff1602179055506040518060400160405280600681526020017f665553444378000000000000000000000000000000000000000000000000000081525060036000730f1d7c55a2b133e000ea10eec03c774e0d6796e873ffffffffffffffffffffffffffffffffffffffff1673ffffffffffffffffffffffffffffffffffffffff1681526020019081526020016000209080519060200190620003a792919062001058565b5073df7b8461a1d9f57f12f88d97fc6131e36d302d81600860006101000a81548173ffffffffffffffffffffffffffffffffffffffff021916908373ffffffffffffffffffffffffffffffffffffffff1602179055506040518060400160405280600681526020017f66545553447800000000000000000000000000000000000000000000000000008152506003600073df7b8461a1d9f57f12f88d97fc6131e36d302d8173ffffffffffffffffffffffffffffffffffffffff1673ffffffffffffffffffffffffffffffffffffffff16815260200190815260200160002090805190602001906200049b92919062001058565b5073a623b2dd931c5162b7a0b25852f4024db48bb1a0600960006101000a81548173ffffffffffffffffffffffffffffffffffffffff021916908373ffffffffffffffffffffffffffffffffffffffff1602179055506040518060400160405280600481526020017f45544878000000000000000000000000000000000000000000000000000000008152506003600073a623b2dd931c5162b7a0b25852f4024db48bb1a073ffffffffffffffffffffffffffffffffffffffff1673ffffffffffffffffffffffffffffffffffffffff16815260200190815260200160002090805190602001906200058f92919062001058565b5081600a60006101000a81548173ffffffffffffffffffffffffffffffffffffffff021916908373ffffffffffffffffffffffffffffffffffffffff16021790555080600b60006101000a81548173ffffffffffffffffffffffffffffffffffffffff021916908373ffffffffffffffffffffffffffffffffffffffff1602179055506000642000000000641000000000600117179050600a60009054906101000a900473ffffffffffffffffffffffffffffffffffffffff1673ffffffffffffffffffffffffffffffffffffffff1663ad3915c8826040518263ffffffff1660e01b8152600401620006839190620013a1565b600060405180830381600087803b1580156200069e57600080fd5b505af1158015620006b3573d6000803e3d6000fd5b50505050600a60009054906101000a900473ffffffffffffffffffffffffffffffffffffffff1673ffffffffffffffffffffffffffffffffffffffff166339255d5b600b60009054906101000a900473ffffffffffffffffffffffffffffffffffffffff1663d787840a60e01b600660009054906101000a900473ffffffffffffffffffffffffffffffffffffffff1660008067ffffffffffffffff81111562000786577f4e487b7100000000000000000000000000000000000000000000000000000000600052604160045260246000fd5b6040519080825280601f01601f191660200182016040528015620007b95781602001600182028036833780820191505090505b50604051602401620007ce939291906200135d565b604051602081830303815290604052907bffffffffffffffffffffffffffffffffffffffffffffffffffffffff19166020820180517bffffffffffffffffffffffffffffffffffffffffffffffffffffffff8381831617835250505050600067ffffffffffffffff8111156200086d577f4e487b7100000000000000000000000000000000000000000000000000000000600052604160045260246000fd5b6040519080825280601f01601f191660200182016040528015620008a05781602001600182028036833780820191505090505b506040518463ffffffff1660e01b8152600401620008c19392919062001312565b600060405180830381600087803b158015620008dc57600080fd5b505af1158015620008f1573d6000803e3d6000fd5b505050506040513d6000823e3d601f19601f820116820180604052508101906200091c9190620011a8565b50600a60009054906101000a900473ffffffffffffffffffffffffffffffffffffffff1673ffffffffffffffffffffffffffffffffffffffff166339255d5b600b60009054906101000a900473ffffffffffffffffffffffffffffffffffffffff1663d787840a60e01b600760009054906101000a900473ffffffffffffffffffffffffffffffffffffffff1660008067ffffffffffffffff811115620009ec577f4e487b7100000000000000000000000000000000000000000000000000000000600052604160045260246000fd5b6040519080825280601f01601f19166020018201604052801562000a1f5781602001600182028036833780820191505090505b5060405160240162000a34939291906200135d565b604051602081830303815290604052907bffffffffffffffffffffffffffffffffffffffffffffffffffffffff19166020820180517bffffffffffffffffffffffffffffffffffffffffffffffffffffffff8381831617835250505050600067ffffffffffffffff81111562000ad3577f4e487b7100000000000000000000000000000000000000000000000000000000600052604160045260246000fd5b6040519080825280601f01601f19166020018201604052801562000b065781602001600182028036833780820191505090505b506040518463ffffffff1660e01b815260040162000b279392919062001312565b600060405180830381600087803b15801562000b4257600080fd5b505af115801562000b57573d6000803e3d6000fd5b505050506040513d6000823e3d601f19601f8201168201806040525081019062000b829190620011a8565b50600a60009054906101000a900473ffffffffffffffffffffffffffffffffffffffff1673ffffffffffffffffffffffffffffffffffffffff166339255d5b600b60009054906101000a900473ffffffffffffffffffffffffffffffffffffffff1663d787840a60e01b600860009054906101000a900473ffffffffffffffffffffffffffffffffffffffff1660008067ffffffffffffffff81111562000c52577f4e487b7100000000000000000000000000000000000000000000000000000000600052604160045260246000fd5b6040519080825280601f01601f19166020018201604052801562000c855781602001600182028036833780820191505090505b5060405160240162000c9a939291906200135d565b604051602081830303815290604052907bffffffffffffffffffffffffffffffffffffffffffffffffffffffff19166020820180517bffffffffffffffffffffffffffffffffffffffffffffffffffffffff8381831617835250505050600067ffffffffffffffff81111562000d39577f4e487b7100000000000000000000000000000000000000000000000000000000600052604160045260246000fd5b6040519080825280601f01601f19166020018201604052801562000d6c5781602001600182028036833780820191505090505b506040518463ffffffff1660e01b815260040162000d8d9392919062001312565b600060405180830381600087803b15801562000da857600080fd5b505af115801562000dbd573d6000803e3d6000fd5b505050506040513d6000823e3d601f19601f8201168201806040525081019062000de89190620011a8565b50600a60009054906101000a900473ffffffffffffffffffffffffffffffffffffffff1673ffffffffffffffffffffffffffffffffffffffff166339255d5b600b60009054906101000a900473ffffffffffffffffffffffffffffffffffffffff1663d787840a60e01b600960009054906101000a900473ffffffffffffffffffffffffffffffffffffffff1660008067ffffffffffffffff81111562000eb8577f4e487b7100000000000000000000000000000000000000000000000000000000600052604160045260246000fd5b6040519080825280601f01601f19166020018201604052801562000eeb5781602001600182028036833780820191505090505b5060405160240162000f00939291906200135d565b604051602081830303815290604052907bffffffffffffffffffffffffffffffffffffffffffffffffffffffff19166020820180517bffffffffffffffffffffffffffffffffffffffffffffffffffffffff8381831617835250505050600067ffffffffffffffff81111562000f9f577f4e487b7100000000000000000000000000000000000000000000000000000000600052604160045260246000fd5b6040519080825280601f01601f19166020018201604052801562000fd25781602001600182028036833780820191505090505b506040518463ffffffff1660e01b815260040162000ff39392919062001312565b600060405180830381600087803b1580156200100e57600080fd5b505af115801562001023573d6000803e3d6000fd5b505050506040513d6000823e3d601f19601f820116820180604052508101906200104e9190620011a8565b5050505062001620565b828054620010669062001547565b90600052602060002090601f0160209004810192826200108a5760008555620010d6565b82601f10620010a557805160ff1916838001178555620010d6565b82800160010185558215620010d6579182015b82811115620010d5578251825591602001919060010190620010b8565b5b509050620010e59190620010e9565b5090565b5b8082111562001104576000816000905550600101620010ea565b5090565b60006200111f6200111984620013f2565b620013be565b9050828152602081018484840111156200113857600080fd5b6200114584828562001511565b509392505050565b600082601f8301126200115f57600080fd5b81516200117184826020860162001108565b91505092915050565b6000815190506200118b81620015ec565b92915050565b600081519050620011a28162001606565b92915050565b600060208284031215620011bb57600080fd5b600082015167ffffffffffffffff811115620011d657600080fd5b620011e4848285016200114d565b91505092915050565b600080604083850312156200120157600080fd5b6000620012118582860162001191565b925050602062001224858286016200117a565b9150509250929050565b620012398162001441565b82525050565b6200124a8162001455565b82525050565b60006200125d8262001425565b62001269818562001430565b93506200127b81856020860162001511565b6200128681620015db565b840191505092915050565b6200129c81620014c1565b82525050565b620012ad81620014e9565b82525050565b620012be81620014a7565b82525050565b620012cf81620014b1565b82525050565b6000606082019050620012ec60008301866200122e565b620012fb60208301856200123f565b6200130a60408301846200122e565b949350505050565b600060608201905062001329600083018662001291565b81810360208301526200133d818562001250565b9050818103604083015262001353818462001250565b9050949350505050565b6000606082019050620013746000830186620012a2565b620013836020830185620012c4565b818103604083015262001397818462001250565b9050949350505050565b6000602082019050620013b86000830184620012b3565b92915050565b6000604051905081810181811067ffffffffffffffff82111715620013e857620013e7620015ac565b5b8060405250919050565b600067ffffffffffffffff82111562001410576200140f620015ac565b5b601f19601f8301169050602081019050919050565b600081519050919050565b600082825260208201905092915050565b60006200144e8262001487565b9050919050565b6000819050919050565b60006200146c8262001441565b9050919050565b6000620014808262001441565b9050919050565b600073ffffffffffffffffffffffffffffffffffffffff82169050919050565b6000819050919050565b600063ffffffff82169050919050565b6000620014ce82620014d5565b9050919050565b6000620014e28262001487565b9050919050565b6000620014f682620014fd565b9050919050565b60006200150a8262001487565b9050919050565b60005b838110156200153157808201518184015260208101905062001514565b8381111562001541576000848401525b50505050565b600060028204905060018216806200156057607f821691505b602082108114156200157757620015766200157d565b5b50919050565b7f4e487b7100000000000000000000000000000000000000000000000000000000600052602260045260246000fd5b7f4e487b7100000000000000000000000000000000000000000000000000000000600052604160045260246000fd5b6000601f19601f8301169050919050565b620015f7816200145f565b81146200160357600080fd5b50565b620016118162001473565b81146200161d57600080fd5b50565b6138bc80620016306000396000f3fe608060405234801561001057600080fd5b50600436106100f45760003560e01c80638378f8c011610097578063985751881161006657806398575188146102a9578063d86ed3e5146102c5578063de2ed893146102f5578063f5eb42dc14610313576100f4565b80638378f8c01461020f578063884d1f401461022b5780638c7f09591461025b578063915e336414610279576100f4565b80635167f6e7116100d35780635167f6e71461017557806353c11f99146101935780635f9e7d77146101c357806380e85c51146101f3576100f4565b806223de29146100f9578063230dbd291461011557806330d9c91514610145575b600080fd5b610113600480360381019061010e91906127b0565b610343565b005b61012f600480360381019061012a9190612a17565b6103ef565b60405161013c919061300b565b60405180910390f35b61015f600480360381019061015a9190612967565b610451565b60405161016c919061300b565b60405180910390f35b61017d610564565b60405161018a9190613266565b60405180910390f35b6101ad60048036038101906101a89190612a17565b610586565b6040516101ba919061300b565b60405180910390f35b6101dd60048036038101906101d89190612967565b6105c3565b6040516101ea919061300b565b60405180910390f35b61020d60048036038101906102089190612873565b610600565b005b61022960048036038101906102249190612873565b610987565b005b61024560048036038101906102409190612967565b610e9e565b604051610252919061300b565b60405180910390f35b610263610fb1565b604051610270919061333b565b60405180910390f35b610293600480360381019061028e9190612787565b610fb6565b6040516102a09190612fcc565b60405180910390f35b6102c360048036038101906102be9190612787565b610fd6565b005b6102df60048036038101906102da9190612a17565b611341565b6040516102ec919061300b565b60405180910390f35b6102fd6113a3565b60405161030a91906132c6565b60405180910390f35b61032d60048036038101906103289190612787565b6113a9565b60405161033a9190613266565b60405180910390f35b84600080828254610354919061343f565b92505081905550610365853361140e565b7f06025452741aefba2517f074584c98b74e7fbf558c672e1deb190dd1c4ac2e7887600360003373ffffffffffffffffffffffffffffffffffffffff1673ffffffffffffffffffffffffffffffffffffffff16815260200190815260200160002087600030426040516103dd96959493929190612f03565b60405180910390a15050505050505050565b60606103fd8a84848b611782565b82828080601f016020809104026020016040519081016040528093929190818152602001838380828437600081840152601f19601f8201169050808301925050505050505090509998505050505050505050565b6060600b60009054906101000a900473ffffffffffffffffffffffffffffffffffffffff1673ffffffffffffffffffffffffffffffffffffffff168773ffffffffffffffffffffffffffffffffffffffff16146104e3576040517f08c379a00000000000000000000000000000000000000000000000000000000081526004016104da906131c6565b60405180910390fd5b600067ffffffffffffffff811115610524577f4e487b7100000000000000000000000000000000000000000000000000000000600052604160045260246000fd5b6040519080825280601f01601f1916602001820160405280156105565781602001600182028036833780820191505090505b509050979650505050505050565b600160009054906101000a90046fffffffffffffffffffffffffffffffff1681565b60606040517f08c379a00000000000000000000000000000000000000000000000000000000081526004016105ba90613246565b60405180910390fd5b60606040517f08c379a00000000000000000000000000000000000000000000000000000000081526004016105f7906131a6565b60405180910390fd5b3373ffffffffffffffffffffffffffffffffffffffff16600460009054906101000a900473ffffffffffffffffffffffffffffffffffffffff1673ffffffffffffffffffffffffffffffffffffffff161461065a57600080fd5b6000600260008473ffffffffffffffffffffffffffffffffffffffff1673ffffffffffffffffffffffffffffffffffffffff16815260200190815260200160002060009054906101000a90046fffffffffffffffffffffffffffffffff166fffffffffffffffffffffffffffffffff161461070a576040517f08c379a0000000000000000000000000000000000000000000000000000000008152600401610701906131e6565b60405180910390fd5b6000816fffffffffffffffffffffffffffffffff161161075f576040517f08c379a000000000000000000000000000000000000000000000000000000000815260040161075690613186565b60405180910390fd5b600080600160009054906101000a90046fffffffffffffffffffffffffffffffff166fffffffffffffffffffffffffffffffff16146107de578160646107a59190613510565b600160009054906101000a90046fffffffffffffffffffffffffffffffff16836107cf91906134c6565b6107d99190613495565b6107e1565b60645b90506107ed8382611a7f565b80600160008282829054906101000a90046fffffffffffffffffffffffffffffffff1661081a91906133f9565b92506101000a8154816fffffffffffffffffffffffffffffffff02191690836fffffffffffffffffffffffffffffffff16021790555080600260008573ffffffffffffffffffffffffffffffffffffffff1673ffffffffffffffffffffffffffffffffffffffff16815260200190815260200160002060006101000a8154816fffffffffffffffffffffffffffffffff02191690836fffffffffffffffffffffffffffffffff1602179055507f9b1f4981fdb1f3b5689710b2535cafc1b22e22c05bb12a0ca9acb1293a49e82c838260003042600160009054906101000a90046fffffffffffffffffffffffffffffffff1660405161091e96959493929190612f6b565b60405180910390a17f3f0b37810834384d2e75ddcb117cea7717a403ca60272c9824cb42c665f05ad6600160009054906101000a90046fffffffffffffffffffffffffffffffff166000304260405161097a9493929190613281565b60405180910390a1505050565b3373ffffffffffffffffffffffffffffffffffffffff16600460009054906101000a900473ffffffffffffffffffffffffffffffffffffffff1673ffffffffffffffffffffffffffffffffffffffff16146109e157600080fd5b6000600260008473ffffffffffffffffffffffffffffffffffffffff1673ffffffffffffffffffffffffffffffffffffffff16815260200190815260200160002060009054906101000a90046fffffffffffffffffffffffffffffffff166fffffffffffffffffffffffffffffffff161415610a92576040517f08c379a0000000000000000000000000000000000000000000000000000000008152600401610a8990613226565b60405180910390fd5b6000816fffffffffffffffffffffffffffffffff1611610ae7576040517f08c379a0000000000000000000000000000000000000000000000000000000008152600401610ade90613186565b60405180910390fd5b6000600260008473ffffffffffffffffffffffffffffffffffffffff1673ffffffffffffffffffffffffffffffffffffffff16815260200190815260200160002060009054906101000a90046fffffffffffffffffffffffffffffffff166fffffffffffffffffffffffffffffffff16600160009054906101000a90046fffffffffffffffffffffffffffffffff166fffffffffffffffffffffffffffffffff1614610c3757816064610b9a9190613510565b610c1d600160009054906101000a90046fffffffffffffffffffffffffffffffff16600260008773ffffffffffffffffffffffffffffffffffffffff1673ffffffffffffffffffffffffffffffffffffffff16815260200190815260200160002060009054906101000a90046fffffffffffffffffffffffffffffffff166123ff565b83610c2891906134c6565b610c329190613495565b610c3a565b60645b9050610c468382611a7f565b600260008473ffffffffffffffffffffffffffffffffffffffff1673ffffffffffffffffffffffffffffffffffffffff16815260200190815260200160002060009054906101000a90046fffffffffffffffffffffffffffffffff16600160008282829054906101000a90046fffffffffffffffffffffffffffffffff16610cce9190613510565b92506101000a8154816fffffffffffffffffffffffffffffffff02191690836fffffffffffffffffffffffffffffffff16021790555080600160008282829054906101000a90046fffffffffffffffffffffffffffffffff16610d3191906133f9565b92506101000a8154816fffffffffffffffffffffffffffffffff02191690836fffffffffffffffffffffffffffffffff16021790555080600260008573ffffffffffffffffffffffffffffffffffffffff1673ffffffffffffffffffffffffffffffffffffffff16815260200190815260200160002060006101000a8154816fffffffffffffffffffffffffffffffff02191690836fffffffffffffffffffffffffffffffff1602179055507f065689651f18eaf808ec5f8ccb6b7a8ef5a7a1ddfdd58314da33fc5637d12522838260003042600160009054906101000a90046fffffffffffffffffffffffffffffffff16604051610e3596959493929190612f6b565b60405180910390a17f3f0b37810834384d2e75ddcb117cea7717a403ca60272c9824cb42c665f05ad6600160009054906101000a90046fffffffffffffffffffffffffffffffff1660003042604051610e919493929190613281565b60405180910390a1505050565b6060600b60009054906101000a900473ffffffffffffffffffffffffffffffffffffffff1673ffffffffffffffffffffffffffffffffffffffff168773ffffffffffffffffffffffffffffffffffffffff1614610f30576040517f08c379a0000000000000000000000000000000000000000000000000000000008152600401610f27906131c6565b60405180910390fd5b600067ffffffffffffffff811115610f71577f4e487b7100000000000000000000000000000000000000000000000000000000600052604160045260246000fd5b6040519080825280601f01601f191660200182016040528015610fa35781602001600182028036833780820191505090505b509050979650505050505050565b600081565b600d6020528060005260406000206000915054906101000a900460ff1681565b3373ffffffffffffffffffffffffffffffffffffffff16600460009054906101000a900473ffffffffffffffffffffffffffffffffffffffff1673ffffffffffffffffffffffffffffffffffffffff161461103057600080fd5b6000600260008373ffffffffffffffffffffffffffffffffffffffff1673ffffffffffffffffffffffffffffffffffffffff16815260200190815260200160002060009054906101000a90046fffffffffffffffffffffffffffffffff166fffffffffffffffffffffffffffffffff1614156110e1576040517f08c379a00000000000000000000000000000000000000000000000000000000081526004016110d890613226565b60405180910390fd5b600260008273ffffffffffffffffffffffffffffffffffffffff1673ffffffffffffffffffffffffffffffffffffffff16815260200190815260200160002060009054906101000a90046fffffffffffffffffffffffffffffffff16600160008282829054906101000a90046fffffffffffffffffffffffffffffffff166111699190613510565b92506101000a8154816fffffffffffffffffffffffffffffffff02191690836fffffffffffffffffffffffffffffffff1602179055506000600260008373ffffffffffffffffffffffffffffffffffffffff1673ffffffffffffffffffffffffffffffffffffffff16815260200190815260200160002060009054906101000a90046fffffffffffffffffffffffffffffffff1690506000600260008473ffffffffffffffffffffffffffffffffffffffff1673ffffffffffffffffffffffffffffffffffffffff16815260200190815260200160002060006101000a8154816fffffffffffffffffffffffffffffffff02191690836fffffffffffffffffffffffffffffffff160217905550611281826000611a7f565b7f770a7097ec8f9d359bc549b4a53c8664d6ba32764ccef1e1954cf4ebae0f0021828260003042600160009054906101000a90046fffffffffffffffffffffffffffffffff166040516112d996959493929190612f6b565b60405180910390a17f3f0b37810834384d2e75ddcb117cea7717a403ca60272c9824cb42c665f05ad6600160009054906101000a90046fffffffffffffffffffffffffffffffff16600030426040516113359493929190613281565b60405180910390a15050565b606061134f8a84848b611782565b82828080601f016020809104026020016040519081016040528093929190818152602001838380828437600081840152601f19601f8201169050808301925050505050505090509998505050505050505050565b60005481565b6000600260008373ffffffffffffffffffffffffffffffffffffffff1673ffffffffffffffffffffffffffffffffffffffff16815260200190815260200160002060009054906101000a90046fffffffffffffffffffffffffffffffff169050919050565b6000600b60009054906101000a900473ffffffffffffffffffffffffffffffffffffffff1673ffffffffffffffffffffffffffffffffffffffff1663899baaec83306000876040518563ffffffff1660e01b81526004016114729493929190613072565b604080518083038186803b15801561148957600080fd5b505afa15801561149d573d6000803e3d6000fd5b505050506040513d601f19601f820116820180604052508101906114c19190612b37565b509050600a60009054906101000a900473ffffffffffffffffffffffffffffffffffffffff1673ffffffffffffffffffffffffffffffffffffffff166339255d5b600b60009054906101000a900473ffffffffffffffffffffffffffffffffffffffff1663b96731c260e01b85600086600067ffffffffffffffff811115611572577f4e487b7100000000000000000000000000000000000000000000000000000000600052604160045260246000fd5b6040519080825280601f01601f1916602001820160405280156115a45781602001600182028036833780820191505090505b506040516024016115b8949392919061313a565b604051602081830303815290604052907bffffffffffffffffffffffffffffffffffffffffffffffffffffffff19166020820180517bffffffffffffffffffffffffffffffffffffffffffffffffffffffff8381831617835250505050600067ffffffffffffffff811115611656577f4e487b7100000000000000000000000000000000000000000000000000000000600052604160045260246000fd5b6040519080825280601f01601f1916602001820160405280156116885781602001600182028036833780820191505090505b506040518463ffffffff1660e01b81526004016116a79392919061302d565b600060405180830381600087803b1580156116c157600080fd5b505af11580156116d5573d6000803e3d6000fd5b505050506040513d6000823e3d601f19601f820116820180604052508101906116fe9190612926565b507fac31fd416e918b8a8d73ff2fab2dde3251bd00db40031e5990cedac15771e6d28160003042600360008873ffffffffffffffffffffffffffffffffffffffff1673ffffffffffffffffffffffffffffffffffffffff1681526020019081526020016000206040516117759594939291906132e1565b60405180910390a1505050565b6000600a60009054906101000a900473ffffffffffffffffffffffffffffffffffffffff1673ffffffffffffffffffffffffffffffffffffffff16633f6c923a85856040518363ffffffff1660e01b81526004016117e1929190612fe7565b60006040518083038186803b1580156117f957600080fd5b505afa15801561180d573d6000803e3d6000fd5b505050506040513d6000823e3d601f19601f820116820180604052508101906118369190612af6565b905063acf4a6c260e01b7bffffffffffffffffffffffffffffffffffffffffffffffffffffffff191681608001517bffffffffffffffffffffffffffffffffffffffffffffffffffffffff19161415611a78576000806000806000600b60009054906101000a900473ffffffffffffffffffffffffffffffffffffffff1673ffffffffffffffffffffffffffffffffffffffff1663cd7245c58b896040518363ffffffff1660e01b81526004016118ee9291906130b7565b60a06040518083038186803b15801561190657600080fd5b505afa15801561191a573d6000803e3d6000fd5b505050506040513d601f19601f8201168201806040525081019061193e91906128af565b80955081965082975083985084995050505050503073ffffffffffffffffffffffffffffffffffffffff168573ffffffffffffffffffffffffffffffffffffffff16146119c0576040517f08c379a00000000000000000000000000000000000000000000000000000000081526004016119b790613206565b60405180910390fd5b600063ffffffff168463ffffffff1614611a0f576040517f08c379a0000000000000000000000000000000000000000000000000000000008152600401611a0690613206565b60405180910390fd5b8215611a72576001600d6000886060015173ffffffffffffffffffffffffffffffffffffffff1673ffffffffffffffffffffffffffffffffffffffff16815260200190815260200160002060006101000a81548160ff0219169083151502179055505b50505050505b5050505050565b600a60009054906101000a900473ffffffffffffffffffffffffffffffffffffffff1673ffffffffffffffffffffffffffffffffffffffff166339255d5b600b60009054906101000a900473ffffffffffffffffffffffffffffffffffffffff1663232d2b5860e01b600660009054906101000a900473ffffffffffffffffffffffffffffffffffffffff1660008787600067ffffffffffffffff811115611b50577f4e487b7100000000000000000000000000000000000000000000000000000000600052604160045260246000fd5b6040519080825280601f01601f191660200182016040528015611b825781602001600182028036833780820191505090505b50604051602401611b979594939291906130e0565b604051602081830303815290604052907bffffffffffffffffffffffffffffffffffffffffffffffffffffffff19166020820180517bffffffffffffffffffffffffffffffffffffffffffffffffffffffff8381831617835250505050600067ffffffffffffffff811115611c35577f4e487b7100000000000000000000000000000000000000000000000000000000600052604160045260246000fd5b6040519080825280601f01601f191660200182016040528015611c675781602001600182028036833780820191505090505b506040518463ffffffff1660e01b8152600401611c869392919061302d565b600060405180830381600087803b158015611ca057600080fd5b505af1158015611cb4573d6000803e3d6000fd5b505050506040513d6000823e3d601f19601f82011682018060405250810190611cdd9190612926565b50600a60009054906101000a900473ffffffffffffffffffffffffffffffffffffffff1673ffffffffffffffffffffffffffffffffffffffff166339255d5b600b60009054906101000a900473ffffffffffffffffffffffffffffffffffffffff1663232d2b5860e01b600760009054906101000a900473ffffffffffffffffffffffffffffffffffffffff1660008787600067ffffffffffffffff811115611daf577f4e487b7100000000000000000000000000000000000000000000000000000000600052604160045260246000fd5b6040519080825280601f01601f191660200182016040528015611de15781602001600182028036833780820191505090505b50604051602401611df69594939291906130e0565b604051602081830303815290604052907bffffffffffffffffffffffffffffffffffffffffffffffffffffffff19166020820180517bffffffffffffffffffffffffffffffffffffffffffffffffffffffff8381831617835250505050600067ffffffffffffffff811115611e94577f4e487b7100000000000000000000000000000000000000000000000000000000600052604160045260246000fd5b6040519080825280601f01601f191660200182016040528015611ec65781602001600182028036833780820191505090505b506040518463ffffffff1660e01b8152600401611ee59392919061302d565b600060405180830381600087803b158015611eff57600080fd5b505af1158015611f13573d6000803e3d6000fd5b505050506040513d6000823e3d601f19601f82011682018060405250810190611f3c9190612926565b50600a60009054906101000a900473ffffffffffffffffffffffffffffffffffffffff1673ffffffffffffffffffffffffffffffffffffffff166339255d5b600b60009054906101000a900473ffffffffffffffffffffffffffffffffffffffff1663232d2b5860e01b600860009054906101000a900473ffffffffffffffffffffffffffffffffffffffff1660008787600067ffffffffffffffff81111561200e577f4e487b7100000000000000000000000000000000000000000000000000000000600052604160045260246000fd5b6040519080825280601f01601f1916602001820160405280156120405781602001600182028036833780820191505090505b506040516024016120559594939291906130e0565b604051602081830303815290604052907bffffffffffffffffffffffffffffffffffffffffffffffffffffffff19166020820180517bffffffffffffffffffffffffffffffffffffffffffffffffffffffff8381831617835250505050600067ffffffffffffffff8111156120f3577f4e487b7100000000000000000000000000000000000000000000000000000000600052604160045260246000fd5b6040519080825280601f01601f1916602001820160405280156121255781602001600182028036833780820191505090505b506040518463ffffffff1660e01b81526004016121449392919061302d565b600060405180830381600087803b15801561215e57600080fd5b505af1158015612172573d6000803e3d6000fd5b505050506040513d6000823e3d601f19601f8201168201806040525081019061219b9190612926565b50600a60009054906101000a900473ffffffffffffffffffffffffffffffffffffffff1673ffffffffffffffffffffffffffffffffffffffff166339255d5b600b60009054906101000a900473ffffffffffffffffffffffffffffffffffffffff1663232d2b5860e01b600960009054906101000a900473ffffffffffffffffffffffffffffffffffffffff1660008787600067ffffffffffffffff81111561226d577f4e487b7100000000000000000000000000000000000000000000000000000000600052604160045260246000fd5b6040519080825280601f01601f19166020018201604052801561229f5781602001600182028036833780820191505090505b506040516024016122b49594939291906130e0565b604051602081830303815290604052907bffffffffffffffffffffffffffffffffffffffffffffffffffffffff19166020820180517bffffffffffffffffffffffffffffffffffffffffffffffffffffffff8381831617835250505050600067ffffffffffffffff811115612352577f4e487b7100000000000000000000000000000000000000000000000000000000600052604160045260246000fd5b6040519080825280601f01601f1916602001820160405280156123845781602001600182028036833780820191505090505b506040518463ffffffff1660e01b81526004016123a39392919061302d565b600060405180830381600087803b1580156123bd57600080fd5b505af11580156123d1573d6000803e3d6000fd5b505050506040513d6000823e3d601f19601f820116820180604052508101906123fa9190612926565b505050565b6000816fffffffffffffffffffffffffffffffff16836fffffffffffffffffffffffffffffffff1611156124405781836124399190613510565b90506124b4565b816fffffffffffffffffffffffffffffffff16836fffffffffffffffffffffffffffffffff16101561247f5782826124789190613510565b90506124b4565b816fffffffffffffffffffffffffffffffff16836fffffffffffffffffffffffffffffffff1614156124b3578290506124b4565b5b92915050565b60006124cd6124c884613387565b613356565b9050828152602081018484840111156124e557600080fd5b6124f084828561366e565b509392505050565b600081359050612507816137a0565b92915050565b60008151905061251c816137a0565b92915050565b600081519050612531816137b7565b92915050565b600081359050612546816137ce565b92915050565b60008151905061255b816137e5565b92915050565b60008083601f84011261257357600080fd5b8235905067ffffffffffffffff81111561258c57600080fd5b6020830191508360018202830111156125a457600080fd5b9250929050565b600082601f8301126125bc57600080fd5b81516125cc8482602086016124ba565b91505092915050565b6000813590506125e4816137fc565b92915050565b6000815190506125f981613813565b92915050565b6000610140828403121561261257600080fd5b61261d610140613356565b9050600061262d84828501612772565b600083015250602061264184828501612772565b602083015250604061265584828501612748565b60408301525060606126698482850161250d565b606083015250608061267d8482850161254c565b60808301525060a082015167ffffffffffffffff81111561269d57600080fd5b6126a9848285016125ab565b60a08301525060c06126bd84828501612748565b60c08301525060e06126d184828501612748565b60e0830152506101006126e6848285016125ea565b610100830152506101206126fc8482850161250d565b6101208301525092915050565b6000813590506127188161382a565b92915050565b60008151905061272d8161382a565b92915050565b60008135905061274281613841565b92915050565b60008151905061275781613841565b92915050565b60008151905061276c81613858565b92915050565b6000815190506127818161386f565b92915050565b60006020828403121561279957600080fd5b60006127a7848285016124f8565b91505092915050565b60008060008060008060008060c0898b0312156127cc57600080fd5b60006127da8b828c016124f8565b98505060206127eb8b828c016124f8565b97505060406127fc8b828c016124f8565b965050606061280d8b828c01612733565b955050608089013567ffffffffffffffff81111561282a57600080fd5b6128368b828c01612561565b945094505060a089013567ffffffffffffffff81111561285557600080fd5b6128618b828c01612561565b92509250509295985092959890939650565b6000806040838503121561288657600080fd5b6000612894858286016124f8565b92505060206128a585828601612709565b9150509250929050565b600080600080600060a086880312156128c757600080fd5b60006128d58882890161250d565b95505060206128e68882890161275d565b94505060406128f788828901612522565b93505060606129088882890161271e565b925050608061291988828901612748565b9150509295509295909350565b60006020828403121561293857600080fd5b600082015167ffffffffffffffff81111561295257600080fd5b61295e848285016125ab565b91505092915050565b600080600080600080600060a0888a03121561298257600080fd5b60006129908a828b016125d5565b97505060206129a18a828b016124f8565b96505060406129b28a828b01612537565b955050606088013567ffffffffffffffff8111156129cf57600080fd5b6129db8a828b01612561565b9450945050608088013567ffffffffffffffff8111156129fa57600080fd5b612a068a828b01612561565b925092505092959891949750929550565b600080600080600080600080600060c08a8c031215612a3557600080fd5b6000612a438c828d016125d5565b9950506020612a548c828d016124f8565b9850506040612a658c828d01612537565b97505060608a013567ffffffffffffffff811115612a8257600080fd5b612a8e8c828d01612561565b965096505060808a013567ffffffffffffffff811115612aad57600080fd5b612ab98c828d01612561565b945094505060a08a013567ffffffffffffffff811115612ad857600080fd5b612ae48c828d01612561565b92509250509295985092959850929598565b600060208284031215612b0857600080fd5b600082015167ffffffffffffffff811115612b2257600080fd5b612b2e848285016125ff565b91505092915050565b60008060408385031215612b4a57600080fd5b6000612b5885828601612748565b9250506020612b698582860161271e565b9150509250929050565b612b7c81613544565b82525050565b612b8b81613556565b82525050565b612b9a81613562565b82525050565b6000612bac83856133d7565b9350612bb983858461365f565b612bc28361378f565b840190509392505050565b6000612bd8826133cc565b612be281856133d7565b9350612bf281856020860161366e565b612bfb8161378f565b840191505092915050565b612c0f81613617565b82525050565b612c1e8161363b565b82525050565b60008154612c31816136a1565b612c3b81866133e8565b94506001821660008114612c565760018114612c6857612c9b565b60ff1983168652602086019350612c9b565b612c71856133b7565b60005b83811015612c9357815481890152600182019150602081019050612c74565b808801955050505b50505092915050565b6000612cb1602c836133e8565b91507f53686172652050657263656e746167652073686f756c6420626520677265617460008301527f6572207468616e207a65726f00000000000000000000000000000000000000006020830152604082019050919050565b6000612d176033836133e8565b91507f556e737570706f727465642063616c6c6261636b202d20204265666f7265204160008301527f677265656d656e74205465726d696e61746564000000000000000000000000006020830152604082019050919050565b6000612d7d601a836133e8565b91507f4452543a20556e737570706f727465642061677265656d656e740000000000006000830152602082019050919050565b6000612dbd6013836133e8565b91507f5573657220616c726561647920657869737473000000000000000000000000006000830152602082019050919050565b6000612dfd6017836133e8565b91507f4452543a207075626c6973686572206d69736d617463680000000000000000006000830152602082019050919050565b6000612e3d6012836133e8565b91507f5573657220646f65736e277420657869737400000000000000000000000000006000830152602082019050919050565b6000612e7d6031836133e8565b91507f556e737570706f727465642063616c6c6261636b202d2041667465722041677260008301527f65656d656e74205465726d696e617465640000000000000000000000000000006020830152604082019050919050565b612edf816135b4565b82525050565b612eee816135f0565b82525050565b612efd816135fa565b82525050565b600060c082019050612f186000830189612b73565b8181036020830152612f2a8188612c24565b9050612f396040830187612ee5565b612f466060830186612ef4565b612f536080830185612b73565b612f6060a0830184612ee5565b979650505050505050565b600060c082019050612f806000830189612b73565b612f8d6020830188612ed6565b612f9a6040830187612ef4565b612fa76060830186612b73565b612fb46080830185612ee5565b612fc160a0830184612ed6565b979650505050505050565b6000602082019050612fe16000830184612b82565b92915050565b60006020820190508181036000830152613002818486612ba0565b90509392505050565b600060208201905081810360008301526130258184612bcd565b905092915050565b60006060820190506130426000830186612c06565b81810360208301526130548185612bcd565b905081810360408301526130688184612bcd565b9050949350505050565b60006080820190506130876000830187612c15565b6130946020830186612b73565b6130a16040830185612ef4565b6130ae6060830184612ee5565b95945050505050565b60006040820190506130cc6000830185612c15565b6130d96020830184612b91565b9392505050565b600060a0820190506130f56000830188612c15565b6131026020830187612ef4565b61310f6040830186612b73565b61311c6060830185612ed6565b818103608083015261312e8184612bcd565b90509695505050505050565b600060808201905061314f6000830187612c15565b61315c6020830186612ef4565b6131696040830185612ee5565b818103606083015261317b8184612bcd565b905095945050505050565b6000602082019050818103600083015261319f81612ca4565b9050919050565b600060208201905081810360008301526131bf81612d0a565b9050919050565b600060208201905081810360008301526131df81612d70565b9050919050565b600060208201905081810360008301526131ff81612db0565b9050919050565b6000602082019050818103600083015261321f81612df0565b9050919050565b6000602082019050818103600083015261323f81612e30565b9050919050565b6000602082019050818103600083015261325f81612e70565b9050919050565b600060208201905061327b6000830184612ed6565b92915050565b60006080820190506132966000830187612ed6565b6132a36020830186612ef4565b6132b06040830185612b73565b6132bd6060830184612ee5565b95945050505050565b60006020820190506132db6000830184612ee5565b92915050565b600060a0820190506132f66000830188612ee5565b6133036020830187612ef4565b6133106040830186612b73565b61331d6060830185612ee5565b818103608083015261332f8184612c24565b90509695505050505050565b60006020820190506133506000830184612ef4565b92915050565b6000604051905081810181811067ffffffffffffffff8211171561337d5761337c613760565b5b8060405250919050565b600067ffffffffffffffff8211156133a2576133a1613760565b5b601f19601f8301169050602081019050919050565b60008190508160005260206000209050919050565b600081519050919050565b600082825260208201905092915050565b600082825260208201905092915050565b6000613404826135b4565b915061340f836135b4565b9250826fffffffffffffffffffffffffffffffff03821115613434576134336136d3565b5b828201905092915050565b600061344a826135f0565b9150613455836135f0565b9250827fffffffffffffffffffffffffffffffffffffffffffffffffffffffffffffffff0382111561348a576134896136d3565b5b828201905092915050565b60006134a0826135b4565b91506134ab836135b4565b9250826134bb576134ba613702565b5b828204905092915050565b60006134d1826135b4565b91506134dc836135b4565b9250816fffffffffffffffffffffffffffffffff0483118215151615613505576135046136d3565b5b828202905092915050565b600061351b826135b4565b9150613526836135b4565b925082821015613539576135386136d3565b5b828203905092915050565b600061354f826135d0565b9050919050565b60008115159050919050565b6000819050919050565b60007fffffffff0000000000000000000000000000000000000000000000000000000082169050919050565b60006135a382613544565b9050919050565b6000819050919050565b60006fffffffffffffffffffffffffffffffff82169050919050565b600073ffffffffffffffffffffffffffffffffffffffff82169050919050565b6000819050919050565b600063ffffffff82169050919050565b600060ff82169050919050565b600061362282613629565b9050919050565b6000613634826135d0565b9050919050565b60006136468261364d565b9050919050565b6000613658826135d0565b9050919050565b82818337600083830152505050565b60005b8381101561368c578082015181840152602081019050613671565b8381111561369b576000848401525b50505050565b600060028204905060018216806136b957607f821691505b602082108114156136cd576136cc613731565b5b50919050565b7f4e487b7100000000000000000000000000000000000000000000000000000000600052601160045260246000fd5b7f4e487b7100000000000000000000000000000000000000000000000000000000600052601260045260246000fd5b7f4e487b7100000000000000000000000000000000000000000000000000000000600052602260045260246000fd5b7f4e487b7100000000000000000000000000000000000000000000000000000000600052604160045260246000fd5b6000601f19601f8301169050919050565b6137a981613544565b81146137b457600080fd5b50565b6137c081613556565b81146137cb57600080fd5b50565b6137d781613562565b81146137e257600080fd5b50565b6137ee8161356c565b81146137f957600080fd5b50565b61380581613598565b811461381057600080fd5b50565b61381c816135aa565b811461382757600080fd5b50565b613833816135b4565b811461383e57600080fd5b50565b61384a816135f0565b811461385557600080fd5b50565b613861816135fa565b811461386c57600080fd5b50565b6138788161360a565b811461388357600080fd5b5056fea2646970667358221220a77134f3d21623c31830056f99a1595afeeef62c5bc821d14060dba7f906704264736f6c63430008000033",
  "immutableReferences": {},
  "source": "pragma solidity ^0.8.0;\npragma experimental ABIEncoderV2;\n\nimport {\n    ISuperfluid,\n    ISuperToken,\n    SuperAppBase,\n    SuperAppDefinitions\n} from \"@superfluid-finance/ethereum-contracts/contracts/apps/SuperAppBase.sol\";\n//from \"https://github.com/superfluid-finance/protocol-monorepo/blob/remix-support/packages/ethereum-contracts/contracts/apps/SuperAppBase.sol\";\nimport {\n    IInstantDistributionAgreementV1\n} from \"@superfluid-finance/ethereum-contracts/contracts/interfaces/agreements/IInstantDistributionAgreementV1.sol\";\n//from \"https://github.com/superfluid-finance/protocol-monorepo/blob/remix-support/packages/ethereum-contracts/contracts/interfaces/agreements/IInstantDistributionAgreementV1.sol\";\n\nimport \"@openzeppelin/contracts/token/ERC777/IERC777.sol\";\nimport \"@openzeppelin/contracts/utils/introspection/IERC1820Registry.sol\";\nimport \"@openzeppelin/contracts/token/ERC777/IERC777Recipient.sol\";\n\ncontract ERC777Distributor is IERC777Recipient,SuperAppBase {\n\n    uint256 public totalDonations=0;\n    uint128 public totalShareUnits=0;\n    mapping (address=>uint128) shareMapping;\n    mapping (address=>string) tokenNameMapping;\n\n    uint32 public constant INDEX_ID = 0;\n\n    address owner;\n\n    ISuperToken private _cashToken;\n\n    ISuperToken private fDAIx;\n    ISuperToken private fUSDCx;\n    ISuperToken private fTUSDx;\n    ISuperToken private ETHx;\n\n    ISuperfluid private _host;\n    IInstantDistributionAgreementV1 private _ida;\n\n    IERC1820Registry private _erc1820 = IERC1820Registry(0x1820a4B7618BdE71Dce8cdc73aAB6C95905faD24);\n    bytes32 constant private TOKENS_RECIPIENT_INTERFACE_HASH = keccak256(\"ERC777TokensRecipient\");\n\n    // use callbacks to track approved subscriptions\n    mapping (address => bool) public isSubscribing;\n\n    //Events\n    event DonationReceived(address from, string token, uint256 amount,uint32 index,address publisher,uint timeStamp);\n    event UserAdded(address userAddress,uint128 shares,uint32 index,address publisher,uint timeStamp,uint128 totalShares);\n    event UserRemoved(address userAddress,uint128 shares,uint32 index,address publisher,uint timeStamp,uint128 totalShares);\n    event UserModified(address userAddress,uint128 shares,uint32 index,address publisher,uint timeStamp,uint128 totalShares);\n    event Distribution(uint256 amountDistributed,uint32 index,address publisher,uint timeStamp,string token);\n    event TotalShares(uint128 totalShares,uint32 index,address publisher,uint timeStamp);\n\n    constructor (\n        ISuperfluid host,\n        IInstantDistributionAgreementV1 ida) public {\n        \n        owner = msg.sender;\n        _erc1820.setInterfaceImplementer(address(this), TOKENS_RECIPIENT_INTERFACE_HASH, address(this));\n\n         fDAIx = ISuperToken(0x745861AeD1EEe363b4AaA5F1994Be40b1e05Ff90);\n        tokenNameMapping[0x745861AeD1EEe363b4AaA5F1994Be40b1e05Ff90] = \"fDAIx\";\n\n         fUSDCx = ISuperToken(0x0F1D7C55A2B133E000eA10EeC03c774e0d6796e8);\n        tokenNameMapping[0x0F1D7C55A2B133E000eA10EeC03c774e0d6796e8] = \"fUSDCx\";\n\n         fTUSDx = ISuperToken(0xdF7B8461a1d9f57f12F88d97FC6131E36d302d81);\n        tokenNameMapping[0xdF7B8461a1d9f57f12F88d97FC6131E36d302d81] = \"fTUSDx\";\n\n         ETHx = ISuperToken(0xa623b2DD931C5162b7a0B25852f4024Db48bb1A0);\n        tokenNameMapping[0xa623b2DD931C5162b7a0B25852f4024Db48bb1A0] = \"ETHx\";\n\n        \n        _host = host;\n        _ida = ida;\n\n        uint256 configWord =\n            SuperAppDefinitions.APP_LEVEL_FINAL |\n            SuperAppDefinitions.BEFORE_AGREEMENT_TERMINATED_NOOP |\n            SuperAppDefinitions.AFTER_AGREEMENT_TERMINATED_NOOP;\n\n        _host.registerApp(configWord);\n\n        _host.callAgreement(\n            _ida,\n            abi.encodeWithSelector(\n                _ida.createIndex.selector,\n                fDAIx,\n                INDEX_ID,\n                new bytes(0) // placeholder ctx\n            ),\n            new bytes(0) // user data\n        );\n\n        _host.callAgreement(\n            _ida,\n            abi.encodeWithSelector(\n                _ida.createIndex.selector,\n                fUSDCx,\n                INDEX_ID,\n                new bytes(0) // placeholder ctx\n            ),\n            new bytes(0) // user data\n        );\n\n        _host.callAgreement(\n            _ida,\n            abi.encodeWithSelector(\n                _ida.createIndex.selector,\n                fTUSDx,\n                INDEX_ID,\n                new bytes(0) // placeholder ctx\n            ),\n            new bytes(0) // user data\n        );\n\n        _host.callAgreement(\n            _ida,\n            abi.encodeWithSelector(\n                _ida.createIndex.selector,\n                ETHx,\n                INDEX_ID,\n                new bytes(0) // placeholder ctx\n            ),\n            new bytes(0) // user data\n        );\n    }\n\n    modifier onlyOwner(){\n        require(owner==msg.sender);\n        _;\n    }\n\n    function sharesOf(address user) view external returns(uint128){\n        return shareMapping[user];\n    }\n\n    function beforeAgreementCreated(\n        ISuperToken superToken,\n        address agreementClass,\n        bytes32 /* agreementId */,\n        bytes calldata /*agreementData*/,\n        bytes calldata /*ctx*/\n    )\n        external view override\n        returns (bytes memory data)\n    {\n        // require(superToken == _cashToken, \"DRT: Unsupported cash token\");\n        require(agreementClass == address(_ida), \"DRT: Unsupported agreement\");\n        return new bytes(0);\n    }\n\n    function afterAgreementCreated(\n        ISuperToken superToken,\n        address /* agreementClass */,\n        bytes32 agreementId,\n        bytes calldata /*agreementData*/,\n        bytes calldata /*cbdata*/,\n        bytes calldata ctx\n    )\n        external override\n        returns(bytes memory newCtx)\n    {\n        _checkSubscription(superToken, ctx, agreementId);\n        newCtx = ctx;\n    }\n\n    function beforeAgreementUpdated(\n        ISuperToken superToken,\n        address agreementClass,\n        bytes32 /* agreementId */,\n        bytes calldata /*agreementData*/,\n        bytes calldata /*ctx*/\n    )\n        external view override\n        returns (bytes memory data)\n    {\n        // require(superToken == _cashToken, \"DRT: Unsupported cash token\");\n        require(agreementClass == address(_ida), \"DRT: Unsupported agreement\");\n        return new bytes(0);\n    }\n\n    function afterAgreementUpdated(\n        ISuperToken superToken,\n        address /* agreementClass */,\n        bytes32 agreementId,\n        bytes calldata /*agreementData*/,\n        bytes calldata /*cbdata*/,\n        bytes calldata ctx\n    )\n        external override\n        returns(bytes memory newCtx)\n    {\n        _checkSubscription(superToken, ctx, agreementId);\n        newCtx = ctx;\n    }\n\n    function _checkSubscription(\n        ISuperToken superToken,\n        bytes calldata ctx,\n        bytes32 agreementId\n    )\n        private\n    {\n        ISuperfluid.Context memory context = _host.decodeCtx(ctx);\n        // only interested in the subscription approval callbacks\n        if (context.agreementSelector == IInstantDistributionAgreementV1.approveSubscription.selector) {\n            address publisher;\n            uint32 indexId;\n            bool approved;\n            uint128 units;\n            uint256 pendingDistribution;\n            (publisher, indexId, approved, units, pendingDistribution) =\n                _ida.getSubscriptionByID(superToken, agreementId);\n\n            // sanity checks for testing purpose\n            require(publisher == address(this), \"DRT: publisher mismatch\");\n            require(indexId == INDEX_ID, \"DRT: publisher mismatch\");\n\n            if (approved) {\n                isSubscribing[context.msgSender /* subscriber */] = true;\n            }\n        }\n    }\n\n    function modifySub(address user,uint128 shareUnits) internal{\n        _host.callAgreement(\n            _ida,\n            abi.encodeWithSelector(\n                _ida.updateSubscription.selector,\n                fDAIx,\n                INDEX_ID,\n                user,\n                shareUnits,\n                new bytes(0) // placeholder ctx\n            ),\n            new bytes(0) // user data\n        );\n\n        _host.callAgreement(\n            _ida,\n            abi.encodeWithSelector(\n                _ida.updateSubscription.selector,\n                fUSDCx,\n                INDEX_ID,\n                user,\n                shareUnits,\n                new bytes(0) // placeholder ctx\n            ),\n            new bytes(0) // user data\n        );\n\n        _host.callAgreement(\n            _ida,\n            abi.encodeWithSelector(\n                _ida.updateSubscription.selector,\n                fTUSDx,\n                INDEX_ID,\n                user,\n                shareUnits,\n                new bytes(0) // placeholder ctx\n            ),\n            new bytes(0) // user data\n        );\n\n        _host.callAgreement(\n            _ida,\n            abi.encodeWithSelector(\n                _ida.updateSubscription.selector,\n                ETHx,\n                INDEX_ID,\n                user,\n                shareUnits,\n                new bytes(0) // placeholder ctx\n            ),\n            new bytes(0) // user data\n        );\n        \n    }\n\n    function abs(uint128 x,uint128 y) private pure returns (uint128) {\n        if(x>y)\n         return x-y;\n        if(x<y)\n         return y-x;\n        if(x==y)\n         return x;\n    }\n\n    function addUser(address newUser,uint128 sharePercentage) external onlyOwner{\n        require(shareMapping[newUser]==0,\"User already exists\");\n        require(sharePercentage>0,\"Share Percentage should be greater than zero\");\n\n        uint128 shareUnits = totalShareUnits==0?100: (sharePercentage * totalShareUnits)/(100- sharePercentage);\n        modifySub(newUser, shareUnits);\n        totalShareUnits += shareUnits;\n        shareMapping[newUser] = shareUnits;\n        emit UserAdded(newUser,shareUnits,INDEX_ID,address(this),block.timestamp,totalShareUnits);\n        emit TotalShares(totalShareUnits,INDEX_ID,address(this),block.timestamp);\n    }\n\n    function modifyUser(address existingUser,uint128 sharePercentage) external onlyOwner{\n        require(shareMapping[existingUser]!=0,\"User doesn't exist\");\n        require(sharePercentage>0,\"Share Percentage should be greater than zero\");\n        uint128 shareUnits = totalShareUnits==shareMapping[existingUser]?100:(sharePercentage * abs(totalShareUnits,shareMapping[existingUser]))/(100- sharePercentage);\n        modifySub(existingUser, shareUnits);\n        totalShareUnits -= shareMapping[existingUser];//Need to handle case where shareMapping is larger than total share units\n        totalShareUnits += shareUnits ;\n        shareMapping[existingUser] = shareUnits;\n        emit UserModified(existingUser,shareUnits,INDEX_ID,address(this),block.timestamp,totalShareUnits);\n        emit TotalShares(totalShareUnits,INDEX_ID,address(this),block.timestamp);\n    }\n\n    function removeUser(address existingUser) external onlyOwner{\n        require(shareMapping[existingUser]!=0,\"User doesn't exist\");\n        totalShareUnits -= shareMapping[existingUser];\n        uint128 temp = shareMapping[existingUser];\n        shareMapping[existingUser] = 0;\n        modifySub(existingUser, 0);\n        emit UserRemoved(existingUser,temp,INDEX_ID,address(this),block.timestamp,totalShareUnits);\n        emit TotalShares(totalShareUnits,INDEX_ID,address(this),block.timestamp);\n    }\n\n    /// @dev Distribute `amount` of cash among all token holders\n    function distribute(uint256 cashAmount,address tokenAddress) internal {\n        (uint256 actualCashAmount,) = _ida.calculateDistribution(\n            ISuperToken(tokenAddress),\n            address(this), INDEX_ID,\n            cashAmount);\n\n        _host.callAgreement(\n            _ida,\n            abi.encodeWithSelector(\n                _ida.distribute.selector,\n                ISuperToken(tokenAddress),\n                INDEX_ID,\n                actualCashAmount,\n                new bytes(0) // placeholder ctx\n            ),\n            new bytes(0) // user data\n        );\n        emit Distribution(actualCashAmount,INDEX_ID,address(this),block.timestamp,tokenNameMapping[tokenAddress]);\n    }\n\n    function tokensReceived(\n        address operator,\n        address from,\n        address to,\n        uint256 amount,\n        bytes calldata userData,\n        bytes calldata operatorData\n    ) external override {\n        //require(msg.sender == address(_token), \"Simple777Recipient: Invalid token\");\n\n        // do stuff\n        totalDonations += amount;\n        distribute(amount,msg.sender);\n        emit DonationReceived( from, tokenNameMapping[msg.sender], amount,INDEX_ID,address(this),block.timestamp);\n    }\n}",
  "sourcePath": "/Users/praffulsahu/Documents/Crypto/erc777distributor/contracts/ERC777Distributor.sol",
  "compiler": {
    "name": "solc",
    "version": "0.8.0+commit.c7dfd78e.Emscripten.clang"
  },
  "schemaVersion": "3.3.3",
  "updatedAt": "2021-06-24T05:16:25.296Z",
  "networkType": "ethereum",
  "devdoc": {
    "kind": "dev",
    "methods": {
      "tokensReceived(address,address,address,uint256,bytes,bytes)": {
        "details": "Called by an {IERC777} token contract whenever tokens are being moved or created into a registered account (`to`). The type of operation is conveyed by `from` being the zero address or not. This call occurs _after_ the token contract's state is updated, so {IERC777-balanceOf}, etc., can be used to query the post-operation state. This function may revert to prevent the operation from being executed."
      }
    },
    "version": 1
  },
  "userdoc": {
    "kind": "user",
    "methods": {},
    "version": 1
  }
}