{
  "contractName": "ERC777Distributor",
  "abi": [
    {
      "inputs": [
        {
          "internalType": "contract ISuperToken",
          "name": "cashToken",
          "type": "address"
        },
        {
          "internalType": "contract ISuperfluid",
          "name": "host",
          "type": "address"
        },
        {
          "internalType": "contract IInstantDistributionAgreementV1",
          "name": "ida",
          "type": "address"
        }
      ],
      "stateMutability": "nonpayable",
      "type": "constructor"
    },
    {
      "anonymous": false,
      "inputs": [
        {
          "indexed": false,
          "internalType": "uint256",
          "name": "amountDistributed",
          "type": "uint256"
        },
        {
          "indexed": false,
          "internalType": "uint32",
          "name": "index",
          "type": "uint32"
        },
        {
          "indexed": false,
          "internalType": "address",
          "name": "tokenAddress",
          "type": "address"
        },
        {
          "indexed": false,
          "internalType": "address",
          "name": "publisher",
          "type": "address"
        },
        {
          "indexed": false,
          "internalType": "uint256",
          "name": "timeStamp",
          "type": "uint256"
        }
      ],
      "name": "Distribution",
      "type": "event"
    },
    {
      "anonymous": false,
      "inputs": [
        {
          "indexed": false,
          "internalType": "address",
          "name": "from",
          "type": "address"
        },
        {
          "indexed": false,
          "internalType": "string",
          "name": "token",
          "type": "string"
        },
        {
          "indexed": false,
          "internalType": "uint256",
          "name": "amount",
          "type": "uint256"
        },
        {
          "indexed": false,
          "internalType": "uint32",
          "name": "index",
          "type": "uint32"
        },
        {
          "indexed": false,
          "internalType": "address",
          "name": "tokenAddress",
          "type": "address"
        },
        {
          "indexed": false,
          "internalType": "address",
          "name": "publisher",
          "type": "address"
        },
        {
          "indexed": false,
          "internalType": "uint256",
          "name": "timeStamp",
          "type": "uint256"
        }
      ],
      "name": "DonationReceived",
      "type": "event"
    },
    {
      "anonymous": false,
      "inputs": [
        {
          "indexed": false,
          "internalType": "uint128",
          "name": "totalShares",
          "type": "uint128"
        },
        {
          "indexed": false,
          "internalType": "uint32",
          "name": "index",
          "type": "uint32"
        },
        {
          "indexed": false,
          "internalType": "address",
          "name": "tokenAddress",
          "type": "address"
        },
        {
          "indexed": false,
          "internalType": "address",
          "name": "publisher",
          "type": "address"
        },
        {
          "indexed": false,
          "internalType": "uint256",
          "name": "timeStamp",
          "type": "uint256"
        }
      ],
      "name": "TotalShares",
      "type": "event"
    },
    {
      "anonymous": false,
      "inputs": [
        {
          "indexed": false,
          "internalType": "address",
          "name": "userAddress",
          "type": "address"
        },
        {
          "indexed": false,
          "internalType": "uint128",
          "name": "shares",
          "type": "uint128"
        },
        {
          "indexed": false,
          "internalType": "uint32",
          "name": "index",
          "type": "uint32"
        },
        {
          "indexed": false,
          "internalType": "address",
          "name": "tokenAddress",
          "type": "address"
        },
        {
          "indexed": false,
          "internalType": "address",
          "name": "publisher",
          "type": "address"
        },
        {
          "indexed": false,
          "internalType": "uint256",
          "name": "timeStamp",
          "type": "uint256"
        }
      ],
      "name": "UserAdded",
      "type": "event"
    },
    {
      "anonymous": false,
      "inputs": [
        {
          "indexed": false,
          "internalType": "address",
          "name": "userAddress",
          "type": "address"
        },
        {
          "indexed": false,
          "internalType": "uint128",
          "name": "shares",
          "type": "uint128"
        },
        {
          "indexed": false,
          "internalType": "uint32",
          "name": "index",
          "type": "uint32"
        },
        {
          "indexed": false,
          "internalType": "address",
          "name": "tokenAddress",
          "type": "address"
        },
        {
          "indexed": false,
          "internalType": "address",
          "name": "publisher",
          "type": "address"
        },
        {
          "indexed": false,
          "internalType": "uint256",
          "name": "timeStamp",
          "type": "uint256"
        }
      ],
      "name": "UserModified",
      "type": "event"
    },
    {
      "anonymous": false,
      "inputs": [
        {
          "indexed": false,
          "internalType": "address",
          "name": "userAddress",
          "type": "address"
        },
        {
          "indexed": false,
          "internalType": "uint128",
          "name": "shares",
          "type": "uint128"
        },
        {
          "indexed": false,
          "internalType": "uint32",
          "name": "index",
          "type": "uint32"
        },
        {
          "indexed": false,
          "internalType": "address",
          "name": "tokenAddress",
          "type": "address"
        },
        {
          "indexed": false,
          "internalType": "address",
          "name": "publisher",
          "type": "address"
        },
        {
          "indexed": false,
          "internalType": "uint256",
          "name": "timeStamp",
          "type": "uint256"
        }
      ],
      "name": "UserRemoved",
      "type": "event"
    },
    {
      "inputs": [],
      "name": "INDEX_ID",
      "outputs": [
        {
          "internalType": "uint32",
          "name": "",
          "type": "uint32"
        }
      ],
      "stateMutability": "view",
      "type": "function",
      "constant": true
    },
    {
      "inputs": [
        {
          "internalType": "contract ISuperToken",
          "name": "",
          "type": "address"
        },
        {
          "internalType": "address",
          "name": "",
          "type": "address"
        },
        {
          "internalType": "bytes32",
          "name": "",
          "type": "bytes32"
        },
        {
          "internalType": "bytes",
          "name": "",
          "type": "bytes"
        },
        {
          "internalType": "bytes",
          "name": "",
          "type": "bytes"
        },
        {
          "internalType": "bytes",
          "name": "",
          "type": "bytes"
        }
      ],
      "name": "afterAgreementTerminated",
      "outputs": [
        {
          "internalType": "bytes",
          "name": "",
          "type": "bytes"
        }
      ],
      "stateMutability": "nonpayable",
      "type": "function"
    },
    {
      "inputs": [
        {
          "internalType": "contract ISuperToken",
          "name": "",
          "type": "address"
        },
        {
          "internalType": "address",
          "name": "",
          "type": "address"
        },
        {
          "internalType": "bytes32",
          "name": "",
          "type": "bytes32"
        },
        {
          "internalType": "bytes",
          "name": "",
          "type": "bytes"
        },
        {
          "internalType": "bytes",
          "name": "",
          "type": "bytes"
        }
      ],
      "name": "beforeAgreementTerminated",
      "outputs": [
        {
          "internalType": "bytes",
          "name": "",
          "type": "bytes"
        }
      ],
      "stateMutability": "view",
      "type": "function",
      "constant": true
    },
    {
      "inputs": [
        {
          "internalType": "address",
          "name": "",
          "type": "address"
        }
      ],
      "name": "isSubscribing",
      "outputs": [
        {
          "internalType": "bool",
          "name": "",
          "type": "bool"
        }
      ],
      "stateMutability": "view",
      "type": "function",
      "constant": true
    },
    {
      "inputs": [],
      "name": "totalDonations",
      "outputs": [
        {
          "internalType": "uint256",
          "name": "",
          "type": "uint256"
        }
      ],
      "stateMutability": "view",
      "type": "function",
      "constant": true
    },
    {
      "inputs": [],
      "name": "totalShareUnits",
      "outputs": [
        {
          "internalType": "uint128",
          "name": "",
          "type": "uint128"
        }
      ],
      "stateMutability": "view",
      "type": "function",
      "constant": true
    },
    {
      "inputs": [
        {
          "internalType": "address",
          "name": "user",
          "type": "address"
        }
      ],
      "name": "sharesOf",
      "outputs": [
        {
          "internalType": "uint128",
          "name": "",
          "type": "uint128"
        }
      ],
      "stateMutability": "view",
      "type": "function",
      "constant": true
    },
    {
      "inputs": [
        {
          "internalType": "contract ISuperToken",
          "name": "superToken",
          "type": "address"
        },
        {
          "internalType": "address",
          "name": "agreementClass",
          "type": "address"
        },
        {
          "internalType": "bytes32",
          "name": "",
          "type": "bytes32"
        },
        {
          "internalType": "bytes",
          "name": "",
          "type": "bytes"
        },
        {
          "internalType": "bytes",
          "name": "",
          "type": "bytes"
        }
      ],
      "name": "beforeAgreementCreated",
      "outputs": [
        {
          "internalType": "bytes",
          "name": "data",
          "type": "bytes"
        }
      ],
      "stateMutability": "view",
      "type": "function",
      "constant": true
    },
    {
      "inputs": [
        {
          "internalType": "contract ISuperToken",
          "name": "superToken",
          "type": "address"
        },
        {
          "internalType": "address",
          "name": "",
          "type": "address"
        },
        {
          "internalType": "bytes32",
          "name": "agreementId",
          "type": "bytes32"
        },
        {
          "internalType": "bytes",
          "name": "",
          "type": "bytes"
        },
        {
          "internalType": "bytes",
          "name": "",
          "type": "bytes"
        },
        {
          "internalType": "bytes",
          "name": "ctx",
          "type": "bytes"
        }
      ],
      "name": "afterAgreementCreated",
      "outputs": [
        {
          "internalType": "bytes",
          "name": "newCtx",
          "type": "bytes"
        }
      ],
      "stateMutability": "nonpayable",
      "type": "function"
    },
    {
      "inputs": [
        {
          "internalType": "contract ISuperToken",
          "name": "superToken",
          "type": "address"
        },
        {
          "internalType": "address",
          "name": "agreementClass",
          "type": "address"
        },
        {
          "internalType": "bytes32",
          "name": "",
          "type": "bytes32"
        },
        {
          "internalType": "bytes",
          "name": "",
          "type": "bytes"
        },
        {
          "internalType": "bytes",
          "name": "",
          "type": "bytes"
        }
      ],
      "name": "beforeAgreementUpdated",
      "outputs": [
        {
          "internalType": "bytes",
          "name": "data",
          "type": "bytes"
        }
      ],
      "stateMutability": "view",
      "type": "function",
      "constant": true
    },
    {
      "inputs": [
        {
          "internalType": "contract ISuperToken",
          "name": "superToken",
          "type": "address"
        },
        {
          "internalType": "address",
          "name": "",
          "type": "address"
        },
        {
          "internalType": "bytes32",
          "name": "agreementId",
          "type": "bytes32"
        },
        {
          "internalType": "bytes",
          "name": "",
          "type": "bytes"
        },
        {
          "internalType": "bytes",
          "name": "",
          "type": "bytes"
        },
        {
          "internalType": "bytes",
          "name": "ctx",
          "type": "bytes"
        }
      ],
      "name": "afterAgreementUpdated",
      "outputs": [
        {
          "internalType": "bytes",
          "name": "newCtx",
          "type": "bytes"
        }
      ],
      "stateMutability": "nonpayable",
      "type": "function"
    },
    {
      "inputs": [
        {
          "internalType": "address",
          "name": "newUser",
          "type": "address"
        },
        {
          "internalType": "uint128",
          "name": "sharePercentage",
          "type": "uint128"
        }
      ],
      "name": "addUser",
      "outputs": [],
      "stateMutability": "nonpayable",
      "type": "function"
    },
    {
      "inputs": [
        {
          "internalType": "address",
          "name": "existingUser",
          "type": "address"
        },
        {
          "internalType": "uint128",
          "name": "sharePercentage",
          "type": "uint128"
        }
      ],
      "name": "modifyUser",
      "outputs": [],
      "stateMutability": "nonpayable",
      "type": "function"
    },
    {
      "inputs": [
        {
          "internalType": "address",
          "name": "existingUser",
          "type": "address"
        }
      ],
      "name": "removeUser",
      "outputs": [],
      "stateMutability": "nonpayable",
      "type": "function"
    },
    {
      "inputs": [
        {
          "internalType": "address",
          "name": "operator",
          "type": "address"
        },
        {
          "internalType": "address",
          "name": "from",
          "type": "address"
        },
        {
          "internalType": "address",
          "name": "to",
          "type": "address"
        },
        {
          "internalType": "uint256",
          "name": "amount",
          "type": "uint256"
        },
        {
          "internalType": "bytes",
          "name": "userData",
          "type": "bytes"
        },
        {
          "internalType": "bytes",
          "name": "operatorData",
          "type": "bytes"
        }
      ],
      "name": "tokensReceived",
      "outputs": [],
      "stateMutability": "nonpayable",
      "type": "function"
    }
  ],
  "bytecode": "0x6080604052600080556000600160006101000a8154816fffffffffffffffffffffffffffffffff02191690836fffffffffffffffffffffffffffffffff160217905550731820a4b7618bde71dce8cdc73aab6c95905fad24600760006101000a81548173ffffffffffffffffffffffffffffffffffffffff021916908373ffffffffffffffffffffffffffffffffffffffff160217905550348015620000a457600080fd5b5060405162003c8138038062003c818339818101604052810190620000ca919062000694565b33600360006101000a81548173ffffffffffffffffffffffffffffffffffffffff021916908373ffffffffffffffffffffffffffffffffffffffff160217905550600760009054906101000a900473ffffffffffffffffffffffffffffffffffffffff1673ffffffffffffffffffffffffffffffffffffffff166329965a1d307fb281fc8c12954d22544db45de3159a39272895b169a852b314f9cc762e44c53b306040518463ffffffff1660e01b81526004016200018c9392919062000791565b600060405180830381600087803b158015620001a757600080fd5b505af1158015620001bc573d6000803e3d6000fd5b5050505082600460006101000a81548173ffffffffffffffffffffffffffffffffffffffff021916908373ffffffffffffffffffffffffffffffffffffffff16021790555081600560006101000a81548173ffffffffffffffffffffffffffffffffffffffff021916908373ffffffffffffffffffffffffffffffffffffffff16021790555080600660006101000a81548173ffffffffffffffffffffffffffffffffffffffff021916908373ffffffffffffffffffffffffffffffffffffffff1602179055506000642000000000641000000000600117179050600560009054906101000a900473ffffffffffffffffffffffffffffffffffffffff1673ffffffffffffffffffffffffffffffffffffffff1663ad3915c8826040518263ffffffff1660e01b8152600401620002f491906200085d565b600060405180830381600087803b1580156200030f57600080fd5b505af115801562000324573d6000803e3d6000fd5b50505050600560009054906101000a900473ffffffffffffffffffffffffffffffffffffffff1673ffffffffffffffffffffffffffffffffffffffff166339255d5b600660009054906101000a900473ffffffffffffffffffffffffffffffffffffffff1663d787840a60e01b600460009054906101000a900473ffffffffffffffffffffffffffffffffffffffff1660008067ffffffffffffffff811115620003f7577f4e487b7100000000000000000000000000000000000000000000000000000000600052604160045260246000fd5b6040519080825280601f01601f1916602001820160405280156200042a5781602001600182028036833780820191505090505b506040516024016200043f9392919062000819565b604051602081830303815290604052907bffffffffffffffffffffffffffffffffffffffffffffffffffffffff19166020820180517bffffffffffffffffffffffffffffffffffffffffffffffffffffffff8381831617835250505050600067ffffffffffffffff811115620004de577f4e487b7100000000000000000000000000000000000000000000000000000000600052604160045260246000fd5b6040519080825280601f01601f191660200182016040528015620005115781602001600182028036833780820191505090505b506040518463ffffffff1660e01b81526004016200053293929190620007ce565b600060405180830381600087803b1580156200054d57600080fd5b505af115801562000562573d6000803e3d6000fd5b505050506040513d6000823e3d601f19601f820116820180604052508101906200058d91906200064f565b505050505062000aa5565b6000620005af620005a984620008ae565b6200087a565b905082815260208101848484011115620005c857600080fd5b620005d5848285620009e1565b509392505050565b600082601f830112620005ef57600080fd5b81516200060184826020860162000598565b91505092915050565b6000815190506200061b8162000a57565b92915050565b600081519050620006328162000a71565b92915050565b600081519050620006498162000a8b565b92915050565b6000602082840312156200066257600080fd5b600082015167ffffffffffffffff8111156200067d57600080fd5b6200068b84828501620005dd565b91505092915050565b600080600060608486031215620006aa57600080fd5b6000620006ba8682870162000621565b9350506020620006cd8682870162000638565b9250506040620006e0868287016200060a565b9150509250925092565b620006f581620008fd565b82525050565b620007068162000911565b82525050565b60006200071982620008e1565b620007258185620008ec565b935062000737818560208601620009e1565b620007428162000a46565b840191505092915050565b620007588162000991565b82525050565b6200076981620009b9565b82525050565b6200077a8162000977565b82525050565b6200078b8162000981565b82525050565b6000606082019050620007a86000830186620006ea565b620007b76020830185620006fb565b620007c66040830184620006ea565b949350505050565b6000606082019050620007e560008301866200074d565b8181036020830152620007f981856200070c565b905081810360408301526200080f81846200070c565b9050949350505050565b60006060820190506200083060008301866200075e565b6200083f602083018562000780565b81810360408301526200085381846200070c565b9050949350505050565b60006020820190506200087460008301846200076f565b92915050565b6000604051905081810181811067ffffffffffffffff82111715620008a457620008a362000a17565b5b8060405250919050565b600067ffffffffffffffff821115620008cc57620008cb62000a17565b5b601f19601f8301169050602081019050919050565b600081519050919050565b600082825260208201905092915050565b60006200090a8262000957565b9050919050565b6000819050919050565b60006200092882620008fd565b9050919050565b60006200093c82620008fd565b9050919050565b60006200095082620008fd565b9050919050565b600073ffffffffffffffffffffffffffffffffffffffff82169050919050565b6000819050919050565b600063ffffffff82169050919050565b60006200099e82620009a5565b9050919050565b6000620009b28262000957565b9050919050565b6000620009c682620009cd565b9050919050565b6000620009da8262000957565b9050919050565b60005b8381101562000a01578082015181840152602081019050620009e4565b8381111562000a11576000848401525b50505050565b7f4e487b7100000000000000000000000000000000000000000000000000000000600052604160045260246000fd5b6000601f19601f8301169050919050565b62000a62816200091b565b811462000a6e57600080fd5b50565b62000a7c816200092f565b811462000a8857600080fd5b50565b62000a968162000943565b811462000aa257600080fd5b50565b6131cc8062000ab56000396000f3fe608060405234801561001057600080fd5b50600436106100f45760003560e01c80638378f8c011610097578063985751881161006657806398575188146102a9578063d86ed3e5146102c5578063de2ed893146102f5578063f5eb42dc14610313576100f4565b80638378f8c01461020f578063884d1f401461022b5780638c7f09591461025b578063915e336414610279576100f4565b80635167f6e7116100d35780635167f6e71461017557806353c11f99146101935780635f9e7d77146101c357806380e85c51146101f3576100f4565b806223de29146100f9578063230dbd291461011557806330d9c91514610145575b600080fd5b610113600480360381019061010e9190612189565b610343565b005b61012f600480360381019061012a91906123f0565b6103d2565b60405161013c919061298a565b60405180910390f35b61015f600480360381019061015a9190612340565b610434565b60405161016c919061298a565b60405180910390f35b61017d6105d7565b60405161018a9190612be5565b60405180910390f35b6101ad60048036038101906101a891906123f0565b6105f9565b6040516101ba919061298a565b60405180910390f35b6101dd60048036038101906101d89190612340565b610636565b6040516101ea919061298a565b60405180910390f35b61020d6004803603810190610208919061224c565b610673565b005b6102296004803603810190610224919061224c565b6109cc565b005b61024560048036038101906102409190612340565b610eb5565b604051610252919061298a565b60405180910390f35b610263611058565b6040516102709190612cc1565b60405180910390f35b610293600480360381019061028e9190612160565b61105d565b6040516102a0919061294b565b60405180910390f35b6102c360048036038101906102be9190612160565b61107d565b005b6102df60048036038101906102da91906123f0565b611410565b6040516102ec919061298a565b60405180910390f35b6102fd611472565b60405161030a9190612c53565b60405180910390f35b61032d60048036038101906103289190612160565b611478565b60405161033a9190612be5565b60405180910390f35b846000808282546103549190612db0565b92505081905550610364856114dd565b7f8e4912340ecb0f3c19a605b3776723de30abbc77cf91f07b7ad82c3497887f9887866000600460009054906101000a900473ffffffffffffffffffffffffffffffffffffffff1630426040516103c096959493929190612876565b60405180910390a15050505050505050565b60606103e08a84848b611878565b82828080601f016020809104026020016040519081016040528093929190818152602001838380828437600081840152601f19601f8201169050808301925050505050505090509998505050505050505050565b6060600460009054906101000a900473ffffffffffffffffffffffffffffffffffffffff1673ffffffffffffffffffffffffffffffffffffffff168873ffffffffffffffffffffffffffffffffffffffff16146104c6576040517f08c379a00000000000000000000000000000000000000000000000000000000081526004016104bd90612b65565b60405180910390fd5b600660009054906101000a900473ffffffffffffffffffffffffffffffffffffffff1673ffffffffffffffffffffffffffffffffffffffff168773ffffffffffffffffffffffffffffffffffffffff1614610556576040517f08c379a000000000000000000000000000000000000000000000000000000000815260040161054d90612b25565b60405180910390fd5b600067ffffffffffffffff811115610597577f4e487b7100000000000000000000000000000000000000000000000000000000600052604160045260246000fd5b6040519080825280601f01601f1916602001820160405280156105c95781602001600182028036833780820191505090505b509050979650505050505050565b600160009054906101000a90046fffffffffffffffffffffffffffffffff1681565b60606040517f08c379a000000000000000000000000000000000000000000000000000000000815260040161062d90612bc5565b60405180910390fd5b60606040517f08c379a000000000000000000000000000000000000000000000000000000000815260040161066a90612b05565b60405180910390fd5b3373ffffffffffffffffffffffffffffffffffffffff16600360009054906101000a900473ffffffffffffffffffffffffffffffffffffffff1673ffffffffffffffffffffffffffffffffffffffff16146106cd57600080fd5b6000600260008473ffffffffffffffffffffffffffffffffffffffff1673ffffffffffffffffffffffffffffffffffffffff16815260200190815260200160002060009054906101000a90046fffffffffffffffffffffffffffffffff166fffffffffffffffffffffffffffffffff161461077d576040517f08c379a000000000000000000000000000000000000000000000000000000000815260040161077490612b45565b60405180910390fd5b600080600160009054906101000a90046fffffffffffffffffffffffffffffffff166fffffffffffffffffffffffffffffffff16146107fc578160646107c39190612e81565b600160009054906101000a90046fffffffffffffffffffffffffffffffff16836107ed9190612e37565b6107f79190612e06565b6107fe565b815b905061080a8382611b75565b80600160008282829054906101000a90046fffffffffffffffffffffffffffffffff166108379190612d6a565b92506101000a8154816fffffffffffffffffffffffffffffffff02191690836fffffffffffffffffffffffffffffffff16021790555080600260008573ffffffffffffffffffffffffffffffffffffffff1673ffffffffffffffffffffffffffffffffffffffff16815260200190815260200160002060006101000a8154816fffffffffffffffffffffffffffffffff02191690836fffffffffffffffffffffffffffffffff1602179055507f2bbe5f5d5a9cdda77cc59310f5a84259dbc64e35e3fb022488d0d97a45e252d983826000600460009054906101000a900473ffffffffffffffffffffffffffffffffffffffff16304260405161093f969594939291906128ea565b60405180910390a17fb5f637e0dafe266804a3442b18aa2aa440ae853d52542940177467b723f369bf600160009054906101000a90046fffffffffffffffffffffffffffffffff166000600460009054906101000a900473ffffffffffffffffffffffffffffffffffffffff1630426040516109bf959493929190612c00565b60405180910390a1505050565b3373ffffffffffffffffffffffffffffffffffffffff16600360009054906101000a900473ffffffffffffffffffffffffffffffffffffffff1673ffffffffffffffffffffffffffffffffffffffff1614610a2657600080fd5b6000600260008473ffffffffffffffffffffffffffffffffffffffff1673ffffffffffffffffffffffffffffffffffffffff16815260200190815260200160002060009054906101000a90046fffffffffffffffffffffffffffffffff166fffffffffffffffffffffffffffffffff161415610ad7576040517f08c379a0000000000000000000000000000000000000000000000000000000008152600401610ace90612ba5565b60405180910390fd5b6000600260008473ffffffffffffffffffffffffffffffffffffffff1673ffffffffffffffffffffffffffffffffffffffff16815260200190815260200160002060009054906101000a90046fffffffffffffffffffffffffffffffff166fffffffffffffffffffffffffffffffff16600160009054906101000a90046fffffffffffffffffffffffffffffffff166fffffffffffffffffffffffffffffffff1614610c2757816064610b8a9190612e81565b610c0d600160009054906101000a90046fffffffffffffffffffffffffffffffff16600260008773ffffffffffffffffffffffffffffffffffffffff1673ffffffffffffffffffffffffffffffffffffffff16815260200190815260200160002060009054906101000a90046fffffffffffffffffffffffffffffffff16611dd8565b83610c189190612e37565b610c229190612e06565b610c29565b815b9050610c358382611b75565b600260008473ffffffffffffffffffffffffffffffffffffffff1673ffffffffffffffffffffffffffffffffffffffff16815260200190815260200160002060009054906101000a90046fffffffffffffffffffffffffffffffff16600160008282829054906101000a90046fffffffffffffffffffffffffffffffff16610cbd9190612e81565b92506101000a8154816fffffffffffffffffffffffffffffffff02191690836fffffffffffffffffffffffffffffffff16021790555080600160008282829054906101000a90046fffffffffffffffffffffffffffffffff16610d209190612d6a565b92506101000a8154816fffffffffffffffffffffffffffffffff02191690836fffffffffffffffffffffffffffffffff16021790555080600260008573ffffffffffffffffffffffffffffffffffffffff1673ffffffffffffffffffffffffffffffffffffffff16815260200190815260200160002060006101000a8154816fffffffffffffffffffffffffffffffff02191690836fffffffffffffffffffffffffffffffff1602179055507fa029ef1828dc87b0638de58cbcf6f68b8062af3ad355212c34146263da65793a83826000600460009054906101000a900473ffffffffffffffffffffffffffffffffffffffff163042604051610e28969594939291906128ea565b60405180910390a17fb5f637e0dafe266804a3442b18aa2aa440ae853d52542940177467b723f369bf600160009054906101000a90046fffffffffffffffffffffffffffffffff166000600460009054906101000a900473ffffffffffffffffffffffffffffffffffffffff163042604051610ea8959493929190612c00565b60405180910390a1505050565b6060600460009054906101000a900473ffffffffffffffffffffffffffffffffffffffff1673ffffffffffffffffffffffffffffffffffffffff168873ffffffffffffffffffffffffffffffffffffffff1614610f47576040517f08c379a0000000000000000000000000000000000000000000000000000000008152600401610f3e90612b65565b60405180910390fd5b600660009054906101000a900473ffffffffffffffffffffffffffffffffffffffff1673ffffffffffffffffffffffffffffffffffffffff168773ffffffffffffffffffffffffffffffffffffffff1614610fd7576040517f08c379a0000000000000000000000000000000000000000000000000000000008152600401610fce90612b25565b60405180910390fd5b600067ffffffffffffffff811115611018577f4e487b7100000000000000000000000000000000000000000000000000000000600052604160045260246000fd5b6040519080825280601f01601f19166020018201604052801561104a5781602001600182028036833780820191505090505b509050979650505050505050565b600081565b60086020528060005260406000206000915054906101000a900460ff1681565b3373ffffffffffffffffffffffffffffffffffffffff16600360009054906101000a900473ffffffffffffffffffffffffffffffffffffffff1673ffffffffffffffffffffffffffffffffffffffff16146110d757600080fd5b6000600260008373ffffffffffffffffffffffffffffffffffffffff1673ffffffffffffffffffffffffffffffffffffffff16815260200190815260200160002060009054906101000a90046fffffffffffffffffffffffffffffffff166fffffffffffffffffffffffffffffffff161415611188576040517f08c379a000000000000000000000000000000000000000000000000000000000815260040161117f90612ba5565b60405180910390fd5b600260008273ffffffffffffffffffffffffffffffffffffffff1673ffffffffffffffffffffffffffffffffffffffff16815260200190815260200160002060009054906101000a90046fffffffffffffffffffffffffffffffff16600160008282829054906101000a90046fffffffffffffffffffffffffffffffff166112109190612e81565b92506101000a8154816fffffffffffffffffffffffffffffffff02191690836fffffffffffffffffffffffffffffffff1602179055506000600260008373ffffffffffffffffffffffffffffffffffffffff1673ffffffffffffffffffffffffffffffffffffffff16815260200190815260200160002060009054906101000a90046fffffffffffffffffffffffffffffffff1690506000600260008473ffffffffffffffffffffffffffffffffffffffff1673ffffffffffffffffffffffffffffffffffffffff16815260200190815260200160002060006101000a8154816fffffffffffffffffffffffffffffffff02191690836fffffffffffffffffffffffffffffffff160217905550611328826000611b75565b7fff7a2179ab2e3cf7f2082e7a16d8f1b3908ad03e1532f7352596a041f2e1cec182826000600460009054906101000a900473ffffffffffffffffffffffffffffffffffffffff163042604051611384969594939291906128ea565b60405180910390a17fb5f637e0dafe266804a3442b18aa2aa440ae853d52542940177467b723f369bf600160009054906101000a90046fffffffffffffffffffffffffffffffff166000600460009054906101000a900473ffffffffffffffffffffffffffffffffffffffff163042604051611404959493929190612c00565b60405180910390a15050565b606061141e8a84848b611878565b82828080601f016020809104026020016040519081016040528093929190818152602001838380828437600081840152601f19601f8201169050808301925050505050505090509998505050505050505050565b60005481565b6000600260008373ffffffffffffffffffffffffffffffffffffffff1673ffffffffffffffffffffffffffffffffffffffff16815260200190815260200160002060009054906101000a90046fffffffffffffffffffffffffffffffff169050919050565b6000600660009054906101000a900473ffffffffffffffffffffffffffffffffffffffff1673ffffffffffffffffffffffffffffffffffffffff1663899baaec600460009054906101000a900473ffffffffffffffffffffffffffffffffffffffff16306000866040518563ffffffff1660e01b815260040161156394939291906129f1565b604080518083038186803b15801561157a57600080fd5b505afa15801561158e573d6000803e3d6000fd5b505050506040513d601f19601f820116820180604052508101906115b29190612510565b509050600560009054906101000a900473ffffffffffffffffffffffffffffffffffffffff1673ffffffffffffffffffffffffffffffffffffffff166339255d5b600660009054906101000a900473ffffffffffffffffffffffffffffffffffffffff1663b96731c260e01b600460009054906101000a900473ffffffffffffffffffffffffffffffffffffffff16600086600067ffffffffffffffff811115611685577f4e487b7100000000000000000000000000000000000000000000000000000000600052604160045260246000fd5b6040519080825280601f01601f1916602001820160405280156116b75781602001600182028036833780820191505090505b506040516024016116cb9493929190612ab9565b604051602081830303815290604052907bffffffffffffffffffffffffffffffffffffffffffffffffffffffff19166020820180517bffffffffffffffffffffffffffffffffffffffffffffffffffffffff8381831617835250505050600067ffffffffffffffff811115611769577f4e487b7100000000000000000000000000000000000000000000000000000000600052604160045260246000fd5b6040519080825280601f01601f19166020018201604052801561179b5781602001600182028036833780820191505090505b506040518463ffffffff1660e01b81526004016117ba939291906129ac565b600060405180830381600087803b1580156117d457600080fd5b505af11580156117e8573d6000803e3d6000fd5b505050506040513d6000823e3d601f19601f8201168201806040525081019061181191906122ff565b507f97b954bd6ecece0e4ce83187862b22882a00c74b8c0c10f40a170e2fffecf2ba826000600460009054906101000a900473ffffffffffffffffffffffffffffffffffffffff16304260405161186c959493929190612c6e565b60405180910390a15050565b6000600560009054906101000a900473ffffffffffffffffffffffffffffffffffffffff1673ffffffffffffffffffffffffffffffffffffffff16633f6c923a85856040518363ffffffff1660e01b81526004016118d7929190612966565b60006040518083038186803b1580156118ef57600080fd5b505afa158015611903573d6000803e3d6000fd5b505050506040513d6000823e3d601f19601f8201168201806040525081019061192c91906124cf565b905063acf4a6c260e01b7bffffffffffffffffffffffffffffffffffffffffffffffffffffffff191681608001517bffffffffffffffffffffffffffffffffffffffffffffffffffffffff19161415611b6e576000806000806000600660009054906101000a900473ffffffffffffffffffffffffffffffffffffffff1673ffffffffffffffffffffffffffffffffffffffff1663cd7245c58b896040518363ffffffff1660e01b81526004016119e4929190612a36565b60a06040518083038186803b1580156119fc57600080fd5b505afa158015611a10573d6000803e3d6000fd5b505050506040513d601f19601f82011682018060405250810190611a349190612288565b80955081965082975083985084995050505050503073ffffffffffffffffffffffffffffffffffffffff168573ffffffffffffffffffffffffffffffffffffffff1614611ab6576040517f08c379a0000000000000000000000000000000000000000000000000000000008152600401611aad90612b85565b60405180910390fd5b600063ffffffff168463ffffffff1614611b05576040517f08c379a0000000000000000000000000000000000000000000000000000000008152600401611afc90612b85565b60405180910390fd5b8215611b6857600160086000886060015173ffffffffffffffffffffffffffffffffffffffff1673ffffffffffffffffffffffffffffffffffffffff16815260200190815260200160002060006101000a81548160ff0219169083151502179055505b50505050505b5050505050565b600560009054906101000a900473ffffffffffffffffffffffffffffffffffffffff1673ffffffffffffffffffffffffffffffffffffffff166339255d5b600660009054906101000a900473ffffffffffffffffffffffffffffffffffffffff1663232d2b5860e01b600460009054906101000a900473ffffffffffffffffffffffffffffffffffffffff1660008787600067ffffffffffffffff811115611c46577f4e487b7100000000000000000000000000000000000000000000000000000000600052604160045260246000fd5b6040519080825280601f01601f191660200182016040528015611c785781602001600182028036833780820191505090505b50604051602401611c8d959493929190612a5f565b604051602081830303815290604052907bffffffffffffffffffffffffffffffffffffffffffffffffffffffff19166020820180517bffffffffffffffffffffffffffffffffffffffffffffffffffffffff8381831617835250505050600067ffffffffffffffff811115611d2b577f4e487b7100000000000000000000000000000000000000000000000000000000600052604160045260246000fd5b6040519080825280601f01601f191660200182016040528015611d5d5781602001600182028036833780820191505090505b506040518463ffffffff1660e01b8152600401611d7c939291906129ac565b600060405180830381600087803b158015611d9657600080fd5b505af1158015611daa573d6000803e3d6000fd5b505050506040513d6000823e3d601f19601f82011682018060405250810190611dd391906122ff565b505050565b6000816fffffffffffffffffffffffffffffffff16836fffffffffffffffffffffffffffffffff161115611e19578183611e129190612e81565b9050611e8d565b816fffffffffffffffffffffffffffffffff16836fffffffffffffffffffffffffffffffff161015611e58578282611e519190612e81565b9050611e8d565b816fffffffffffffffffffffffffffffffff16836fffffffffffffffffffffffffffffffff161415611e8c57829050611e8d565b5b92915050565b6000611ea6611ea184612d0d565b612cdc565b905082815260208101848484011115611ebe57600080fd5b611ec9848285612fdf565b509392505050565b600081359050611ee0816130b0565b92915050565b600081519050611ef5816130b0565b92915050565b600081519050611f0a816130c7565b92915050565b600081359050611f1f816130de565b92915050565b600081519050611f34816130f5565b92915050565b60008083601f840112611f4c57600080fd5b8235905067ffffffffffffffff811115611f6557600080fd5b602083019150836001820283011115611f7d57600080fd5b9250929050565b600082601f830112611f9557600080fd5b8151611fa5848260208601611e93565b91505092915050565b600081359050611fbd8161310c565b92915050565b600081519050611fd281613123565b92915050565b60006101408284031215611feb57600080fd5b611ff6610140612cdc565b905060006120068482850161214b565b600083015250602061201a8482850161214b565b602083015250604061202e84828501612121565b604083015250606061204284828501611ee6565b606083015250608061205684828501611f25565b60808301525060a082015167ffffffffffffffff81111561207657600080fd5b61208284828501611f84565b60a08301525060c061209684828501612121565b60c08301525060e06120aa84828501612121565b60e0830152506101006120bf84828501611fc3565b610100830152506101206120d584828501611ee6565b6101208301525092915050565b6000813590506120f18161313a565b92915050565b6000815190506121068161313a565b92915050565b60008135905061211b81613151565b92915050565b60008151905061213081613151565b92915050565b60008151905061214581613168565b92915050565b60008151905061215a8161317f565b92915050565b60006020828403121561217257600080fd5b600061218084828501611ed1565b91505092915050565b60008060008060008060008060c0898b0312156121a557600080fd5b60006121b38b828c01611ed1565b98505060206121c48b828c01611ed1565b97505060406121d58b828c01611ed1565b96505060606121e68b828c0161210c565b955050608089013567ffffffffffffffff81111561220357600080fd5b61220f8b828c01611f3a565b945094505060a089013567ffffffffffffffff81111561222e57600080fd5b61223a8b828c01611f3a565b92509250509295985092959890939650565b6000806040838503121561225f57600080fd5b600061226d85828601611ed1565b925050602061227e858286016120e2565b9150509250929050565b600080600080600060a086880312156122a057600080fd5b60006122ae88828901611ee6565b95505060206122bf88828901612136565b94505060406122d088828901611efb565b93505060606122e1888289016120f7565b92505060806122f288828901612121565b9150509295509295909350565b60006020828403121561231157600080fd5b600082015167ffffffffffffffff81111561232b57600080fd5b61233784828501611f84565b91505092915050565b600080600080600080600060a0888a03121561235b57600080fd5b60006123698a828b01611fae565b975050602061237a8a828b01611ed1565b965050604061238b8a828b01611f10565b955050606088013567ffffffffffffffff8111156123a857600080fd5b6123b48a828b01611f3a565b9450945050608088013567ffffffffffffffff8111156123d357600080fd5b6123df8a828b01611f3a565b925092505092959891949750929550565b600080600080600080600080600060c08a8c03121561240e57600080fd5b600061241c8c828d01611fae565b995050602061242d8c828d01611ed1565b985050604061243e8c828d01611f10565b97505060608a013567ffffffffffffffff81111561245b57600080fd5b6124678c828d01611f3a565b965096505060808a013567ffffffffffffffff81111561248657600080fd5b6124928c828d01611f3a565b945094505060a08a013567ffffffffffffffff8111156124b157600080fd5b6124bd8c828d01611f3a565b92509250509295985092959850929598565b6000602082840312156124e157600080fd5b600082015167ffffffffffffffff8111156124fb57600080fd5b61250784828501611fd8565b91505092915050565b6000806040838503121561252357600080fd5b600061253185828601612121565b9250506020612542858286016120f7565b9150509250929050565b61255581612eb5565b82525050565b61256481612ec7565b82525050565b61257381612ed3565b82525050565b60006125858385612d48565b9350612592838584612fd0565b61259b8361309f565b840190509392505050565b60006125b182612d3d565b6125bb8185612d48565b93506125cb818560208601612fdf565b6125d48161309f565b840191505092915050565b6125e881612f88565b82525050565b6125f781612fac565b82525050565b600061260a603383612d59565b91507f556e737570706f727465642063616c6c6261636b202d20204265666f7265204160008301527f677265656d656e74205465726d696e61746564000000000000000000000000006020830152604082019050919050565b6000612670601a83612d59565b91507f4452543a20556e737570706f727465642061677265656d656e740000000000006000830152602082019050919050565b60006126b0600583612d59565b91507f664441497a0000000000000000000000000000000000000000000000000000006000830152602082019050919050565b60006126f0601383612d59565b91507f5573657220616c726561647920657869737473000000000000000000000000006000830152602082019050919050565b6000612730601b83612d59565b91507f4452543a20556e737570706f72746564206361736820746f6b656e00000000006000830152602082019050919050565b6000612770601783612d59565b91507f4452543a207075626c6973686572206d69736d617463680000000000000000006000830152602082019050919050565b60006127b0601283612d59565b91507f5573657220646f65736e277420657869737400000000000000000000000000006000830152602082019050919050565b60006127f0603183612d59565b91507f556e737570706f727465642063616c6c6261636b202d2041667465722041677260008301527f65656d656e74205465726d696e617465640000000000000000000000000000006020830152604082019050919050565b61285281612f25565b82525050565b61286181612f61565b82525050565b61287081612f6b565b82525050565b600060e08201905061288b600083018961254c565b818103602083015261289c816126a3565b90506128ab6040830188612858565b6128b86060830187612867565b6128c5608083018661254c565b6128d260a083018561254c565b6128df60c0830184612858565b979650505050505050565b600060c0820190506128ff600083018961254c565b61290c6020830188612849565b6129196040830187612867565b612926606083018661254c565b612933608083018561254c565b61294060a0830184612858565b979650505050505050565b6000602082019050612960600083018461255b565b92915050565b60006020820190508181036000830152612981818486612579565b90509392505050565b600060208201905081810360008301526129a481846125a6565b905092915050565b60006060820190506129c160008301866125df565b81810360208301526129d381856125a6565b905081810360408301526129e781846125a6565b9050949350505050565b6000608082019050612a0660008301876125ee565b612a13602083018661254c565b612a206040830185612867565b612a2d6060830184612858565b95945050505050565b6000604082019050612a4b60008301856125ee565b612a58602083018461256a565b9392505050565b600060a082019050612a7460008301886125ee565b612a816020830187612867565b612a8e604083018661254c565b612a9b6060830185612849565b8181036080830152612aad81846125a6565b90509695505050505050565b6000608082019050612ace60008301876125ee565b612adb6020830186612867565b612ae86040830185612858565b8181036060830152612afa81846125a6565b905095945050505050565b60006020820190508181036000830152612b1e816125fd565b9050919050565b60006020820190508181036000830152612b3e81612663565b9050919050565b60006020820190508181036000830152612b5e816126e3565b9050919050565b60006020820190508181036000830152612b7e81612723565b9050919050565b60006020820190508181036000830152612b9e81612763565b9050919050565b60006020820190508181036000830152612bbe816127a3565b9050919050565b60006020820190508181036000830152612bde816127e3565b9050919050565b6000602082019050612bfa6000830184612849565b92915050565b600060a082019050612c156000830188612849565b612c226020830187612867565b612c2f604083018661254c565b612c3c606083018561254c565b612c496080830184612858565b9695505050505050565b6000602082019050612c686000830184612858565b92915050565b600060a082019050612c836000830188612858565b612c906020830187612867565b612c9d604083018661254c565b612caa606083018561254c565b612cb76080830184612858565b9695505050505050565b6000602082019050612cd66000830184612867565b92915050565b6000604051905081810181811067ffffffffffffffff82111715612d0357612d02613070565b5b8060405250919050565b600067ffffffffffffffff821115612d2857612d27613070565b5b601f19601f8301169050602081019050919050565b600081519050919050565b600082825260208201905092915050565b600082825260208201905092915050565b6000612d7582612f25565b9150612d8083612f25565b9250826fffffffffffffffffffffffffffffffff03821115612da557612da4613012565b5b828201905092915050565b6000612dbb82612f61565b9150612dc683612f61565b9250827fffffffffffffffffffffffffffffffffffffffffffffffffffffffffffffffff03821115612dfb57612dfa613012565b5b828201905092915050565b6000612e1182612f25565b9150612e1c83612f25565b925082612e2c57612e2b613041565b5b828204905092915050565b6000612e4282612f25565b9150612e4d83612f25565b9250816fffffffffffffffffffffffffffffffff0483118215151615612e7657612e75613012565b5b828202905092915050565b6000612e8c82612f25565b9150612e9783612f25565b925082821015612eaa57612ea9613012565b5b828203905092915050565b6000612ec082612f41565b9050919050565b60008115159050919050565b6000819050919050565b60007fffffffff0000000000000000000000000000000000000000000000000000000082169050919050565b6000612f1482612eb5565b9050919050565b6000819050919050565b60006fffffffffffffffffffffffffffffffff82169050919050565b600073ffffffffffffffffffffffffffffffffffffffff82169050919050565b6000819050919050565b600063ffffffff82169050919050565b600060ff82169050919050565b6000612f9382612f9a565b9050919050565b6000612fa582612f41565b9050919050565b6000612fb782612fbe565b9050919050565b6000612fc982612f41565b9050919050565b82818337600083830152505050565b60005b83811015612ffd578082015181840152602081019050612fe2565b8381111561300c576000848401525b50505050565b7f4e487b7100000000000000000000000000000000000000000000000000000000600052601160045260246000fd5b7f4e487b7100000000000000000000000000000000000000000000000000000000600052601260045260246000fd5b7f4e487b7100000000000000000000000000000000000000000000000000000000600052604160045260246000fd5b6000601f19601f8301169050919050565b6130b981612eb5565b81146130c457600080fd5b50565b6130d081612ec7565b81146130db57600080fd5b50565b6130e781612ed3565b81146130f257600080fd5b50565b6130fe81612edd565b811461310957600080fd5b50565b61311581612f09565b811461312057600080fd5b50565b61312c81612f1b565b811461313757600080fd5b50565b61314381612f25565b811461314e57600080fd5b50565b61315a81612f61565b811461316557600080fd5b50565b61317181612f6b565b811461317c57600080fd5b50565b61318881612f7b565b811461319357600080fd5b5056fea2646970667358221220a052b0f53893514856ed43c06514528de30bbf4de1b22dfe95ea916a1aaf051c64736f6c63430008000033",
  "immutableReferences": {},
  "source": "pragma solidity ^0.8.0;\npragma experimental ABIEncoderV2;\n\nimport {\n    ISuperfluid,\n    ISuperToken,\n    SuperAppBase,\n    SuperAppDefinitions\n} from \"@superfluid-finance/ethereum-contracts/contracts/apps/SuperAppBase.sol\";\n//from \"https://github.com/superfluid-finance/protocol-monorepo/blob/remix-support/packages/ethereum-contracts/contracts/apps/SuperAppBase.sol\";\nimport {\n    IInstantDistributionAgreementV1\n} from \"@superfluid-finance/ethereum-contracts/contracts/interfaces/agreements/IInstantDistributionAgreementV1.sol\";\n//from \"https://github.com/superfluid-finance/protocol-monorepo/blob/remix-support/packages/ethereum-contracts/contracts/interfaces/agreements/IInstantDistributionAgreementV1.sol\";\n\nimport \"@openzeppelin/contracts/token/ERC777/IERC777.sol\";\nimport \"@openzeppelin/contracts/utils/introspection/IERC1820Registry.sol\";\nimport \"@openzeppelin/contracts/token/ERC777/IERC777Recipient.sol\";\n\ncontract ERC777Distributor is IERC777Recipient,SuperAppBase {\n\n    uint256 public totalDonations=0;\n    uint128 public totalShareUnits=0;\n    mapping (address=>uint128) shareMapping;\n\n    uint32 public constant INDEX_ID = 0;\n\n    address owner;\n\n    ISuperToken private _cashToken;\n    ISuperfluid private _host;\n    IInstantDistributionAgreementV1 private _ida;\n\n    IERC1820Registry private _erc1820 = IERC1820Registry(0x1820a4B7618BdE71Dce8cdc73aAB6C95905faD24);\n    bytes32 constant private TOKENS_RECIPIENT_INTERFACE_HASH = keccak256(\"ERC777TokensRecipient\");\n\n    // use callbacks to track approved subscriptions\n    mapping (address => bool) public isSubscribing;\n\n    //Events\n    event DonationReceived(address from, string token, uint256 amount,uint32 index,address tokenAddress,address publisher,uint timeStamp);\n    event UserAdded(address userAddress,uint128 shares,uint32 index,address tokenAddress,address publisher,uint timeStamp);\n    event UserRemoved(address userAddress,uint128 shares,uint32 index,address tokenAddress,address publisher,uint timeStamp);\n    event UserModified(address userAddress,uint128 shares,uint32 index,address tokenAddress,address publisher,uint timeStamp);\n    event Distribution(uint256 amountDistributed,uint32 index,address tokenAddress,address publisher,uint timeStamp);\n    event TotalShares(uint128 totalShares,uint32 index,address tokenAddress,address publisher,uint timeStamp);\n\n    constructor (\n        ISuperToken cashToken,\n        ISuperfluid host,\n        IInstantDistributionAgreementV1 ida) public {\n        owner = msg.sender;\n        _erc1820.setInterfaceImplementer(address(this), TOKENS_RECIPIENT_INTERFACE_HASH, address(this));\n\n        _cashToken = cashToken;\n        _host = host;\n        _ida = ida;\n\n        uint256 configWord =\n            SuperAppDefinitions.APP_LEVEL_FINAL |\n            SuperAppDefinitions.BEFORE_AGREEMENT_TERMINATED_NOOP |\n            SuperAppDefinitions.AFTER_AGREEMENT_TERMINATED_NOOP;\n\n        _host.registerApp(configWord);\n\n        _host.callAgreement(\n            _ida,\n            abi.encodeWithSelector(\n                _ida.createIndex.selector,\n                _cashToken,\n                INDEX_ID,\n                new bytes(0) // placeholder ctx\n            ),\n            new bytes(0) // user data\n        );\n    }\n\n    modifier onlyOwner(){\n        require(owner==msg.sender);\n        _;\n    }\n\n    function sharesOf(address user) view external returns(uint128){\n        return shareMapping[user];\n    }\n\n    function beforeAgreementCreated(\n        ISuperToken superToken,\n        address agreementClass,\n        bytes32 /* agreementId */,\n        bytes calldata /*agreementData*/,\n        bytes calldata /*ctx*/\n    )\n        external view override\n        returns (bytes memory data)\n    {\n        require(superToken == _cashToken, \"DRT: Unsupported cash token\");\n        require(agreementClass == address(_ida), \"DRT: Unsupported agreement\");\n        return new bytes(0);\n    }\n\n    function afterAgreementCreated(\n        ISuperToken superToken,\n        address /* agreementClass */,\n        bytes32 agreementId,\n        bytes calldata /*agreementData*/,\n        bytes calldata /*cbdata*/,\n        bytes calldata ctx\n    )\n        external override\n        returns(bytes memory newCtx)\n    {\n        _checkSubscription(superToken, ctx, agreementId);\n        newCtx = ctx;\n    }\n\n    function beforeAgreementUpdated(\n        ISuperToken superToken,\n        address agreementClass,\n        bytes32 /* agreementId */,\n        bytes calldata /*agreementData*/,\n        bytes calldata /*ctx*/\n    )\n        external view override\n        returns (bytes memory data)\n    {\n        require(superToken == _cashToken, \"DRT: Unsupported cash token\");\n        require(agreementClass == address(_ida), \"DRT: Unsupported agreement\");\n        return new bytes(0);\n    }\n\n    function afterAgreementUpdated(\n        ISuperToken superToken,\n        address /* agreementClass */,\n        bytes32 agreementId,\n        bytes calldata /*agreementData*/,\n        bytes calldata /*cbdata*/,\n        bytes calldata ctx\n    )\n        external override\n        returns(bytes memory newCtx)\n    {\n        _checkSubscription(superToken, ctx, agreementId);\n        newCtx = ctx;\n    }\n\n    function _checkSubscription(\n        ISuperToken superToken,\n        bytes calldata ctx,\n        bytes32 agreementId\n    )\n        private\n    {\n        ISuperfluid.Context memory context = _host.decodeCtx(ctx);\n        // only interested in the subscription approval callbacks\n        if (context.agreementSelector == IInstantDistributionAgreementV1.approveSubscription.selector) {\n            address publisher;\n            uint32 indexId;\n            bool approved;\n            uint128 units;\n            uint256 pendingDistribution;\n            (publisher, indexId, approved, units, pendingDistribution) =\n                _ida.getSubscriptionByID(superToken, agreementId);\n\n            // sanity checks for testing purpose\n            require(publisher == address(this), \"DRT: publisher mismatch\");\n            require(indexId == INDEX_ID, \"DRT: publisher mismatch\");\n\n            if (approved) {\n                isSubscribing[context.msgSender /* subscriber */] = true;\n            }\n        }\n    }\n\n    function modifySub(address user,uint128 shareUnits) internal{\n        _host.callAgreement(\n            _ida,\n            abi.encodeWithSelector(\n                _ida.updateSubscription.selector,\n                _cashToken,\n                INDEX_ID,\n                user,\n                shareUnits,\n                new bytes(0) // placeholder ctx\n            ),\n            new bytes(0) // user data\n        );\n        \n    }\n\n    function abs(uint128 x,uint128 y) private pure returns (uint128) {\n        if(x>y)\n         return x-y;\n        if(x<y)\n         return y-x;\n        if(x==y)\n         return x;\n    }\n\n    function addUser(address newUser,uint128 sharePercentage) external onlyOwner{\n        require(shareMapping[newUser]==0,\"User already exists\");\n        uint128 shareUnits = totalShareUnits==0?sharePercentage: (sharePercentage * totalShareUnits)/(100- sharePercentage);\n        modifySub(newUser, shareUnits);\n        totalShareUnits += shareUnits;\n        shareMapping[newUser] = shareUnits;\n        emit UserAdded(newUser,shareUnits,INDEX_ID,address(_cashToken),address(this),block.timestamp);\n        emit TotalShares(totalShareUnits,INDEX_ID,address(_cashToken),address(this),block.timestamp);\n    }\n\n    function modifyUser(address existingUser,uint128 sharePercentage) external onlyOwner{\n        require(shareMapping[existingUser]!=0,\"User doesn't exist\");\n        uint128 shareUnits = totalShareUnits==shareMapping[existingUser]?sharePercentage: (sharePercentage * abs(totalShareUnits,shareMapping[existingUser]))/(100- sharePercentage);\n        modifySub(existingUser, shareUnits);\n        totalShareUnits -= shareMapping[existingUser];//Need to handle case where shareMapping is larger than total share units\n        totalShareUnits += shareUnits ;\n        shareMapping[existingUser] = shareUnits;\n        emit UserModified(existingUser,shareUnits,INDEX_ID,address(_cashToken),address(this),block.timestamp);\n        emit TotalShares(totalShareUnits,INDEX_ID,address(_cashToken),address(this),block.timestamp);\n    }\n\n    function removeUser(address existingUser) external onlyOwner{\n        require(shareMapping[existingUser]!=0,\"User doesn't exist\");\n        totalShareUnits -= shareMapping[existingUser];\n        uint128 temp = shareMapping[existingUser];\n        shareMapping[existingUser] = 0;\n        modifySub(existingUser, 0);\n        emit UserRemoved(existingUser,temp,INDEX_ID,address(_cashToken),address(this),block.timestamp);\n        emit TotalShares(totalShareUnits,INDEX_ID,address(_cashToken),address(this),block.timestamp);\n    }\n\n    /// @dev Distribute `amount` of cash among all token holders\n    function distribute(uint256 cashAmount) internal {\n        (uint256 actualCashAmount,) = _ida.calculateDistribution(\n            _cashToken,\n            address(this), INDEX_ID,\n            cashAmount);\n\n        _host.callAgreement(\n            _ida,\n            abi.encodeWithSelector(\n                _ida.distribute.selector,\n                _cashToken,\n                INDEX_ID,\n                actualCashAmount,\n                new bytes(0) // placeholder ctx\n            ),\n            new bytes(0) // user data\n        );\n        emit Distribution(cashAmount,INDEX_ID,address(_cashToken),address(this),block.timestamp);\n    }\n\n    function tokensReceived(\n        address operator,\n        address from,\n        address to,\n        uint256 amount,\n        bytes calldata userData,\n        bytes calldata operatorData\n    ) external override {\n        //require(msg.sender == address(_token), \"Simple777Recipient: Invalid token\");\n\n        // do stuff\n        totalDonations += amount;\n        distribute(amount);\n        emit DonationReceived( from, \"fDAIz\", amount,INDEX_ID,address(_cashToken),address(this),block.timestamp);\n    }\n}\n",
  "sourcePath": "/Users/praffulsahu/Documents/Crypto/erc777distributor/contracts/ERC777Distributor.sol",
  "compiler": {
    "name": "solc",
    "version": "0.8.0+commit.c7dfd78e.Emscripten.clang"
  },
  "schemaVersion": "3.3.3",
  "updatedAt": "2021-06-23T16:42:16.606Z",
  "networkType": "ethereum",
  "devdoc": {
    "kind": "dev",
    "methods": {
      "tokensReceived(address,address,address,uint256,bytes,bytes)": {
        "details": "Called by an {IERC777} token contract whenever tokens are being moved or created into a registered account (`to`). The type of operation is conveyed by `from` being the zero address or not. This call occurs _after_ the token contract's state is updated, so {IERC777-balanceOf}, etc., can be used to query the post-operation state. This function may revert to prevent the operation from being executed."
      }
    },
    "version": 1
  },
  "userdoc": {
    "kind": "user",
    "methods": {},
    "version": 1
  }
}