{
  "contractName": "TestERC777",
  "abi": [
    {
      "inputs": [],
      "stateMutability": "nonpayable",
      "type": "constructor"
    },
    {
      "anonymous": false,
      "inputs": [
        {
          "indexed": false,
          "internalType": "address",
          "name": "operator",
          "type": "address"
        },
        {
          "indexed": false,
          "internalType": "address",
          "name": "from",
          "type": "address"
        },
        {
          "indexed": false,
          "internalType": "address",
          "name": "to",
          "type": "address"
        },
        {
          "indexed": false,
          "internalType": "uint256",
          "name": "amount",
          "type": "uint256"
        }
      ],
      "name": "DoneStuff",
      "type": "event"
    },
    {
      "inputs": [
        {
          "internalType": "address",
          "name": "operator",
          "type": "address"
        },
        {
          "internalType": "address",
          "name": "from",
          "type": "address"
        },
        {
          "internalType": "address",
          "name": "to",
          "type": "address"
        },
        {
          "internalType": "uint256",
          "name": "amount",
          "type": "uint256"
        },
        {
          "internalType": "bytes",
          "name": "userData",
          "type": "bytes"
        },
        {
          "internalType": "bytes",
          "name": "operatorData",
          "type": "bytes"
        }
      ],
      "name": "tokensReceived",
      "outputs": [],
      "stateMutability": "nonpayable",
      "type": "function"
    }
  ],
  "bytecode": "0x6080604052731820a4b7618bde71dce8cdc73aab6c95905fad246000806101000a81548173ffffffffffffffffffffffffffffffffffffffff021916908373ffffffffffffffffffffffffffffffffffffffff16021790555034801561006457600080fd5b5060008054906101000a900473ffffffffffffffffffffffffffffffffffffffff1673ffffffffffffffffffffffffffffffffffffffff166329965a1d307fb281fc8c12954d22544db45de3159a39272895b169a852b314f9cc762e44c53b306040518463ffffffff1660e01b81526004016100e293929190610137565b600060405180830381600087803b1580156100fc57600080fd5b505af1158015610110573d6000803e3d6000fd5b505050506101aa565b6101228161016e565b82525050565b61013181610180565b82525050565b600060608201905061014c6000830186610119565b6101596020830185610128565b6101666040830184610119565b949350505050565b60006101798261018a565b9050919050565b6000819050919050565b600073ffffffffffffffffffffffffffffffffffffffff82169050919050565b6102cc806101b96000396000f3fe608060405234801561001057600080fd5b506004361061002a5760003560e01c806223de291461002f575b600080fd5b61004960048036038101906100449190610106565b61004b565b005b7f692074aa3c69e9b21a1c59c07c6bb143f8bb75cd89db84c8d49aa572fb110db38888888860405161008094939291906101e7565b60405180910390a15050505050505050565b6000813590506100a181610268565b92915050565b60008083601f8401126100b957600080fd5b8235905067ffffffffffffffff8111156100d257600080fd5b6020830191508360018202830111156100ea57600080fd5b9250929050565b6000813590506101008161027f565b92915050565b60008060008060008060008060c0898b03121561012257600080fd5b60006101308b828c01610092565b98505060206101418b828c01610092565b97505060406101528b828c01610092565b96505060606101638b828c016100f1565b955050608089013567ffffffffffffffff81111561018057600080fd5b61018c8b828c016100a7565b945094505060a089013567ffffffffffffffff8111156101ab57600080fd5b6101b78b828c016100a7565b92509250509295985092959890939650565b6101d28161022c565b82525050565b6101e18161025e565b82525050565b60006080820190506101fc60008301876101c9565b61020960208301866101c9565b61021660408301856101c9565b61022360608301846101d8565b95945050505050565b60006102378261023e565b9050919050565b600073ffffffffffffffffffffffffffffffffffffffff82169050919050565b6000819050919050565b6102718161022c565b811461027c57600080fd5b50565b6102888161025e565b811461029357600080fd5b5056fea2646970667358221220016158714c7e648c6722a9e5d0361cce2a9c9c6bb7a0b01ed35e790661d3abce64736f6c63430008000033",
  "immutableReferences": {},
  "source": "pragma solidity ^0.8.0;\n\nimport \"@openzeppelin/contracts/token/ERC777/IERC777.sol\";\nimport \"@openzeppelin/contracts/utils/introspection/IERC1820Registry.sol\";\nimport \"@openzeppelin/contracts/token/ERC777/IERC777Recipient.sol\";\n\n\ncontract TestERC777 is IERC777Recipient {\n    IERC1820Registry private _erc1820 = IERC1820Registry(0x1820a4B7618BdE71Dce8cdc73aAB6C95905faD24);\n    bytes32 constant private TOKENS_RECIPIENT_INTERFACE_HASH = keccak256(\"ERC777TokensRecipient\");\n\n    event DoneStuff(address operator, address from, address to, uint256 amount);\n\n    constructor () public {\n        _erc1820.setInterfaceImplementer(address(this), TOKENS_RECIPIENT_INTERFACE_HASH, address(this));\n    }\n    \n    function tokensReceived(\n        address operator,\n        address from,\n        address to,\n        uint256 amount,\n        bytes calldata userData,\n        bytes calldata operatorData\n    ) external override {\n        //require(msg.sender == address(_token), \"Simple777Recipient: Invalid token\");\n\n        // do stuff\n        emit DoneStuff(operator, from, to, amount);\n    }\n}",
  "sourcePath": "/Users/praffulsahu/Documents/Crypto/erc777distributor/contracts/TestERC777.sol",
  "compiler": {
    "name": "solc",
    "version": "0.8.0+commit.c7dfd78e.Emscripten.clang"
  },
  "schemaVersion": "3.3.3",
  "updatedAt": "2021-06-25T14:37:46.274Z",
  "devdoc": {
    "kind": "dev",
    "methods": {
      "tokensReceived(address,address,address,uint256,bytes,bytes)": {
        "details": "Called by an {IERC777} token contract whenever tokens are being moved or created into a registered account (`to`). The type of operation is conveyed by `from` being the zero address or not. This call occurs _after_ the token contract's state is updated, so {IERC777-balanceOf}, etc., can be used to query the post-operation state. This function may revert to prevent the operation from being executed."
      }
    },
    "version": 1
  },
  "userdoc": {
    "kind": "user",
    "methods": {},
    "version": 1
  }
}